:100000000C94144F0C94454F0C94454F0C94454F51
:100010000C94454F0D94AE050C94454F0C94D37140
:100020000D943C050C94454F0C94454F0C94454F52
:100030000D940F2E0C94454F0C94126C0C94C86BBD
:100040000C94454F0C945C720C94454F0C94454FA6
:100050000C94454F0C94454F0C94454F0C941BF257
:100060000C94454F0D94B5360C94454F0C94454F68
:100070000C94454F0C94454F0C94454F0C94454FB0
:100080000C94454F0C94454F0C94454F0C94454FA0
:100090000D9471360C94454F0C94454F0C94454F7C
:1000A0000C94454F0C94454F0C94D25F0C94454FE3
:1000B0000C94454F0C94B45F0C94454F0C94454FF1
:1000C0000C94454F0C94454F0C94454F0C942B5F6A
:1000D0000C94454F0C94454F0C94454F0C94454F50
:1000E0000C94454F5F5345435F4C414E4700000021
:1000F0000000000000000000000000000000000000
:1001000000000000000000000000000000000000EF
:1001100000000000000000000000000000000000DF
:1001200000000000000000000000000000000000CF
:1030E00000000000FFFF526573756D696E67207008
:1030F00072696E7400FFFF50494E4441204865617B
:1031000074696E6700FFFF43616C69627261746984
:103110006F6E20646F6E6500FFFF43616C696272C1
:103120006174696E67205A00FFFF42656420646F16
:103130006E6500FFFF4265642048656174696E67D3
:1031400000FFFF48656174696E6720646F6E652ECD
:1031500000FFFF48656174696E6700FFFF4D313104
:1031600037204669727374206C61796572206361DF
:103170006C2E00FFFF5049442063616C2E2066696D
:103180006E697368656400FFFF5049442063616C99
:103190002E00FFFF5072696E742070617573656454
:1031A00000FFFF4D4D55206661696C7300FFFF4DB8
:1031B0004D55206C6F6164206661696C7300FFFF80
:1031C0004D4D5520706F776572206661696C730094
:1031D000FFFF546F74616C206661696C7572657372
:1031E00000FFFF4C617374207072696E7420666119
:1031F000696C7572657300FFFF506F7765722066AA
:1032000061696C7572657300FFFF46696C2E2072F0
:10321000756E6F75747300FFFF437261736800FF12
:10322000FF546F74616C00FFFF4C61737420707207
:10323000696E7400FFFF416D6269656E7400FFFF87
:10324000566F6C746167657300FFFF54656D706540
:103250007261747572657300FFFF42656C74207350
:10326000746174757300FFFF53656E736F7220692C
:103270006E666F00FFFF4578747275646572206931
:103280006E666F00FFFF58595A2063616C2E2064F0
:10329000657461696C7300FFFF756E6B6E6F776E9E
:1032A00000FFFF4D4D553220636F6E6E6563746590
:1032B0006400FFFF446174653A00FFFF746F20757E
:1032C0006E6C6F61642066696C616D656E7400FF81
:1032D000FF746F206C6F61642066696C616D656E50
:1032E0007400FFFF507265737320746865206B6E05
:1032F0006F6200FFFF50726568656174696E6720D8
:10330000746F2063757400FFFF50726568656174A7
:10331000696E6720746F20656A65637400FFFF50F3
:10332000726568656174696E6720746F20756E6C74
:103330006F616400FFFF50726568656174696E6754
:1033400020746F206C6F616400FFFF436F6F6C64CB
:103350006F776E00FFFF5072656865617420746856
:1033600065206E6F7A7A6C652100FFFF4552524FDF
:10337000523A00FFFF46696C616D656E7420657896
:1033800074727564696E672026207769746820639B
:103390006F727265637420636F6C6F723F00FFFF22
:1033A0004175746F6C6F6164696E672066696C61EA
:1033B0006D656E74206973206163746976652C2075
:1033C0006A75737420707265737320746865206BFE
:1033D0006E6F6220616E6420696E73657274206620
:1033E000696C616D656E742E2E2E00FFFF546F7434
:1033F000616C2066696C616D656E7400FFFF546FCF
:1034000074616C207072696E742074696D6500FF60
:10341000FF46696C616D656E74207573656400FFAD
:10342000FF5072696E742074696D6500FFFF59204A
:1034300064697374616E63652066726F6D206D6977
:103440006E00FFFF4C65667400FFFF526967687489
:1034500000FFFF4D6561737572656420736B65775E
:1034600000FFFF536C6967687420736B657700FF1A
:10347000FF53657665726520736B657700FFFF5BB0
:10348000303B305D20706F696E74206F66667365C7
:103490007400FFFF41646A757374696E67205A3A5D
:1034A00000FFFF526561722073696465205BE46D03
:1034B0005D00FFFF46726F6E7420736964655BE4A4
:1034C0006D5D00FFFF526967687420736964655B16
:1034D000E46D5D00FFFF4C656674207369646520D0
:1034E0005BE46D5D00FFFF5365742074656D70656E
:1034F0007261747572653A00FFFF50494E44412075
:1035000063616C6962726174696F6E206661696C77
:10351000656400FFFF50494E44412063616C69625D
:10352000726174696F6E2069732066696E69736871
:10353000656420616E64206163746976652E20493C
:10354000742063616E2062652064697361626C65DA
:103550006420696E206D656E752053657474696EA4
:1035600067732D3E50494E44412063616C2E00FF2D
:10357000FF46696C2E2073656E736F7200FFFF4506
:103580007874727564657200FFFF4D6F7665205A1E
:1035900000FFFF4D6F7665205900FFFF4D6F766588
:1035A000205800FFFF43726173682064657465638F
:1035B00074696F6E2063616E0A6265207475726E45
:1035C0006564206F6E206F6E6C7920696E0A4E6F95
:1035D000726D616C206D6F646500FFFF5741524E44
:1035E000494E473A0A4372617368206465746563A3
:1035F00074696F6E0A64697361626C656420696ED8
:103600000A537465616C7468206D6F646500FFFF18
:103610004175746F6C6F6164696E672066696C6177
:103620006D656E7420617661696C61626C65206F96
:103630006E6C79207768656E2066696C616D656E69
:10364000742073656E736F72206973207475726E67
:103650006564206F6E2E2E2E00FFFF4552524F5292
:103660003A2046696C616D656E742073656E736F88
:1036700072206973206E6F7420726573706F6E6450
:10368000696E672C20706C65617365206368656383
:103690006B20636F6E6E656374696F6E2E00FFFF43
:1036A0004D6F6465206368616E676520696E207088
:1036B000726F67726573732E2E2E00FFFF436F705B
:1036C000792073656C6563746564206C616E6775E1
:1036D0006167653F00FFFF53656C656374206C6133
:1036E0006E677561676500FFFF436F6D6D756E698D
:1036F0007479206D61646500FFFF5368656574200F
:10370000252E37730A5A206F66667365743A202532
:103710002B312E33666D6D0A2563436F6E74696EAF
:1037200075650A2563526573657400FFFF506C650B
:10373000617365206C6F61642066696C616D656E94
:10374000742066697273742E00FFFF53656C6563A5
:10375000742066696C616D656E743A00FFFF46699E
:103760006C616D656E7400FFFF3E43616E63656C56
:1037700000FFFF52756E6E696E672057697A61723D
:10378000642077696C6C2064656C65746520637572
:103790007272656E742063616C6962726174696FC4
:1037A0006E20726573756C747320616E642073741F
:1037B0006172742066726F6D20746865206265673F
:1037C000696E6E696E672E20436F6E74696E7565E3
:1037D0003F00FFFF50726568656174696E67206E17
:1037E0006F7A7A6C652E20506C6561736520776105
:1037F00069742E00FFFF4C6F6164696E6720666913
:103800006C616D656E7400FFFF506C6561736520BF
:10381000696E736572742066696C616D656E742083
:10382000696E746F2074686520657874727564655C
:10383000722C207468656E207072657373207468D2
:1038400065206B6E6F6220746F206C6F61642069FD
:10385000742E00FFFF506C6561736520696E73659F
:1038600072742066696C616D656E7420696E746F28
:1038700020746865206669727374207475626520AF
:103880006F6620746865204D4D552C207468656EF8
:1038900020707265737320746865206B6E6F622090
:1038A000746F206C6F61642069742E00FFFF546890
:1038B00065207072696E7465722077696C6C207314
:1038C00074617274207072696E74696E6720612011
:1038D0007A69672D7A6167206C696E652E20526F58
:1038E0007461746520746865206B6E6F6220756EFC
:1038F00074696C20796F75207265616368207468E3
:1039000065206F7074696D616C20686569676874A3
:103910002E20436865636B2074686520706963744A
:103920007572657320696E207468652068616E64C5
:10393000626F6F6B202843616C6962726174696F9A
:103940006E2063686170746572292E00FFFF5365F5
:103950006C6563742074656D7065726174757265F1
:10396000207768696368206D617463686573207986
:103970006F7572206D6174657269616C2E00FFFF56
:1039800053656C65637420612066696C616D656E5A
:103990007420666F722074686520466972737420A3
:1039A0004C617965722043616C6962726174696F00
:1039B0006E20616E642073656C6563742069742089
:1039C000696E20746865206F6E2D73637265656E15
:1039D000206D656E752E00FFFF4E6F7720492077B2
:1039E000696C6C2063616C696272617465206469E2
:1039F0007374616E6365206265747765656E2074AB
:103A00006970206F6620746865206E6F7A7A6C65C5
:103A100020616E64206865617462656420737572EC
:103A2000666163652E00FFFF596F752063616E202C
:103A3000616C7761797320726573756D6520746848
:103A4000652057697A6172642066726F6D204361E8
:103A50006C6962726174696F6E202D3E2057697ABD
:103A60006172642E00FFFF506C65617365206368AE
:103A700065636B206F75722068616E64626F6F6B37
:103A800020616E6420666978207468652070726FAA
:103A9000626C656D2E205468656E20726573756D5D
:103AA00065207468652057697A61726420627920A4
:103AB0007265626F6F74696E6720746865207072DA
:103AC000696E7465722E00FFFF416C6C2069732073
:103AD000646F6E652E204861707079207072696E17
:103AE00074696E672100FFFF496620796F75206851
:103AF000617665206164646974696F6E616C2073BE
:103B00007465656C207368656574732C2063616CE3
:103B1000696272617465207468656972207072658B
:103B20007365747320696E2053657474696E67736E
:103B3000202D204857205365747570202D20537414
:103B400065656C207368656574732E00FFFF506CAB
:103B50006561736520636C65616E20686561746280
:103B6000656420616E64207468656E207072657390
:103B70007320746865206B6E6F622E00FFFF446FC8
:103B800020796F752077616E7420746F2072657074
:103B9000656174206C617374207374657020746F38
:103BA00020726561646A7573742064697374616EF0
:103BB0006365206265747765656E206E6F7A7A6CD6
:103BC0006520616E6420686561746265643F00FF12
:103BD000FF53656C656374206E6F7A7A6C65207034
:103BE0007265686561742074656D70657261747565
:103BF0007265207768696368206D617463686573B6
:103C000020796F7572206D6174657269616C2E0028
:103C1000FFFF49732066696C616D656E74206C6F7F
:103C2000616465643F00FFFF4E6F7720492077692C
:103C30006C6C2070726568656174206E6F7A7A6C46
:103C40006520666F7220504C412E00FFFF4920779F
:103C5000696C6C2072756E207A2063616C69627287
:103C60006174696F6E206E6F772E00FFFF4E6F7765
:103C70002072656D6F766520746865207465737455
:103C8000207072696E742066726F6D207374656542
:103C90006C2073686565742E00FFFF506C6561735E
:103CA000652072656D6F7665207368697070696EE6
:103CB000672068656C706572732066697273742E14
:103CC00000FFFF492077696C6C2072756E2078794F
:103CD0007A2063616C6962726174696F6E206E6FC5
:103CE000772E2049742077696C6C2074616B652095
:103CF000617070726F782E203132206D696E732E74
:103D000000FFFF46697273742C20492077696C6C40
:103D10002072756E207468652073656C66746573B7
:103D20007420746F20636865636B206D6F737420FB
:103D3000636F6D6D6F6E20617373656D626C79205A
:103D400070726F626C656D732E00FFFF48692C20E6
:103D50004920616D20796F7572204F726967696EB5
:103D6000616C205072757361206933207072696EC6
:103D70007465722E20576F756C6420796F75206C96
:103D8000696B65206D6520746F20677569646520B7
:103D9000796F75207468726F756768207468652024
:103DA00073657475702070726F636573733F00FF85
:103DB000FF48692C204920616D20796F7572204F72
:103DC000726967696E616C20507275736120693326
:103DD000207072696E7465722E20492077696C6C50
:103DE00020677569646520796F75207468726F75D6
:103DF000676820612073686F7274207365747570D2
:103E00002070726F636573732C20696E2077686908
:103E1000636820746865205A2D617869732077691A
:103E20006C6C2062652063616C69627261746564A8
:103E30002E205468656E2C20796F752077696C6C24
:103E400020626520726561647920746F20707269E8
:103E50006E742E00FFFF452D636F72726563743AB6
:103E600000FFFF5A2D636F72726563743A00FFFFA3
:103E7000592D636F72726563743A00FFFF582D63AA
:103E80006F72726563743A00FFFF437574746572F4
:103E900000FFFF4D6F64656C00FFFF537472696330
:103EA0007400FFFF5761726E00FFFF436865636B2C
:103EB0007300FFFF4E6F7A7A6C6520642E00FFFF5F
:103EC0004E6F6E6500FFFF416C7068616265740043
:103ED000FFFF536F727400FFFF54696D6500FFFFB1
:103EE0005344206361726400FFFF53656C65637423
:103EF000206C616E677561676500FFFF5250692035
:103F0000706F727400FFFF4C696E2E20636F7272C7
:103F1000656374696F6E00FFFF48572053657475C1
:103F20007000FFFF462E206175746F6C6F61640036
:103F3000FFFF44697361626C65207374657070651E
:103F4000727300FFFF4D6F7665206178697300FF23
:103F5000FF54656D706572617475726500FFFF5086
:103F6000494E44412063616C2E00FFFF526573652A
:103F7000742058595A2063616C6962722E00FFFFE9
:103F80005049442063616C6962726174696F6E00AC
:103F9000FFFF426564206C6576656C20636F72720A
:103FA00065637400FFFF4D65736820426564204CB3
:103FB0006576656C696E6700FFFF43616C696272CC
:103FC000617465205A00FFFF43616C69627261741D
:103FD000652058595A00FFFF53656C667465737409
:103FE00000FFFF42656C74207465737400FFFF5717
:103FF000697A61726400FFFF4C6F616420616C6CD0
:1040000000FFFF506C656173652070756C6C206FEC
:1040100075742066696C616D656E7420696D6D657F
:1040200064696174656C7900FFFF556E6C6F616443
:10403000696E672066696C616D2E00FFFF526573C3
:10404000657400FFFF52656E616D6500FFFF466994
:10405000727374206C617965722063616C2E00FF4D
:10406000FF53656C65637400FFFF537465656C20D6
:1040700073686565747300FFFF537570706F7274B9
:1040800000FFFF4661696C207374617473204D4DAD
:104090005500FFFF4661696C20737461747300FF03
:1040A000FF5374617469737469637300FFFF436144
:1040B0006C6962726174696F6E00FFFF4175746FA5
:1040C0004C6F61642066696C616D656E7400FFFF02
:1040D0004375742066696C616D656E7400FFFF4501
:1040E0006A6563742066696C616D656E7400FFFFBC
:1040F000556E6C6F61642066696C616D656E7400ED
:10410000FFFF4C6F616420746F206E6F7A7A6C656C
:1041100000FFFF4C6F61642066696C616D656E74B1
:1041200000FFFF4E6F205344206361726400FFFF65
:104130005072696E742066726F6D20534400FFFFE9
:10414000526573756D65207072696E7400FFFF5063
:1041500061757365207072696E7400FFFF54756E2F
:104160006500FFFF5072656865617400FFFF4C6970
:1041700076652061646A757374205A00FFFF496E8A
:10418000666F2073637265656E00FFFF46696E6936
:104190007368696E67206D6F76656D656E74730008
:1041A000FFFF4272696768746E65737300FFFF41B9
:1041B000737369737400FFFF53696C656E7400FF5D
:1041C000FF4F6E636500FFFF536F756E6400FFFF66
:1041D0004C6F756400FFFF4D4D55204D6F646500B9
:1041E000FFFF4372617368206465742E00FFFF5304
:1041F0007465616C746800FFFF4E6F726D616C00D6
:10420000FFFF46616E7320636865636B00FFFF50BC
:104210006175736500FFFF465320416374696F6EDB
:1042200000FFFF436F6E742E00FFFF46696C2E2067
:1042300073656E736F7200FFFF4368616E67652080
:1042400066696C616D656E7400FFFF466C6F770088
:10425000FFFF537065656400FFFF4D61676E657415
:104260007320636F6D702E00FFFF4E2F4100FFFF24
:104270005A2D70726F6265206E722E00FFFF4D65C1
:10428000736800FFFF54696D656F757400FFFF4D23
:104290006F646500FFFF4175746F00FFFF44696D37
:1042A00000FFFF42726967687400FFFF4C65766526
:1042B0006C2044696D6D656400FFFF4C6576656C2C
:1042C0002042726967687400FFFF46616E20737058
:1042D00065656400FFFF42656400FFFF4E6F7A7AF8
:1042E0006C6500FFFF53657474696E677300FFFFB0
:1042F0005072696E742061626F7274656400FFFFB2
:1043000053746F70207072696E7400FFFF436865AC
:10431000636B696E672066696C6500FFFF46696CB8
:104320006520696E636F6D706C6574652E20436FD8
:104330006E74696E756520616E797761793F00FFF3
:10434000FF045265667265736800FFFF4D61696E18
:1043500000FFFF506C6561736520756E6C6F616462
:10436000207468652066696C616D656E742066698D
:104370007273742C207468656E2072657065617448
:10438000207468697320616374696F6E2E00FFFF8B
:10439000496E73657274207468652066696C616D1E
:1043A000656E742028646F206E6F74206C6F61647A
:1043B0002069742920696E746F207468652065789F
:1043C00074727564657220616E64207468656E2015
:1043D000707265737320746865206B6E6F622E0057
:1043E000FFFF566572696669636174696F6E206666
:1043F00061696C65642C2072656D6F7665207468E8
:10440000652066696C616D656E7420616E642074F0
:10441000727920616761696E2E00FFFF53656E73CC
:104420006F722076657269666965642C2072656DAD
:104430006F7665207468652066696C616D656E7461
:10444000206E6F772E00FFFF506C656173652063EF
:104450006865636B207468652049522073656E73CC
:104460006F7220636F6E6E656374696F6E2C20755A
:104470006E6C6F61642066696C616D656E74206935
:10448000662070726573656E742E00FFFF57616958
:1044900074696E6720666F72206E6F7A7A6C652021
:1044A000616E642062656420636F6F6C696E670083
:1044B000FFFF53656C662074657374204F4B00FFDB
:1044C000FF53656C66207465737420737461727435
:1044D00000FFFF5072696E742066616E3A00FFFF44
:1044E00045787472756465722066616E3A00FFFFEC
:1044F00043616C6962726174696E6720686F6D6593
:1045000000FFFF416C6C20636F727265637400FF83
:10451000FF436865636B696E672073656E736F72C6
:104520007300FFFF436865636B696E6720686F7493
:10453000656E6400FFFF436865636B696E672062A8
:10454000656400FFFF436865636B696E67205A20EE
:104550006178697300FFFF436865636B696E67206C
:1045600059206178697300FFFF436865636B696E6A
:10457000672058206178697300FFFF436865636BAB
:10458000696E6720656E6473746F707300FFFF431C
:104590006172642072656D6F76656400FFFF4F6E17
:1045A00000FFFF4F666600FFFF4261636B00FFFF85
:1045B0005072696E746572206E6F7A7A6C652064D1
:1045C00069616D65746572206469666665727320E1
:1045D00066726F6D2074686520472D636F64652E69
:1045E00020506C6561736520636865636B20746837
:1045F000652076616C756520696E207365747469D9
:104600006E67732E205072696E742063616E6365ED
:104610006C6C65642E00FFFF5072696E74657220C9
:104620006E6F7A7A6C65206469616D65746572205D
:10463000646966666572732066726F6D2074686562
:1046400020472D636F64652E20436F6E74696E750D
:10465000653F00FFFF4D4B3353206669726D7761F4
:104660007265206465746563746564206F6E204DA7
:104670004B33207072696E74657200FFFF426C618B
:10468000636B6F7574206F636375727265642E203F
:104690005265636F766572207072696E743F00FFB9
:1046A000FF53656C66746573742077696C6C206267
:1046B000652072756E20746F2063616C696272612F
:1046C00074652061636375726174652073656E73D0
:1046D0006F726C657373207265686F6D696E672E9B
:1046E00000FFFF5468657265206973207374696CFC
:1046F0006C2061206E65656420746F206D616B6550
:10470000205A2063616C6962726174696F6E2E2039
:10471000506C6561736520666F6C6C6F7720746890
:1047200065206D616E75616C2C20636861707465C5
:10473000722046697273742073746570732C2073D1
:10474000656374696F6E2043616C6962726174693C
:104750006F6E20666C6F772E00FFFF5072696E746B
:10476000657220686173206E6F74206265656E20CB
:1047700063616C69627261746564207965742E206E
:10478000506C6561736520666F6C6C6F7720746820
:1047900065206D616E75616C2C2063686170746555
:1047A000722046697273742073746570732C207361
:1047B000656374696F6E2043616C696272617469CC
:1047C0006F6E20666C6F772E00FFFF4F6C64207356
:1047D000657474696E677320666F756E642E20440D
:1047E000656661756C74205049442C20457374656E
:1047F0007073206574632E2077696C6C206265206D
:104800007365742E00FFFF5761726E696E673A2000
:10481000626F7468207072696E746572207479704A
:104820006520616E64206D6F74686572626F61727D
:10483000642074797065206368616E6765642E001A
:10484000FFFF5761726E696E673A207072696E740D
:1048500065722074797065206368616E6765642E87
:1048600000FFFF5761726E696E673A206D6F746862
:104870006572626F6172642074797065206368612B
:104880006E6765642E00FFFF48656174696E67207E
:1048900064697361626C6564206279207361666526
:1048A00074792074696D65722E00FFFF465320767F
:1048B000302E33206F72206F6C64657200FFFF46EC
:1048C000532076302E34206F72206E65776572002B
:1048D000FFFF5265636F766572696E67207072695B
:1048E0006E7400FFFF506C656173652077616974B9
:1048F00000FFFF53544F505045442E00FFFF756E8C
:104900006B6E6F776E20737461746500FFFF2030EB
:104910002E34206F72206E6577657200FFFF2030A5
:104920002E33206F72206F6C64657200FFFF42654A
:1049300064206C6576656C696E67206661696C657C
:10494000642E2053656E736F72206469646E2774E1
:1049500020747269676765722E204465627269739C
:10496000206F6E206E6F7A7A6C653F205761697494
:10497000696E6720666F722072657365742E00FF22
:10498000FF506C65617365207570646174652066A5
:1049900069726D7761726520696E20796F7572201A
:1049A0004D4D55322E2057616974696E6720666FD0
:1049B000722072657365742E00FFFF4D4D55204FB8
:1049C0004B2E20526573756D696E672E2E2E00FF7B
:1049D000FF4D4D55204F4B2E20526573756D696EFE
:1049E0006720706F736974696F6E2E2E2E00FFFF43
:1049F0004D4D55204F4B2E20526573756D696E6776
:104A00002074656D70657261747572652E2E2E004E
:104A1000FFFF4669782074686520697373756520A7
:104A2000616E64207468656E2070726573732062B5
:104A30007574746F6E206F6E204D4D5520756E69C4
:104A4000742E00FFFF507265737320746865206BCD
:104A50006E6F6220746F20726573756D65206E6F66
:104A60007A7A6C652074656D7065726174757265B3
:104A70002E00FFFF4D4D55206E65656473207573E4
:104A8000657220617474656E74696F6E2E00FFFF2D
:104A9000506C656173652072656D6F76652066691F
:104AA0006C616D656E7420616E64207468656E2043
:104AB000707265737320746865206B6E6F622E0070
:104AC000FFFF456A656374696E672066696C616D96
:104AD000656E7400FFFF4D4D55206C6F616420665C
:104AE00061696C656400FFFF536F6D652070726FC4
:104AF000626C656D20656E636F756E74657265645A
:104B00002C205A2D6C6576656C696E6720656E6623
:104B10006F72636564202E2E2E00FFFF472D636F9A
:104B2000646520736C6963656420666F7220612020
:104B3000646966666572656E74206C6576656C2E58
:104B400020436F6E74696E75653F00FFFF472D63EC
:104B50006F646520736C6963656420666F722061A1
:104B600020646966666572656E74206C6576656C36
:104B70002E20506C656173652072652D736C6963BE
:104B80006520746865206D6F64656C20616761697C
:104B90006E2E205072696E742063616E63656C6C5A
:104BA00065642E00FFFF472D636F646520736C6999
:104BB00063656420666F722061206E657765722080
:104BC0006669726D776172652E20506C65617365E0
:104BD0002075706461746520746865206669726D03
:104BE000776172652E205072696E742063616E6306
:104BF000656C6C65642E00FFFF472D636F64652054
:104C0000736C6963656420666F722061206E6577DE
:104C10006572206669726D776172652E20436F6ED2
:104C200074696E75653F00FFFF472D636F646520F3
:104C3000736C6963656420666F72206120646966C5
:104C4000666572656E74207072696E746572207428
:104C50007970652E20436F6E74696E75653F00FF35
:104C6000FF472D636F646520736C6963656420661C
:104C70006F72206120646966666572656E7420706B
:104C800072696E74657220747970652E20506C653F
:104C90006173652072652D736C6963652074686546
:104CA000206D6F64656C20616761696E2E205072A3
:104CB000696E742063616E63656C6C65642E00FFC1
:104CC000FF507265737320746865206B6E6F62208D
:104CD000746F2070726568656174206E6F7A7A6C8B
:104CE0006520616E6420636F6E74696E75652E0059
:104CF000FFFF506C6561736520707265737320747B
:104D00006865206B6E6F6220746F20756E6C6F61CA
:104D1000642066696C616D656E7400FFFF52656D9D
:104D20006F7665206F6C642066696C616D656E746A
:104D300020616E6420707265737320746865206BE7
:104D40006E6F6220746F207374617274206C6F6177
:104D500064696E67206E65772066696C616D656E4B
:104D6000742E00FFFF616E6420707265737320748F
:104D70006865206B6E6F6200FFFF496E7365727429
:104D80002066696C616D656E7400FFFF436F6C6F28
:104D900072206E6F7420636F727265637400FFFF20
:104DA00046696C616D656E74206E6F74206C6F6106
:104DB00064656400FFFF4368616E67656420636F2C
:104DC00072726563746C793F00FFFF4C6F616469B8
:104DD0006E6720636F6C6F7200FFFF4368616E67E0
:104DE0006520737563636573732100FFFF506C6505
:104DF000617365206F70656E2069646C65722061F7
:104E00006E642072656D6F76652066696C616D6594
:104E10006E74206D616E75616C6C792E00FFFF57AA
:104E200061732066696C616D656E7420756E6C6F60
:104E30006164207375636365737366756C3F00FF0F
:104E4000FF506C6561736520757067726164652ED3
:104E500000FFFF4E6577206669726D77617265208D
:104E600076657273696F6E20617661696C61626CE0
:104E7000653A00FFFF57616974696E6720666F725B
:104E80002050494E44412070726F626520636F6FFD
:104E90006C696E6700FFFF4372617368206465741C
:104EA00065637465642E20526573756D652070723C
:104EB000696E743F00FFFF4372617368206465741C
:104EC00065637465642E00FFFF53656C6563742031
:104ED00065787472756465723A00FFFF4E6F206DDD
:104EE0006F76652E00FFFF537461626C6520616D03
:104EF0006269656E742074656D7065726174757237
:104F0000652032312D323643206973206E65656429
:104F100065642061207269676964207374616E64DE
:104F20002069732072657175697265642E00FFFFD8
:104F3000506C656173652072756E2058595A2063F4
:104F4000616C6962726174696F6E206669727374F4
:104F50002E00FFFF5761697420666F7220757365BC
:104F6000722E2E2E00FFFF536865657400FFFF59F7
:104F7000657300FFFF4E6F00FFFF4E6F742073706C
:104F8000696E6E696E6700FFFF5370696E6E696EC1
:104F90006700FFFF46616E207465737400FFFF5366
:104FA000656C6674657374206661696C656400FF86
:104FB000FF2573206C6576656C2065787065637479
:104FC000656400FFFF46616C7365207472696767F2
:104FD0006572696E6700FFFF46696C616D656E748E
:104FE0002073656E736F7200FFFF53776170706599
:104FF0006400FFFF46726F6E742F6C6566742066E6
:10500000616E7300FFFF4178697300FFFF417869AB
:1050100073206C656E67746800FFFF4C6F6F73657B
:105020002070756C6C657900FFFF4C6566742068B4
:105030006F74656E642066616E3F00FFFF46726F9D
:105040006E74207072696E742066616E3F00FFFF9F
:10505000456E6473746F70206E6F7420686974009D
:10506000FFFF456E6473746F7000FFFF4D6F746FC8
:105070007200FFFF456E6473746F707300FFFF571B
:105080006972696E67206572726F7200FFFF426518
:10509000642F48656174657200FFFF4E6F74206372
:1050A0006F6E6E656374656400FFFF4865617465CB
:1050B000722F546865726D6973746F7200FFFF50D0
:1050C0006C6561736520636865636B3A00FFFF532D
:1050D000656C6674657374206572726F722100FF6F
:1050E000FF58595A2063616C6962726174696F6E0E
:1050F00020616C6C2072696768742E20536B657731
:105100002077696C6C20626520636F7272656374CE
:105110006564206175746F6D61746963616C6C792D
:105120002E00FFFF58595A2063616C6962726174E6
:10513000696F6E20616C6C2072696768742E2058EC
:105140002F5920617865732061726520736C6967DF
:1051500068746C7920736B657765642E20476F6F78
:1051600064206A6F622100FFFF58595A2063616C06
:105170006962726174696F6E206F6B2E20582F59AF
:105180002061786573206172652070657270656E4C
:10519000646963756C61722E20436F6E677261740F
:1051A000756C6174696F6E732100FFFF58595A2046
:1051B00063616C6962726174696F6E20636F6D7098
:1051C000726F6D697365642E20526967687420661A
:1051D000726F6E742063616C6962726174696F6E64
:1051E00020706F696E74206E6F74207265616368E1
:1051F00061626C652E00FFFF58595A2063616C692B
:1052000062726174696F6E20636F6D70726F6D6929
:105210007365642E2046726F6E742063616C6962E0
:10522000726174696F6E20706F696E7473206E6F37
:105230007420726561636861626C652E00FFFF58BF
:10524000595A2063616C6962726174696F6E20667D
:1052500061696C65642E2052696768742066726F9C
:105260006E742063616C6962726174696F6E207024
:105270006F696E74206E6F7420726561636861621D
:105280006C652E00FFFF58595A2063616C69627289
:105290006174696F6E206661696C65642E20467268
:1052A0006F6E742063616C6962726174696F6E20E5
:1052B000706F696E7473206E6F74207265616368BD
:1052C00061626C652E00FFFF58595A2063616C695A
:1052D00062726174696F6E206661696C65642E200C
:1052E000506C6561736520636F6E73756C742074A8
:1052F0006865206D616E75616C2E00FFFF58595A0C
:105300002063616C6962726174696F6E20666169A5
:105310006C65642E204265642063616C6962726111
:1053200074696F6E20706F696E7420776173206E80
:105330006F7420666F756E642E00FFFF506C6561A0
:10534000736520706C61636520737465656C207390
:1053500068656574206F6E20686561746265642E8F
:1053600000FFFF44697374616E6365206265747742
:1053700065656E20746970206F6620746865206EA4
:105380006F7A7A6C6520616E64207468652062654E
:1053900064207375726661636520686173206E6F47
:1053A00074206265656E20736574207965742E20A3
:1053B000506C6561736520666F6C6C6F77207468E4
:1053C00065206D616E75616C2C2063686170746519
:1053D000722046697273742073746570732C207325
:1053E000656374696F6E204669727374206C6179AD
:1053F00065722063616C6962726174696F6E2E0000
:10540000FFFF506C616365206120736865657420DF
:105410006F6620706170657220756E6465722074AD
:105420006865206E6F7A7A6C6520647572696E6744
:10543000207468652063616C6962726174696F6E63
:10544000206F66206669727374203420706F696EF5
:1054500074732E20496620746865206E6F7A7A6CAA
:10546000652063617463686573207468652070618A
:105470007065722C20706F776572206F666620747D
:105480006865207072696E74657220696D6D6564FF
:10549000696174656C792E00FFFF506C65617365FE
:1054A0002072656D6F766520737465656C20736816
:1054B0006565742066726F6D2068656174626564ED
:1054C0002E00FFFF497320737465656C2073686557
:1054D0006574206F6E20686561746265643F00FFCB
:1054E000FF536561726368696E672062656420635B
:1054F000616C6962726174696F6E20706F696E743D
:1055000000FFFF4D6561737572696E672072656695
:105510006572656E636520686569676874206F668B
:105520002063616C6962726174696F6E20706F696B
:105530006E7400FFFF506C6561736520636C65617C
:105540006E20746865206E6F7A7A6C6520666F7263
:105550002063616C6962726174696F6E2E20436CA6
:1055600069636B207768656E20646F6E652E00FF3F
:10557000FF4175746F20686F6D6500FFFF536F7298
:1055800074696E672066696C657300FFFF536F6D09
:10559000652066696C65732077696C6C206E6F742A
:1055A00020626520736F727465642E204D61782EC1
:1055B000204E6F2E206F662066696C657320696EC1
:1055C000203120666F6C64657220666F7220736F85
:1055D0007274696E67206973203130302E00207438
:1055E0006F6F206C6F6E6720657874727573696F6A
:1055F0006E2070726576656E7465640020636F6CF2
:105600006420657874727573696F6E207072657648
:10561000656E74656400544D4320445249564552AA
:10562000204F56455254454D500025632533642F75
:1056300025642563005A25362E32662563005A20DC
:1056400020202D2D2D200025632533642525002DB8
:105650002D2D0025336868640025335325337325C9
:1056600025002053440020202000555342002025CF
:10567000753E257500203F3E2575002025753E00AE
:10568000203F3E00203E257500204625750020461F
:105690003F002046524D200025632D2D3A2D2D2010
:1056A0002000256325337568202563256300256365
:1056B000253032753A2530327525632563002F2F4A
:1056C00020616374696F6E3A70617573650044752B
:1056D0006D70206D656D6F727900686F77746F2ED5
:1056E000707275736133642E636F6D00666F7275CF
:1056F0006D2E707275736133642E636F6D007072FE
:1057000075736133642E636F6D0025533A0A25313A
:10571000382E32666D200A25533A0A2531306C64E2
:1057200064202530326868646820253032686864F7
:105730006D0025533A0A2531382E32666D200A2530
:10574000533A0A2531306C64682025303268686429
:105750006D20253032686864730025362E32666D00
:105760006D0025530A25530A25533A0A25533A005A
:1057700025332E32660100252D31342E3134533A33
:105780000A25530A252D31342E3134533A25332E30
:105790003266010A252D31342E3134533A25332E09
:1057A00032660100202030002020310046494E445E
:1057B0004100FFFF50494E44410057697A617264CD
:1057C00020656E642073746174653A2025640A0054
:1057D000FFFF53706F6F6C4A6F696E00FFFF466981
:1057E000726D7761726500FFFF466C617368416995
:1057F00072004572723A205052494E542046414E32
:10580000204552524F52004572723A204558545228
:105810002E2046414E204552524F52002F2F2061DC
:105820006374696F6E3A726573756D6564002F2FCE
:1058300020616374696F6E3A706175736564002FDF
:105840002F20616374696F6E3A726573756D6500C0
:105850002F2F20616374696F6E3A63616E63656CAC
:105860000041786973206C656E67746820646966AE
:10587000666572656E63653A252E33660A004D656E
:105880006173757265642061786973206C656E67F9
:1058900074683A252E33660A004C434420737461C1
:1058A000747573206368616E676564005344206398
:1058B0006172642072656C65617365640046616B3A
:1058C000652073657269616C206E756D626572002A
:1058D000452D636F6F6C206D6F646500414C5446BD
:1058E000414E206465742E0045787465726E616C5B
:1058F0002053504920666C6173680A58464C4153E6
:1059000048206973206E6F74207265732D0A706F62
:105910006E64696E672E204C616E67756167650AFB
:1059200073776974636820756E617661696C616212
:105930006C652E004657206372617368206465743D
:1059400065637465642120596F752063616E2063FF
:105950006F6E74696E7565207072696E74696E67BA
:105960002E204465627567206461746120617661F0
:10597000696C61626C6520666F7220616E616C7922
:105980007369732E20436F6E746163742073757036
:10599000706F727420746F207375626D6974206407
:1059A000657461696C732E002F2F20616374696FB9
:1059B0006E3A64756D705F617661696C61626C6589
:1059C00000FFFF5072757361206933204D4B3353D4
:1059D000204F4B2E00437261736844657465637495
:1059E00020454E41424C4544210043726173684456
:1059F00065746563742044495341424C45440045F5
:105A0000787472756465722066616E207479706551
:105A10003A200058464C415348206E6F74207265FE
:105A200073706F6E64696E672E002020506C616E1B
:105A30006E657242756666657242797465733A2066
:105A4000002046726565204D656D6F72793A2000C1
:105A5000207C20417574686F723A2000204C61737D
:105A60007420557064617465643A200020536F6639
:105A70007477617265205265736574002057617494
:105A80006368646F67205265736574002042726FAB
:105A9000776E206F757420526573657400204578A9
:105AA0007465726E616C20526573657400506F7717
:105AB00065725570006572726F72207772697469D1
:105AC0006E6720746F2066696C6500656E64737420
:105AD0006F7073206869743A2000446F6E6520739C
:105AE0006176696E672066696C652E006F6B004990
:105AF0006E61637469766974792053687574646F34
:105B0000776E004B494C4C45442E20005072696E14
:105B10007465722068616C7465642E206B696C6CAE
:105B200028292063616C6C656421004B494C4C3A18
:105B30002025640A004D32323120496E76616C694D
:105B40006420657874727564657220004D32313856
:105B500020496E76616C696420657874727564653D
:105B60007220004D31303920496E76616C696420B5
:105B7000657874727564657220004D313035204946
:105B80006E76616C696420657874727564657220E4
:105B9000004D31303420496E76616C69642065783F
:105BA0007472756465722000504F57455220504101
:105BB0004E49432044455445435445440055564CB2
:105BC0004F202D20656E642025640A0055564C4FE9
:105BD0005F54494E59202D20656E642025640A00CB
:105BE000776F726C6420636F6F7264696E61746545
:105BF000733A2028252E33662C20252E33662C2040
:105C0000252E3366290A0043757272656E74207002
:105C10006F73205A5F415849533A252E33660A4321
:105C2000757272656E7420706F7320455F415849BC
:105C3000533A252E33660A004166746572207761F7
:105C40006974696E6720666F722074656D703A0AB8
:105C500043757272656E7420706F7320585F41587F
:105C600049533A252E33660A43757272656E742065
:105C7000706F7320595F415849533A252E33660A95
:105C800000656E717565696E67202200446F6E65F0
:105C9000207072696E74696E672066696C65004D6C
:105CA0003131322063616C6C65642E20456D657204
:105CB00067656E63792053746F702E005072696E41
:105CC0007465722073746F707065642064756520EC
:105CD000746F206572726F72732E2046697820741B
:105CE0006865206572726F7220616E6420757365DD
:105CF000204D39393920746F207265737461727464
:105D00002E202854656D7065726174757265206906
:105D1000732072657365742E205365742069742036
:105D200061667465722072657374617274696E67FE
:105D300029004E6F204C696E65204E756D6265724C
:105D4000207769746820636865636B73756D2C20B8
:105D50004C617374204C696E653A20004E6F20438D
:105D60006865636B73756D2077697468206C696E04
:105D700065206E756D6265722C204C617374204CC9
:105D8000696E653A2000636865636B73756D206D9D
:105D900069736D617463682C204C617374204C6965
:105DA0006E653A20004C696E65204E756D626572B5
:105DB000206973206E6F74204C617374204C696E7F
:105DC00065204E756D6265722B312C204C617374A9
:105DD000204C696E653A20003F3F00526F6D616E46
:105DE00061004872766174736B69004D6167796117
:105DF0007200536C6F76656E63696E6100537665F1
:105E00006E736B61004E656465726C616E647300E5
:105E1000506F6C736B69004974616C69616E6F00DF
:105E20004672616E6361697300457370616E6F6C79
:105E300000446575747363680043657374696E61CB
:105E400000456E676C6973680025326400312F3934
:105E50000025632533642F2564256300256C752098
:105E60006279746573207772697474656E20746FDB
:105E7000202553206174206164647265737320303F
:105E8000782530346C780A00442564202D20526532
:105E900061642F57726974652025530A0020436F8F
:105EA000756E7420583A200045303A2564205250CF
:105EB0004D2050524E313A25642052504D204530ED
:105EC000403A25752050524E31403A25640A00640C
:105ED000756D7020636C65617265640A006E6F2079
:105EE00064756D7020617661696C61626C650A0031
:105EF000443231202D2072656164206372617368C1
:105F00002064756D700A006E6F2064756D7020617D
:105F10007661696C61626C650A0064756D702063FE
:105F20006F6D706C6574656420696E20256C756D8D
:105F3000730A0058464C41534800454550524F4D56
:105F4000005352414D00442D31202D20456E646C8C
:105F5000657373206C6F6F700A0053442070726910
:105F60006E74696E6720627974652000416374699C
:105F700076652045787472756465723A2000496EC2
:105F800076616C6964206578747275646572005A14
:105F9000204F666673657400556E6B6E6F776E206A
:105FA000636F6D6D616E643A2022004D3230302097
:105FB000496E76616C696420657874727564657287
:105FC00020007A5F6D61783A20007A5F6D696E3AE1
:105FD0002000795F6D61783A2000795F6D696E3AD3
:105FE0002000785F6D61783A200054524947474558
:105FF000524544006F70656E00785F6D696E3A209F
:10600000005265706F7274696E6720656E64737498
:106010006F70207374617475730053494C454E540E
:10602000004E4F524D414C002553204D4F44453AB0
:106030002050657263656E7420646F6E653A20252A
:106040006868643B207072696E742074696D6520A5
:1060500072656D61696E696E6720696E206D696E2B
:10606000733A2025643B204368616E676520696E42
:10607000206D696E733A2025640A00456E642066BF
:10608000696C65206C69737400426567696E20668F
:10609000696C65206C69737400556E6B6E6F776EFA
:1060A00020256320636F64653A2025730A000A5037
:1060B000494E44412074656D7065726174757265F6
:1060C0003A20252E3166205A20736869667420288C
:1060D0006D6D293A20252E3366000A537465703A97
:1060E0002025642F360A000A537465703A2025640F
:1060F0002F362028736B6970706564290A50494EE9
:1061000044412074656D70657261747572653A20E2
:106110002564205A20736869667420286D6D293AB9
:10612000300A000A5A45524F3A20252E33660A009B
:1061300073746172742074656D70657261747572C8
:10614000653A20252E31660A0025642020252E324E
:106150006600255320583A20252E356620593A20CE
:10616000252E3566205A3A20252E35660A00536CB6
:106170006565702E2E2E0045303A25642052504D14
:106180000A50524E303A25642052504D0A00256480
:1061900000526573656E640025533A20256C640ACD
:1061A00025530A004D6561737572656420736B65D4
:1061B00077733A2025662025660A0046697474695B
:1061C0006E67206661696C6564203D3E2063616C8A
:1061D0006962726174696F6E206661696C65642EB4
:1061E0000A0043616C6962726174696F6E20737535
:1061F00063636573732E0A00416C6C203420636105
:106200006C6962726174696F6E20706F696E74730D
:1062100020666F756E642E0A00312F3400312F34E2
:1062200000312F390053442063617264206F6B008A
:106230006F70656E526F6F74206661696C65640083
:10624000766F6C756D652E696E6974206661696C18
:10625000656400534420696E6974206661696C004E
:106260006F70656E206661696C65642C2046696C90
:10627000653A200043616E6E6F7420656E746572BE
:10628000207375626469723A2000084AD73B3BCE9E
:10629000016E84BCBFFDC12F3D6C74319ABD568325
:1062A0003DDA3D00C77F11BED9E4BB4C3E916BAADD
:1062B000AABE000000803F05A84CCDB2D44EB9382C
:1062C00036A9020C50B9918688083CA6AAAA2ABE13
:1062D000000000803F07634236B79BD8A71A396891
:1062E0005618AEBAAB558C1D3CB7CC5763BD6DED9F
:1062F000FD753EF6177231BF000000803F080000B8
:1063000000BE922449123EABAAAA2ABECDCCCC4CE8
:106310003E00000080BEABAAAAAA3E00000000BF5B
:10632000000000803F0000000000084178D3BB431C
:1063300087D1133D190E3CC3BD4282AD2B3E68ECA4
:106340008276BED98FE1A93E4C80EFFFBE01C4FF2B
:106350007F3F0000000000000C941C800C94E2566B
:106360000D94926C0C943AF20D946C6C0C940AADF2
:106370000C9423A80D941A200C945A8D0C94A950B7
:106380000D94B4A60C9449B00C9450AA0C94A69207
:106390000C948E540C9412800C944DED0D94886CDA
:1063A0000C9422A90C949B8C0C9454F20D9469A625
:1063B0000C94F5F40C94FEA90C9443BC0C941BD8DB
:1063C0000D940D370C945DD70C94C85E0C9450F36B
:1063D0000C94855D0C9463800D9427A60C948E50CC
:1063E0000C9443800D9434A00C942B800C94538017
:1063F0000C9413B30C94C1F20D948FA00C94E57F10
:106400000C94686A0C94D5C80C9483F20C94EF52E7
:106410000C94A5AC0C9455AF0D948CA60D94766C91
:106420000C946D660C9403D80C9403BC0C9458BB6C
:106430000C946E8C0C9498500C94AB920C943B8002
:106440000D94A0A60C9489AC0C945B800C949A7F5C
:106450000C94C7B30D943CD00D94E31C0D94A7A0ED
:106460000C949EBC0D94536C0C9460D80D948E6C5F
:106470000C944BA80D94576C0C944AA90C9433D4EB
:106480000C9432D80C946B800C943EAA0C94BD559D
:106490000D9410A00C9494D70C948A8D0C9459B937
:1064A0000D9473A60C94008D0D9422A60C942E8D41
:1064B0000C94F8CE0D94846C0C94CDAB0C9472506B
:1064C0000D941AA60C9417800C94E27F0D94CE1CA8
:1064D0000C94CEA80C9461A60C94D4A80C9464AF30
:1064E0000C9408A90C94448D0C94754F0C9408D707
:1064F0000D94151D0C9491CD0C9436A90C94375A1B
:106500000C945DAE0D945B6C0C9431BA0C940CCF72
:106510000C942A5E0C946BD70D9431A60D947A6C72
:106520000C9483800C9422BB0C94FD530C9473AC9C
:106530000C948CF20C9484A90D9478C70C940CC420
:106540000C94C98C0C940AAE0C947B800C948393AD
:106550000D94AA1F0C94E6AF0C94ABBD0C94338041
:106560000C94FDD70C941E530D943BA60C94C3BB06
:106570000C9407D80D94626C0C94F5A80C947CD6FE
:106580000C9474530D94726C0D94761D0D94B21D81
:106590000C9462C60D9496A60C94AFF20C9414D889
:1065A0000C94A9520D944DA60C941E560C943FBA0F
:1065B0000C944F8D0C942CAA0C94A5B20C945AAF49
:1065C0000C94FC570D948D6C0D94AF1C0C94218091
:1065D0000C94AEBE0C9429BA0C94A48D0C948F57D5
:1065E0000C94A0AB0C94ACF00D948CA00C943BB02C
:1065F0000C944BAF0D94AAA60D946E1D0C94F18AC9
:106600000C949EAC0C9404930C9441AF0D946A25A9
:106610000C940B5E0D94DD1E0C94C0CF0C94F8AA64
:106620000C9456500D9482A60D945FA60D94B6A0BE
:106630000C94F7690C94C0B80C94C3A80C944B80CC
:106640000C9441A80C94A7BC0C945D4F0C94EDD70E
:106650000C942DA80D947AA00D9489A00C945AB294
:106660000C9412EF0C945EA90C949ACD0C94F08CBF
:106670000C94E05C0C9490AC0C9478A90C9468BDDC
:106680000C94EC7F0C9499A90C94D3510C94ECBA13
:106690000D9437200D94FE250C94A5930D941CA009
:1066A0000D94AAA00D949BA00C9497AC0C9468AF89
:1066B0000C94E5BC0C9493560C9429D70C9449D7B0
:1066C0000C9437A80C9494570D9445A60C94F0B2F2
:1066D0000C9450A80C9475BA0C945FAF0C94A4A9B8
:1066E0000D9486A00C94B8500C94398D0C9446AF40
:1066F0000D945F6C0D9455A60C9418A90C9450AF92
:106700000C9441500D946F200C9479E90C9466938D
:106710000C94D3D70C946DF20C9485510C9495BCC9
:106720000C94C8570C945FF20C9412C90C94CEC40C
:106730000D94806C0C9473800D944D6C0D94686C6A
:106740006E616E00696E66004E414E494E49545965
:10675000494E46CDCCCC3D0AD7233C17B7D138772C
:10676000CC2B329595E6241FB14F0A000020410042
:1067700000C84200401C4620BCBE4CCA1B0E5AAE8C
:10678000C59D7400407A10F35A00A0724E1809009B
:1067900010A5D4E80000E87648170000E40B540286
:1067A0000000CA9A3B000000E1F5050000809698C1
:1067B00000000040420F000000A086010000001011
:1067C0002700000000E80300000000640000000053
:1067D000000A00000000000100000000002C76D834
:1067E00088DC674F0823DFC1DFAE59E1B1B796E51A
:1067F000E3E453C63AE651997696E8E6C28426EB7E
:10680000898C9B62ED407C6FFCEFBC9C9F40F2BA90
:10681000A56FA5F490055A2AF75C936B6CF9676D28
:10682000C11BFCE0E40D47FEF520E6B500D0ED907D
:106830002E0300943577050080841E080000204E4A
:106840000A000000C80C333333330F986E128311E3
:1068500041EF8D2114893BE65516CFFEE6DB18D1BA
:10686000844B381BF77C1D901DA4BBE4242032848C
:10687000725E228100C9F124ECA1E53D27636469C1
:106880006E6F70737578585B0047312058352E3025
:106890002045342E302046313030302E3000473104
:1068A000205A302E32302046313030302E300047E2
:1068B00031205835352E30204532352046313430A0
:1068C000302E3000473120592D322E3020463130C5
:1068D00030302E3000473120583234302E302045B1
:1068E00032352E30202046323230302E30004739BB
:1068F000322045302E30004731205A302E3320468A
:10690000313030302E30004731205835352E302090
:1069100045382E302046323030302E30004731207E
:1069200058352E30204533322E3020463138303025
:106930002E30004731205835352E30204533322E49
:10694000302046313037332E300047312046343046
:106950003030004D32303420533130303000473148
:10696000205A352046373230302E30303000473113
:1069700020452D312E353030303020463231303008
:106980002E3030303030004D38330047393000473A
:106990003231004739322045302E300047312058FF
:1069A0003530205935352045332E363237373300D0
:1069B00047312058323030205935352045302E347B
:1069C0003933383600473120583230302059373586
:1069D0002045332E36323737330047312058353093
:1069E000205937352045302E343933383600473179
:1069F00020583530205939352045332E3632373737
:106A00003300473120583230302059393520453055
:106A10002E3439333836004731205832303020593F
:106A20003131352045332E36323737330047312068
:106A300058353020593131352045302E34393338EE
:106A40003600473120583530205931333520453311
:106A50002E36323737330047312058323030205904
:106A60003133352045302E3636313734004731202A
:106A70005832303020593135352045322E363237B4
:106A800037330047312058313030205931353520E7
:106A900045320047312058373520593135352045AA
:106AA000322E350047312046313038300047312012
:106AB0005A302E3135302046373230302E3030309B
:106AC0000047312058353020593135350024F4D471
:106AD0003050C38E20C2A24017828B7011127A915F
:106AE0000D816CD90AA861E108C758660761514356
:106AF000061E4B5D05C145A7041A411104093D98C6
:106B000003713931034036DB0265339102D43054CE
:106B100002802E1D02632CEE01752AC501B028A04B
:106B200001102781018F2564012B244B01E02234C1
:106B300001AC211F018D200D01801FFC00841EED82
:106B400000971DDF00B81CD200E61BC600201BBC4E
:106B500000641AB200B219A8000A19A0006A1899B4
:106B600000D117910040178B00B516840031167EB6
:106B700000B31579003A157300C7146F0058146AF2
:106B800000EE1366008813630025135E00C7125BD6
:106B9000006C12570015125400C111510070114FB2
:106BA0000021114B00D61049008D104700461044BB
:106BB0000002104200C00F4000800F3E00420F3C18
:106BC00000060F3B00CB0E3800930E37005C0E35ED
:106BD00000270E3400F30D3200C10D3100900D304E
:106BE00000600D2E00320D2D00050D2C00D90C2B50
:106BF00000AE0C2900850C29005C0C2700350C2701
:106C0000000E0C2600E80B2400C40B2400A00B236C
:106C1000007D0B23005A0B2100390B2100180B209B
:106C200000F80A1F00D90A1E00BB0A1E009D0A1D9B
:106C300000800A1D00630A1C00470A1B002C0A1B67
:106C400000110A1A00F7091A00DD091900C4091910
:106C500000AB091900920917007B09180063091796
:106C6000004C09160036091600200916000A0915FD
:106C700000F5081500E0081400CC081400B808144A
:106C800000A4081400900813007D0812006B08137C
:106C90000058081200460812003408110023081199
:106CA000001208110001081100F0071000E00710A1
:106CB00000D0071000C0071000B0070F00A1071098
:106CC0000091070E0083070F0074070F0065070E81
:106CD0000057070E0049070E003B070D002E070E58
:106CE0000020070D0013070D0006070D00F9060C24
:106CF00000ED060D00E0060C00D4060C00C8060CE2
:106D000000BC060C00B0060C00A4060B0099060C93
:106D1000008D060B0082060B0077060B006C060B3D
:106D20000061060A0057060B004C060A0042060ADC
:106D30000038060A002E060A0024060A001A060A6F
:106D4000001006090007060A00FD050900F4050900
:106D500000EB050900E2050900D9050900D0050985
:106D600000C7050900BE050900B5050800AD050806
:106D700000A50509009C050800940508008C05087D
:106D800000840508007C050800740508006C0507F0
:106D900000650508005D050700560508004E05075B
:106DA00000470507004005080038050700310507C2
:106DB000002A050700230507001C05060016050725
:106DC000000F0507000805060002050700FB040682
:106DD00000F5040700EE040600E8040600E20407DC
:106DE00000DB040600D5040600CF040600C9040633
:106DF00000C3040600BD040600B7040600B1040584
:106E000000AC040600A6040600A00405009B0406CE
:106E10000095040500900406008A04050085040519
:106E200000800406007A040500750405007004055E
:106E3000006B04050066040500610405005C0405A0
:106E40000057040500520405004D040500480405E0
:106E500000430405003E0404003A0405003504051F
:106E600000300404002C040500270404002304055A
:106E7000001E0404001A0404001604050011040492
:106E8000000D0404000904050004040400000404C7
:106E900000FC030400F8030400F4030400F00304FE
:106EA00000EC030400E8030400E4030400E003042E
:106EB00000DC030400D8030400D4030400D003045E
:106EC00000CC030400C8030300C503030024F4043A
:106ED000D9201BC40C5C0E9804C4095F02650771BD
:106EE00001F405F900FB04B30048048700C10369FD
:106EF000005803550003034500BE023A00840231E6
:106F00000053022A002902250004022000E4011C8B
:106F100000C8011900AF0117009801140084011383
:106F200000710110006101100051010E0043010DBC
:106F30000036010B002B010B0020010B001501098D
:106F4000000C01090003010800FB000800F3000821
:106F500000EB000700E4000600DE000600D8000693
:106F600000D2000600CC000500C7000500C20005E5
:106F700000BD000400B9000400B5000400B1000425
:106F800000AD000400A9000400A5000300A2000356
:106F9000009F0004009B000300980003009500027E
:106FA0000093000300900003008D0002008B00039B
:106FB00000880002008600020084000300810002B5
:106FC000007F0002007D0002007B000200790002C9
:106FD00000770001007600020074000200720001D8
:106FE00000710002006F0002006D0001006C0002E1
:106FF000006A0001006900020067000100660001EC
:1070000000650001006400020062000100610001EF
:1070100000600001005F0002005D0001005C0001F3
:10702000005B0001005A00010059000100580001F6
:1070300000570001005600010055000100540001F6
:1070400000530000005300010052000100510001F4
:1070500000500001004F0001004E0000004E0001F2
:10706000004D0001004C0001004B0000004B0001EE
:10707000004A0001004900010048000000480001EA
:1070800000470001004600000046000100450000E6
:1070900000450001004400010043000000430001DE
:1070A00000420000004200010041000000410001D8
:1070B00000400001003F0000003F0001003E0000D2
:1070C000003E0001003D0000003D0001003C0000CA
:1070D000003C0000003C0001003B0000003B0001C0
:1070E000003A0000003A00010039000000390001B8
:1070F00000380000003800000038000100370000B0
:1071000000370001003600000036000000360001A4
:10711000003500000035000000350001003400009B
:107120000034000000340001003300000033000090
:107130000033000100320000003200000032000184
:10714000003100000031000000310001003000007B
:107150000030000000300001002F0000002F000070
:10716000002F0000002F0001002E0000002E000064
:10717000002E0001002D0000002D0000002D000059
:10718000002D0001002C0000002C0000002C00004D
:10719000002C0001002B0000002B0000002B000041
:1071A000002B0001002A0000002A0000002A000035
:1071B000002A000100290000002900000029000029
:1071C000002900000029000100280000002800001C
:1071D000002800000028000000280001002700000F
:1071E0000027000000270000002700000027000102
:1071F00000260000002600000026000000260000F7
:1072000000260001002500000025000000250000E8
:1072100000250000002500000025000100240000DA
:1072200000240000002400000024000000240001CD
:1072300000230000002300000023000000230000C2
:1072400000230000002300000023000100220000B2
:1072500000220000002200000022000000220000A6
:107260000022000100210000002100000021000098
:107270000021000000210000002100000021000189
:10728000002000000020000000200000002000007E
:10729000002000000020000000200000002000016D
:1072A000001F0000001F0000001F0000001F000062
:1072B000001F0000001F0000001F0001001E000052
:1072C000001E0000001E0000001E00000050494487
:1072D000204175746F74756E652066696E69736898
:1072E0006564212050757420746865206C61737426
:1072F000204B702C204B6920616E64204B6420630E
:107300006F6E7374616E74732066726F6D2061624C
:107310006F766520696E746F20436F6E666967755E
:10732000726174696F6E2E68005049442041757413
:107330006F74756E65206661696C6564212074697F
:107340006D656F75740020403A00543A00423A006F
:10735000504944204175746F74756E65206661698B
:107360006C6564212054656D706572617475726519
:1073700020746F6F206869676800204B643A2000B2
:10738000204B693A2000204B703A200020436C616A
:10739000737369632050494420002054753A2000DB
:1073A000204B753A2000206D61783A2000206D69ED
:1073B0006E3A200020643A200020626961733A200E
:1073C0000045787472756465722066616E20737012
:1073D000656564206973206C6F77657220746861DD
:1073E0006E206578706563746564005072696E74B0
:1073F0002066616E207370656564206973206C6F10
:10740000776572207468616E206578706563746555
:1074100064004D494E54454D5020414D42004D4170
:107420005854454D50004D415854454D502042450B
:1074300044004D415854454D5020414D420070018B
:107440002C0190012701B0012201C0011D01F001B2
:1074500018011002130130020E01600209019002AE
:107460000401C002FF000003FA004003F50080039E
:10747000F000D003EB002004E6007004E100E0041B
:10748000DC004005D700C005D2004006CD00D00684
:10749000C8008007C3003008BE00F008B900C0096A
:1074A000B400B00AAF00B00BAA00D00CA500000ECB
:1074B000A000500F9B00C0109600501291000014C5
:1074C0008C00C0158700B0178200B0197D00D01B5A
:1074D0007800001E730040206E0090226900F024A6
:1074E000640040275F0090295A00E02B5500102EC1
:1074F000500020304B0010324600E0334100903500
:107500003C001037370070383200A0392D00B03AF7
:107510002800A03B2300603C1E00103D1900903D58
:107520001400103E0F00703E0A00C03E0500003FF0
:10753000000090137D00B0157800F0177300601AFA
:107540006E00F01C6900A01F640050225F0020251F
:107550005A00E0275500902A5000202D4B00A02F04
:107560004600F031410010343C00F0353700A037C0
:10757000320020392D00603A2800703B2300603C27
:107580001E00203D1900C03D1400403E0F00A03EEB
:107590000A00F03E0500403F0000703FFBFF903FB7
:1075A000F6FFB03FF1FFC03FECFFD03FE7FFE03F09
:1075B000E2FFF03FDDFFF03FD8FF20484F54454E3B
:1075C0004420544845524D414C2052554E4157415C
:1075D0005900204845415442454420544845524DA5
:1075E000414C2052554E4157415900544845524D47
:1075F000414C2052554E4157415900424544205478
:107600004845524D414C2052554E4157415900205A
:10761000544845524D414C2052554E4157415920F6
:10762000285052454845415420484F54454E44291E
:107630000020544845524D414C2052554E4157412F
:10764000592028505245484541542048454154420C
:107650004544290050524548454154204552524F17
:10766000520042454420505245484541542045521D
:10767000524F52004572723A200020747269676757
:107680006572656421004865617465727320737763
:10769000697463686564206F66662E20003A200076
:1076A000506C656173652072657374617274004D0E
:1076B000494E54454D50004D494E54454D50204281
:1076C000454400452D6D6F746F722063757272654D
:1076D0006E74207363616C696E6720656E61626CA5
:1076E000656400746D63323133305F686F6D655F60
:1076F000656E74657228617865735F6D61736B3D4B
:10770000307825303278290A00746D633231333095
:107710005F686F6D655F6578697420746D63323181
:1077200033305F73675F686F6D696E675F6178653F
:10773000735F6D61736B3D3078253032780A00726B
:107740006573756C742076616C75653A2025640AE2
:107750000020693D25326420636E743D253264202B
:1077600076616C3D2532640A00636C7573746572D2
:10777000733A0020693D25326420737465703D259D
:1077800032640A00736F727465642073616D706C8B
:1077900065733A0055534152543220727820467531
:1077A0006C6C21212100252D3773003A2000252DF6
:1077B00031322E313253252D642F3600203A2000ED
:1077C000252D323073004739322045302E300047A6
:1077D0003238004D313039004D313930004D3130C3
:1077E0003700542564004731205A302E342046316A
:1077F0003030302E3000473120592D332E30204686
:10780000313030302E30004D383300473120583180
:1078100030302E30204531322E3520463130303058
:107820002E30004731205836302E302045392E304A
:107830002046313030302E300033691D690769F73A
:1078400068EE68D568C468AF689E68896893698F78
:10785000698B6987696E695E6953694A6947312036
:10786000583530205933352045252D2E336600C13B
:107870006AAD6AA46A936A836A6D6A576A426A2D1E
:107880006A176A026AEE69DA69C569B0699C694972
:107890006E76616C6964205049442063616C2E20CF
:1078A000726573756C74732E204E6F742073746FD1
:1078B00072656420746F20454550524F4D2E004D27
:1078C000353030004731205A31352046313530309F
:1078D000004739310047312058353020593139308F
:1078E00020453020463730303000473930004D38A1
:1078F00034004D373032204300473120583130209A
:1079000059313830204634303030004731205A3138
:10791000302046313330302E303030004D3134306D
:10792000205330004D313034205330004731204552
:107930002D302E30373530302046323130302E3039
:1079400030303030004D31303700252D31362E317A
:107950003653252D34640A252D31362E31365325E4
:107960002D34640A0025530A20252D31362E313658
:1079700053252D33640A20252D31362E31365325DB
:107980002D33640025530A20252D31362E313653F0
:10799000252D33640A20252D31362E313653252DE1
:1079A00033640A20252D31362E313653252D33648C
:1079B0000025530A20252D31362E313653252D33FF
:1079C000640A20252D31362E313653252D33640A95
:1079D00020252D372E37535820252D33642020594C
:1079E00020252D33640020257325336401200A00EF
:1079F0000A204952203A2020202020202025332E02
:107A000031665600205057523A2020202020202551
:107A1000342E3166560A204245443A202020202048
:107A20002025342E3166560025530A20582025641F
:107A30000A20592025640025752E25752E25752EC2
:107A400025750025730020005072696E74657220E0
:107A5000495020416464723A002573002000466C4E
:107A600061736841697220495020416464723A0030
:107A70004D4D5532202020202020204E2F41002522
:107A8000642E25642E25642D2564002046573A0077
:107A900046696C2E2073656E736F7220762E3A00E5
:107AA000446563203330203230323200453344762F
:107AB0003666756C6C0045494E53795F3130610014
:107AC000315F37356D6D5F4D4B33002D2D2D2D2DD5
:107AD0002D2D2D2D2D2D2D00207265706F206768A6
:107AE0002F636A626161720020332E31312E302D96
:107AF0004D4D557831322D303031004669726D77F9
:107B00006172653A004D373032004D373031004DEB
:107B1000373032004D37303100464C4558202D204B
:107B2000203234302F35300050502020202D20209E
:107B30003235342F3130300048495053202D202029
:107B40003232302F3130300041425320202D20205E
:107B50003235352F3130300050564220202D202034
:107B60003231352F37350050432020202D20203250
:107B700037352F3131300041534120202D20203224
:107B800036302F3130350050455420202D20203202
:107B900033302F383500504C4120202D20203231F9
:107BA000352F3630006E6F7A7A6C65202D202032AA
:107BB00035302F30006661726D2020202D2020325C
:107BC00035302F383000252D31322E313253252BD0
:107BD000382E31660045787472756465723A006DAE
:107BE0006D0059005800583A00593A005A3A002599
:107BF00063252D31332E313353252B352E3366003B
:107C000050494E44412063616C6962726174696FCE
:107C10006E206661696C65642E20436F6E74696EB8
:107C200075652077697468207072657373696E6713
:107C300020746865206B6E6F622E0050494E44417F
:107C40002063616C6962726174696F6E20646F6E2B
:107C5000652E20436F6E74696E7565207769746850
:107C6000207072657373696E6720746865206B6E2F
:107C70006F622E007B5B4552523A00332E31312E1B
:107C8000302D4D4D55783132005D5B4657523A00EC
:107C90005D5B54494D3A005D5B464E4D3A005D5B7D
:107CA00046454D3A005D5B5043443A005B544655AF
:107CB0003A007B5B50524E3A39395D007B5B505243
:107CC0004E3A355D007B5B50524E3A305D007B5B37
:107CD00050524E3A395D007B5B50524E3A385D004F
:107CE0007B5B5245533A305D5B46494C3A007B5BC7
:107CF0005245533A315D5B46494C3A005B50524E17
:107D00003A005B50464E3A305D005B4449413A00D0
:107D10005D5B4154423A005D5B4154303A005D5B2B
:107D20005354423A005B5354303A00473830004DC8
:107D30003435004D3435205A004737360057697ABC
:107D40006172642073746174653A2025640A004589
:107D500078706572696D656E74616C004673656EEE
:107D6000736F7220446574656374696F6E00446953
:107D70007361626C65206661726D206D6F64650071
:107D80004D3834004D343400473238205700200A33
:107D9000200A20004739390044697361626C65200C
:107DA0006661726D206D6F64653F004D3630300046
:107DB0004D203834004D3834004D3234004D3233CC
:107DC00020257300052E2E00257500593A202575B3
:107DD000202D3E202E2E2E00257500583A20257588
:107DE000202D3E202E2E2E004D6561737572656428
:107DF0002066696C616D656E742073656E736F7259
:107E0000206C6F77206C6576656C3A2025342E32B5
:107E100066560A004D656173757265642066696C0B
:107E2000616D656E742073656E736F72206869672B
:107E300068206C6576656C3A2025342E3266560AC9
:107E400000457874722066616E2073706565643ACF
:107E50002025640A005072696E742066616E20737A
:107E6000706565643A2025640A0054657374203295
:107E70003A00457874722066616E2073706565649F
:107E80003A2025640A005072696E742066616E2083
:107E900073706565643A2025640A00546573742024
:107EA000313A004D3834002563204158495320535E
:107EB00047313D25640A00486F74656E6400426571
:107EC00064005A00590058002D2D2D2D2D2D2D2DDB
:107ED0002D2D2D2D2D2D2D2D2D2D2D2D004F4B00EC
:107EE0000000000000110A04435A5058496E7661A0
:107EF0006C696453657269616C4E7200626574618D
:107F000000616C706861006465760003000B00001E
:107F1000000100505255534133444657004C616EA6
:107F20006775616765207570646174652E00435ADA
:107F30005058003B53006164635F696E6974000AC6
:107F4000204F726967696E616C2050727573612091
:107F500069330A2020205072757361205265736561
:107F60006172636800200A200A200A2000416C6CBC
:107F70002044617461005365727669636520707294
:107F80006570005368697070696E67207072657003
:107F90000053746174697374696373004C616E6734
:107FA000756167650045524153494E4720616C6CCD
:107FB000206461746100466163746F727920524578
:107FC0005345540044495341424C454400454E41B9
:107FD000424C454400202873656E736F7220626FB7
:107FE000617264207265766973696F6E3A255329F0
:107FF0000A004653656E736F7220255300494E5434
:1080000034004D4B33534D4D553253004E4F4D4B75
:108010003353002E014E4F4354554100414C5446BA
:10802000414E004465632033302032303232004309
:108030006F6D70696C65643A2000286E6F6E652CF8
:108040002064656661756C7420636F6E666967296C
:108050000044656320333020323032322031353AEB
:1080600032323A34350020332E31312E302D4D4D01
:10807000557831322D303031007374617274005391
:108080004E20757064617465206661696C6564007A
:10809000534E207570646174656400435A505800F3
:1080A000416E206572726F72207768696C65207707
:1080B000726974696E6720746F2074686520534418
:1080C00020436172642E002055706C6F61642069DA
:1080D0006E2070726F677265737300205A3A0020C9
:1080E000593A0020583A0043524153485F4445549E
:1080F000454354454458590043524153485F444511
:10810000544543544544590043524153485F444504
:1081100054454354454458004D3239004D363030B3
:10812000006673656E736F725F757064617465204D
:108130002D204D3630300049522073656E736F72BA
:10814000206E6F7420726573706F6E64696E672045
:1081500028256429210A0020573A0020453A005476
:108160003A005A206C6976652061646A75737420E0
:108170006F7574206F662072616E67652E2053657F
:108180007474696E6720746F20302E20436C6963AD
:108190006B20746F20636F6E74696E75652E005A64
:1081A000206C6976652061646A757374206F7574DC
:1081B000206F662072616E67652E20536574746946
:1081C0006E6720746F20300020423A0020453A004C
:1081D000543A00494E5434007265636F7665725F9D
:1081E0006D616368696E655F73746174655F616614
:1081F0007465725F706F7765725F70616E69632C12
:1082000020696E697469616C200050525553412099
:1082100075766C6F004734205330004D3236205352
:10822000256C75004D3130362053004D32323020F0
:1082300053256400473120462564004D38320047FD
:1082400039322045004731204525302E33662046FF
:1082500032373030004D32303420502566205225E0
:108260006620542566004731205A25660050525535
:108270005341204D424C205631004731205825664D
:108280002059256620463330303000506F736974B2
:10829000696F6E20726561642066726F6D2065651E
:1082A00070726F6D3A004D3233202573002E676374
:1082B0006F002C20666565646D756C7469706C79EF
:1082C0003A0046656564726174653A00473120453D
:1082D000252D302E3366204632373030004731208E
:1082E00045352046313230004D3833004D3130397C
:1082F00020532564004D31393020532564004D3121
:108300003034205325640047323820582059004724
:1083100031205A252E336620463830300047312030
:108320005A252D302E33662046252D302E336600FB
:1083300047312045252D302E3366204632373030E8
:10834000004D38330000002110422063308440A5E6
:1083500050C660E770088129914AA16BB18CC1AD0C
:10836000D1CEE1EFF13112100273325222B55294A4
:1083700042F772D662399318837BB35AA3BDD39C5C
:10838000C3FFF3DEE36224433420040114E664C730
:1083900074A44485546AA54BB528850995EEE5CFAC
:1083A000F5ACC58DD55336722611163006D776F644
:1083B000669556B4465BB77AA719973887DFF7FEFC
:1083C000E79DD7BCC7C448E5588668A778400861D0
:1083D0001802282338CCC9EDD98EE9AFF94889694C
:1083E000990AA92BB9F55AD44AB77A966A711A50E4
:1083F0000A333A122AFDDBDCCBBFFB9EEB799B589C
:108400008B3BBB1AABA66C877CE44CC55C222C036F
:108410003C600C411CAEED8FFDECCDCDDD2AAD0BEB
:10842000BD688D499D977EB66ED55EF44E133E3283
:108430002E511E700E9FFFBEEFDDDFFCCF1BBF3A3B
:10844000AF599F788F8891A981CAB1EBA10CD12D2A
:10845000C14EF16FE18010A100C230E3200450252D
:108460004046706760B9839893FBA3DAB33DC31CA1
:10847000D37FE35EF3B1029012F322D2323542147D
:108480005277625672EAB5CBA5A89589856EF54FED
:10849000E52CD50DC5E234C324A0148104667447CD
:1084A0006424540544DBA7FAB79987B8975FE77E41
:1084B000F71DC73CD7D326F2369106B0165766761D
:1084C00076154634564CD96DC90EF92FE9C899E98D
:1084D000898AB9ABA94458654806782768C018E16D
:1084E000088238A3287DCB5CDB3FEB1EFBF98BD8E1
:1084F0009BBBAB9ABB754A545A376A167AF10AD0BD
:108500001AB32A923A2EFD0FED6CDD4DCDAABD8B2C
:10851000ADE89DC98D267C076C645C454CA23C830C
:108520002CE01CC10C1FEF3EFF5DCF7CDF9BAFBA80
:10853000BFD98FF89F176E367E554E745E932EB25C
:108540003ED10EF01E7C3C3E3F2F2A225C00626F23
:108550006F745F6170705F6D61676963203D307833
:108560002530386C780A00626F6F745F6170705FDD
:10857000666C616773203D3078253032780A00627E
:108580006F6F745F726573657276656420203D302D
:1085900078253032780A00626F6F745F636F70798C
:1085A0005F73697A65203D3078253034780A00623F
:1085B0006F6F745F6473745F6164647220203D3018
:1085C000782530386C780A00626F6F745F7372635D
:1085D0005F6164647220203D30782530386C780A01
:1085E0000022206661696C65643A204275666665A2
:1085F000722066756C6C21002200256920686F75F9
:108600007273202569206D696E7574657300525808
:108610002074696D656F7574004D31313000467599
:108620006C6C205258204275666665720043757303
:10863000746F6D00536174696E20005465787475B1
:108640007200536D6F6F74680047312059252D2ECD
:1086500032662045252D2E3366004731205825648B
:108660002059252D2E32662045252D2E3366006695
:1086700073656E736F725F636865636B706F696E4D
:10868000745F7072696E74006673656E736F7220CA
:1086900076302E3420696E206661756C74207261AC
:1086A0006E676520342E362D3556202D20756E636D
:1086B0006F6E6E6563746564006673656E736F726A
:1086C00020696E20666F7262696464656E207261F3
:1086D0006E676520312E352D3356202D2063686559
:1086E000636B2073656E736F7200312E3000312E14
:1086F0003500554E4B4E4F574E004C413130433AAA
:10870000204C696E65617220416476616E636520FC
:108710006D6F64653A20004C413130433A2041642A
:108720006A757374656420452D4A65726B3A200042
:10873000000E1315110E00000004120912040000AF
:10874000001C1F11111F00000006191803130C0054
:10875000040E1F041C000000040A0A0A0A11110E6C
:10876000001F1511151F0000000103161C08000052
:108770000000110A04110A040C12120C000000007F
:108780002563252D31382E3138532563005B257341
:108790005D2563005B25535D2563002563252D3131
:1087A000382E31385300252E3130532000256325D3
:1087B0002D31382E3138732563002563252D2E3158
:1087C000365320002563252E3135533A2573253342
:1087D0006400252D32302E3230530A004578726500
:1087E0006D65207370616E206F6620746865205A15
:1087F0002076616C756573210025642F39006F6BDD
:108800000A0073746172740A004D4D553220666916
:10881000726D776172652076657273696F6E20691B
:108820006E76616C69642E2052657175697265643B
:108830002076657273696F6E3A206275696C642088
:108840006E756D626572202564206F72206869679D
:108850006865722E004D4D55203D3E20276F6B27D9
:108860000A004D4D55203D3E20276F6B270A0025FD
:1088700064004D4D55203D3E20276F6B272C207204
:108880006573756D65207072696E740A004D4D5583
:1088900020726574727920617474656D7074206ED5
:1088A000722E2025640A004D4D55203D3E20276F35
:1088B0006B270A00410A004D4D55203C3D202741C1
:1088C000270A004D363030204155544F004D363088
:1088D00030002568687500410A004D4D55203C3D2B
:1088E000202741270A0050300A004D25640A004D18
:1088F0004D55203C3D20274D2564270A0057300A5E
:10890000004D4D55203C3D20275730270A0053335A
:108910000A004D4D55203C3D20275333270A005275
:10892000300A004D4D55203C3D20275230270A008B
:108930004B25640A004D4D55203C3D20274B2564B6
:10894000270A004525640A004D4D55203C3D20274F
:10895000452564270A0055300A004D4D55203C3D01
:1089600020275530270A0043300A004D4D55203C42
:108970003D20274330270A004C25640A004D4D5501
:10898000203C3D20274C2564270A005425640A001A
:108990004D4D55203C3D2027542564270A004D4D60
:1089A00055202D20454E41424C45440025686875B0
:1089B0000050300A004D310A004D4D55203C3D20FD
:1089C000274D31270050300A004D4D5520766572F5
:1089D00073696F6E2076616C6964004D4D55203D62
:1089E0003E202725646F6B270A0025750053320A45
:1089F000004D4D55203C3D2027533227004D4D550D
:108A0000203D3E202725646F6B270A002575004D09
:108A10004D55206E6F7420726573706F6E64696E51
:108A200067202D2044495341424C45440053310AAC
:108A3000004D4D55203C3D2027533127004D4D55CD
:108A4000203D3E2027737461727427006E6F206D85
:108A50006F766500542D636F646500756E6C6F6191
:108A600064006C6F6164006D6D755F6765745F7243
:108A70006573706F6E7365202D20626567696E2067
:108A80006D6F76653A20006D6D755F6765745F7216
