; device = mm-control

:100000000C94F7040C941F050C941F050C941F0509
:100010000C941F050C941F050C941F050C941F05D0
:100020000C941F050C941F050C94D8300C94873148
:100030000C941F050C941F050C941F050C941F05B0
:100040000C941F050C94C7250C941F050C941F05D8
:100050000C941F050C94B0250C941F050C941F05DF
:100060000C941F050C9421280C94EA270C941F056E
:100070000C941F050C941F050C941F050C941F0570
:100080000C941F050C941F050C941F050C941F0560
:100090000C941F050C941F050C941F050C941F0550
:1000A0000C941F050C941F050C941F0503000400FD
:1000B000A703120E00000F0E00000C0E0000090E28
:1000C000000060160000FC0D0000F10D0000ED0DB9
:1000D0008F1EE20D0000D70DD00DCC0D0000C80D15
:1000E000C50DC10DBE0DB90DB40DA00D8A0D760D57
:1000F000600D4C0D360D310D2C0D270D220D1D0DF3
:10010000180D130D0E0D090D040DFF0CFA0C33160E
:10011000CC222E16571B2916C722F60C0000F20C13
:10012000A614EE0C5015EA0CE70CE30CE00CDC0C0A
:10013000D90CD50CD20CCF0C00009524B124CB0CDB
:10014000C80C24F4D43050C38E20C2A24017828B36
:100150007011127A910D816CD90AA861E108C75813
:100160006607615143061E4B5D05C145A7041A4150
:100170001104093D9803713931034036DB026533C0
:100180009102D4305402802E1D02632CEE01752A98
:10019000C501B028A001102781018F2564012B24FF
:1001A0004B01E0223401AC211F018D200D01801F85
:1001B000FC00841EED00971DDF00B81CD200E61B7A
:1001C000C600201BBC00641AB200B219A8000A19AC
:1001D000A0006A189900D117910040178B00B5163E
:1001E000840031167E00B31579003A157300C714E8
:1001F0006F0058146A00EE1366008813630025131D
:100200005E00C7125B006C12570015125400C1113A
:10021000510070114F0021114B00D61049008D1074
:1002200047004610440002104200C00F4000800FFB
:100230003E00420F3C00060F3B00CB0E3800930EF1
:1002400037005C0E3500270E3400F30D3200C10D6F
:100250003100900D3000600D2E00320D2D00050D87
:100260002C00D90C2B00AE0C2900850C29005C0C4D
:100270002700350C27000E0C2600E80B2400C40BC9
:100280002400A00B23007D0B23005A0B2100390B07
:100290002100180B2000F80A1F00D90A1E00BB0A13
:1002A0001E009D0A1D00800A1D00630A1C00470AEB
:1002B0001B002C0A1B00110A1A00F7091A00DD099D
:1002C0001900C4091900AB091900920917007B092C
:1002D0001800630917004C0916003609160020099A
:1002E00016000A091500F5081500E0081400CC08EE
:1002F0001400B8081400A4081400900813007D0826
:1003000012006B0813005808120046081200340847
:100310001100230811001208110001081100F00754
:100320001000E0071000D0071000C0071000B00751
:100330000F00A107100091070E0083070F0074073C
:100340000F0065070E0057070E0049070E003B0718
:100350000D002E070E0020070D0013070D000607E5
:100360000D00F9060C00ED060D00E0060C00D406A9
:100370000C00C8060C00BC060C00B0060C00A4065D
:100380000B0099060C008D060B0082060B00770609
:100390000B006C060B0061060A0057060B004C06AA
:1003A0000A0042060A0038060A002E060A00240641
:1003B0000A001A060A001006090007060A00FD05D1
:1003C0000900F4050900EB050900E2050900D9055B
:1003D0000900D0050900C7050900BE050900B505DB
:1003E0000800AD050800A50509009C050800940556
:1003F00008008C050800840508007C0508007405C9
:1004000008006C050700650508005D050700560536
:1004100008004E050700470507004005080038059D
:100420000700310507002A050700230507001C0502
:100430000600160507000F0507000805060002055F
:100440000700FB040600F5040700EE040600E804BC
:100450000600E2040700DB040600D5040600CF0412
:100460000600C9040600C3040600BD040600B70464
:100470000600B1040500AC040600A6040600A004B2
:1004800005009B04060095040500900406008A04FC
:10049000050085040500800406007A040500750443
:1004A0000500700405006B04050066040500610486
:1004B00005005C04050057040500520405004D04C6
:1004C000050048040500430405003E0404003A0406
:1004D000050035040500300404002C040500270441
:1004E0000400230405001E0404001A04040016047A
:1004F0000500110404000D040400090405000404AF
:10050000040000040400FC030400F8030400F403E6
:100510000400F0030400EC030400E8030400E40317
:100520000400E0030400DC030400D8030400D40347
:100530000400D0030400CC030400C8030300C50377
:10054000030024F404D9201BC40C5C0E9804C409D5
:100550005F0265077101F405F900FB04B30048046C
:100560008700C10369005803550003034500BE021C
:100570003A008402310053022A00290225000402B5
:100580002000E4011C00C8011900AF011700980108
:100590001400840113007101100061011000510169
:1005A0000E0043010D0036010B002B010B00200152
:1005B0000B00150109000C01090003010800FB00F4
:1005C0000800F3000800EB000700E4000600DE006E
:1005D0000600D8000600D2000600CC000500C700C7
:1005E0000500C2000500BD000400B9000400B5000C
:1005F0000400B1000400AD000400A9000400A5003F
:100600000300A20003009F0004009B000300980069
:1006100003009500020093000300900003008D008A
:1006200002008B00030088000200860002008400A4
:100630000300810002007F0002007D0002007B00B9
:1006400002007900020077000100760002007400C9
:10065000020072000100710002006F0002006D00D4
:1006600001006C0002006A000100690002006700DE
:1006700001006600010065000100640002006200E4
:10068000010061000100600001005F0002005D00E8
:1006900001005C0001005B0001005A0001005900EC
:1006A00001005800010057000100560001005500EC
:1006B00001005400010053000000530001005200EB
:1006C000010051000100500001004F0001004E00E8
:1006D00000004E0001004D0001004C0001004B00E5
:1006E00000004B0001004A000100490001004800E1
:1006F00000004800010047000100460000004600DD
:1007000001004500000045000100440001004300D5
:1007100000004300010042000000420001004100CF
:10072000000041000100400001003F0000003F00C8
:1007300001003E0000003E0001003D0000003D00C1
:1007400001003C0000003C0000003C0001003B00B8
:1007500000003B0001003A0000003A0001003900AF
:1007600000003900010038000000380000003800A7
:10077000010037000000370001003600000036009D
:100780000000360001003500000035000000350093
:100790000100340000003400000034000100330088
:1007A000000033000000330001003200000032007E
:1007B0000000320001003100000031000000310073
:1007C00001003000000030000000300001002F0068
:1007D00000002F0000002F0000002F0001002E005D
:1007E00000002E0000002E0001002D0000002D0052
:1007F00000002D0000002D0001002C0000002C0046
:1008000000002C0000002C0001002B0000002B0039
:1008100000002B0000002B0001002A0000002A002D
:1008200000002A0000002A00010029000000290021
:100830000000290000002900000029000100280014
:100840000000280000002800000028000000280008
:1008500001002700000027000000270000002700FB
:1008600000002700010026000000260000002600EE
:1008700000002600000026000100250000002500E1
:1008800000002500000025000000250000002500D4
:1008900001002400000024000000240000002400C7
:1008A00000002400010023000000230000002300BA
:1008B00000002300000023000000230000002300AC
:1008C000010022000000220000002200000022009F
:1008D0000000220000002200010021000000210091
:1008E0000000210000002100000021000000210084
:1008F0000000210001002000000020000000200076
:100900000000200000002000000020000000200067
:100910000000200001001F0000001F0000001F0059
:1009200000001F0000001F0000001F0000001F004B
:1009300001001E0000001E0000001E0000001E003E
:10094000000008030736034F007200690067006962
:10095000006E0061006C0020005000720075007392
:1009600000610020004D004D005500200075006E14
:10097000006900740020003DD811DC0000180370ED
:10098000007200750073006100330064002E006384
:10099000006F006D0000000403090409023E00021C
:1009A0000100C03209040000010202010005240018
:1009B000100104240206052406000107058303082C
:1009C00000FF09040100020A0000000705020240BE
:1009D0000005070581024000051201100102000018
:1009E00008992C040001000102000100B624112422
:1009F0001FBECFEFDAE0DEBFCDBF14E0A0E0B1E074
:100A0000EAE4FBE602C005900D92AC30B107D9F7DD
:100A100027E0ACE0B4E001C01D92AB3EB207E1F7C5
:100A200014E0C7EFD4E004C02197FE010E941B33FD
:100A3000C63FD107C9F70E9452280C94A3350C94E5
:100A40000000FC016370862F880F9081997F982B9E
:100A500090836150623018F09E7F9083089591607A
:100A6000FCCF81E090E0FC01EE5CFB4F2081297F10
:100A70002E7F2083FC01EF5CFB4F2081297F2E7F9E
:100A8000208302968931910571F708951F93CF93C2
:100A9000DF93C82F162FD42F0E943105CC0F81E091
:100AA0008C0F90E0612F8E5C9B4F0E9421058C2F54
:100AB00090E06D2F8E5C9B4FDF91CF911F910C9436
:100AC000210591E090937E079091A00720919F07C8
:100AD0002917D9F120919F07392F321BE0917C070C
:100AE000F0917D07303219F50FB607FCFDCF30814C
:100AF00035FFFACF30E0921751F0A22FAF71B0E07E
:100B0000A458B84F13963C912F5F20939F073683CC
:100B100020812064208320919F079213DBCFE091F6
:100B20007C07F0917D0721812F7D2183D3CFA92FD1
:100B3000AF71B0E0A458B84F13968C939F5F909319
:100B4000A0078181806281830895E0917C07F09104
:100B50007D07208125FFBECF8683808180648083CE
:100B60000895CF93DF93DC011496ED91FC911597D6
:100B700016968C9116979FB7F894228180958223C0
:100B800082839FBFFB01CB0105962191CD91DC9122
:100B900011972A83298127FFFDCF2A81EF01219711
:100BA0002883E817F90789F71496ED91FC911597BA
:100BB00016968C919FB7F8942281822B82839FBFD7
:100BC000DF91CF91089542E060E080911D040C9484
:100BD000460540E062E080911D040C94460590912A
:100BE000540480915504981789F0E92FE370F0E0E0
:100BF000E05BFB4F808120915604222311F087FF98
:100C000005C09F5F909354048F7708958FE70895F0
:100C100040E061E080911D040C94460590913805F8
:100C20008091390598130CC09091ED058091EE05E7
:100C3000981306C081E02091A2069091A306291383
:100C400080E0089540E060E080911D040C9446052A
:100C50000F931F93CF93DF93EC018C01060F111DAF
:100C6000C017D10759F08091A00790919F07891B69
:100C7000803251F089910E946105F2CF81E0DF91CD
:100C8000CF911F910F91089580E0F9CF22E0FC01F0
:100C9000228308958F929F92AF92BF92CF92DF925C
:100CA000EF92FF92CF93DF939C01FC01E857FF4F37
:100CB0006081718182819381349740813196508126
:100CC00031960190F081E02D3097F9F0C080D1800D
:100CD000E280F380D901AA55BF4F8D909D90AD90D1
:100CE000BC90C818D908EA08FB08E481E11108C0E3
:100CF000F094E094D094C094C11CD11CE11CF11C70
:100D00006C197D098E099F094F5FA1E24517E1F03B
:100D1000E42FE370E901AE9FC00DD11D1124C880FE
:100D2000D980EA80FB80EC81E11108C0F094E09466
:100D3000D094C094C11CD11CE11CF11C6C197D091C
:100D40008E099F094F5FE2CFDF91CF91FF90EF9027
:100D5000DF90CF90BF90AF909F908F9008950895AF
:100D600081E008958A3020F0803120F4895A089576
:100D7000805D089580E008950F931F93CF93DF93D4
:100D8000082FEB0190E024E0959587952A95E1F7EF
:100D900011E0009721F00E94B206899312E0802FA3
:100DA0008F700E94B2068883812FDF91CF911F91AF
:100DB0000F910895CF93DF93EB01FC0120812883ED
:100DC000818181110DC080E3898381E091E0980FDA
:100DD000C90FD11D90E298838E5FDF91CF91089566
:100DE0006F5F7F4F0E94BC06F1CF9AE2FB019083B8
:100DF000811105C080E3818381E08F5F08956F5F7B
:100E00007F4F0E94BC06F9CFCF92DF92EF92FF9204
:100E10001F93CF93DF93EC016B0114E0892B69F4EE
:100E200080E3FB01808311E0812FDF91CF911F913F
:100E3000FF90EF90DF90CF900895CE018827907FAC
:100E4000892B39F424E0CC0FDD1F2A95E1F71150EE
:100E5000F4CF76018E2D8C19811730F78D2F829566
:100E60008F7094E0CC0FDD1F9A95E1F70E94B206D7
:100E7000F70181937F01EECF803330F08A3330F079
:100E80009FE9980F963020F080E0089580530895F0
:100E90008755089590ED980F9A3038F09FE9980F94
:100EA00081E0963018F080E0089581E00895FC011B
:100EB0008081813041F020F0823039F483E001C03C
:100EC00081E08083089582E0FCCF108208950F9323
:100ED0001F93FC0180859185A285B3858A019B01C2
:100EE000081B190B2A0B3B0BD901C801B7FF07C020
:100EF000B095A095909581959F4FAF4FBF4F1F9193
:100F00000F910895CF93DF93DC011796EC91B5EB29
:100F1000EB9FF0011124E85CFA4F308121813213FC
:100F20000BC0EC018B818C83E881F9810084F18511
:100F3000E02DCE0109951A82DF91CF91089581E0CD
:100F400008959FB7F894EFE6F0E080818260808397
:100F50009FBF0895AA27639FB12D749FF001849FBE
:100F6000F00D839FE00DF11D649FB00DE11DFA1F90
:100F7000739FB00DE11DFA1F829FB00DE11DFA1F96
:100F8000729FB10DEA1FFA1FBB0FEA1FFA1F11244F
:100F9000CF0108952FB7F894EFE6F0E080819081BB
:100FA0009D7F90832FBF86958170089581110C9449
:100FB000A1079FB7F89480916F008D7F80936F0099
:100FC0009FBF0895CF92DF92EF92FF920F931F93EE
:100FD000CF93DF93C82FC62E0E94CA07D82EEC2EBF
:100FE000F12C85EBC89FE00111248E010C541B4F9E
:100FF000C8010E944A06AE0141555B4FFA01E35712
:10100000FF4F608371838283938332972081318184
:10101000232B89F0EA01C756DF4FCA018B559F4F3A
:10102000DC018D919C91B0E0A0E088839983AA8334
:10103000BB8311821082F801EC57FF4F80818183BE
:10104000CC2061F085EB8E9DF0018F9DF00D112479
:10105000E85BFA4F10821182128213828D2DDF918C
:10106000CF911F910F91FF90EF90DF90CF900C9454
:10107000D607CF93DF93C82F0E94CA07D82F6C2FB3
:1010800080E00E94E2076C2F81E00E94E2076C2F53
:1010900082E00E94E2078D2FDF91CF910C94D6075A
:1010A000CF92DF92EF92FF92CF93DF93C82F0E94EF
:1010B000CA07D82F25EBC29FC00111248C549B4F27
:1010C0000E944A066B017C018D2F0E94D607C70142
:1010D000B601DF91CF91FF90EF90DF90CF90089510
:1010E00080E00E9450080E944F342AE239E64FEB1C
:1010F0005CE30E94DB340E941734089582E00E9472
:10110000500808950F931F9325EBFC0111922A9527
:10111000E9F72DE1629FF0011124E253F94F0589AF
:1011200016892789308D418D528D638D748DDC0138
:10113000A757BF4F1C9211961C9213961D921D9299
:101140001D921C9213971C961D921D921D921C922B
:10115000139718970D931D932D933C931397149603
:101160004D935D936D937C9313971A9711961C92F0
:101170001E9295962189328943892D933D934C93F4
:101180001F910F910895FB0181342CE9920708F01B
:1011900030C081322EE4920708F42EC096958795D0
:1011A0009695879524E020838097811528E0920703
:1011B00008F433C0E92FFF27EE0FFF1FEE0FFF1FCC
:1011C0009F012E5B3A4FF901329665917491789F99
:1011D000A001689F000C411D1124511DF90185914A
:1011E0009491841B950B8436910510F484E690E06D
:1011F000089580E49CE9D2CF813127E2920720F064
:101200009695879522E0CFCF21E02083803291050B
:1012100008F0CACF80E290E0C7CF9C0136952795B1
:101220002C7F3F772E5B3E4FF90145915491F90198
:1012300032966591749187709927869F9001879F58
:10124000300D969F300D112463E0369527956A95F1
:10125000E1F7CA01821B930BC6CF0F931F93CF9365
:101260008C01C4EB6111C8EC0E947E080E944F34CF
:1012700026E636E646EE5DE30E94DB340E94173434
:10128000AB01BC01C8010E94670721E0C81719061D
:1012900008F020E0822FCF911F910F910895FC015B
:1012A0009081892F8370813081F030F0823001F598
:1012B0009360442341F019C04423B9F09C7F7283AA
:1012C000618391609460908310C092FB882780F9BD
:1012D00084130CC021813281621B730B83819C7F3C
:1012E00092608617170679F370F308959C7FEBCF11
:1012F000728361839C7F9B7FE6CF4FB146FB44277F
:1013000040F960914C0470914D0481E791E00C9498
:101310004F09FC018281803141F4868597858130B7
:10132000910529F490E080E00895838194810895E7
:10133000FC018281863021F0803151F48585089549
:1013400096A1933031F0953031F0923009F48CE170
:10135000089587E0089582E00895FC01828180313C
:1013600019F4868597850895838194810895FC01F9
:101370008281803109F485850895FC018281803164
:1013800019F4868597850895838194810895FC01D9
:101390008281803109F485850895FC01128221E063
:1013A00030E03483238380914C0490914D049093DA
:1013B000C4078093C3070895FC0182818823A9F0A4
:1013C0008A3169F480915901811107C080916701C8
:1013D000811103C0CF010E94CD0980E008958DE006
:1013E00082838FE290E89483838381E00895E7E528
:1013F000F1E082818F778283E5E6F1E082818F7769
:10140000828308950E94F70910925C0110926A018C
:10141000089520E430E002C0220F331F6A95E2F7FE
:10142000822B932B0895FC01228130E02F77253009
:10143000310531F026303105A9F090E080E00895C3
:101440006781268180E094E820FD02C090E080E082
:1014500021FD986822FD906923FD906A24FD906C1F
:101460000C94090A678187E090E8FACF90917C009C
:10147000907E892B80937C0080917B008F7D809370
:101480007B0080917A00806480937A0080917A005A
:1014900086FDFCCF809178009091790008950F939C
:1014A0001F93CF93DF9300914C0410914D0485E07E
:1014B0000E94360AC0E08333910568F09C012055F4
:1014C0003109C1E02531310530F0805A9109CFEF63
:1014D000459708F4C2E00C2E000CDD0B41E020978C
:1014E00009F040E0B80180E491E00E944F0941E03A
:1014F000C130D10509F040E0B80184E491E00E94D8
:101500004F0941E0229709F040E0B80188E491E0FA
:10151000DF91CF911F910F910C944F090F931F935F
:10152000CF93DF9300D000D01F92CDB7DEB7CB01B1
:10153000406849833A832B831C830D83BE016F5F10
:101540007F4F0E94B1050F900F900F900F900F905A
:10155000DF91CF911F910F910895EF92FF920F931A
:101560001F93CF93DF9300D000D01F92CDB7DEB78B
:101570007B018E010F5F1F4F85E0F80111928A9564
:10158000E9F74983B801C7010E94B1051982B80182
:10159000C7010E94B1056A817B818C819D810E9477
:1015A00089330F900F900F900F900F90DF91CF9194
:1015B0001F910F91FF90EF9008958F929F92AF929D
:1015C000BF92CF92DF92EF92FF921F93CF93DF9360
:1015D000FC011181112309F440C05B01EC0141E0E1
:1015E0000E94AD0A6B017C014FE6B501CE010E945D
:1015F000AD0AAB01BC018881982F9C294601570197
:1016000022E0B694A794979487942A95D1F790FBFB
:1016100080F980FA81F988834A015B018824992442
:10162000AA24F8E1BF2281E089288A288B2809F4BE
:1016300080E0988180FB92F972FB882780F980FB1B
:1016400093F971FB442740F940FB94F99883CD2826
:10165000CE28CF2811F4192F1170812FDF91CF914F
:101660001F91FF90EF90DF90CF90BF90AF909F9031
:101670008F9008951F93CF93DF93EC018F819DE1AD
:10168000899FB0011124675A7B4F15EB189FC00149
:10169000112481559B4F0E94DD0A882369F08F81B8
:1016A000189FF0011124E155FB4F90819E8361E06A
:1016B0000E94E20785E08A83DF91CF911F91089510
:1016C0000F931F93FA0102812181122F1F7120179E
:1016D00048F00F712FE030E040E10E948E0A1F9128
:1016E0000F910895012FF6CFCF93DF9300D01F9273
:1016F000CDB7DEB7FC0191E0603208F090E099834D
:10170000962F603208F096959A83603208F04695DD
:101710004B8387812DE1829FB0011124675A7B4F53
:1017200025EB829FC0011124AE014F5F5F4F8155B1
:101730009B4F0E94600B0F900F900F90DF91CF9105
:101740000895CF93DF93EC01EF8185EBE89FF001E3
:101750001124E15AFA4F42816181CE010E94740B3B
:10176000E881F9810190F081E02DCE01099581E0B9
:101770008A8380E0DF91CF910895FC01248525873D
:101780006091CA064091CB06222319F0213019F44A
:10179000462F0C94740B08950F931F9300EF1FEFC7
:1017A0002FE030E0411104C006E410E020E030E01A
:1017B00043E10E948E0A1F910F9108950F931F938A
:1017C000CF938C0181E0611101C080E080931F0400
:1017D000C1E06111C0E04C2F6FEC76E08FEA94E03D
:1017E0000E94CC0B4C2F6CEE76E084E695E00E94D4
:1017F000CC0B4C2F69E077E089E196E00E94CC0B9E
:10180000C8010E94CD0981E0CF911F910F910895E9
:10181000BF92CF92DF92EF92FF920F931F93CF93DD
:10182000DF937C01EB016A01B22EFC01118282E0A0
:101830008383EC81FD812E818FB7F8949281922B66
:1018400092838FBF8181822B8183EA85FB858C8582
:101850002181982F9095922391839FB7F8942281AC
:10186000822B82839FBFEF81F88589852FB7F894FB
:101870003281982F9095932392832FBF9181892B4A
:10188000818344E0C7010E94AD0A092F1127222756
:101890003327013111052105310509F06BC026E020
:1018A00096958795779567952A95D1F7F1E06F27FB
:1018B00060FD60C0F70180818E7F808341E0BE01C2
:1018C000C7010E94AD0A3D85F601808121E080FBC1
:1018D00021F923703F70306130623F7B3F7703ED29
:1018E00010E04CE6BE01C7010E948E0AA601BE01AF
:1018F000C7010E94600B00E010E0980141E1BE01C9
:10190000C7010E948E0A2E852F772F7710E030E0D6
:101910004DE6BE01C7010E948E0A02EC11E020E0F4
:1019200030E044E1BE01C7010E948E0A04E810E0E5
:1019300020E030E040E0BE01C7010E948E0A00EFC7
:1019400014E024E130E040E7BE01C7010E948E0AA6
:101950004B2DBE01C7010E94CC0B81E0F7018183B2
:10196000DF91CF911F910F91FF90EF90DF90CF907B
:10197000BF90089580E0F4CFF89488E198E00FB626
:10198000F894A895809360000FBE90936000FFCFFD
:101990008093310408958091310490E0089581EEA0
:1019A00090E008958093CA0608958091CA0690E059
:1019B00008958093150608958091150690E0089586
:1019C0008093600508958091600590E0089580936C
:1019D000300408958091300490E0089580915B0177
:1019E00090E008958091690190E008950E94700848
:1019F000CB01089590932F0480932E040895809135
:101A00002E0490912F04089590932B0480932A0420
:101A1000089580912A0490912B04089590932504B1
:101A200080932404089580912404909125040895BE
:101A300090932D0480932C04089580912C04909110
:101A40002D0408959093290480932804089580918B
:101A500028049091290408959093230480932204EC
:101A6000089580912204909123040895BC0190E090
:101A700080E00E944D3424EE38E34EE051E40E94B1
:101A8000DB340E941E346093AE067093AF068093E1
:101A9000B0069093B10608956091AE067091AF06BE
:101AA0008091B0069091B1060E944D3426E636E64C
:101AB00046EE5DE30E94DB340E941734CB010895AB
:101AC000BC0190E080E00E944D3420E030E048E42A
:101AD00053E40E94DB340E941E346093F905709336
:101AE000FA058093FB059093FC0508956091F90534
:101AF0007091FA058091FB059091FC050E944D3490
:101B00002AE037ED43EA5BE30E94DB340E9417349E
:101B1000CB010895BC0190E080E00E944D3428E2A2
:101B200031E34BE252E40E94DB340E941E346093A6
:101B300044057093450580934605909347050895A5
:101B40006091440570914505809146059091470547
:101B50000E944D342AE239E64FEB5CE30E94DB340D
:101B60000E941734CB010895909327048093260494
:101B7000089580912604909127040895809321046C
:101B800008958091210490E00895809320040895A1
:101B90008091200490E0089580911F0490E00895C2
:101BA00021E0892B09F420E02093180108959091F9
:101BB0001401937021E030E0923011F030E020E029
:101BC000C901089590917101937021E030E0923045
:101BD00011F030E020E0C901089580911E0490E0EA
:101BE00008958091C5079091C607DC01ED91FC91A5
:101BF0000680F781E02D09948091C5079091C60772
:101C0000DC01ED91FC910480F581E02D099590E0D7
:101C1000089587EA93E0089584E090E0089590E0C5
:101C200080E0089583E090E0089581E00895FC014C
:101C30008089089580E00895FC018381948108954E
:101C4000FC0182810895862798E027E0382F880FCD
:101C500037FD82279150D1F70895CF93DF93EC01A0
:101C6000688180E00E94230E69810E94230E6A81B0
:101C7000CB810E94230E6C2FDF91CF910C94230E09
:101C8000CF93DF93EC010E942D0E6D810E94230EF5
:101C90006E81CF810E94230E6C2FDF91CF910C9427
:101CA000230EAF92BF92CF92DF92EF92FF920F93EB
:101CB0001F93CF93DF93CDB7DEB72D970FB6F89470
:101CC000DEBF0FBECDBF5C01C62ED42E052F79011D
:101CD00090E080E022E5662319F0942F852F21E41F
:101CE00035E0F501DE01199601900D923A95E1F784
:101CF00035E0FE013996DE01119601900D923A957C
:101D0000E1F72E839F838887CE0101960E94400EC3
:101D10008D83B701C5010E94DA06F701E80FF11DB6
:101D20009E81908311E0180FCC2041F0B701610F24
:101D3000711D8D2D902F0E940407180FB701610FA0
:101D4000711D8D810E94F506810FF701E80FF11DCD
:101D50009AE090838F5F2D960FB6F894DEBF0FBE8A
:101D6000CDBFDF91CF911F910F91FF90EF90DF904A
:101D7000CF90BF90AF900895EF92FF921F93CF93B3
:101D8000DF93CDB7DEB762970FB6F894DEBF0FBE14
:101D9000CDBF162F7A01FC01218180818E872F878C
:101DA000198A188ACE010E960E942D0E8A8B85E024
:101DB000FE013E96DE01199601900D928A95E1F79B
:101DC00085E0FE013996DE01119601900D928A950B
:101DD000E1F71E8318861F82CE0101960E94400EF5
:101DE0008D83B701CE0101960E94DA06F701E80F54
:101DF000F11D108311E0180FB701610F711D8D8166
:101E00000E94F506810FF701E80FF11D9AE090831B
:101E10008F5F62960FB6F894DEBF0FBECDBFDF9125
:101E2000CF911F91FF90EF900895CF93DF93CDB79F
:101E3000DEB72E970FB6F894DEBF0FBECDBFAE0152
:101E40004F5F5F4F0E94BC0E682FCE0101960E942B
:101E500028062E960FB6F894DEBF0FBECDBFDF91D9
:101E6000CF910895CF93DF93EC018091C5079091B6
:101E7000C607DC01ED91FC910480F581E02D099508
:101E8000811138C0E881E554E13108F04BC0F0E041
:101E9000E45BF04F0C941B33800F920F920F830F73
:101EA000920F920F5D0F860F8F0F920F920F920F6E
:101EB000920F920F920F890F8C0F8CE092E090930B
:101EC000C6078093C50785E0FE01A7ECB7E0019047
:101ED0000D928A95E1F78091C5079091C607DC01C4
:101EE000ED91FC910190F081E02D6981099561E40B
:101EF000811101C062E5CE01DF91CF910C94150FE5
:101F000088EE91E0DCCF8DED91E0D9CF8CEC91E0C3
:101F1000D6CF83EA91E0D3CF8BE891E0D0CF80E8B1
:101F200091E0CDCF85E791E0CACF20E130E040E0FD
:101F300050E86FB7F89447986FBF6FB7F894FC01FB
:101F4000E423F523EF2B11F12D9A6FBF6FB7F894AF
:101F5000479A6FBF569547952150310951F72FB7D2
:101F6000F89447982FBF2FB7F8942E9A2FBF20E5EB
:101F70002A95F1F72FB7F8942E982FBF20E52A95D0
:101F8000F1F790934F0480934E0408952D98DDCF80
:101F90001F93CF93DF9320914D04822F869590E07D
:101FA000A82FA17050E040E0D0E0C0E09C01209557
:101FB0003095CC0FDD1FFA01EE5CFB4F8081982F2E
:101FC00096959370923071F1933081F18081682FF2
:101FD000617070E0C62BD72B4F5F5F4F48315105C2
:101FE00041F780914A0490914B04C817D907B1F08A
:101FF0001FB7F89480914E0490914F048F739927E6
:1020000020E0D0FB26F9D1FB27F9822B9C2B0E94E4
:10201000950F1FBFD0934B04C0934A04DF91CF911B
:102020001F910895A0FB80F98083D0CF20FB80F919
:10203000FBCFCF93DF93C0914C04D0914D0480919E
:102040004C0490914D048C1B9D0BC39718F40E9477
:10205000C80FF5CFDF91CF91089541E060E00E9475
:1020600046050C94191040E061E00E9446050C946E
:102070001910CF93C0E08C2F0E942D108C2F0E943E
:102080003310CF5FCC30B9F78C2F0E9433108C2FD8
:102090000E942D10C150C1F7CF910895CF93CFB7B3
:1020A000F894880F21E030E002C0220F331F8A9598
:1020B000E2F780914E0490914F04662349F02095F9
:1020C0003095822393230E94950FCFBFCF9108951F
:1020D000822B932BF8CF0F931F93CF93DF93EC01B9
:1020E000142FFB0122810FB7F89430E0220F331F29
:1020F0002F5F3F4F81E090E0AC0102C0440F551FBD
:102100002A95E2F79A0180914E0490914F04112391
:1021100091F020953095822393230E94950F0FBF55
:102120008A81811711F08B818C831A83DF91CF9183
:102130001F910F910895842B932BEFCFCF93DF93B3
:10214000282F30E045EB849FC001112481559B4F1F
:10215000EC01C155DF4F4881442361F04DE1429FBE
:10216000B001439F700D11246153794F40E00E94EC
:102170006B101882DF91CF9108951F93CF93DF9357
:1021800000D01F92CDB7DEB7182F49835A836B83D7
:102190000E949E102DE1129FB0011124FB01E25319
:1021A000F94F6153794F25EB129FC0011124248907
:1021B000AE014F5F5F4F81559B4F0E94080C0F90FF
:1021C0000F900F90DF91CF911F91089595EB899F0C
:1021D000F0011124E15AFA4F4081518162810C943F
:1021E000BD1080E00C94E610CF93DF93EC018F815B
:1021F0000E94E610882329F0CE01DF91CF910C9444
:10220000A10B85E08A8382E0DF91CF910895CF937F
:10221000DF93EC0181E00E9450080E944F342AE0D5
:1022200037ED43EA5BE30E94DB340E941734AB01D5
:10223000BC01CE010E94670788349105D0F088E97F
:102240009AE3A0E0B0E08093F1059093F205A093AB
:10225000F305B093F4058FEF8C838B818D3010F0F4
:102260008CE08B83CE010E94F41081E0DF91CF914E
:10227000089580E0FBCFCF93DF93EC010E947E08AE
:102280000E944F3426E636E646EE5DE30E94DB34DC
:102290000E941734AB01BC01CE010E946707803455
:1022A0009140A0F01092A6061092A7061092A806E0
:1022B0001092A9068C85811102C08CE08B83CE011F
:1022C0000E94F41081E0DF91CF91089580E0FBCF70
:1022D000EF92FF920F931F93CF93DF93C82F0E942B
:1022E000E61025EBC29FC00111249C0121553B4FF4
:1022F00079013DE1C39FE00111242196BE016253A3
:10230000794F41E0C7010E94CC0BCB5DD84F4CE622
:10231000BE01C7010E94AD0A8B019C01007F4CE603
:10232000BE01C7010E948E0ADF91CF911F910F91CC
:10233000FF90EF90089580E00E949E101092360169
:10234000089581E00C949E10CF93DF93EC018F8170
:1023500095EB899FF0011124DF01A155BB4F149625
:102360009C91149791111FC013968C9113971496FA
:102370008C93E881F9810284F385E02D61E0CE0140
:102380000995882369F061E08F810E94E207E88166
:10239000F9810480F581E02DCE01099584E08A83DE
:1023A000DF91CF910895E85CFA4F20819181291344
:1023B000F7CF1D820E949E1086E0F1CF0F931F93EE
:1023C000CF93DF93EC018F8115EB189FF00111245F
:1023D000DF01A155BB4F14969C91149791113BC0FE
:1023E00013968C91139714968C93E881F98102844B
:1023F000F385E02D60E0CE010995882339F161E095
:102400008F810E94E2078F8140911F0401E04027E5
:102410009DE1899FB00111246153794F189FC0013C
:10242000112481559B4F0E94CC0BE881F9810680D5
:10243000F781E02DCE010995811107C01D828F81A2
:102440000E949E1086E08A8301C00D83DF91CF91A8
:102450001F910F910895E85CFA4F20819181291313
:10246000F5CF1D82EDCFCF93DF93EC018A81806899
:102470008A8361E08F810E94E2078F81DF91CF9193
:102480000C949E1087E591E00E94331285E691E05E
:102490000C9433124F925F926F927F92AF92BF92E1
:1024A000CF92DF92EF92FF920F931F93CF93DF9320
:1024B000CDB7DEB760970FB6F894DEBF0FBECDBFC5
:1024C0007C01DC0112968C9112978F3109F4E9C0DE
:1024D00080F48D3109F4CCC008F0D1C0882309F410
:1024E0007DC18DE0F70182838FE290E8948383833E
:1024F00075C1813209F412C108F4E0C08232A1F042
:10250000833279F780914C0490914D0451962D912E
:102510003C915297821B930BC39708F4C0C082E290
:1025200012968C930E943105F701C4842DE1C29E5E
:10253000F0011124EA5DF84F80E1DE01119601906F
:102540000D928A95E1F785EBC89E60011124D601B2
:10255000A155BB4F6D01F701B384F7E1FB1508F4FA
:10256000C0C02B2D2770A22EB1FA662760F981E03A
:1025700068278B810E944E10E885F9858A859FB770
:10258000F8942281B0FEA6C0822B82839FBFB2FA4C
:10259000442740F9BE016F5F7F4FC6010E946B1058
:1025A00044E0BE016F5F7F4FC6010E94AD0A2B0160
:1025B0003C01A3E04A2255246624772464FD8DC0A3
:1025C00044E050E060E070E0C201842B8A25982F3F
:1025D0009095092F017010E0F801EE5CFB4F90819F
:1025E000997F92609160908321E081FBAA27A0F9F6
:1025F000A227AE5FB0E0AE5CBB4F9C91997F92602A
:1026000091609C9382FBEE27E0F9E227EC5FF0E01B
:10261000EE5CFB4F9081997F926091609083D7012F
:102620001C96EC911C97EE0DFF2DF11D9585892BC5
:10263000858780914C0490914D0452969C938E9383
:10264000519761E053968C91811160E0F701638BA3
:102650008BE394E00E94210583E2D70112968C93CC
:1026600012971B968C911B978F5F1B968C9317C0AC
:10267000F7011482138213868EE1828310C082E0F8
:102680001C968C9340E061E083E00E94460582E264
:10269000F70182838FE1808B84850E94681180E03E
:1026A0009EC081E01C968C9341E060E083E00E9434
:1026B000460582E2F701828380E2EDCF1C961C92F0
:1026C00041E061E083E00E94460582E2F7018283F7
:1026D00081E2E1CF8095822358CF40E050E0BA01FB
:1026E00073CF40E0BE016F5F7F4FCD010E946B1042
:1026F0004CE6BE016F5F7F4FC6010E94AD0A8B01A1
:102700009C01007F03604CE6BE016F5F7F4FC601F6
:102710000E948E0AF70113868089AFCF1D968C9197
:102720001D9781110AC01E968C911E97811105C0BC
:102730001F968C91882309F471C084E2F70182838B
:1027400080E092EC948383835701FDE0AF0EB11CCF
:1027500082E3C82E84E0D82E10E0D5010D915D01F2
:102760000023E9F0612FF701838194810E94090A17
:10277000D70114969C938E931397602F6170802FCE
:10278000827002FD41C001E0811101C000E0C6017C
:1027900001960E942105602FC6010E9421051F5F3E
:1027A000B2E0CB0ED11C1330C1F680913804897F82
:1027B0008E7F8093380480913904897F8E7F809347
:1027C000390480913A04897F8260816080933A0461
:1027D00080913B04897F8E7F80933B0481E06096EB
:1027E0000FB6F894DEBF0FBECDBFDF91CF911F9122
:1027F0000F91FF90EF90DF90CF90BF90AF907F90C0
:102800006F905F904F900895662331F062E002E090
:102810008111BDCF01E0BBCF61E0F9CF0E9431054E
:10282000C7010E94CD09DACFCF9390E0FC01EE5BA7
:10283000F64FC491815C9C4F0E9421338F3F09F475
:102840008C2FCF9108951F93CF93DF93EC011D82BE
:102850008A8187FD3AC08F810E9414149F811DE1F7
:10286000199FF0011124E253F94F8787892F0E94A5
:10287000E6102F8130E0129FB001139F700D1124DC
:102880006153794F15EB129FC001139F900D1124D6
:1028900041E081559B4F0E94CC0BEF811E9FF001C0
:1028A0001124E155FB4F8381848383E08A838FEF7A
:1028B0008C83E881F9810280F381E02DCE010995B6
:1028C00080E0DF91CF911F91089581E0FACF909140
:1028D0006701913011F481E008958093680194308C
:1028E000C9F090916901891304C080916A01811136
:1028F00011C0809171018370823069F380916A0107
:1029000081110AC080911E04823030F485E691E086
:102910000E94231480E0089585E691E00C94A10BB9
:10292000CF93DF93EC01862F9BE19A830E9467147B
:10293000813031F01C821B8281E0DF91CF910895BC
:1029400087E890E89C838B8380E0F7CF0C94671432
:10295000909159019130F1F097FD1CC080935A017C
:1029600060936301943041F090915C01911106C035
:1029700087E591E00E94231480E00895909164011E
:10298000691304C090915B018917B1F387E591E069
:102990000C94A10B81E0089560E08CE00C94A814E5
:1029A0002AE0FC012283768365830E94E3050C9470
:1029B000CC14CF93DF93EC0187E18A831C821B82C6
:1029C0008BA1833060F080E00E946714813049F46D
:1029D0006AE070E8CE01DF91CF910C94D01484E0CE
:1029E000F3CFDF91CF910895CF93DF93EC01862F42
:1029F0000E946714882339F06AE070E8CE01DF9105
:102A0000CF910C94D014DF91CF91089561E00C9494
:102A1000A814FC0110820E94E90580911D040C9409
:102A20000615FC011082618342830E94E9058091B2
:102A30001D040E946714811106C080911D040E942C
:102A4000061581E0089580E00895CF93DF93EC01AF
:102A500085E08A831C821B8241E0CE010B960E9496
:102A60001115811107C06AE070E8CE01DF91CF91A6
:102A70000C94D014DF91CF910895CF93DF93EC01A4
:102A800082E18A838FA10E9406156FA1CE010E9468
:102A9000F41440E062E08FA1DF91CF910C944605E1
:102AA0008C30910510F00C94CC140C940615CF9337
:102AB000DF93EC01188262E080911D040E94A8144B
:102AC00080914C0490914D049F838E83DF91CF9130
:102AD0000C94E905CF93DF9320917101237022308C
:102AE00021F020911E04223080F0EC010E94F110B0
:102AF00093E09A831C821B821F8A81E08C878091DD
:102B000071018370823029F09B8781E0DF91CF9142
:102B10000895CE010B960E945715F7CF6C3038F010
:102B200026E030E8FC013483238380E00895FC0133
:102B30001482138263A320911E04222339F020E122
:102B400022830B960E946A1581E008950E94D91491
:102B5000FBCF6C3038F026E030E8FC01348323836F
:102B600080E00895FC011482138267A320911E0463
:102B7000223038F020E122830B960E946A1581E012
:102B800008950E943D15FBCFCF92DF92EF92FF9206
:102B90001F93CF93DF93EC016115710509F441C0D8
:102BA000122F6A017B018F818F3F61F48A818F83AD
:102BB0008B819C81998788877C836B838CE08A8357
:102BC0000E9442128A85882331F0FC82EB828CE0DD
:102BD0008A830E9442128A818C3049F48FE3E82272
:102BE000E894F0F8E7E0EE16E0E8FE0649F081E050
:102BF000DF91CF911F91FF90EF90DF90CF900895DC
:102C00000E94EF05813099F72A85212B2A870E949F
:102C1000F709C6010E9423148AE18A831C821B8261
:102C2000E6CF8A85982F922391F09A819A3179F490
:102C3000FA0195819923D9F29F819A834885598514
:102C40005C834B83209528232A878FEF8F8380E036
:102C5000CFCF82E00E94141490E0089581E00E949A
:102C6000141490E0089580E00E94141490E00895F8
:102C70001F93CF93DF938CE393E00E9421338F5F08
:102C8000C82FD0E0DC2FCC278DE393E00E942133C6
:102C9000182F8EE393E00E9421331F3F11F4882305
:102CA00069F0811748F481E0810F8C0F9D2F911DF1
:102CB000DF91CF911F9108958F5FF7CF81E0F5CF1E
:102CC0000C943816CF93DF9389E190E00E94213372
:102CD000C82F8AE190E00E942133D82F8C1749F049
:102CE0008BE190E00E942133C81719F0CD2FD81343
:102CF000CFEF8C2FDF91CF9108950F931F93CF9338
:102D0000DF930E946216082F10E0813029F0B0F0A6
:102D10008230A1F08330A9F5CFE1D3E0CE014C960B
:102D20000E94213390E024E0959587952A95E1F75C
:102D30000817190709F1CE01019611C0D0E0C0E0D3
:102D4000CE014C960E94213390E034E09595879512
:102D50003A95E1F70817190739F0CE010197DF918D
:102D6000CF911F910F9108952196C03283E0D8072B
:102D700039F78FE193E0F3CF219780F690E080E080
:102D8000EECF8FEF9FEFEBCF2F923F924F925F925C
:102D90006F927F928F929F92AF92BF92CF92DF926B
:102DA000EF92FF920F931F93CF93DF93CDB7DEB7D0
:102DB000A1970FB6F894DEBF0FBECDBF882E912C21
:102DC0009A8A898A95EB899F50011124BE8AAD8A1F
:102DD000D501AC54BB4FB88FAF8BFD01EC57FF4F03
:102DE00081819081B82FB91BB43011F5E091C507EE
:102DF000F091C6078DE082838BE290E89483838311
:102E000021E030E0F901EE5CFB4F8081897F846036
:102E100081608083F901EF5CFB4F8081897F846052
:102E2000816080832E5F3F4F2931310559F7B7C14B
:102E30008370882E912C9A8E898EED89FE89E45CB0
:102E4000FA4F80819181A281B3814A015B01881A86
:102E5000990AAA0ABB0AD501C40189839A83AB8364
:102E6000BC83B7FF0BC0882499245401881A990A9F
:102E7000AA0ABB0A89829A82AB82BC823F2CE9866D
:102E8000DD86CD82680179014B8F5C8F6D8F7E8FDF
:102E900021E2A98CBA8C2A9DF0012B9DF00D112402
:102EA00025EB89889A88289DB001299D700D1124F1
:102EB000E60FF71F8F0101551B4F89809A80AB8069
:102EC000BC80F80185829682A782B0860097A10512
:102ED000B10509F442C180959095A095B0958827D9
:102EE000B7FD83959927AA27BB278187C68AD78AEA
:102EF000E08EF18EFB01E155FB4FDF01AB56BF4F7A
:102F00008D909D90AD90BC90D80192968D929D929F
:102F1000AD92BC929597A3E4B0E0A50194010E9404
:102F2000903353E096958795779567955A95D1F7A5
:102F3000D8011A966D937D938D939C931D97DF0115
:102F4000A756BF4F8D919D910D90BC91A02DEF562E
:102F5000FF4FC816D906EA06FB0608F439C1B701C7
:102F6000A601481B590B6A0B7B0B40805180628085
:102F70007380441555056605770510F42A013B0159
:102F8000840D951DA61DB71D88379105A105B105B6
:102F900020F488E790E0A0E0B0E0CB8ADC8A2E2C19
:102FA0000F2D8C159D05AE05BF0520F48B8B9C8BDA
:102FB0002A2E0B2F8D819D85A985B32D88379105EC
:102FC000A105B10520F488E790E0A0E0B0E03C2C3A
:102FD0001D2DE9A2FF8E8C159D05AE05BF0520F4C1
:102FE000382E192FA9A3BF8F81149104A104B10415
:102FF00021F4812C912C540183942B893C89422DFE
:10300000502FB901822D902F0E9457336D837E83FC
:103010008F839887A7019601C701B6010E94573395
:1030200069877A878B879C87232D312F49A15F8DF4
:10303000632D712FCA010E9457336D877E878F875A
:10304000988B24013501440C551C661C771C69853E
:103050007A858B859C8561507109810991092D8143
:103060003E814F815885621B730B840B950B640D59
:10307000751D861D971DA30192010E94673369018A
:103080007A0169857A858B859C852D853E854F855E
:103090005889621B730B840B950BA30192010E944C
:1030A0006733DA01C9018C0D9D1DAE1DBF1D49811D
:1030B0005A816B817C8184179507A607B70708F0B2
:1030C0009DC0481B590B6A0B7B0B81E2A98CBA8C03
:1030D0008A9DF0018B9DF00D112425EB89889A883B
:1030E000289DC001299D900D1124E80FF91FE1557D
:1030F000FB4FC686D786E08AF18AC40ED51EE61E2F
:10310000F71EC28AD38AE48AF58A9B88928EAC889D
:10311000A38E248E058F368E178FB9A0B0A28F8C08
:1031200081A281559B4FFC01E756FF4F30821183EE
:10313000B2828382EF89F88DEC57FF4F21812F5F98
:10314000218383579F4F8B8C9C8CAD8CBE8CDC0174
:103150008D929D92AD92BC92139785EB89889A8847
:10316000889DF001899DF00D1124E25AFA4FFA83EF
:10317000E9838081811113C08DE1889DB001899D13
:10318000700D11246153794F41E08D899E898155DD
:103190009B4F0E946B1081E0A981BA818C93A1960C
:1031A0000FB6F894DEBF0FBECDBFDF91CF911F9158
:1031B0000F91FF90EF90DF90CF90BF90AF909F90D6
:1031C0008F907F906F905F904F903F902F900895D9
:1031D000AC01BD014C195D096E097F094080518029
:1031E00062807380441555056605770510F42A0141
:1031F0003B0184199509A609B709C6CEA50194011A
:1032000082E0220F331F441F551F8A95D1F7698131
:103210007A818B819C8161707727882799276987BC
:103220007A878B879C87C980DA80EB80FC80F69454
:10323000E794D794C7948D809E80AF80B8846D85C5
:103240007E858F859889681579058A059B0508F420
:1032500050C04B015C0171E0871A9108A108B108C8
:103260008D819E81AF81B885881A990AAA0ABB0A06
:10327000C501B401620F731F841F951F89849A844E
:10328000AB84BC8489288A288B2821F0640D751DA5
:10329000861D971D0E946733C20ED31EE41EF51EC5
:1032A00089809A80AB80BC808C149D04AE04BF04DE
:1032B000E0F4A5019401C301B2010E9457338D804F
:1032C0009E80AF80B884680D791D8A1D9B1D0E9469
:1032D0004D340E944E350E941E34362E172F89A37E
:1032E0009F8FC980DA80EB80FC8040E050E0BA011B
:1032F000ECCE6D817E818F8198858D849E84AF8494
:10330000B888681979098A099B0989849A84AB84E9
:10331000BC8489288A288B2821F0640D751D861DA0
:10332000971D0E946733C20ED31EE41EF51E8981CD
:103330009A81AB81BC81C816D906EA06FB0610F457
:10334000D701C601C980DA80EB80FC80C81AD90A8F
:10335000EA0AFB0ACACFCF92DF92EF92FF920F9355
:103360001F93CF93DF938C01C6EAD6E08DE590E002
:10337000A0E0B0E088839983AA83BB830E947E0883
:103380000E944F3426E636E646EE5DE30E94DB34CB
:103390000E941734F8016087718782879387609154
:1033A0002E0470912F0490E080E00E944D3424EEB2
:1033B00038E34EE051E40E94DB340E941E348B015E
:1033C0009C01488159816A817B814651594E6F4FDA
:1033D0007F4FC12CD12C760182E00E94C416DF9170
:1033E000CF911F910F91FF90EF90DF90CF900895B4
:1033F0008F929F92AF92BF92CF92DF92EF92FF9205
:103400000F931F9349015A016701780100913C0510
:1034100010913D0520913E0530913F05AB01BC0167
:10342000400F511F621F731F9501840180E00E94AD
:10343000C41681E0809336011F910F91FF90EF90A9
:10344000DF90CF90BF90AF909F908F900895CF92D4
:10345000DF92EF92FF920F931F93CF93DF938C0134
:10346000C1EFD5E0188219821A821B8281E00E9486
:1034700050080E944F342AE037ED43EA5BE30E9494
:10348000DB340E941734F801608771878287938745
:1034900060912A0470912B0490E080E00E944D34EA
:1034A00020E030E048E453E40E94DB340E941E3404
:1034B0008B019C01488159816A817B81405D5A481A
:1034C0006F4F7F4FC12CD12C760181E00E94C41632
:1034D000DF91CF911F910F91FF90EF90DF90CF90F0
:1034E00008958F929F92AF92BF92CF92DF92EF9208
:1034F000FF920F931F93CF93DF93EC016091280409
:103500007091290490E080E00E944D3420E030E08A
:1035100048E453E40E94DB340E941E344B015C01FA
:10352000EB8184E0E89FF0011124E852FC4F20E099
:1035300030E048E453E460817181828193810E948C
:10354000DB340E941734AB01BC01C12CD12C7601B5
:103550009501840181E00E94C416DF91CF911F91F3
:103560000F91FF90EF90DF90CF90BF90AF909F9022
:103570008F900895CF92DF92EF92FF920F931F9357
:10358000CF93DF938C01C6EAD6E085E79BE0A0E00D
:10359000B0E088839983AA83BB830E947E080E943F
:1035A0004F3426E636E646EE5DE30E94DB340E94A9
:1035B0001734F801608771878287938760912E04A2
:1035C00070912F0490E080E00E944D3424EE38E3A7
:1035D0004EE051E40E94DB340E941E348B019C01BA
:1035E000488159816A817B814A5E5641610971092E
:1035F000C12CD12C760182E00E94C416DF91CF91BC
:103600001F910F91FF90EF90DF90CF9008958F92D0
:103610009F92AF92BF92CF92DF92EF92FF920F9361
:103620001F93CF93DF93EC0160912C0470912D04D4
:1036300090E080E00E944D3424EE38E34EE051E407
:103640000E94DB340E941E344B015C018B8124E01C
:10365000829FC00111242C85213031F580599C4F67
:1036600024EE38E34EE051E4FC01608171818281F7
:1036700093810E94DB340E941734C12CD12C760137
:1036800095018401AB01BC0182E00E94C416DF9168
:10369000CF911F910F91FF90EF90DF90CF90BF904F
:1036A000AF909F908F9008958C559C4FD9CF682FE5
:1036B00080E493E00C942F33CF93C82F682F89E1D7
:1036C00090E00E942F336C2F8AE190E00E942F330C
:1036D0006C2F8BE190E00E942F330E94621691E0E4
:1036E0008C1390E0892FCF910895CF92DF92EF92C3
:1036F000FF920F931F93CF93DF931F92CDB7DEB747
:1037000093E0D92E8F70C82E0E946216182F8983DD
:103710000E947D16113031F098F0123089F013308C
:1037200009F04BC08C0101501109003283E01807E9
:10373000A0F0CE0101960E94570710E000E00DC0F6
:103740008C010F5F1F4F003283E0180730F0CE016D
:1037500001960E9457070FE113E089810E945C1BCC
:10376000E82E8823F1F0698180E1689FB00111247F
:10377000FC2CF60E045E1F4F6F2DC8010E942F33E4
:10378000C8010E942133F81669F0CE0101960E940B
:10379000570789810E945C1B882319F0DA94D110A5
:1037A000B3CFE12C8E2D0F90DF91CF911F910F9110
:1037B000FF90EF90DF90CF9008951982BECF609375
:1037C0001E0480931D04623029F030F0643011F043
:1037D000683021F40C94751B8CE0FCCF08950E9496
:1037E000CD090E949B1161E080911D040E94DF1BA6
:1037F0000C943105CF93DF93EC0185E08A831C8222
:103800001B8261E088A50E94DF1B40E061E0CE01E1
:1038100083960E941115811107C06AE070E8CE01FD
:10382000DF91CF910C94D014DF91CF9108951F9325
:10383000CF93DF93EC01862F6C3048F086E090E860
:103840009C838B8380E0DF91CF911F91089521E0CD
:1038500030E03C832B8360911D0490911E048613FD
:1038600002C0983069F011E01093560488A7923096
:1038700048F080E18A83CE010B960E946A151AA354
:1038800081E0E1CF62E00E94DF1B40E061E0CE0119
:1038900083960E941115882329F095E09A831C8253
:1038A0001B82D1CF6AE070E8CE010E94D014E8CF2D
:1038B00080917101982F9370923021F490911E04A1
:1038C000943068F08370823041F080911E04823021
:1038D00020F061E08CE00E94DF1B81E0089580E031
:1038E0000895EF92FF921F93CF93DF93FC01128113
:1038F000112321F11C3001F5EC010E94EF0581300C
:10390000D9F4EB80FC80F8E0EF16F0E8FF06A1F4B4
:103910000E94581C811109C0FC82EB821A83DF913E
:10392000CF911F91FF90EF9008950E94F70981E0D9
:1039300090E09C838B831A8280E0F1CF81E0EFCF0F
:10394000CF93DF93EC010E94581C811108C00E94A4
:10395000421288E090E89C838B838CE08A8381E02C
:10396000DF91CF910895EF92FF920F931F93CF9322
:10397000DF93EC018881882351F0813051F181E09F
:10398000DF91CF911F910F91FF90EF90089580915B
:1039900064018130E1F488836091260470912704EA
:1039A00090E080E00E944D3428E231E34BE252E4A3
:1039B0000E94DB340E941E349B01AC01E12CF12CEF
:1039C000870165E97EEF8FEF9FEF0E94F81980E095
:1039D000D7CF0E940E06882399F2809171018370DF
:1039E000823051F082E0888361E080911D040E9462
:1039F000DF1B0E942206EBCF83E088830E94E30551
:103A0000E6CFCF93DF93EC018A818823B1F08B312D
:103A100071F480916701811108C061E080916901B2
:103A20000E94DF1BCE010E94CD0980E007C08DE01F
:103A30008A838FE290E89C838B8381E0DF91CF9132
:103A40000895CF93DF93EC01188A6C3030F086E054
:103A500090E89C838B8380E019C081E090E09C8398
:103A60008B8380911E048330B0F7823021F48091E3
:103A70001D046813F0CF862F61E00E94DF1B81E0F8
:103A80008F8760E0CE010E94251581E0DF91CF9104
:103A9000089520914C0430914D048091C507909178
:103AA000C607DC01ED91FC910480F581E02D409189
:103AB000C3075091C407B901641B750BAB01483EA5
:103AC000534040F40995811139C08091540480938A
:103AD00055040895285E33403093C4072093C307EC
:103AE000099581112BC080911E04823038F5909188
:103AF000540480915504981709F10E94EF05813014
:103B000079F0E8F08230D1F460911D046623B1F0C1
:103B100061508CE491E00E9490148CE491E00AC022
:103B200060911D046C3050F48CEC91E00E94211DDA
:103B30008CEC91E09093C6078093C507089560913F
:103B40001D046C30D8F76F5FE4CFFC011482138240
:103B50002AE122830E94020A20911401237090918D
:103B60007101937080911D04223029F468E0923035
:103B700029F062E003C061E09230D9F30E94DF1BBC
:103B800081E00895DF92EF92FF920F931F93CF93FE
:103B9000DF93EC018881813009F463C028F0823022
:103BA00009F479C081E006C0D090640181E0D816A4
:103BB00049F080E0DF91CF911F910F91FF90EF903E
:103BC000DF9008959091690180911D049813F1CFC1
:103BD0000E94F110609124047091250490E080E02F
:103BE0000E944D3428E231E34BE252E40E94DB3480
:103BF0000E941E349B01AC01E12CF12C870169E984
:103C000075E080E090E00E94F8198981882359F0DE
:103C1000D88262E080911D040E94DF1B80915404D1
:103C200080935504C6CF82E088836091240470910C
:103C3000250490E080E00E944D3428E231E34BE21D
:103C400052E40E94DB340E941E349B01AC01E12C43
:103C5000F12C870169E975E080E090E00E94F81995
:103C6000D8CF809171018370823059F48A810E948B
:103C7000390862E080911D040E94DF1B85E0888383
:103C800091CF0E940E06882309F493CF86E08883A3
:103C90000E94E3058ECF809171018370823051F1D3
:103CA0009091540480915504981324C08091390553
:103CB00090913805891B823008F07BCF60912404F5
:103CC0007091250490E080E00E944D3428E231E3B9
:103CD0004BE252E40E94DB340E941E349B01AC0193
:103CE000E12CF12C870169E975E080E090E00E9409
:103CF000F8195FCF8A810E94390862E080911D0423
:103D00000E94DF1B8091540490915504891305C0D3
:103D100095E098838093550445CF97E0FACF682FBC
:103D200080911D040C94DF1BCF93DF93D0E0C0E0A3
:103D30006FEFCE010E942F332196C11588E0D8077E
:103D4000B9F76FEF80E098E0DF91CF910C942F33BB
:103D50000F931F93CF93DF932091640121112EC005
:103D6000FC018CE08283858196819483838381E04A
:103D700090E0968385830E9438168F3F980791F0D4
:103D8000EC0121966C2F61500C2F017010E0C801DE
:103D9000835C9C4F0E942F336D2F61508CE393E026
:103DA0000E942F330E949B118091540480935504EC
:103DB000DF91CF911F910F910C944212DF91CF911F
:103DC0001F910F910895CF92DF92EF92FF920F9380
:103DD0001F93CF93DF93EC018A81853009F444C1AE
:103DE00048F4823009F4FFC0833089F081114AC160
:103DF00011E02BC18C3009F4FFC0893109F4D8C01F
:103E00008A3009F03FC1CE010E94A81E15C08B85E3
:103E1000813009F44EC060F0823009F476C08430FD
:103E200009F0BAC062E070E8CE010E94D01404C06C
:103E300080916401823011F010E007C1809114017B
:103E40008370823071F480914C0490914D042989E3
:103E50003A89821B930B813A9F4070F385E08B87F0
:103E6000EBCF80911E04823010F181E08B870E949D
:103E7000F11080911D040E94061560912404709138
:103E8000250490E080E00E944D3428E231E34BE2CB
:103E900052E40E94DB340E941E349B01AC017B0182
:103EA0008C0160E070E0CB010E94F819C5CF84E07E
:103EB000D6CF80916401813009F0BECF82E08B873C
:103EC00062E080911D040E94DF1B0E9470086D87D4
:103ED0007E878F87988B609126047091270490E0ED
:103EE00080E00E944D3428E231E34BE252E40E942C
:103EF000DB340E941E349B01AC01E12CF12C8701C4
:103F000065EE74E58FEF9FEFCFCF0E9470080D85AF
:103F10001E852F85388968017901C61AD70AE80AF3
:103F2000F90AD701C601B7FF07C0B095A0959095D3
:103F300081959F4FAF4FBF4F4091210450E070E0FB
:103F400060E0481759076A077B076CF480911401F9
:103F50008370823041F485E08B8781E00E943908CC
:103F60000E94220669CF809171018370823011F026
:103F700083E0F2CF0E940E06882309F45DCF8C8582
:103F800081508C87882309F492CF10925C01CE0176
:103F90000B960E94571550CF64E070E8853009F405
:103FA00043CF89E18A83CE0146960E94091544CF0A
:103FB000CE0146960E94B31C882309F43DCF8E891A
:103FC000833009F42FCF82E08A838F89882341F0E0
:103FD00080916701811104C0CE010E94EF1B2CCF9C
:103FE0000E94CC1429CF80916401811125CF80914A
:103FF0006701811121CFF0CF0E94EF05813009F0D8
:104000001BCF0E94020A809171018370823049F4B3
:10401000E881F9810190F081E02D60E0CE01099501
:104020000BCF809114018370823009F405CF41E0F9
:1040300061E0CE0143960E941115182F81110FC027
:104040006AE070E8CE010E94D014812FDF91CF91F9
:104050001F910F91FF90EF90DF90CF90089585E032
:104060008A831C821B82E8CECE0143960E94C21D29
:10407000882309F4E1CE8B89863009F092CF61E084
:1040800070E8D2CE8DE08A838FE290E89C838B83A8
:10409000AFCECF93DF93EC018A818530C9F068F40D
:1040A000882349F0823009F462C08DE08A838FE270
:1040B00090E89C838B8381E012C08C3009F469C046
:1040C000893151F18A3089F7CE010E94A81E06C0BD
:1040D000CE010B960E94C21D811104C080E0DF91C9
:1040E000CF9108958B85863069F0873089F08530CF
:1040F000A9F789E18A831C821B82CE010E960E9459
:104100000915ECCF61E070E8CE010E94D014E6CF33
:1041100081E0888B1F86EDCFCE010E960E94B31CE6
:104120008823E1F28E85833019F462E070E8ECCFE9
:104130008F858823B9F081508F8780911D048C3042
:1041400028F086E090E89C838B83C8CF21E030E0A4
:104150003C832B8361E00E94DF1B61E0CE010E9463
:104160002515BCCF82E08A830E94CC14B7CF809102
:1041700064018111B3CF9091690180911D0498135E
:10418000ADCFCE010E94CD090E9431050E949B1146
:10419000A5CF0E94EF05813009F0A0CF0E94F7095A
:1041A000809171018370823009F4A3CF60E0D6CF93
:1041B000EF92FF920F931F93CF93DF93EC018A81CD
:1041C0008C3009F460C070F4813059F148F08A30C5
:1041D00009F455C08DE08A838FE290E89C838B833D
:1041E00081E00EC0873199F0883109F43EC08031FA
:1041F00089F7CE010B960E94E31E81115BC080E01F
:10420000DF91CF911F910F91FF90EF9008950E9441
:104210000E068823A1F381E08A838BA10E940615F4
:10422000EECF80916401813051F788E18A830E944A
:10423000F110609124047091250490E080E00E94C8
:104240004D3428E231E34BE252E40E94DB340E9419
:104250001E349B01AC01E12CF12C87016FEA76E062
:1042600080E090E00E94F819CACF0E940E068823D1
:1042700031F26CE070E8CE010E94D014C0CFCE01C4
:104280000E94A81EBCCF0E94EF05813009F0B7CF75
:104290000E94F7098B819C818A3020E8920751F0B7
:1042A0008C30904809F0ABCF0E943105CE010E94BE
:1042B000CD09A5CFCE010E94D914A1CF8F929F9294
:1042C000AF92BF92CF92DF92EF92FF920F931F9324
:1042D000CF93DF93DC011296EC911297EB3108F04B
:1042E0004AC1EC01F0E0E958FE4D0C941B33C522A5
:1042F000BB224422BB22BB22CA21BB22BB22BB223F
:10430000BB22A822BB22AB22BB22BB22BB22922112
:10431000BB229D21F8213A2267229E22BB22BB228A
:10432000DB2196220B960E94E31E811102C010E051
:1043300023C0CE010E943D15FACF809164018130E7
:10434000B1F78FA1909169018913F1CF61E00E94CB
:10435000DF1B41E061E0CE0183960E941115182F0A
:10436000882329F085E08A831C821B82E0CF6AE0E3
:1043700070E8CE010E94D014812FDF91CF911F9160
:104380000F91FF90EF90DF90CF90BF90AF909F90F4
:104390008F90089583960E94C21D882341F28BA1BD
:1043A00061E070E8863091F089E18A83CE018696DB
:1043B0000E940915BCCF86960E94B31C882309F47D
:1043C000B6CF8EA1833031F462E070E8CE010E9456
:1043D000D014ADCF83E18A8361E08FA10E94DF1BFF
:1043E0000E94E9056FA16F5FCE010E94F4149FCF78
:1043F000209169018FA190E001962817190609F014
:1044000096CF84E18A83609124047091250490E022
:1044100080E00E944D344B015C016091310470E0FA
:1044200090E080E00E944D3420E030E040EA50E42B
:104430000E94AB336B017C0128E231E34BE252E492
:10444000C501B4010E94DB340E941E344B015C01A3
:1044500028E231E34BE252E4C701B6010E94DB34AB
:104460000E941734E12CF12C8701A50194010E94D0
:10447000F8195DCF0E940E06882309F458CF82E018
:104480008A830E94CC1453CF8091640181114FCF55
:1044900085E18A835091300441E0503208F040E0D9
:1044A000503208F0569560E081E00E94BD10809186
:1044B00028049091290499A788A780912A049091B3
:1044C0002B0490932904809328046FA18DCF9FA182
:1044D0008091690198132BCF8AE18A8341E05FE1E3
:1044E00060E081E00E94BD1088A599A59093290401
:1044F0008093280410926A0160912404709125042D
:1045000090E080E00E944D3428E231E34BE252E437
:104510000E94DB340E941E349B01AC01E12CF12C83
:1045200087016BE27FEF8FEF9FEFA1CF80916A0150
:10453000882309F4FCCE86E18A83F9CE8091670155
:104540008111F5CECD010E94CD090E940806EFCE63
:104550000E94A81EECCE0E94EF05813009F0E7CE44
:104560000E94020AE881F9810190F081E02D6FA19B
:10457000CE010995DCCE8DE012968C9312978FE2D6
:1045800090E814969C938E93139711E0F5CE682FC4
:1045900081E493E00C942F33682F8FE393E00C9425
:1045A0002F334F925F926F927F928F929F92AF9232
:1045B000BF92CF92DF92EF92FF920F931F93CF9310
:1045C000DF93EC019A81963009F44AC0E0F4992314
:1045D00041F0953059F18DE08A838FE290E89C8319
:1045E0008B8381E0DF91CF911F910F91FF90EF902E
:1045F000DF90CF90BF90AF909F908F907F906F9003
:104600005F904F9008959C3009F46CC1903131F067
:104610009A3009F7CE010E94A81E06C0CE010B9663
:104620000E94E31E81117DC180E0DCCFCE01839624
:104630000E94C21D8823C1F38BA161E070E886301F
:1046400009F449C11EA283E08FA30E94E90580916D
:104650001D040E94061586E08A831C821B82E4CF1B
:104660008EA1823009F4B4C098F4882301F181301E
:1046700009F499C0873009F42CC1883009F42FC19E
:104680000E94080610925604CE010E94CD09CCCF9C
:10469000843009F40FC108F4E1C0853059F78091E6
:1046A00064018111C1CF9EA30E940806BDCF8091F5
:1046B0006401813009F0B8CF8EA30E94F11082E42A
:1046C00093E00E9429339C01255531402439324022
:1046D00010F088E691E0BC0190E080E00E944D344B
:1046E0004B015C01609122047091230490E080E012
:1046F0000E944D342B013C016091240470912504EB
:1047000090E080E00E944D3428E231E34BE252E435
:104710000E94DB340E941E346B017C0128E231E3ED
:104720004BE252E4C301B2010E94DB340E941E340A
:104730002B013C0128E231E34BE252E4C501B40114
:104740000E94DB340E94173487017601A301920195
:104750000E94F819609124047091250490E080E093
:104760000E944D3428E231E34BE252E40E94DB34F4
:104770000E941E342B013C01A501940160E070E011
:104780008AE794E40E94AA3328E231E34BE252E440
:104790000E94DB340E94173483017201A30192014D
:1047A0000E94F81941CF809114018370823031F456
:1047B00081E00E94390888E08EA336CF80913905C8
:1047C00090913805891B813009F02ECF82E0F4CF1B
:1047D0008091140183708230D1F581E00E94390804
:1047E00064E080911D040E94DF1B6091240470919D
:1047F000250490E080E00E944D344B015C01609103
:10480000200470E090E080E00E944D342B013C01D8
:1048100028E231E34BE252E4C501B4010E94DB34EB
:104820000E941E344B015C0128E231E34BE252E46A
:10483000C301B2010E94DB340E941734E12CF12C39
:104840008701A50194010E94F81983E0B5CF0E9469
:104850000E06882309F4E8CE87E0AECF0E940E064C
:10486000882309F4E1CE68E080911D040E94DF1BDB
:1048700062E080911D040E94A8146091240470914C
:10488000250490E080E00E944D3428E231E34BE2C1
:1048900052E40E94DB340E941E349B01AC01E12CE7
:1048A000F12C870165ED70E080E090E00E94F8193E
:1048B00084E082CF80916401823009F0B5CE61E05E
:1048C00080E00E94E2070E949B110E94CC1485E0C8
:1048D00073CF63E070E8CE010E94D014A5CE69E0EA
:1048E00070E8F9CF0E94EF05813009F09DCE0E945B
:1048F000020A8B819C81893020E8920741F08A303E
:10490000904879F0809171018370823051F4E88190
:10491000F9810190F081E02D60911D04CE0109958F
:1049200083CECE010E94FA1B7FCE82E493E00E94E8
:1049300029339C01255531402439324010F088E656
:1049400091E00895FC018DE182831482138282E05C
:1049500084873D9683E0DF011D928A95E9F781E027
:104960000895BC0182E493E00C9441330F931F93AC
:10497000CF93DF93CDB7DEB72A970FB6F894DEBF9B
:104980000FBECDBFE0E5F4E01482158216821782D7
:104990008DE1E1E4F2E0A8E5B4E001900D928A95A2
:1049A000E1F78DE1EEE5F2E0A5E7B4E001900D92CC
:1049B0008A95E1F78DE1EBE7F2E0A2E9B4E001903E
:1049C0000D928A95E1F78DE1E1E4F2E0AEECB6E01C
:1049D00001900D928A95E1F78DE1EEE5F2E0ABEE04
:1049E000B6E001900D928A95E1F78DE1EBE7F2E0F8
:1049F000A8E0B7E001900D928A95E1F760E08FEAB8
:104A000094E00E94820861E084E695E00E948208BA
:104A100062E089E196E00E9482088DE1E1E4F2E043
:104A2000A5E2B7E001900D928A95E1F78DE1EEE500
:104A3000F2E0A2E4B7E001900D928A95E1F78DE1F2
:104A4000EBE7F2E0AFE5B7E001900D928A95E1F770
:104A5000ECE7F7E088EC90E09183808313A214A246
:104A60001092C1071092C2070CEC17E0F8011082F7
:104A700011821282148213828DEC97E00E942D0E17
:104A8000F801858316821E821F8219861886CE0140
:104A900006960E942D0E8A8785E0FE013696DE017D
:104AA000119601900D928A95E1F785E0FE0131960D
:104AB000A3EDB7E001900D928A95E1F7F801148615
:104AC0001686158683ED97E00E94400EF8018387D5
:104AD00003EC17E0F8011182108286E392E09383E1
:104AE000828388E5848315821782168287EC97E09B
:104AF0000E942D0EF80180872A960FB6F894DEBF2B
:104B00000FBECDBFDF91CF911F910F910895FC0192
:104B100084899589A689B789803B9440A105B10510
:104B200099F487E797E79093FF0A8093FE0A81E064
:104B300080931C0488E19CE00FB6F894A8958093BC
:104B400060000FBE909360000895089589E191E0A0
:104B50000C94D42E89E191E00C94D92D08950895F8
:104B60001F920F920FB60F9211248F939F938091F3
:104B70004C0490914D04019690934D0480934C0405
:104B80009F918F910F900FBE0F901F9018951F92BD
:104B90000F920FB60F9211242F923F924F925F9275
:104BA0006F927F928F929F92AF92BF92CF92DF923D
:104BB000EF92FF920F931F932F933F934F935F9327
:104BC0006F937F938F939F93AF93BF93EF93FF93D5
:104BD000CF93DF93CDB7DEB72697DEBFCDBF9E0163
:104BE0002F5F3F4F49018EECC82E86E0D82E08E398
:104BF00015E03901F12CE12CD8019A96AD90BC90CA
:104C00009B97F301A192B1923F01F1E0AF16BF066D
:104C100008F002C1A114B10431F49C9111968C9159
:104C2000981709F4F9C0D80112968D919C911397A9
:104C3000892B09F044C08C9111969C91119789178A
:104C400071F08370F70121E2829FE00DF11D1124C4
:104C5000CF018C549B4F13969C938E931297D8013F
:104C60001296ED91FC91309709F4A9C16481F60187
:104C70008481682783810E944E10D80158961D9226
:104C80001D921D921C925B971296ED91FC911397C9
:104C9000858996895D969C938E935C97B7016A5A35
:104CA0007A4F0E94C308B0E0A0E0F801848B958B96
:104CB000A68BB78B12A213A214A215A2178EF8010D
:104CC000368D20E0F80182A193A1A4A1B5A13217ED
:104CD000E1F0F601608571854285FB014083019614
:104CE000A11DB11DF80182A393A3A4A3B5A3428182
:104CF0005381FA0140815181628173818417950744
:104D0000A607B70710F42F5FDDCFD80192962D903C
:104D10003D904D905C9095971296ED91FC91139774
:104D20004185528563857485421553056405750573
:104D300008F4DEC0258136814781508554966D91F7
:104D40007D918D919C9157970E94AA07D801129648
:104D5000ED91FC91139725893689820F931F5D96FB
:104D60009C938E935C97218932892817390720F408
:104D70005D963C932E935C97B7016A5A7A4FF8017F
:104D8000848D958D0E94C308D80154964D915D91F4
:104D90006D917C915797480F591F611D711DF80146
:104DA000448B558B668B778BD8011296ED91FC91D5
:104DB000139792962D903D904D905C9095974081E1
:104DC000518162817381241635064606570638F0F4
:104DD00013961C921E9212972C912F5F2C93009782
:104DE00009F4EDC0F3013297A80EB91EB182A0827A
:104DF000F801E558F1098081882371F0D6011B96EE
:104E00002D913C91D9019C91D6011D962C91922314
:104E100009F0CCC081508083BDE1CB0ED11CE5EB05
:104E2000EE0EF11C0B541F4FFFE1EF16F2E0FF06F0
:104E300009F0E2CE89819A812B813C8121153105CF
:104E400031F0009719F02817390708F4C9012D81AE
:104E50003E812115310531F0009719F028173907E7
:104E600008F4C901E2E6F5E0A4014A5F5F4FD4010E
:104E70002D913D914D012115310509F4A5C0281B47
:104E8000390B31832083EB54FF4F8416950679F755
:104E9000009709F49CC0909389008093880026961F
:104EA0000FB6F894DEBF0FBECDBFDF91CF91FF915B
:104EB000EF91BF91AF919F918F917F916F915F9192
:104EC0004F913F912F911F910F91FF90EF90DF90A5
:104ED000CF90BF90AF909F908F907F906F905F909A
:104EE0004F903F902F900F900FBE0F901F901895EE
:104EF0004585568567857089421553056405750596
:104F000008F03FC0258136814781508558966D91C4
:104F10007D918D919C915B970E94AA07F801248D49
:104F2000358D0280F381E02D28173907C0F4818D7B
:104F3000928DB7016A5A7A4F0E94C308D8015896D9
:104F40004D915D916D917C915B97480F591F611D4B
:104F5000711DF801408F518F628F738F25CFA9018A
:104F6000481B590BCA01418D528D638D748D1C01F4
:104F7000512C412C2416350646065706D0F6CA0198
:104F8000D8CF5F968C9181110CC0B7016A5A7A4FC5
:104F9000818992890E94C308F80191A380A3868D1C
:104FA000878FD80190968D919C91FECED801A658FE
:104FB000B1099C91891708F02FCF8F5F2CCFF30197
:104FC00032971182108228CF30E020E05ACF80E063
:104FD00090E461CF1F920F920FB60F9211242F937E
:104FE0008F939F93EF93FF9380919F079091A007DA
:104FF00020E0891749F0E82FEF71F0E0E458F84F0E
:1050000023818F5F80939F07E0917C07F0917D075C
:10501000268380818064808380919F07891307C0E5
:10502000E0917C07F0917D0781818F7D8183FF91E5
:10503000EF919F918F912F910F900FBE0F901F9026
:1050400018951F920F920FB60F9211242F933F9332
:105050008F939F93EF93FF93E0917C07F0917D07EF
:10506000808184FF0CC08681FF91EF919F918F9189
:105070003F912F910F900FBE0F901F901895968122
:105080008091C2072091C107382F321B303261F363
:10509000E82FEF71F0E0E458F84F95A38F5F80930D
:1050A000C207E2CFCF93DF93CDB7DEB7AA970FB693
:1050B000F894DEBF0FBECDBF10926E0082E084BDBB
:1050C00093E095BD99EF97BD16BC9FEF95BB80937C
:1050D0006E0088E199E20FB6F894A895809360007D
:1050E0000FBE909360000E947D16803223E09207ED
:1050F00008F41AC18CE080931D0480911D048C304B
:1051000008F02DC188E080931E048EE18093200476
:1051100088E2809321042FE530E03093230420932C
:10512000220444E150E0509325044093240430933A
:105130002704209326042DE230E0309329042093A5
:1051400028042EE130E030932B0420932A042CE233
:1051500031E030932D0420932C0429E031E030938A
:105160002F0420932E048093300488E08093310430
:105170008FB7F8942D988FBF259A8FB7F8942E98F3
:105180008FBF269A8FB7F89447988FBF3F9A8AE2CD
:1051900090E00E94950F80913B04897F826081603E
:1051A00080933B040E94C80F52988FB7F8945A9886
:1051B0008FBF8FB7F8945B988FBF539AE0917C07AD
:1051C000F0917D0780E190E0958384838081826007
:1051D0008083E0917C07F0917D07138288E88183CA
:1051E00080913904897F82608160809339040E94B4
:1051F000C80F23988FB7F8942B988FBF8FB7F89468
:105200002A988FBF229A8FB7F89429988FBF219A36
:105210008FB7F894289A8FBF209A8CE58CBD1DBC5F
:1052200080913704897F82608160809337040E9477
:10523000C80F809181008F7E8093810080918100D2
:10524000886080938100809180008D7F80938000B2
:10525000809180008E7F80938000809180008F738A
:1052600080938000809180008F7C8093800080916B
:105270008100887F82608093810080E090E4909339
:1052800089008093880010928500109284000E940B
:10529000A10780913504897F826081608093350405
:1052A0000E94C80F80917A00876080937A00809175
:1052B0007C00806480937C0080917A008068809379
:1052C0007A0080913304897F826081608093330407
:1052D0000E94C80F8AE482BF80E189BD82E189BD56
:1052E00009B400FEFDCF0E94BC306CE074E089E19F
:1052F00091E00E94C02E8CE094E09093E8078093A8
:10530000E7070E944F0A789400914C0410914D04D5
:1053100080914C0490914D04801B910B8636910531
:1053200000F50E947D09F4CF4C960E942133182F7E
:105330008F7080931D048C3008F0DCCE0E946216C2
:10534000843008F0D7CE212F30E074E035952795D2
:105350007A95E1F78217130609F0CCCECECE81E024
:10536000D2CE0E944F0A0E9431050E94C80F0E94AF
:105370004F0A809148018370823029F40E94941E64
:105380000E943910D5C360E080E091E00E94A22421
:1053900080E091E00E944A12582E811103C00E94C1
:1053A000C80FF6CF809103019091040181309105DF
:1053B00009F4B9C090933A02809339028CE080934B
:1053C0003802E0917C07F0917D07818180618183C3
:1053D00088248394912C4DE0642E40E8742E55E08F
:1053E000452E64E0362E0E944F0A0E94C80F80911D
:1053F000030190910401019709F085C00E947D0985
:1054000060914C0470914D044091180184E191E049
:105410000E944F098091590187FD13C0853021F00A
:1054200087E591E00E943A0B80915901813009F49F
:10543000CAC008F4D7C0833009F4CAC0843009F464
:10544000CCC08091670187FD13C0853021F085E6CF
:1054500091E00E943A0B80916701823009F4DFC02D
:1054600008F0CEC0882309F40CC1813009F4D2C001
:105470008091360187FD0EC0853021F084E391E0F4
:105480000E943A0B80913601813021F484E391E04F
:105490000E948207A0E4B1E082E090E0782F682FBC
:1054A00018965C911897537040915704242F30E060
:1054B000082E02C0359527950A94E2F7217031E055
:1054C000523009F030E02317D9F0523089F420919E
:1054D000550430915404E22FE31BE43049F0E22FED
:1054E000E370F0E0E05BFB4F70832F5F2093550487
:1054F000940101C0220F6A95EAF7422740935704AE
:105500001497019758F600911C04002309F4D1C0A8
:1055100008E912E0D8018D918D01882309F4C5C0F6
:105520000E946105F7CF60E086E392E00E94A01C34
:1055300080911E048430C8F487E591E00E94231412
:1055400080911E04823000F5809171018370823059
:10555000D9F085E691E00E94231480911E048230E8
:1055600008F42FCF0E9408062CCF87E490E0A0E03B
:10557000B0E08093A6069093A706A093A806B093E8
:10558000A90610925C01DCCFE0911D0434E0E39F9A
:10559000F0011124E852FC4F20E030E048E453E4ED
:1055A00060817181828193810E94DB340E94173473
:1055B0006093F1057093F2058093F3059093F405E1
:1055C00010926A01CACF87E591E00E94820739CF25
:1055D00087E591E00E94A41134CF87E591E00E9415
:1055E000DE112FCF80915C0181112BCF80911E04A1
:1055F000843008F026CF87E591E00E94231421CF64
:105600008330D1F1843009F033CF85E691E00E94F8
:10561000DE112ECF85E691E00E94820729CF80918E
:105620005C01882309F424CF83E0809367016091B3
:105630002A0470912B0490E080E00E944D3420E019
:1056400030E048E453E40E94DB340E941E348B01B6
:105650009C014091F1055091F2056091F305709124
:10566000F4054053554761097109C12CD12C7601CD
:1056700081E00E94C416FCCE85E691E00E94A41150
:10568000F7CE80916A018111F3CE80911E048230A1
:1056900008F0EECE809171018370823009F4E8CE7B
:1056A00085E691E00E942314E3CE8AE00E94610522
:1056B000FFCF89E191E00E94812E89E191E00E9473
:1056C0006B2E0E94D0321AE08EE10E94360A1150F1
:1056D000D9F790931B0480931A048331914058F1B9
:1056E00081E00E94390882E00E949E1081E00E94C1
:1056F0009E1080E00E949E10E091C507F091C607C1
:105700008DE082837482638221E030E0F901EE5CF7
:10571000FB4F8081897F846081608083F901EF5C29
:10572000FB4F8081897F8460816080832E5F3F4F43
:105730002931310559F70E94491DF090C20723E035
:10574000E22E8091C1078F1509F4AAC1E82FEF71ED
:10575000F0E0E458F84F15A18F5F8093C107809166
:10576000CC07823009F465C058F48823F9F0813001
:1057700009F44AC01A3009F48BC01D3009F588C0FD
:10578000833009F461C08430A9F7812F0E944A0751
:10579000882309F470C0812F0E943C079091D107A3
:1057A0009295907F892B8093D107CBCF1E3400F543
:1057B0001B3468F4173448F4153448F4123439F0C3
:1057C0001092CD074092CC07BCCF1834C9F7109384
:1057D000CD071092CE071092D0071092CF071092EB
:1057E000D10782E0173509F081E08093CC07A9CF7B
:1057F000193538F4173558F780EB810F863038F3B8
:10580000DFCF163621F3DCCF812F0E944A07882391
:1058100059F0812F0E943C079091CE079295907F7E
:10582000892B8093CE078DCF1A3251F63092CC0758
:1058300088CF812F0E944A078111EBCF103209F0E7
:10584000BFCFE092CC077DCF812F0E944A078823EB
:1058500059F3812F0E943C072091CF073091D00748
:1058600094E0220F331F9A95E1F7282B3093D0074D
:105870002093CF0766CF1A3019F01D3009F0A0CF62
:105880001091D1078DEC97E00E942D0E181398CF40
:105890001092CC0785E0EDECF7E0DE015C9601901C
:1058A0000D928A95E1F785E0FE017C96DE019196E6
:1058B00001900D928A95E1F785E0FE01B196DE0137
:1058C000969601900D928A95E1F7EEA1E254E532A9
:1058D00008F0E6C0F0E0E159F34D0C941B33942C32
:1058E000502D502DCC2D502D502DCC2D502D502DD8
:1058F000CC2DCC2DCC2D502D502DAD2CC02C9A2D37
:105900009A2DCC2DCC2D502DAF2D942D502D502DCA
:10591000502D502D502D502D502D502D502D502D9F
:10592000502D502D502DD12D9FA190688091550460
:1059300020915404E82FE21BE43049F0E82FE37093
:10594000F0E0E05BFB4F90838F5F8093550461E450
:10595000CE0186960E94150FA3C0809171018370BD
:1059600041E050E0823011F050E040E09E012F5FB6
:105970003F4F61E0CE0186960E94510E682F8CC089
:10598000809156048823A9F0909154048091550485
:10599000981779F0E92FE370F0E0E05BFB4F80812E
:1059A00087FD07C09F5F9093540490E022E48F37F7
:1059B00049F58091C5079091C607DC01ED91FC91F6
:1059C0000680F781E02D09959C018091C507909193
:1059D000C6072115310569F02130310509F49AC057
:1059E000DC01ED91FC910680F781E02D099525E41D
:1059F00009C0DC01ED91FC910480F581E02D099551
:105A000090E020E535E0E7ECF7E0DE015796019005
:105A10000D923A95E1F735E0FE017796DE011F968B
:105A200001900D923A95E1F72C8B9E8B8D8BCE01D8
:105A30000F960E94400E8B8BBE016F5F7F4F87ECED
:105A400097E00E94DA06E1E0F0E0EC0FFD1FE80FBE
:105A5000F11D9C89908311E0180F61E070E06C0FDC
:105A60007D1F610F711D8D899E890E940407180F8B
:105A700061E070E06C0F7D1F610F711D8B890E94CA
:105A8000F506810FE1E0F0E0EC0FFD1FE80FF11DDE
:105A90009AE0908361E0680FCE0101960E9428068B
:105AA0000091C5071091C60787E591E00E94130A8F
:105AB00021E047E551E0BC01C8010E94C415F82E61
:105AC00085E691E00E94130A22E045E651E0BC0120
:105AD000C8010E94C415F82A84E391E00E94130AC9
