; device = mm-control

:100000000C9409050C9431050C9431050C943105C0
:100010000C9431050C9431050C9431050C94310588
:100020000C9431050C9431050C94DB300C94A931FF
:100030000C9431050C9431050C9431050C94310568
:100040000C9431050C9454250C9431050C94310515
:100050000C9431050C943D250C9431050C9431051C
:100060000C9431050C94BA270C9483270C94310519
:100070000C9431050C9431050C9431050C94310528
:100080000C9431050C9431050C9431050C94310518
:100090000C9431050C9431050C9431050C94310508
:1000A0000C9431050C9431050C94310503000300C8
:1000B000800301A102000001A0020000029E0200D4
:1000C00000029C0200000A5F16000009A70D000054
:1000D0000A9C0D00000D980D5E1E098D0D00000D8F
:1000E000820D7B0D09770D00000D730D700D0D6CE9
:1000F0000D690D0E640D5F0D0A5C0D00000A590DAF
:1001000000000A560D00000E510D4C0D0E470D4219
:100110000D0E3D0D380D0E330D2E0D0E290D240D37
:100120000E1F0D1A0D0D321646220D2D1641220DF1
:1001300028164A1B0A160D00000D120D7A140D0E1A
:100140000DBC150D0A0D070D0D030D000D0DFC0C5A
:10015000F90C0DF50CF20C0AEF0C00000E22243EF7
:10016000240EEB0CE80C24F4D43050C38E20C2A231
:100170004017828B7011127A910D816CD90AA86197
:10018000E108C7586607615143061E4B5D05C1452E
:10019000A7041A411104093D98037139310340360F
:1001A000DB0265339102D4305402802E1D02632C91
:1001B000EE01752AC501B028A001102781018F2505
:1001C00064012B244B01E0223401AC211F018D205E
:1001D0000D01801FFC00841EED00971DDF00B81C80
:1001E000D200E61BC600201BBC00641AB200B21984
:1001F000A8000A19A0006A189900D11791004017A9
:100200008B00B516840031167E00B31579003A15BF
:100210007300C7146F0058146A00EE136600881349
:10022000630025135E00C7125B006C1257001512A5
:100230005400C111510070114F0021114B00D61014
:1002400049008D1047004610440002104200C00FC4
:100250004000800F3E00420F3C00060F3B00CB0EDB
:100260003800930E37005C0E3500270E3400F30D76
:100270003200C10D3100900D3000600D2E00320DA6
:100280002D00050D2C00D90C2B00AE0C2900850C7F
:1002900029005C0C2700350C27000E0C2600E80B0B
:1002A0002400C40B2400A00B23007D0B23005A0B59
:1002B0002100390B2100180B2000F80A1F00D90A71
:1002C0001E00BB0A1E009D0A1D00800A1D00630A55
:1002D0001C00470A1B002C0A1B00110A1A00F70910
:1002E0001A00DD091900C4091900AB0919009209A7
:1002F00017007B091800630917004C09160036091E
:100300001600200916000A091500F5081500E00876
:100310001400CC081400B8081400A40814009008B5
:1003200013007D0812006B081300580812004608DD
:1003300012003408110023081100120811000108EE
:100340001100F0071000E0071000D0071000C007F0
:100350001000B0070F00A107100091070E008307DF
:100360000F0074070F0065070E0057070E004907BE
:100370000E003B070D002E070E0020070D0013078F
:100380000D0006070D00F9060C00ED060D00E00655
:100390000C00D4060C00C8060C00BC060C00B0060D
:1003A0000C00A4060B0099060C008D060B008206BB
:1003B0000B0077060B006C060B0061060A0057065F
:1003C0000B004C060A0042060A0038060A002E06F8
:1003D0000A0024060A001A060A0010060900070689
:1003E0000A00FD050900F4050900EB050900E20516
:1003F0000900D9050900D0050900C7050900BE0597
:100400000900B5050800AD050800A50509009C0513
:100410000800940508008C050800840508007C0588
:100420000800740508006C050700650508005D05F7
:100430000700560508004E05070047050700400560
:10044000080038050700310507002A0507002305C5
:1004500007001C050600160507000F050700080524
:10046000060002050700FB040600F5040700EE0481
:100470000600E8040600E2040700DB040600D504D9
:100480000600CF040600C9040600C3040600BD042C
:100490000600B7040600B1040500AC040600A6047B
:1004A0000600A00405009B040600950405009004C6
:1004B00006008A04050085040500800406007A040D
:1004C000050075040500700405006B040500660452
:1004D0000500610405005C04050057040500520492
:1004E00005004D04050048040500430405003E04D2
:1004F00004003A04050035040500300404002C040F
:10050000050027040400230405001E0404001A0447
:10051000040016040500110404000D04040009047D
:1005200005000404040000040400FC030400F803B4
:100530000400F4030400F0030400EC030400E803E7
:100540000400E4030400E0030400DC030400D80317
:100550000400D4030400D0030400CC030400C80347
:100560000300C503030024F404D9201BC40C5C0E53
:100570009804C4095F0265077101F405F900FB04E2
:10058000B30048048700C103690058035500030302
:100590004500BE023A008402310053022A002902BB
:1005A000250004022000E4011C00C8011900AF016D
:1005B00017009801140084011300710110006101FB
:1005C000100051010E0043010D0036010B002B01FC
:1005D0000B0020010B00150109000C0109000301AB
:1005E0000800FB000800F3000800EB000700E4002F
:1005F0000600DE000600D8000600D2000600CC008F
:100600000500C7000500C2000500BD000400B900D8
:100610000400B5000400B1000400AD000400A9000E
:100620000400A5000300A20003009F0004009B003B
:10063000030098000300950002009300030090005F
:1006400003008D0002008B0003008800020086007A
:10065000020084000300810002007F0002007D0090
:1006600002007B00020079000200770001007600A2
:1006700002007400020072000100710002006F00AD
:1006800002006D0001006C0002006A0001006900B8
:1006900002006700010066000100650001006400BF
:1006A00002006200010061000100600001005F00C3
:1006B00002005D0001005C0001005B0001005A00C7
:1006C00001005900010058000100570001005600C8
:1006D00001005500010054000100530000005300C8
:1006E00001005200010051000100500001004F00C4
:1006F00001004E0000004E0001004D0001004C00C2
:1007000001004B0000004B0001004A0001004900BD
:1007100001004800000048000100470001004600B9
:1007200000004600010045000000450001004400B3
:1007300001004300000043000100420000004200AD
:1007400001004100000041000100400001003F00A5
:1007500000003F0001003E0000003E0001003D009F
:1007600000003D0001003C0000003C0000003C0097
:1007700001003B0000003B0001003A0000003A008D
:100780000100390000003900010038000000380085
:10079000000038000100370000003700010036007B
:1007A0000000360000003600010035000000350072
:1007B0000000350001003400000034000000340067
:1007C000010033000000330000003300010032005C
:1007D0000000320000003200010031000000310052
:1007E0000000310001003000000030000000300047
:1007F00001002F0000002F0000002F0000002F003C
:1008000001002E0000002E0000002E0001002D002F
:1008100000002D0000002D0000002D0001002C0024
:1008200000002C0000002C0000002C0001002B0018
:1008300000002B0000002B0000002B0001002A000C
:1008400000002A0000002A0000002A000100290000
:1008500000002900000029000000290000002900F4
:1008600001002800000028000000280000002800E7
:1008700000002800010027000000270000002700DA
:1008800000002700000027000100260000002600CD
:1008900000002600000026000000260001002500C0
:1008A00000002500000025000000250000002500B4
:1008B00000002500010024000000240000002400A6
:1008C0000000240000002400010023000000230099
:1008D000000023000000230000002300000023008C
:1008E000000023000100220000002200000022007E
:1008F0000000220000002200000022000100210070
:100900000000210000002100000021000000210063
:100910000000210000002100010020000000200054
:100920000000200000002000000020000000200047
:10093000000020000000200001001F0000001F0038
:1009400000001F0000001F0000001F0000001F002B
:1009500000001F0001001E0000001E0000001E001D
:1009600000001E00000008030736034F00720069F4
:1009700000670069006E0061006C0020005000728A
:100980000075007300610020004D004D00550020EF
:100990000075006E006900740020003DD811DC0075
:1009A000001803700072007500730061003300646A
:1009B000002E0063006F006D0000000403090409AD
:1009C000023E00020100C0320904000001020201DF
:1009D0000005240010010424020605240600010776
:1009E0000582030800FF09040100020A0000000755
:1009F00005040240000507058302400005120110AE
:100A00000102000008992C0400010001020001000D
:100A1000432411241FBECFEFDAE0DEBFCDBF14E0C8
:100A2000A0E0B1E0EEE1FCE602C005900D92A83036
:100A3000B107D9F727E0A8E0B4E001C01D92A73EB6
:100A4000B207E1F715E0C9E0D5E004C02197FE0147
:100A50000E943D33C830D107C9F70E94EB270C94A0
:100A60000D360C940000FC016370862F880F908176
:100A7000997F982B90836150623018F09E7F90830D
:100A800008959160FCCF81E090E0FC01E25DFB4FB6
:100A90002081297F2E7F2083FC01E35DFB4F208195
:100AA000297F2E7F208302968931910571F7089561
:100AB000EF92FF920F931F93CF93C82F7B018A0170
:100AC0000E944305CC0F81E08C0F90E0B701825D5E
:100AD0009B4F0E9433058C2F90E0B801825D9B4FA5
:100AE000CF911F910F91FF90EF900C94330591E0FF
:100AF00090937A0790919C0720919B072917D9F131
:100B000020919B07392F321BE0917807F0917907EC
:100B1000303219F50FB607FCFDCF308135FFFACF23
:100B200030E0921751F0A22FAF71B0E0A858B84F43
:100B300013963C912F5F20939B073683208120647E
:100B4000208320919B079213DBCFE0917807F091EF
:100B5000790721812F7D2183D3CFA92FAF71B0E0F9
:100B6000A858B84F13968C939F5F90939C078181F0
:100B7000806281830895E0917807F0917907208160
:100B800025FFBECF86838081806480830895CF93C4
:100B9000DF93DC011496ED91FC91159716964C911C
:100BA00016978FB7F894928121E030E001C0220FB0
:100BB0004A95EAF72095292322838FBFFB01CB01B9
:100BC00005962191CD91DC9111972A83298127FFE8
:100BD000FDCF2A81EF0121972883E817F90789F7CC
:100BE0001496ED91FC91159716964C919FB7F89439
:100BF000828121E030E001C0220F4A95EAF7822B82
:100C000082839FBFDF91CF9108959091500480918E
:100C10005104981789F0E92FE370F0E0E45BFB4F93
:100C2000808120915204222311F087FF05C09F5F2D
:100C3000909350048F7708958FE70895909134052D
:100C40008091350598130CC09091E9058091EA05D3
:100C5000981306C081E020919E0690919F0629136B
:100C600080E008950F931F93CF93DF93EC018C01E5
:100C7000060F111DC017D10759F080919C07909164
:100C80009B07891B803251F089910E947705F2CF32
:100C900081E0DF91CF911F910F91089580E0F9CF0E
:100CA00022E0FC01228308958F929F92AF92BF921F
:100CB000CF92DF92EF92FF92CF93DF939C01FC01E2
:100CC000E857FF4F60817181828193813497408121
:100CD0003196508131960190F081E02D3097F9F0F6
:100CE000C080D180E280F380D901AA55BF4F8D909A
:100CF0009D90AD90BC90C818D908EA08FB08E48123
:100D0000E11108C0F094E094D094C094C11CD11CAF
:100D1000E11CF11C6C197D098E099F094F5FA1E24E
:100D20004517E1F0E42FE370E901AE9FC00DD11D3E
:100D30001124C880D980EA80FB80EC81E11108C0D1
:100D4000F094E094D094C094C11CD11CE11CF11C1F
:100D50006C197D098E099F094F5FE2CFDF91CF911A
:100D6000FF90EF90DF90CF90BF90AF909F908F90CB
:100D70000895109238051092390510923A05109294
:100D80003B0581E0089508958A3020F0803120F4F9
:100D9000895A0895805D089580E008950F931F9308
:100DA000CF93DF93082FEB0190E024E09595879592
:100DB0002A95E1F711E0009721F00E94C40689937B
:100DC00012E0802F8F700E94C4068883812FDF91EC
:100DD000CF911F910F910895CF93DF93EB01FC0109
:100DE00020812883818181110DC080E3898381E086
:100DF00091E0980FC90FD11D90E298838E5FDF912B
:100E0000CF9108956F5F7F4F0E94CE06F1CF9AE297
:100E1000FB019083811105C080E3818381E08F5FB6
:100E200008956F5F7F4F0E94CE06F9CFCF92DF9279
:100E3000EF92FF921F93CF93DF93EC016B0114E0CD
:100E4000892B69F480E3FB01808311E0812FDF911E
:100E5000CF911F91FF90EF90DF90CF900895CE013A
:100E60008827907F892B39F424E0CC0FDD1F2A9549
:100E7000E1F71150F4CF76018E2D8C19811730F7E0
:100E80008D2F82958F7094E0CC0FDD1F9A95E1F73E
:100E90000E94C406F70181937F01EECF803330F0CA
:100EA0008A3330F09FE9980F963020F080E0089563
:100EB000805308958755089590ED980F9A3038F033
:100EC0009FE9980F81E0963018F080E0089581E066
:100ED0000895FC018081813041F020F0823039F4A6
:100EE00083E001C081E08083089582E0FCCF10821E
:100EF00008950F931F93FC0180859185A285B3858A
:100F00008A019B01081B190B2A0B3B0BD901C80155
:100F1000B7FF07C0B095A095909581959F4FAF4FB3
:100F2000BF4F1F910F910895CF93DF93DC01179668
:100F3000EC91B5EBEB9FF0011124EC5CFA4F3081A2
:100F4000218132130BC0EC018B818C83E881F98104
:100F50000084F185E02DCE0109951A82DF91CF91B1
:100F6000089581E008959FB7F894EFE6F0E080815E
:100F7000826080839FBF0895AA27639FB12D749FCD
:100F8000F001849FF00D839FE00DF11D649FB00D73
:100F9000E11DFA1F739FB00DE11DFA1F829FB00D76
:100FA000E11DFA1F729FB10DEA1FFA1FBB0FEA1F66
:100FB000FA1F1124CF0108952FB7F894EFE6F0E05F
:100FC000808190819D7F90832FBF86958170089549
:100FD00081110C94B3079FB7F89480916F008D7FB7
:100FE00080936F009FBF0895CF92DF92EF92FF92A0
:100FF0000F931F93CF93DF93C82FC62E0E94DC0759
:10100000D82EEC2EF12C85EBC89FE00111248E0127
:1010100000551B4FC8010E945406AE0145555B4F59
:10102000FA01E357FF4F6083718382839383329782
:1010300020813181232B89F0EA01C756DF4FCA0195
:101040008B559F4FDC018D919C91B0E0A0E088838F
:101050009983AA83BB8311821082F801EC57FF4F5A
:1010600080818183CC2061F085EB8E9DF0018F9D86
:10107000F00D1124EC5BFA4F108211821282138260
:101080008D2DDF91CF911F910F91FF90EF90DF9009
:10109000CF900C94E807CF93DF93C82F0E94DC0712
:1010A000D82F6C2F80E00E94F4076C2F81E00E9403
:1010B000F4076C2F82E00E94F4078D2FDF91CF910F
:1010C0000C94E807CF92DF92EF92FF92CF93DF93D9
:1010D000C82F0E94DC07D82F25EBC29FC001112426
:1010E00080559B4F0E9454066B017C018D2F0E94FE
:1010F000E807C701B601DF91CF91FF90EF90DF9035
:10110000CF90089580E00E9462082AE230E040E03B
:1011100050E00E94AB33CA01B901089582E00E94F9
:10112000620808950F931F9325EBFC0111922A95F5
:10113000E9F72DE1629FF0011124E653F94F05898B
:1011400016892789308D418D528D638D748DDC0118
:10115000A757BF4F1C9211961C9213961D921D9279
:101160001D921C9213971C961D921D921D921C920B
:10117000139718970D931D932D933C9313971496E3
:101180004D935D936D937C9313971A9711961C92D0
:101190001E9295962189328943892D933D934C93D4
:1011A0001F910F910895FB0181342CE9920708F0FB
:1011B00030C081322EE4920708F42EC096958795B0
:1011C0009695879524E020838097811528E09207E3
:1011D00008F433C0E92FFF27EE0FFF1FEE0FFF1FAC
:1011E0009F012A593A4FF901329665917491789F7F
:1011F000A001689F000C411D1124511DF90185912A
:101200009491841B950B8436910510F484E690E04C
:10121000089580E49CE9D2CF813127E2920720F043
:101220009695879522E0CFCF21E0208380329105EB
:1012300008F0CACF80E290E0C7CF9C013695279591
:101240002C7F3F772A593E4FF90145915491F9017E
:1012500032966591749187709927869F9001879F38
:10126000300D969F300D112463E0369527956A95D1
:10127000E1F7CA01821B930BC6CF0F931F93CF9345
:101280008C01C8EC6111CCED0E948E0828E030E0A2
:1012900040E050E00E94AB33BA01A901C8010E94AE
:1012A000790721E0C817190608F020E0822FCF91B6
:1012B0001F910F910895FC019081892F83708130D7
:1012C00081F030F0823001F59360442341F019C081
:1012D0004423B9F09C7F7283618391609460908312
:1012E00010C092FB882780F984130CC021813281C1
:1012F000621B730B83819C7F92608617170679F3BC
:1013000070F308959C7FEBCF728361839C7F9B7FFA
:10131000E6CF4FB146FB442740F9609148047091F5
:10132000490482E791E00C945B09FC0182818031E1
:1013300041F4868597858130910529F490E080E01D
:101340000895838194810895FC018281863021F083
:10135000803151F48585089593A1933031F0953013
:1013600031F0923009F48CE1089587E0089582E02D
:10137000089581E00895FC018281803119F4868509
:1013800097850895838194810895FC01828180313D
:1013900009F485850895FC018281803119F48685E0
:1013A00097850895838194810895FC01828180311D
:1013B00009F485850895FC01128221E030E0348330
:1013C000238380914804909149049093C0078093AF
:1013D000BF070895FC0182818823A9F08A3169F44E
:1013E00080915A01811107C080916801811103C069
:1013F000CF010E94DB0980E008958DE082838FE2B7
:1014000090E89483838381E00895E8E5F1E08281A8
:101410008F778283E6E6F1E082818F778283089579
:101420000E94050A10925D0110926B01089520E45C
:1014300030E002C0220F331F6A95E2F7822B932B14
:101440000895FC01228130E02F772530310531F0FD
:1014500026303105A9F090E080E00895678126816B
:1014600080E094E820FD02C090E080E021FD9868D3
:1014700022FD906923FD906A24FD906C0C94170A5C
:10148000678187E090E8FACF90917C00907E892B6D
:1014900080937C0080917B008F7D80937B00809186
:1014A0007A00806480937A0080917A0086FDFCCF78
:1014B000809178009091790008950F931F93CF93B6
:1014C000DF93009148041091490485E00E94440A8A
:1014D000C0E08333910568F09C0120553109C1E0DB
:1014E0002531310530F0805A9109CFEF459708F446
:1014F000C2E00C2E000CDD0B41E0209709F040E02B
:10150000B80181E491E00E945B0941E0C130D1055E
:1015100009F040E0B80185E491E00E945B0941E0F8
:10152000229709F040E0B80189E491E0DF91CF9182
:101530001F910F910C945B090F931F93CF93DF932F
:1015400000D000D01F92CDB7DEB7CB0140684983F1
:101550003A832B831C830D83BE016F5F7F4F0E94F4
:10156000C7050F900F900F900F900F90DF91CF91C4
:101570001F910F910895EF92FF920F931F93CF93B6
:10158000DF9300D000D01F92CDB7DEB77B018E0174
:101590000F5F1F4F85E0F80111928A95E9F74983A3
:1015A000B801C7010E94C7051982B801C7010E948E
:1015B000C7056A817B818C819D810E94CA330F900F
:1015C0000F900F900F900F90DF91CF911F910F917F
:1015D000FF90EF9008958F929F92AF92BF92CF921B
:1015E000DF92EF92FF921F93CF93DF93FC01118163
:1015F000112309F440C05B01EC0141E00E94BB0AE9
:101600006B017C014FE6B501CE010E94BB0AAB0124
:10161000BC018881982F9C294601570122E0B6948D
:10162000A794979487942A95D1F790FB80F980FA34
:1016300081F988834A015B0188249924AA24F8E16E
:10164000BF2281E089288A288B2809F480E09881CC
:1016500080FB92F972FB882780F980FB93F971FB7C
:10166000442740F940FB94F99883CD28CE28CF2811
:1016700011F4192F1170812FDF91CF911F91FF90DD
:10168000EF90DF90CF90BF90AF909F908F90089594
:101690001F93CF93DF93EC018F819DE1899FB00170
:1016A00011246B5A7B4F15EB189FC00111248555EF
:1016B0009B4F0E94EB0A882369F08F81189FF001ED
:1016C0001124E555FB4F90819E8361E00E94F40751
:1016D00085E08A83DF91CF911F9108950F931F9327
:1016E000FA0102812181122F1F71201748F00F711A
:1016F0002FE030E040E10E949C0A1F910F91089575
:10170000012FF6CFCF93DF9300D01F92CDB7DEB776
:10171000FC0191E0603208F090E09983962F6032EE
:1017200008F096959A83603208F046954B8387813E
:101730002DE1829FB00111246B5A7B4F25EB829FD4
:10174000C0011124AE014F5F5F4F85559B4F0E9432
:101750006E0B0F900F900F90DF91CF910895CF9364
:10176000DF93EC01EF8185EBE89FF0011124E55A4E
:10177000FA4F42816181CE010E94820BE881F9819A
:101780000190F081E02DCE01099581E08A8380E00F
:10179000DF91CF910895FC01248525876091C606CD
:1017A0004091C706222319F0213019F4462F0C94DA
:1017B000820B08950F931F9300EF1FEF2FE030E08F
:1017C000411104C006E410E020E030E043E10E9453
:1017D0009C0A1F910F9108950F931F93CF938C0133
:1017E00081E0611101C080E080931B04C1E06111C0
:1017F000C0E04C2F6BEC76E08BEA94E00E94DA0BB1
:101800004C2F68EE76E080E695E00E94DA0B4C2FD4
:1018100065E077E085E196E00E94DA0BC8010E945E
:10182000DB0981E0CF911F910F910895BF92CF9274
:10183000DF92EF92FF920F931F93CF93DF937C0180
:10184000EB016A01B22EFC01118282E08383EC81FC
:10185000FD814E812FB7F894328181E090E0BC0188
:1018600002C0660F771F4A95E2F7362B32832FBFEF
:101870002181262B2183EA85FB8521813C85AC01D2
:1018800001C0440F3A95EAF7342F30953223318363
:101890003FB7F8942281242B22833FBFEF81F88544
:1018A00049852FB7F894328101C0880F4A95EAF72D
:1018B000982F9095932392832FBF9181892B8183B9
:1018C00044E0BE01C7010E94BB0A092F112722274D
:1018D0003327013111052105310509F06BC026E0E0
:1018E00096958795779567952A95D1F7E1E06E27CC
:1018F00060FD60C0F70180818E7F808341E0BE0182
:10190000C7010E94BB0A3D85F601808121E080FB72
:1019100021F923703F70306130623F7B3F7703EDE8
:1019200010E04CE6BE01C7010E949C0AA601BE0160
:10193000C7010E946E0B00E010E0980141E1BE017A
:10194000C7010E949C0A2E852F772F7710E030E088
:101950004DE6BE01C7010E949C0A02EC11E020E0A6
:1019600030E044E1BE01C7010E949C0A04E810E097
:1019700020E030E040E0BE01C7010E949C0A00EF79
:1019800014E024E130E040E7BE01C7010E949C0A58
:101990004B2DBE01C7010E94DA0B81E0F701818364
:1019A000DF91CF911F910F91FF90EF90DF90CF903B
:1019B000BF90089580E0F4CFF89488E198E00FB6E6
:1019C000F894A895809360000FBE90936000FFCFBD
:1019D00080932D04089580912D0490E0089581EE68
:1019E00090E008958093C60608958091C60690E021
:1019F00008958093110608958091110690E008954E
:101A000080935C05089580915C0590E00895809333
:101A10002C04089580912C0490E0089580915C013D
:101A200090E0089580916A0190E008950E948208F4
:101A3000CB01089590932B0480932A0408958091FC
:101A40002A0490912B0408959093270480932604F0
:101A5000089580912604909127040895909321047D
:101A6000809320040895809120049091210408958A
:101A700090932904809328040895809128049091DC
:101A80002904089590932504809324040895809157
:101A9000240490912504089590931F0480931E04BC
:101AA000089580911E0490911F04089584EF91E0A1
:101AB000089588EC90E0089580E293E00895909373
:101AC000230480932204089580912204909123049A
:101AD000089580931D04089580911D0490E0089559
:101AE00080931C04089580911C0490E008958091D7
:101AF0001B0490E0089521E0892B09F420E0209355
:101B00001901089590911501937021E030E0923011
:101B100011F030E020E0C9010895909172019370B6
:101B200021E030E0923011F030E020E0C90108956A
:101B300080911A0490E008958091C1079091C207A6
:101B4000DC01ED91FC910680F781E02D09948091F4
:101B5000C1079091C207DC01ED91FC910480F581F1
:101B6000E02D099590E0089581E00895FC018089B9
:101B70009189089590E080E00895FC01838194812B
:101B80000895FC0182810895862798E027E0382F88
:101B9000880F37FD82279150D1F70895CF93DF93B7
:101BA000EC01688180E00E94C40D69810E94C40D2F
:101BB0006A81CB810E94C40D6C2FDF91CF910C9470
:101BC000C40DCF93DF93EC010E94CE0D6D810E9476
:101BD000C40D6E81CF810E94C40D6C2FDF91CF9117
:101BE0000C94C40DAF92BF92CF92DF92EF92FF920E
:101BF0000F931F93CF93DF93CDB7DEB72D970FB61B
:101C0000F894DEBF0FBECDBF5C01C62ED42E052FCB
:101C1000790190E080E022E5662319F0942F852F6A
:101C200021E435E0F501DE01199601900D923A9517
:101C3000E1F735E0FE013996DE01119601900D9233
:101C40003A95E1F72E839F838887CE0101960E9403
:101C5000E10D8D83B701C5010E94EC06F701E80F85
:101C6000F11D9E81908311E0180FCC2041F0B70147
:101C7000610F711D8D2D902F0E941607180FB7014F
:101C8000610F711D8D810E940707810FF701E80F19
:101C9000F11D9AE090838F5F2D960FB6F894DEBF0A
:101CA0000FBECDBFDF91CF911F910F91FF90EF90AD
:101CB000DF90CF90BF90AF900895EF92FF921F9367
:101CC000CF93DF93CDB7DEB762970FB6F894DEBF40
:101CD0000FBECDBF162F7A01FC01218180818E8736
:101CE0002F87198A188ACE010E960E94CE0D8A8BF4
:101CF00085E0FE013E96DE01199601900D928A95CF
:101D0000E1F785E0FE013996DE01119601900D9212
:101D10008A95E1F71E8318861F82CE0101960E94E4
:101D2000E10D8D83B701CE0101960E94EC06F7010B
:101D3000E80FF11D108311E0180FB701610F711D3D
:101D40008D810E940707810FF701E80FF11D9AE0CE
:101D500090838F5F62960FB6F894DEBF0FBECDBF43
:101D6000DF91CF911F91FF90EF900895CF93DF9374
:101D7000CDB7DEB72E970FB6F894DEBF0FBECDBF3E
:101D8000AE014F5F5F4F0E945D0E682FCE0101963E
:101D90000E9432062E960FB6F894DEBF0FBECDBF5E
:101DA000DF91CF910895CF93DF93EC018091C1072C
:101DB0009091C207DC01ED91FC910480F581E02D4A
:101DC0000995811138C0E881E554E13108F04BC034
:101DD000F0E0E351F14F0C943D33210F330F330FFB
:101DE000240F330F330FFE0E270F300F330F330F37
:101DF000330F330F330F330F2A0F2D0F85E092E08F
:101E00009093C2078093C10785E0FE01A3ECB7E081
:101E100001900D928A95E1F78091C1079091C207D8
:101E2000DC01ED91FC910190F081E02D6981099533
:101E300061E4811101C062E5CE01DF91CF910C9484
:101E4000B60E84EE91E0DCCF89ED91E0D9CF87EC3E
:101E500091E0D6CF81EA91E0D3CF8CE891E0D0CF6A
:101E600081E891E0CDCF86E791E0CACF20E130E074
:101E700040E050E86FB7F89447986FBF6FB7F89499
:101E8000FC01E423F523EF2B11F12D9A6FBF6FB7FF
:101E9000F894479A6FBF569547952150310951F7ED
:101EA0002FB7F89447982FBF2FB7F8942E9A2FBFCB
:101EB00020E52A95F1F72FB7F8942E982FBF20E54B
:101EC0002A95F1F790934B0480934A0408952D9836
:101ED000DDCF1F93CF93DF9320914904822F869506
:101EE00090E0A82FA17050E040E0D0E0C0E09C015D
:101EF00020953095CC0FDD1FFA01E25DFB4F80810C
:101F0000982F96959370923071F1933081F1808182
:101F1000682F617070E0C62BD72B4F5F5F4F483141
:101F2000510541F78091460490914704C817D9079D
:101F3000B1F01FB7F89480914A0490914B048F73CD
:101F4000992720E0D0FB26F9D1FB27F9822B9C2B87
:101F50000E94360F1FBFD0934704C0934604DF9101
:101F6000CF911F910895A0FB80F98083D0CF20FBF3
:101F700080F9FBCFCF93DF93C0914804D0914904FF
:101F800080914804909149048C1B9D0BC39718F4D1
:101F90000E94690FF5CFDF91CF91089541E050E0A5
:101FA00070E060E00E9458050C94BA0F50E040E0E9
:101FB00061E070E00E9458050C94BA0FCF93C0E026
:101FC0008C2F0E94CE0F8C2F0E94D60FCF5FCC306B
:101FD000B9F78C2F0E94D60F8C2F0E94CE0FC150C4
:101FE000C1F7CF910895CF93CFB7F894880F21E030
:101FF00030E002C0220F331F8A95E2F780914A0435
:1020000090914B04662349F02095309582239323C9
:102010000E94360FCFBFCF910895822B932BF8CF1C
:102020000F931F93CF93DF93EC01142FFB012281B9
:102030000FB7F89430E0220F331F2F5F3F4F81E03E
:1020400090E0AC0102C0440F551F2A95E2F79A01B7
:1020500080914A0490914B04112391F02095309582
:10206000822393230E94360F0FBF8A81811711F0BC
:102070008B818C831A83DF91CF911F910F910895EB
:10208000842B932BEFCFCF93DF93282F30E045EBBA
:10209000849FC001112485559B4FEC01C155DF4F32
:1020A0004881442361F04DE1429FB001439F700D90
:1020B00011246553794F40E00E9410101882DF917F
:1020C000CF9108951F93CF93DF9300D01F92CDB788
:1020D000DEB7182F49835A836B830E9443102DE18A
:1020E000129FB0011124FB01E653F94F6553794F5C
:1020F00025EB129FC00111242489AE014F5F5F4F71
:1021000085559B4F0E94160C0F900F900F90DF91FA
:10211000CF911F91089595EB899FF0011124E55A05
:10212000FA4F4081518162810C94621080E00C94DE
:102130008B10CF93DF93EC018F810E948B1088234B
:1021400029F0CE01DF91CF910C94AF0B85E08A830B
:1021500082E0DF91CF910895CF93DF93EC0181E08E
:102160000E94620828EC30E040E050E00E94AB336F
:10217000BA01A901CE010E947907BC0190E080E07C
:102180000E94933420E030E040E952E40E94583449
:1021900087FD1AC088E99AE3A0E0B0E08093ED05DE
:1021A0009093EE05A093EF05B093F0058FEF8C832D
:1021B0008B818D3010F08CE08B83CE010E949910C2
:1021C00081E0DF91CF91089580E0FBCFCF93DF9343
:1021D000EC010E948E0828E030E040E050E00E94D0
:1021E000AB33BA01A901CE010E947907BC0190E08E
:1021F00080E00E94933420E030E040EA53E40E9403
:10220000583487FD14C01092A2061092A3061092B3
:10221000A4061092A5068C85811102C08CE08B83E8
:10222000CE010E94991081E0DF91CF91089580E066
:10223000FBCFEF92FF920F931F93CF93DF93C82FA3
:102240000E948B1025EBC29FC00111249C012555D3
:102250003B4F79013DE1C39FE00111242196BE016E
:102260006653794F41E0C7010E94DA0BCF5DD84F2A
:102270004CE6BE01C7010E94BB0A8B019C01007F96
:102280004CE6BE01C7010E949C0ADF91CF911F91CD
:102290000F91FF90EF90089580E00E9443101092FC
:1022A0003701089581E00C9443100F931F93CF934F
:1022B000DF93EC018F8115EB189FF0011124DF01F2
:1022C000A555BB4F14969C91149791113BC0139642
:1022D0008C91139714968C93E881F9810284F3858D
:1022E000E02D60E0CE010995882339F161E08F810E
:1022F0000E94F4078F8140911B0401E040279DE17B
:10230000899FB00111246553794F189FC001112492
:1023100085559B4F0E94DA0BE881F9810680F78191
:10232000E02DCE010995811107C01D828F810E9489
:10233000431086E08A8301C00D83DF91CF911F9106
:102340000F910895EC5CFA4F208191812913F5CF0C
:102350001D82EDCFCF93DF93EC018F8195EB899FA9
:10236000F0011124DF01A555BB4F14969C911497E1
:1023700091111FC013968C91139714968C93E8813A
:10238000F9810284F385E02D61E0CE01099588236F
:1023900069F061E08F810E94F407E881F98104808F
:1023A000F581E02DCE01099584E08A83DF91CF91FC
:1023B0000895EC5CFA4F208191812913F7CF1D829B
:1023C0000E94431086E0F1CFCF93DF93EC018A8126
:1023D00080688A8361E08F810E94F4078F81DF919A
:1023E000CF910C94431088E591E00E94E41186E6B9
:1023F00091E00C94E4114F925F926F927F929F92C2
:10240000AF92BF92CF92DF92EF92FF920F931F9302
:10241000CF93DF93CDB7DEB760970FB6F894DEBFEA
:102420000FBECDBF7C01DC0112968C9112978F31CB
:1024300009F4F9C0A0F48D3109F4DAC008F0DFC066
:10244000882309F49BC18DE0D70112968C931297D3
:102450008FE290E814969C938E9313978FC18132EC
:1024600009F429C108F4EEC08232A1F0833259F791
:10247000809148049091490451962D913C91529736
:10248000821B930BC39708F4CCC082E212968C9304
:102490000E944305F701C4842DE1C29EF00111247E
:1024A000EE5DF84F80E1DE01119601900D928A9564
:1024B000E1F785EBC89E60011124D601A555BB4FFD
:1024C0006D01F7011385183108F0D8C0012F07708E
:1024D00011FB662760F981E068278B810E94F30F6A
:1024E000E885F9854A855FB7F89410FFB9C0828105
:1024F00021E030E001C0220F4A95EAF7822B828367
:102500005FBF12FB442740F9BE016F5F7F4FC601DA
:102510000E94101044E0BE016F5F7F4FC6010E9411
:10252000BB0A2B013C01F3E04F225524662477249B
:1025300064FDA0C044E050E060E070E0C201842B84
:102540008027982F909590FBAA24A0F8B12CF50134
:10255000E25DFB4F9081997F92609160908321E0D2
:1025600081FBAA27A0F9A227AE5FB0E0A25DBB4F16
:102570009C91997F926091609C9382FBEE27E0F999
:10258000E227EC5FF0E0E25DFB4F9081997F926083
:1025900091609083D7011C96EC911C97EE0DFF2D56
:1025A000F11D9585892B8587809148049091490478
:1025B00052969C938E93519761E070E053968D9163
:1025C0009C91892B11F070E060E0F701748B638BB4
:1025D00087E394E00E94330583E2D70112968C933F
:1025E00012971B968C911B978F5F1B968C9319C02B
:1025F000F7011482138213868EE1828312C082E077
:102600001C968C9350E040E061E070E083E00E9413
:10261000580582E2F70182838FE1808B84850E94D6
:10262000191180E0ACC081E01C968C9341E050E031
:1026300070E060E083E00E94580582E2F701828347
:1026400080E2EBCF1C961C9241E050E061E070E02C
:1026500083E00E94580582E2F701828381E2DDCFA8
:10266000228181E090E001C0880F4A95EAF78095C9
:10267000822345CF40E050E0BA0160CF40E0BE0188
:102680006F5F7F4FCD010E9410104CE6BE016F5F5F
:102690007F4FC6010E94BB0A8B019C01007F036033
:1026A0004CE6BE016F5F7F4FC6010E949C0AF70196
:1026B00013868089A2CF1D968C911D9781110AC027
:1026C0001E968C911E97811105C01F968C918823B0
:1026D00009F478C084E2F701828380E092EC94836D
:1026E00083835701FDE0AF0EB11C8EE2C82E84E05B
:1026F000D82E912CD5011D915D011123F9F0692D82
:10270000F701838194810E94170AD70114969C9344
:102710008E931397612F6170812F827012FD45C0D7
:1027200070E001E010E0811101C000E0C6010196F7
:102730000E943305B801C6010E9433059394B2E0AC
:10274000CB0ED11CE3E09E12D5CF80913404897F5B
:102750008E7F8093340480913504897F8E7F8093AF
:10276000350480913604897F8260816080933604CD
:1027700080913704897F8E7F8093370481E0609653
:102780000FB6F894DEBF0FBECDBFDF91CF911F9182
:102790000F91FF90EF90DF90CF90BF90AF909F9000
:1027A0007F906F905F904F900895662341F062E0B4
:1027B00070E002E0811101C001E010E0B7CF61E0FC
:1027C00070E0F7CF0E944305C7010E94DB09D6CF16
:1027D000CF9390E0FC01EA59F64FC491815C9C4F85
:1027E0000E9443338F3F09F48C2FCF9108951F939C
:1027F000CF93DF93EC011D828A8187FD3AC08F81E0
:102800000E94E8139F811DE1199FF0011124E653F6
:10281000F94F8787892F0E948B102F8130E0129FFC
:10282000B001139F700D11246553794F15EB129F62
:10283000C001139F900D112441E085559B4F0E94CC
:10284000DA0BEF811E9FF0011124E555FB4F8381C8
:10285000848383E08A838FEF8C83E881F98102800F
:10286000F381E02DCE01099580E0DF91CF911F919A
:10287000089581E0FACF90916801913011F481E0E0
:102880000895809369019430C9F090916A01891389
:1028900004C080916B01811111C08091720183701D
:1028A000823069F380916B0181110AC080911A0412
:1028B000823030F486E691E00E94F71380E00895BC
:1028C00086E691E00C94AF0BCF93DF93EC01862F5B
:1028D0009BE19A830E943B14813031F01C821B8261
:1028E00081E0DF91CF91089587E890E89C838B8306
:1028F00080E0F7CF0C943B1480915A018130C9F0ED
:1029000087FD17C08CE080935B0110926401809179
:102910005D01811106C088E591E00E94F71380E017
:102920000895809165018823D1F388E591E00C94A6
:10293000AF0B81E008952AE0FC0122837683658352
:1029400042E050E070E060E0809119040E94580578
:102950000C947C14CF93DF93EC0187E18A831C8273
:102960001B8288A1833060F080E00E943B1481309C
:1029700049F46AE070E8CE01DF91CF910C949B148A
:1029800084E0F3CFDF91CF910895CF93DF93EC01F3
:10299000862F0E943B14882339F06AE070E8CE014C
:1029A000DF91CF910C949B14DF91CF91089590917A
:1029B0005A019130D1F097FD18C080935B0160936C
:1029C0006401943041F080915D01811106C088E579
:1029D00091E00E94F71380E00895809165016817E7
:1029E000D1F388E591E00C94AF0B81E0089561E0AC
:1029F0000C94D714FC016183809172018370823042
:102A000019F083E0808308951082809119040C945A
:102A1000F714CF93DF93209172012370223021F0BD
:102A200020911A04223070F0EC010E94961083E08D
:102A30008A831C821B8261E0CE010B960E94FA14ED
:102A40000E94430581E0DF91CF9108956C3038F00A
:102A500026E030E8FC013483238380E00895FC0104
:102A60001482138260A320911A04222339F020E1FA
:102A700022830B960E94091581E008950E94AA14F2
:102A8000FBCFCF93DF93FC011082C9E1D4E050E08B
:102A900040E062E070E088810E9458058881DF9103
:102AA000CF910C94F714FC0110826183428350E0B3
:102AB00040E062E070E0809119040E945805809126
:102AC00019040E943B14811106C0809119040E94D0
:102AD000F71481E0089580E00895CF93DF93EC012F
:102AE00085E08A831C821B8241E0CE010B960E9406
:102AF0005315811107C06AE070E8CE01DF91CF91D4
:102B00000C949B1450E040E062E070E08091190466
:102B1000DF91CF910C945805CF93DF93EC0182E1C4
:102B20008A838CA10E94F7146CA1CE010E94C51467
:102B300050E040E062E070E08CA1DF91CF910C9416
:102B400058056C3038F026E030E8FC0134832383EC
:102B500080E00895FC011482138264A320911A047A
:102B6000223038F020E122830B960E94091581E083
:102B700008950E948C15FBCF8C30910510F00C94B9
:102B80007C140C94F714CF92DF92EF92FF921F9374
:102B9000CF93DF93EC016115710509F441C0122F49
:102BA0006A017B018F818F3F61F48A818F838B81E2
:102BB0009C81998788877C836B838CE08A830E94C1
:102BC000F3118A85882331F0FC82EB828CE08A83C2
:102BD0000E94F3118A818C3049F48FE3E822E89453
:102BE000F0F8E7E0EE16E0E8FE0649F081E0DF915C
:102BF000CF911F91FF90EF90DF90CF9008950E94AA
:102C00000506813099F72A85212B2A870E94050A1B
:102C1000C6010E94F7138AE18A831C821B82E6CFD9
:102C20008A85982F922391F09A819A3179F4FA014A
:102C300095819923D9F29F819A83488559855C8330
:102C40004B83209528232A878FEF8F8380E0CFCF77
:102C500082E00E94E81390E0089581E00E94E8136A
:102C600090E0089580E00E94E81390E008951F939B
:102C7000CF93DF938CE393E00E9443338F5FC82FA1
:102C8000D0E0DC2FCC278DE393E00E944333182F54
:102C90008EE393E00E9443331F3F11F4882369F0D1
:102CA000811748F481E0810F8C0F9D2F911DDF91DA
:102CB000CF911F9108958F5FF7CF81E0F5CF0C94EE
:102CC0003716CF93DF9389E190E00E944333C82FFA
:102CD0008AE190E00E944333D82F8C1749F08BE1B2
:102CE00090E00E944333C81719F0CD2FD813CFEFCF
:102CF0008C2FDF91CF9108950F931F93CF93DF9384
:102D00000E946116082F10E0813029F0B0F0823067
:102D1000A1F08330A9F5CFE1D3E0CE014C960E941B
:102D2000433390E024E0959587952A95E1F70817BD
:102D3000190709F1CE01019611C0D0E0C0E0CE0123
:102D40004C960E94433390E034E0959587953A95F0
:102D5000E1F70817190739F0CE010197DF91CF91FC
:102D60001F910F9108952196C03283E0D80739F75B
:102D70008FE193E0F3CF219780F690E080E0EECFF3
:102D80008FEF9FEFEBCF2F923F924F925F926F9218
:102D90007F928F929F92AF92BF92CF92DF92EF92EB
:102DA000FF920F931F93CF93DF93CDB7DEB7A19719
:102DB0000FB6F894DEBF0FBECDBF882E912C9A8A35
:102DC000898A95EB899F50011124BE8AAD8AD5016D
:102DD000A055BB4FB88FAF8BFD01EC57FF4F8181E2
:102DE0009081B82FB91BB43011F5E091C107F09173
:102DF000C2078DE082838BE290E89483838321E095
:102E000030E0F901E25DFB4F8081897F8460816061
:102E10008083F901E35DFB4F8081897F846081605D
:102E200080832E5F3F4F2931310559F7B7C1837039
:102E3000882E912C9A8E898EED89FE89E85CFA4F56
:102E400080819181A281B3814A015B01881A990A2C
:102E5000AA0ABB0AD501C40189839A83AB83BC83C8
:102E6000B7FF0BC0882499245401881A990AAA0A2A
:102E7000BB0A89829A82AB82BC823F2CE986DD86BE
:102E8000CD82680179014B8F5C8F6D8F7E8F21E23F
:102E9000A98CBA8C2A9DF0012B9DF00D112425EBF5
:102EA00089889A88289DB001299D700D1124E60F0C
:102EB000F71F8F0105551B4F89809A80AB80BC801E
:102EC000F80185829682A782B0860097A105B10598
:102ED00009F442C180959095A095B0958827B7FDDB
:102EE00083959927AA27BB278187C68AD78AE08E30
:102EF000F18EFB01E555FB4FDF01AB56BF4F8D90C7
:102F00009D90AD90BC90D80192968D929D92AD927D
:102F1000BC929597A3E4B0E0A50194010E94D1333F
:102F200053E096958795779567955A95D1F7D8018F
:102F30001A966D937D938D939C931D97DF01A756F1
:102F4000BF4F8D919D910D90BC91A02DEF56FF4FDD
:102F5000C816D906EA06FB0608F439C1B701A6016E
:102F6000481B590B6A0B7B0B408051806280738039
:102F7000441555056605770510F42A013B01840DBB
:102F8000951DA61DB71D88379105A105B10520F433
:102F900088E790E0A0E0B0E0CB8ADC8A2E2C0F2DF1
:102FA0008C159D05AE05BF0520F48B8B9C8B2A2EBE
:102FB0000B2F8D819D85A985B32D88379105A1059E
:102FC000B10520F488E790E0A0E0B0E03C2C1D2D96
:102FD000E9A2FF8E8C159D05AE05BF0520F4382EA5
:102FE000192FA9A3BF8F81149104A104B10421F466
:102FF000812C912C540183942B893C89422D502F94
:10300000B901822D902F0E9479336D837E838F8347
:103010009887A7019601C701B6010E947933698795
:103020007A878B879C87232D312F49A15F8D632D54
:10303000712FCA010E9479336D877E878F87988BA5
:1030400024013501440C551C661C771C69857A8562
:103050008B859C8561507109810991092D813E8183
:103060004F815885621B730B840B950B640D751D86
:10307000861D971DA30192010E94893369017A017F
:1030800069857A858B859C852D853E854F855889F8
:10309000621B730B840B950BA30192010E94893371
:1030A000DA01C9018C0D9D1DAE1DBF1D49815A81DC
:1030B0006B817C8184179507A607B70708F09DC030
:1030C000481B590B6A0B7B0B81E2A98CBA8C8A9D39
:1030D000F0018B9DF00D112425EB89889A88289D9D
:1030E000C001299D900D1124E80FF91FE555FB4FF4
:1030F000C686D786E08AF18AC40ED51EE61EF71E64
:10310000C28AD38AE48AF58A9B88928EAC88A38E81
:10311000248E058F368E178FB9A0B0A28F8C81A216
:1031200085559B4FFC01E756FF4F30821183B282D9
:103130008382EF89F88DEC57FF4F21812F5F218328
:1031400083579F4F8B8C9C8CAD8CBE8CDC018D92F9
:103150009D92AD92BC92139785EB89889A88889D41
:10316000F001899DF00D1124E65AFA4FFA83E983A4
:103170008081811113C08DE1889DB001899D700D02
:1031800011246553794F41E08D899E8985559B4F68
:103190000E94101081E0A981BA818C93A1960FB68C
:1031A000F894DEBF0FBECDBFDF91CF911F910F917D
:1031B000FF90EF90DF90CF90BF90AF909F908F9057
:1031C0007F906F905F904F903F902F900895AC014B
:1031D000BD014C195D096E097F09408051806280F4
:1031E0007380441555056605770510F42A013B01E7
:1031F00084199509A609B709C6CEA501940182E0F4
:10320000220F331F441F551F8A95D1F769817A8198
:103210008B819C81617077278827992769877A87B6
:103220008B879C87C980DA80EB80FC80F694E794DA
:10323000D794C7948D809E80AF80B8846D857E853D
:103240008F859889681579058A059B0508F450C013
:103250004B015C0171E0871A9108A108B1088D81CA
:103260009E81AF81B885881A990AAA0ABB0AC5014E
:10327000B401620F731F841F951F89849A84AB84E5
:10328000BC8489288A288B2821F0640D751D861D31
:10329000971D0E948933C20ED31EE41EF51E89803D
:1032A0009A80AB80BC808C149D04AE04BF04E0F413
:1032B000A5019401C301B2010E9479338D809E80E3
:1032C000AF80B884680D791D8A1D9B1D0E949334C0
:1032D0000E94B8350E946434362E172F89A39F8F21
:1032E000C980DA80EB80FC8040E050E0BA01ECCE8F
:1032F0006D817E818F8198858D849E84AF84B8880E
:10330000681979098A099B0989849A84AB84BC84E9
:1033100089288A288B2821F0640D751D861D971D2C
:103320000E948933C20ED31EE41EF51E89819A8144
:10333000AB81BC81C816D906EA06FB0610F4D7019A
:10334000C601C980DA80EB80FC80C81AD90AEA0A73
:10335000FB0ACACFCF92DF92EF92FF920F931F9397
:10336000CF93DF938C01C2EAD6E085E79BE0A0E033
:10337000B0E088839983AA83BB830E948E0828E0EB
:1033800030E040E050E00E94AB33F8012087318705
:103390004287538760912A0470912B0490E080E06B
:1033A0000E94933424EE38E34EE051E40E94453508
:1033B0000E9464348B019C01488159816A817B8120
:1033C0004A5E564161097109C12CD12C760182E017
:1033D0000E94C316DF91CF911F910F91FF90EF9044
:1033E000DF90CF9008958F929F92AF92BF92CF922D
:1033F000DF92EF92FF920F931F9349015A016701E9
:103400007801009138051091390520913A053091E5
:103410003B05AB01BC01400F511F621F731F95019B
:10342000840180E00E94C31681E0809337011F91E0
:103430000F91FF90EF90DF90CF90BF90AF909F9053
:103440008F900895CF92DF92EF92FF920F931F9388
:10345000CF93DF938C01CDEED5E0188219821A82CA
:103460001B8281E00E94620828EC30E040E050E0DE
:103470000E94AB33F80120873187428753876091E0
:1034800026047091270490E080E00E94933420E0AD
:1034900030E048E453E40E9445350E9464348B01D7
:1034A0009C01488159816A817B81405D5A486F4FF8
:1034B0007F4FC12CD12C760181E00E94C316DF9191
:1034C000CF911F910F91FF90EF90DF90CF900895D3
:1034D0008F929F92AF92BF92CF92DF92EF92FF9224
:1034E0000F931F93CF93DF93EC01609124047091AD
:1034F000250490E080E00E94933420E030E048E42E
:1035000053E40E9445350E9464344B015C01EB8119
:1035100084E0E89FF0011124EC52FC4F20E030E001
:1035200048E453E460817181828193810E94453532
:103530000E945D34AB01BC01C12CD12C76019501F8
:10354000840181E00E94C316DF91CF911F910F91FA
:10355000FF90EF90DF90CF90BF90AF909F908F90B3
:103560000895CF92DF92EF92FF920F931F93CF9324
:10357000DF938C01C2EAD6E08DE590E0A0E0B0E0F8
:1035800088839983AA83BB830E948E0828E030E059
:1035900040E050E00E94AB33F8012087318742873A
:1035A000538760912A0470912B0490E080E00E9480
:1035B000933424EE38E34EE051E40E9445350E94F6
:1035C00064348B019C01488159816A817B81465119
:1035D000594E6F4F7F4FC12CD12C760182E00E9453
:1035E000C316DF91CF911F910F91FF90EF90DF9065
:1035F000CF9008958F929F92AF92BF92CF92DF9219
:10360000EF92FF920F931F93CF93DF93EC016091A2
:1036100028047091290490E080E00E94933424EE05
:1036200038E34EE051E40E9445350E9464344B017A
:103630005C018B8124E0829FC00111242C85213004
:1036400031F584599C4F24EE38E34EE051E4FC01FF
:1036500060817181828193810E9445350E945D3431
:10366000C12CD12C760195018401AB01BC0182E013
:103670000E94C316DF91CF911F910F91FF90EF90A1
:10368000DF90CF90BF90AF909F908F90089580561D
:103690009C4FD9CF682F81E493E00C945133CF93A2
:1036A000C82F682F89E190E00E9451336C2F8AE186
:1036B00090E00E9451336C2F8BE190E00E945133D7
:1036C0000E94611691E08C1390E0892FCF910895AC
:1036D000CF92DF92EF92FF920F931F93CF93DF93DE
:1036E0001F92CDB7DEB793E0D92E8F70C82E0E94FF
:1036F0006116182F89830E947C16113031F098F0E2
:10370000123089F0133009F04BC08C0101501109BF
:10371000003283E01807A0F0CE0101960E946907ED
:1037200010E000E00DC08C010F5F1F4F003283E0FE
:10373000180730F0CE0101960E9469070FE113E0EF
:1037400089810E944F1BE82E8823F1F0698180E176
:10375000689FB0011124FC2CF60E045E1F4F6F2DE4
:10376000C8010E945133C8010E944333F81669F022
:10377000CE0101960E94690789810E944F1B882310
:1037800019F0DA94D110B3CFE12C8E2D0F90DF9188
:10379000CF911F910F91FF90EF90DF90CF90089500
:1037A0001982BECF60931A0480931904623029F005
:1037B00030F0643011F0683021F40C94681B8CE018
:1037C000FCCF0895CF93DF93EC0185E08A831C82C0
:1037D0001B8261E08DA10E94D21B40E061E0CE011E
:1037E00080960E945315811107C06AE070E8CE01EF
:1037F000DF91CF910C949B14DF91CF910895CF93DB
:10380000DF93EC01862F6C3040F086E090E89C83DB
:103810008B8380E0DF91CF91089521E030E03C83FD
:103820002B836091190490911A04861302C098307A
:1038300061F021E0209352048DA3923040F080E1AA
:103840008A83CE010B960E94091581E0E3CF62E0E6
:103850000E94D21B40E061E0CE0180960E94531589
:10386000882329F095E09A831C821B82D3CF6AE0DB
:1038700070E8CE010E949B14E8CF80917201982FCE
:103880009370923021F490911A04943068F0837010
:10389000823041F080911A04823020F061E08CE0A7
:1038A0000E94D21B81E0089580E00895EF92FF927C
:1038B0001F93CF93DF93FC011281112321F11C3060
:1038C00001F5EC010E9405068130D9F4EB80FC8003
:1038D000F8E0EF16F0E8FF06A1F40E943D1C81110C
:1038E00009C0FC82EB821A83DF91CF911F91FF9078
:1038F000EF9008950E94050A81E090E09C838B83FD
:103900001A8280E0F1CF81E0EFCFCF93DF93EC011B
:103910000E943D1C811108C00E94F31188E090E8CC
:103920009C838B838CE08A8381E0DF91CF91089523
:10393000EF92FF920F931F93CF93DF93EC01888157
:10394000882351F0813051F181E0DF91CF911F91B7
:103950000F91FF90EF900895809165018130E1F41F
:103960008883609122047091230490E080E00E949B
:10397000933428E231E34BE252E40E9445350E9441
:1039800064349B01AC01E12CF12C870165E97EEFE9
:103990008FEF9FEF0E94F31980E0D7CF0E941E06A1
:1039A000882399F29091720180911904937092305A
:1039B00089F092E0988361E00E94D21BE0911904A3
:1039C000EE0FEF5FF0E0E25DFB4F8081897F8E7F3D
:1039D0008083E2CF93E0988342E050E070E060E0C3
:1039E0000E945805D9CFCF93DF93EC018A818823B9
:1039F000B1F08B3171F480916801811108C061E0F0
:103A000080916A010E94D21BCE010E94DB0980E0F6
:103A100007C08DE08A838FE290E89C838B8381E0EE
:103A2000DF91CF910895CF93DF93EC01198A188A23
:103A30006C3030F086E090E89C838B8380E019C086
:103A400081E090E09C838B8380911A048330B0F7EF
:103A5000823021F4809119046813F0CF862F61E041
:103A60000E94D21B81E08F8760E0CE010E946D151D
:103A700081E0DF91CF91089520914804309149046D
:103A80008091C1079091C207DC01ED91FC91048007
:103A9000F581E02D4091BF075091C007B901641B2B
:103AA000750BAB01483E534040F40995811139C074
:103AB00080915004809351040895285E33403093E0
:103AC000C0072093BF07099581112BC080911A046C
:103AD000823038F59091500480915104981709F183
:103AE0000E940506813079F0E8F08230D1F46091CF
:103AF00019046623B1F061508DE491E00E946414D2
:103B00008DE491E00AC0609119046C3050F487ECA8
:103B100091E00E94131D87EC91E09093C20780937F
:103B2000C1070895609119046C30D8F76F5FE4CF36
:103B3000FC01148213822AE122830E94100A209140
:103B400015012370909172019370809119042230B5
:103B500029F468E0923029F062E003C061E092301D
:103B6000D9F30E94D21B81E00895DF92EF92FF9279
:103B70000F931F93CF93DF93EC018881813009F479
:103B800047C028F0823009F463C081E006C0D090BD
:103B9000650181E0D81649F080E0DF91CF911F9157
:103BA0000F91FF90EF90DF90089590916A018091BE
:103BB00019049813F1CF0E949610E12CF12C870183
:103BC00027E533E040E050E069E975E080E090E00F
:103BD0000E94F3198981882359F0D88262E080918C
:103BE00019040E94D21B8091500480935104D4CFB9
:103BF00082E08883E12CF12C870127E533E040E067
:103C000050E069E975E080E090E00E94F319E6CFAA
:103C1000809172018370823059F48A810E944B082E
:103C200062E0809119040E94D21B85E08883ADCFA9
:103C30000E941E06882309F4AFCF86E0888342E005
:103C400050E070E060E0809119040E945805A4CF14
:103C50008091720183708230E1F0909150048091E4
:103C60005104981316C08091350590913405891B35
:103C7000823008F091CFE12CF12C870127E533E069
:103C800040E050E069E975E080E090E00E94F319BF
:103C900083CF8A810E944B0862E0809119040E94C0
:103CA000D21B8091500490915104891305C095E076
:103CB00098838093510469CF97E0FACF682F809161
:103CC00019040C94D21BCF93DF93D0E0C0E06FEFC8
:103CD000CE010E9451332196C11588E0D807B9F76B
:103CE0006FEF80E098E0DF91CF910C9451330F9308
:103CF0001F93CF93DF932091650121112EC0FC010A
:103D00008CE08283858196819483838381E090E037
:103D1000968385830E9437168F3F980791F0EC01B8
:103D200021966C2F61500C2F017010E0C801835C4C
:103D30009C4F0E9451336D2F61508CE393E00E94A1
:103D400051330E944C118091500480935104DF91B3
:103D5000CF911F910F910C94F311DF91CF911F918F
:103D60000F910895CF92DF92EF92FF920F931F93DE
:103D7000CF93DF93EC018A81853009F423C148F4A5
:103D8000823009F4D2C0833089F0811129C111E059
:103D90000FC18C3009F4DEC0893109F4B6C08A3015
:103DA00009F01EC1CE010E94771E27C08B8581308D
:103DB00031F160F0823009F44FC0843009F099C0CD
:103DC00062E070E8CE010E949B1417C080911A0433
:103DD000823088F081E08B870E949610E091190470
:103DE000EE0FEF5FF0E0E25DFB4F8081897F846042
:103DF0008160808302C084E08B8710E0D9C080910D
:103E000065018130D1F782E08B8762E080911904EF
:103E10000E94D21B0E9482086D877E878F87988BB5
:103E2000609122047091230490E080E00E9493341A
:103E300028E231E34BE252E40E9445350E946434AB
:103E40009B01AC01E12CF12C870165EE74E58FEF4D
:103E50009FEF0E94F319D1CF0E9482080D851E8525
:103E60002F85388968017901C61AD70AE80AF90A44
:103E7000D701C601B7FF07C0B095A0959095819571
:103E80009F4FAF4FBF4F40911D0450E070E060E086
:103E9000481759076A077B07ACF4809115018370B6
:103EA000823081F485E08B8781E00E944B08E091AD
:103EB0001904EE0FEF5FF0E0E25DFB4F8081897F38
:103EC0008E7F97CF809172018370823011F083E0F2
:103ED000EACF0E941E06882309F48FCF6C856150BB
:103EE0006C87662309F487CFCE010B960E94FA14E3
:103EF00084CF64E070E8853009F464CF89E18A8377
:103F0000CE0144960E94411578CFCE0144960E947E
:103F1000981C882309F471CF8C89833009F450CF21
:103F200082E08A830E947C1468CF809165018111B0
:103F300064CF80916801811160CFCE010E94DB09BE
:103F40000E944C1161E0809119040E94D21B0E94D2
:103F5000430553CF0E940506813009F04ECF0E94E1
:103F6000100A809172018370823049F4E881F981EE
:103F70000190F081E02D60E0CE0109953ECF809167
:103F800015018370823009F438CF41E061E0CE0141
:103F900041960E945315182F882329F085E08A83C3
:103FA0001C821B822ACF6AE070E8CE010E949B141B
:103FB000812FDF91CF911F910F91FF90EF90DF90B4
:103FC000CF900895CE0141960E94B51D882309F433
:103FD00014CF8989863009F091CF61E070E8F2CE84
:103FE0008DE08A838FE290E89C838B83D0CECF9341
:103FF000DF93EC018A818530C9F068F4882349F0A9
:10400000823009F464C08DE08A838FE290E89C835B
:104010008B8381E012C08C3009F46BC0893161F16F
:104020008A3089F7CE010E94771E06C0CE010B961A
:104030000E94B51D811104C080E0DF91CF910895E9
:104040008B85863069F0873089F08530A9F789E162
:104050008A831C821B82CE010E960E944115ECCFF2
:1040600061E070E8CE010E949B14E6CF81E090E011
:10407000998B888B1F86EBCFCE010E960E94981CE1
:104080008823D1F28E85833019F462E070E8EACF9C
:104090008F858823B9F081508F87809119048C30E7
:1040A00028F086E090E89C838B83C6CF21E030E047
:1040B0003C832B8361E00E94D21B61E0CE010E9411
:1040C0006D15BACF82E08A830E947C14B5CF8091AF
:1040D00065018111B1CF90916A0180911904981303
:1040E000ABCFCE010E94DB090E9443050E944C1118
:1040F000A3CF0E940506813009F09ECF0E94050AD9
:10410000809172018370823009F4A1CF60E0D6CF34
:10411000EF92FF920F931F93CF93DF93EC018A816D
:104120008C3009F451C070F4813051F148F08A307C
:1041300009F446C08DE08A838FE290E89C838B83EC
:1041400081E00DC0873191F0883181F1803191F7A4
:10415000CE010B960E94B21E81114CC080E0DF910F
:10416000CF911F910F91FF90EF9008950E941E062E
:104170008823A1F381E08A8388A10E94F714EECFFF
:1041800080916501813051F788E18A830E94961001
:10419000E12CF12C870127E533E040E050E06FEAA5
:1041A00076E080E090E00E94F319D8CF0E941E06CE
:1041B0008823A1F26CE070E8CE010E949B14CECF60
:1041C000CE010E94771ECACF0E940506813031F6CB
:1041D0000E94050A8B819C818A3020E8920751F069
:1041E0008C30904809F0BACF0E944305CE010E945E
:1041F000DB09B4CFCE010E94AA14B0CFEF92FF9298
:104200000F931F93CF93DF93DC011296EC911297DB
:10421000EB3108F02AC1EC01F0E0EF5EFE4D0C94AA
:104220003D333F223522C621352235225E213522FB
:1042300035223522352222223522252235223522E9
:1042400035222C21352237219221BC21E92112224D
:10425000352235226F210A220B960E94B21E81114F
:1042600002C010E023C0CE010E948C15FACF8091CD
:1042700065018130B1F78CA190916A018913F1CF6A
:1042800061E00E94D21B41E061E0CE0180960E9475
:104290005315182F882329F085E08A831C821B82FE
:1042A000E0CF6AE070E8CE010E949B14812FDF917D
:1042B000CF911F910F91FF90EF90089580960E94EB
:1042C000B51D882371F288A161E070E8863091F015
:1042D00089E18A83CE0183960E944115C2CF8396DD
:1042E0000E94981C882309F4BCCF8BA1833031F441
:1042F00062E070E8CE010E949B14B3CF83E18A8311
:1043000061E08CA10E94D21B50E040E062E070E0CE
:10431000809119040E9458056CA16F5FCE010E9424
:10432000C5149FCF20916A018CA190E001962817B7
:10433000190609F096CF84E18A8360912D0470E01C
:1043400090E080E00E94933420E030E040EA50E4C6
:104350000E94EC3328E231E34BE252E40E944535FF
:104360000E945D34E12CF12C870127E533E040E029
:1043700050E00E94F31975CF0E941E06882309F4AD
:1043800070CF82E08A830E947C146BCF809165019C
:10439000811167CF85E18A8350912C0441E050322E
:1043A00008F040E0503208F0569560E081E00E944D
:1043B000621080912404909125049EA38DA3809186
:1043C00026049091270490932504809324046CA1E3
:1043D000A5CF9CA180916A01981343CF8AE18A837B
:1043E00041E05FE160E081E00E9462108DA19EA14A
:1043F000909325048093240410926B01E12CF12CFE
:10440000870127E533E040E050E06BE27FEF8FEF7C
:104410009FEFAFCF80916B01882309F422CF86E113
:104420008A831FCF8091680181111BCFCD010E942B
:10443000DB0950E040E061E070E0809119040E94E7
:1044400058050FCF0E94771E0CCF0E9405068130C1
:1044500009F007CF0E94100AE881F9810190F081EC
:10446000E02D6CA1CE010995FCCE8DE012968C93C7
:1044700012978FE290E814969C938E93139711E015
:1044800015CF682F80E493E00C945133682F8FE3AD
:1044900093E00C9451334F925F926F927F928F9280
:1044A0009F92AF92BF92CF92DF92EF92FF920F93C3
:1044B0001F93CF93DF93EC019A81963009F45BC090
:1044C000E0F4992341F0953059F18DE08A838FE231
:1044D00090E89C838B8381E0DF91CF911F910F91B6
:1044E000FF90EF90DF90CF90BF90AF909F908F9014
:1044F0007F906F905F904F9008959C3009F47FC13A
:10450000903131F09A3009F7CE010E94771E06C033
:10451000CE010B960E94B21E811190C180E0DCCFCB
:10452000CE0180960E94B51D8823C1F388A161E069
:1045300070E8863009F45CC150E040E062E070E071
:10454000809119040E9458051BA283E08CA38091DE
:104550001904E82FEE0FEF5FF0E0E25DFB4F908172
:10456000997F9460916090830E94F71486E08A831B
:104570001C821B82D3CF8BA1823009F4C4C0C8F443
:10458000882381F1813009F4A9C0873009F42EC154
:10459000883009F431C150E040E061E070E0809182
:1045A00019040E94580510925204CE010E94DB09A2
:1045B000B5CF843009F40BC108F4EBC0853029F77E
:1045C000809165018111AACF9BA3E0911904EE0FA0
:1045D000EF5FF0E0E25DFB4F8081897F8260816068
:1045E00080839CCF80916501813009F097CF8BA3A8
:1045F0000E94961082E493E00E944B339C01255563
:1046000031402439324010F088E691E0BC0190E05E
:1046100080E00E9493344B015C0160911E04709114
:104620001F0490E080E00E9493342B013C016091D4
:1046300020047091210490E080E00E94933428E2ED
:1046400031E34BE252E40E9445350E9464346B0131
:104650007C0128E231E34BE252E4C301B2010E9443
:1046600045350E9464342B013C0128E231E34BE2E2
:1046700052E4C501B4010E9445350E945D348701B2
:104680007601A30192010E94F319609120047091B8
:10469000210490E080E00E94933428E231E34BE271
:1046A00052E40E9445350E9464342B013C01A5016F
:1046B000940160E070E08AE794E40E94EB3328E222
:1046C00031E34BE252E40E9445350E945D348301A0
:1046D0007201A30192010E94F31920CF809115016C
:1046E0008370823031F481E00E944B0888E08BA314
:1046F00015CF8091350590913405891B813009F0E3
:104700000DCF82E0F4CF8091150183708230D1F516
:1047100081E00E944B0864E0809119040E94D21B42
:10472000609120047091210490E080E00E94933415
:104730004B015C0160911C0470E090E080E00E94FD
:1047400093342B013C0128E231E34BE252E4C501F2
:10475000B4010E9445350E9464344B015C0128E29B
:1047600031E34BE252E4C301B2010E9445350E949D
:104770005D34E12CF12C8701A50194010E94F3190D
:1047800083E0B5CF0E941E06882309F4C7CE87E0D8
:10479000AECF0E941E06882309F4C0CE68E0809147
:1047A00019040E94D21B62E0809119040E94D71460
:1047B000E12CF12C870127E533E040E050E065ED86
:1047C00070E080E090E00E94F31984E090CF809147
:1047D0006501823009F0A2CE61E080E00E94F4071A
:1047E0000E944C110E947C1485E081CF63E070E848
:1047F000CE010E949B1492CE69E070E8F9CF0E942E
:104800000506813009F08ACE0E94100A8B819C81B6
:10481000893020E8920741F08A30904879F0809101
:1048200072018370823051F4E881F9810190F08146
:10483000E02D60911904CE01099570CECE010E9441
:10484000E21B6CCE82E493E00E944B339C01255521
:1048500031402439324010F088E691E00895FC019F
:104860008DE182831482138282E084873D9683E007
:10487000DF011D928A95E9F781E00895BC0182E489
:1048800093E00C9463330F931F93CF93DF93CDB7D3
:10489000DEB72A970FB6F894DEBF0FBECDBFECE4AB
:1048A000F4E014821582168217828DE1E7E3F2E0CC
:1048B000A4E5B4E001900D928A95E1F78DE1E4E57D
:1048C000F2E0A1E7B4E001900D928A95E1F78DE165
:1048D000E1E7F2E0AEE8B4E001900D928A95E1F7ED
:1048E0008DE1E7E3F2E0AAECB6E001900D928A9543
:1048F000E1F78DE1E4E5F2E0A7EEB6E001900D927C
:104900008A95E1F78DE1E1E7F2E0A4E0B7E00190FC
:104910000D928A95E1F760E08BEA94E00E9492089C
:1049200061E080E695E00E94920862E085E196E011
:104930000E9492088DE1E7E3F2E0A1E2B7E0019086
:104940000D928A95E1F78DE1E4E5F2E0AEE3B7E0A0
:1049500001900D928A95E1F78DE1E1E7F2E0ABE598
:10496000B7E001900D928A95E1F7E8E7F7E088EC6F
:1049700090E09183808313A214A21092BD0710923D
:10498000BE0708EC17E0F80110821182128214822F
:10499000138289EC97E00E94CE0DF8018583168280
:1049A0001E821F8219861886CE0106960E94CE0DA1
:1049B0008A8785E0FE013696DE01119601900D9200
:1049C0008A95E1F785E0FE013196AFECB7E0019002
:1049D0000D928A95E1F7F8011486168615868FECFC
:1049E00097E00E94E10DF80183870FEB17E0F801D3
:1049F000118210828CE292E09383828388E5848323
:104A000015821782168283EC97E00E94CE0DF80182
:104A100080872A960FB6F894DEBF0FBECDBFDF9118
:104A2000CF911F910F910895FC0184899589A689E2
:104A3000B789803B9440A105B10599F487E797E7D2
:104A40009093FF0A8093FE0A81E08093180488E126
:104A50009CE00FB6F894A895809360000FBE9093E9
:104A60006000089508958AE191E00C94B42E8AE1E3
:104A700091E00C94B92D089508951F920F920FB6EE
:104A80000F9211248F939F93809148049091490431
:104A9000019690934904809348049F918F910F90C1
:104AA0000FBE0F901F9018951F920F920FB60F9286
:104AB00011242F923F924F925F926F927F928F922A
:104AC0009F92AF92BF92CF92DF92EF92FF920F939D
:104AD0001F932F933F934F935F936F937F938F9386
:104AE0009F93AF93BF93EF93FF93CF93DF93CDB794
:104AF000DEB72697DEBFCDBF9E012F5F3F4F490136
:104B00008AECC82E86E0D82E04E315E03901F12C9A
:104B1000E12CD8019A96AD90BC909B97F301A1929D
:104B2000B1923F01F1E0AF16BF0608F00EC1A1142B
:104B3000B10431F49C9111968C91981709F405C138
:104B4000D80112968D919C911397892B09F044C03E
:104B50008C9111969C911197891771F08370F701D0
:104B600021E2829FE00DF11D1124CF0180559B4F62
:104B700013969C938E931297D8011296ED91FC9107
:104B8000309709F4B5C16481F60184816827838177
:104B90000E94F30FD80158961D921D921D921C92EF
:104BA0005B971296ED91FC911397858996895D9696
:104BB0009C938E935C97B7016E5A7A4F0E94D308EC
:104BC000B0E0A0E0F801848B958BA68BB78B12A286
:104BD00013A214A215A2178EF801368D20E0F80159
:104BE00082A193A1A4A1B5A1321719F1F6014084C5
:104BF0005184428561E070E002C0660F771F4A95DC
:104C0000E2F7F20160830196A11DB11DF80182A3B4
:104C100093A3A4A3B5A342815381FA01408151819A
:104C20006281738184179507A607B70710F42F5F79
:104C3000D6CFD80192962D903D904D905C9095974F
:104C40001296ED91FC911397418552856385748589
:104C5000421553056405750508F4E3C025813681C6
:104C60004781508554966D917D918D919C91579778
:104C70000E94BC07D8011296ED91FC9113972589EB
:104C80003689820F931F5D969C938E935C97218942
:104C900032892817390720F45D963C932E935C9750
:104CA000B7016E5A7A4FF801848D958D0E94D30812
:104CB000D80154964D915D916D917C915797480F15
:104CC000591F611D711DF801448B558B668B778BC5
:104CD000D8011296ED91FC91139792964D915D91AA
:104CE0006D917C9195972080318042805380421550
:104CF00053056405750538F013961C921E921297A1
:104D00002C912F5F2C93009709F4F2C0F301329796
:104D1000A80EB91EB182A082F801E558F109808180
:104D2000882399F0D6011B962D913C91D9012C91A5
:104D300030E0D6011D969C9102C0359527959A9535
:104D4000E2F720FDCCC081508083BDE1CB0ED11CA9
:104D5000E5EBEE0EF11C0B541F4FFFE1EF16F2E0F6
:104D6000FF0609F0D6CE89819A812B813C812115DD
:104D7000310531F0009719F02817390708F4C901F7
:104D80002D813E812115310531F0009719F028174A
:104D9000390708F4C901EEE5F5E0A4014A5F5F4F69
:104DA000D4012D913D914D012115310509F4A5C086
:104DB000281B390B31832083EB54FF4F8416950653
:104DC00079F7009709F49CC090938900809388003C
:104DD00026960FB6F894DEBF0FBECDBFDF91CF9100
:104DE000FF91EF91BF91AF919F918F917F916F91C3
:104DF0005F914F913F912F911F910F91FF90EF90F5
:104E0000DF90CF90BF90AF909F908F907F906F90EA
:104E10005F904F903F902F900F900FBE0F901F907C
:104E20001895458556856785708942155305640533
:104E3000750508F03FC02581368147815085589619
:104E40006D917D918D919C915B970E94BC07F801BB
:104E5000248D358D0280F381E02D28173907C0F4A9
:104E6000818D928DB7016E5A7A4F0E94D308D80176
:104E700058964D915D916D917C915B97480F591FAC
:104E8000611D711DF801408F518F628F738F20CF8C
:104E9000A901481B590BCA01418D528D638D748D38
:104EA0001C01512C412C2416350646065706D0F617
:104EB000CA01D8CF5F968C9181110CC0B7016E5A90
:104EC0007A4F818992890E94D308F80191A380A327
:104ED000868D878FD80190968D919C91F9CED801BF
:104EE000A658B1099C91891708F02FCF8F5F2CCF5E
:104EF000F30132971182108228CF30E020E05ACFA0
:104F000080E090E461CF1F920F920FB60F921124B0
:104F10002F938F939F93EF93FF9380919B07909193
:104F20009C0720E0891749F0E82FEF71F0E0E8587E
:104F3000F84F23818F5F80939B07E0917807F09172
:104F40007907268380818064808380919B07891301
:104F500007C0E0917807F091790781818F7D818387
:104F6000FF91EF919F918F912F910F900FBE0F9016
:104F70001F9018951F920F920FB60F9211242F9326
:104F80003F938F939F93EF93FF93E0917807F09176
:104F90007907808184FF0CC08681FF91EF919F91FA
:104FA0008F913F912F910F900FBE0F901F901895EA
:104FB00096818091BE072091BD07382F321B303279
:104FC00061F3E82FEF71F0E0E858F84F95A38F5F99
:104FD0008093BE07E2CFCF93DF93CDB7DEB7AA971A
:104FE0000FB6F894DEBF0FBECDBF10926E0082E008
:104FF00084BD93E095BD99EF97BD16BC9FEF95BB1F
:1050000080936E0088E199E20FB6F894A89580939A
:1050100060000FBE909360000E947C16803223E0F7
:10502000920708F411C18CE080931904809119044F
:105030008C3008F024C188E080931A048EE18093BC
:105040001C0488E280931D042FE530E030931F0498
:1050500020931E0444E150E0509321044093200427
:1050600030932304209322042DE230E03093250472
:10507000209324042EE130E030932704209326046B
:105080002CE231E0309329042093280429E031E018
:1050900030932B0420932A0480932C0488E080937F
:1050A0002D048FB7F8942D988FBF259A8FB7F89459
:1050B0002E988FBF269A8FB7F89447988FBF3F9A44
:1050C0008AE290E00E94360F80913704897F8260E7
:1050D0008160809337040E94690F52988FB7F894CB
:1050E0005A988FBF8FB7F8945B988FBF539AE0910F
:1050F0007807F091790780E190E09583848380813F
:1051000082608083E0917807F0917907138288E8C4
:10511000818380913504897F82608160809335042A
:105120000E94690F23988FB7F8942B988FBF8FB781
:10513000F8942A988FBF229A8FB7F89429988FBF36
:10514000219A8FB7F894289A8FBF209A8CE58CBD4E
:105150001DBC80913304897F826081608093330419
:105160000E94690F809181008F7E809381008091E1
:105170008100886080938100809180008D7F809382
:105180008000809180008E7F8093800080918000DD
:105190008F7380938000809180008F7C809380004B
:1051A00080918100887F82608093810080E090E41C
:1051B000909389008093880010928500109284005B
:1051C0000E94B30780913104897F8260816080935F
:1051D00031040E94690F80917A00876080937A0081
:1051E00080917C00806480937C0080917A0080684C
:1051F00080937A0080912F04897F82608160809300
:105200002F040E94690F0E94BD3068E074E08AE1BB
:1052100091E00E94A02E88E094E09093E4078093B0
:10522000E3070E945D0A78940091480410914904B4
:105230008091480490914904801B910B863691051A
:1052400000F50E948909F4CF4C960E944333182F31
:105250008F70809319048C3008F0E5CE0E9461169F
:10526000843008F0E0CE212F30E0E4E0359527953A
:10527000EA95E1F78217130609F0D5CED7CE81E083
:10528000DBCE0E945D0A81E090E0FC01E25DFB4F15
:105290002081297F2E7F2083FC01E35DFB4F20814D
:1052A000297F2E7F208302968931910571F70E9414
:1052B000690F0E945D0A809149018370823029F450
:1052C0000E94631E0E94DE0FEDC360E080E091E06B
:1052D0000E942F2480E091E00E94FB11982E811102
:1052E00003C00E94690FF6CF8091030190910401E1
:1052F0008130910509F4BBC09093300280932F0256
:105300008CE080932E02E0917807F09179078181FB
:105310008061818366246394712C4DE0442E40E8C3
:10532000542E55E0852E65E0362E74E0272E0E941F
:105330005D0A0E94690F8091030190910401019719
:1053400009F085C00E948909609148047091490460
:105350004091190185E191E00E945B0980915A0119
:1053600087FD13C0853021F088E591E00E94480B4D
:1053700080915A01813009F4D4C008F4E1C083302F
:1053800009F4D4C0843009F4D6C08091680187FD47
:1053900013C0853021F086E691E00E94480B809191
:1053A0006801823009F4E9C008F0D8C0882309F404
:1053B00016C1813009F4DCC08091370187FD0EC031
:1053C000853021F085E391E00E94480B8091370100
:1053D000813009F418C1843009F41AC1A1E4B1E0A4
:1053E00082E090E0682F582F18967C911897737080
:1053F00040915304242F30E0082E02C035952795A4
:105400000A94E2F7217031E0723009F030E023179E
:10541000D9F0723089F42091510430915004F22F68
:10542000F31BF43049F0E22FE370F0E0E45BFB4F54
:1054300060832F5F20935104930101C0220F5A957E
:10544000EAF74227409353041497019758F60091C6
:105450001804002309F4E8C00EE812E0D8018D9189
:105460008D01882309F4DCC00E947705F7CF60E046
:105470008CE292E00E94851C80911A04843018F519
:1054800088E591E00E94F71380911A04823050F56C
:10549000809172018370823029F186E691E00E944A
:1054A000F71380911A04823008F42DCFE09119048B
:1054B000EE0FEF5FF0E0E25DFB4F8081897F82605D
:1054C0008160808320CF87E490E0A0E0B0E080930B
:1054D000A2069093A306A093A406B093A5061092EB
:1054E0005D01D2CFE091190434E0E39FF001112473
:1054F000EC52FC4F20E030E048E453E460817181DD
:10550000828193810E9445350E945D346093ED0550
:105510007093EE058093EF059093F00510926B0168
:10552000C0CF88E591E00E9494072FCF88E591E0F5
:105530000E94AA112ACF88E591E00E94551125CF3B
:1055400080915D01811121CF80911A04843008F08F
:105550001CCF88E591E00E94F71317CF8330D1F17B
:10556000843009F029CF86E691E00E94551124CFBE
:1055700086E691E00E9494071FCF80915D01882309
:1055800009F41ACF83E0809368016091260470913A
:10559000270490E080E00E94933420E030E048E46B
:1055A00053E40E9445350E9464348B019C01409174
:1055B000ED055091EE056091EF057091F0054053B7
:1055C000554761097109C12CD12C760181E00E94F7
:1055D000C316F2CE86E691E00E94AA11EDCE80912C
:1055E0006B018111E9CE80911A04823008F0E4CE7B
:1055F000809172018370823009F4DECE86E691E0FC
:105600000E94F713D9CE85E391E00E949407E6CE7D
:1056100071E070933A0185E391E00E94B906DECE15
:105620008AE00E947705FFCF8AE191E00E94612E17
:105630008AE191E00E944B2E0E94F2321AE08EE144
:105640000E94440A1150D9F79093170480931604CE
:105650008331914058F181E00E944B0882E00E9422
:10566000431081E00E94431080E00E944310E091CB
:10567000C107F091C2078DE082835482438221E00A
:1056800030E0F901E25DFB4F8081897F84608160B9
:105690008083F901E35DFB4F8081897F84608160B5
:1056A00080832E5F3F4F2931310559F70E943C1D01
:1056B000F090BE0723E0E22E8091BD078F1509F41C
:1056C000AAC1E82FEF71F0E0E858F84F15A18F5FFD
:1056D0008093BD078091C807823009F465C058F4F3
:1056E0008823F9F0813009F44AC01A3009F48BC0DC
:1056F0001D3009F588C0833009F461C08430A9F7F2
:10570000812F0E945C07882309F470C0812F0E94BA
:105710004E079091CD079295907F892B8093CD076E
:10572000CBCF1E3400F51B3468F4173448F415341D
:1057300048F4123439F01092C9073092C807BCCF30
:105740001834C9F71093C9071092CA071092CC07F2
:105750001092CB071092CD0782E0173509F081E057
:105760008093C807A9CF193538F4173558F780EB5F
:10577000810F863038F3DFCF163621F3DCCF812F4F
:105780000E945C07882359F0812F0E944E07909158
:10579000CA079295907F892B8093CA078DCF1A32C2
:1057A00051F62092C80788CF812F0E945C07811193
:1057B000EBCF103209F0BFCFE092C8077DCF812F29
:1057C0000E945C07882359F3812F0E944E07209185
:1057D000CB073091CC0794E0220F331F9A95E1F765
:1057E000282B3093CC072093CB0766CF1A3019F0C3
:1057F0001D3009F0A0CF1091CD0789EC97E00E94F1
:10580000CE0D181398CF1092C80785E0E9ECF7E0A9
:10581000DE015C9601900D928A95E1F785E0FE012C
:105820007C96DE01919601900D928A95E1F785E0D4
:10583000FE01B196DE01969601900D928A95E1F7F0
:10584000EEA1E254E53208F0E6C0F0E0E65DF34D8B
:105850000C943D334F2C0B2D0B2DAC2D0B2D0B2D04
:10586000AC2D0B2D0B2DAC2DAC2D0B2D0B2D0B2D95
:10587000682C7B2C542D542DAC2DAC2D0B2D7E2D56
:105880004E2D0B2D0B2D0B2D0B2D0B2D0B2D0B2D15
:105890000B2D0B2D0B2D0B2D0B2D0B2DB12D9FA19A
:1058A00090688091510420915004E82FE21BE4306D
:1058B00049F0E82FE370F0E0E45BFB4F90838F5FEB
:1058C0008093510461E4CE0186960E94B60EA3C077
:1058D00080917201837041E050E0823011F050E01D
:1058E00040E09E012F5F3F4F61E0CE0186960E940F
:1058F000F20D682F8CC0809152048823A9F09091FA
:10590000500480915104981779F0E92FE370F0E08A
:10591000E45BFB4F808187FD07C09F5F909350043D
:1059200090E022E48F3749F58091C1079091C2073A
:10593000DC01ED91FC910680F781E02D09959C0139
:105940008091C1079091C2072115310569F021307E
:10595000310509F49AC0DC01ED91FC910680F781D4
:10596000E02D099525E409C0DC01ED91FC9104804E
:10597000F581E02D099590E020E535E0E3ECF7E0D6
:10598000DE01579601900D923A95E1F735E0FE0160
:105990007796DE011F9601900D923A95E1F72C8BD8
:1059A0009E8B8D8BCE010F960E94E10D8B8BBE01DD
:1059B0006F5F7F4F83EC97E00E94EC06E1E0F0E040
:1059C000EC0FFD1FE80FF11D9C89908311E0180F6B
:1059D00061E070E06C0F7D1F610F711D8D899E89E4
:1059E0000E941607180F61E070E06C0F7D1F610FB9
:1059F000711D8B890E940707810FE1E0F0E0EC0F39
:105A0000FD1FE80FF11D9AE0908361E0680FCE0161
:105A100001960E9432060091C1071091C20788E5E5
:105A200091E00E94210A21E048E551E0BC01C80153
:105A30000E94C315F82E86E691E00E94210A22E01A
:105A400046E651E0BC01C8010E94C315F82A85E36F
:105A500091E00E94210A24E045E351E0BC01C80125
:105A60000E94C315F1100FC081110DC0D80112960C
:105A70008C9112978D3039F0ED91FC910280F38179
:105A8000E02DC8010995A89552CCDC01ED91FC915F
:105A90000084F185E02D099526E46FCF8FA18A322D
:105AA00009F40ECC0E94DC0CEFA1E432B0F4E89DC6
:105AB000F0011124EE54FF4F8491319683FD18C0FC
:105AC0008370823028F0823071F0B12CA12C05C097
:105AD000A591B491AC90B12C092D9E012F5F3F4F41
