; device = mm-control
:100000000C942A060C9452060C9452060C94520638
:100010000C9452060C9452060C9452060C94520600
:100020000C9452060C9452060C94AE210C9420228F
:100030000C9452060C9452060C9452060C945206E0
:100040000C9452060C9452060C9452060C945206D0
:100050000C9452060C9452060C9452060C944E12B8
:100060000C9452060C9484240C945E240C94520636
:100070000C9452060C9452060C9452060C945206A0
:100080000C9452060C9452060C9452060C94520690
:100090000C94C2140C9452060C9452060C94520602
:1000A0000C9452060C9452060C945206CE24D12481
:1000B000C024C424CA24F224F224F224D524D9244E
:1000C000DD24E324E724F224ED2408000000BE929E
:1000D0002449123EABAAAA2ABECDCCCC4C3E00008D
:1000E0000080BEABAAAAAA3E00000000BF0000002C
:1000F000803F0000000000084178D3BB4387D11344
:100100003D190E3CC3BD4282AD2B3E68EC8276BEEB
:10011000D98FE1A93E4C80EFFFBE01C4FF7F3F00B5
:10012000000000006364696E6F70737578585B003F
:10013000070605040100080A0B0C0D09000005075D
:100140002060000000000000005F000000070007C2
:1001500000147F147F14242A7F2A12231308646258
:1001600036495620500008070300001C22410000B9
:1001700041221C002A1C7F1C2A08083E0808008017
:1001800070300008080808080000606000201008AF
:1001900004023E5149453E00427F400072494949B0
:1001A000462141494D331814127F102745454539E2
:1001B0003C4A4949314121110907364949493646E6
:1001C0004949291E000014000000403400000008C6
:1001D0001422411414141414004122140802015969
:1001E00009063E415D594E7C1211127C7F494949F6
:1001F000363E414141227F4141413E7F494949418B
:100200007F090909013E414151737F0808087F00B9
:10021000417F41002040413F017F081422417F403F
:100220004040407F021C027F7F0408107F3E414116
:10023000413E7F090909063E4151215E7F09192986
:1002400046264949493203017F01033F4040403F70
:100250001F2040201F3F4038403F631408146303B1
:10026000047804036159494D43007F414141020430
:10027000081020004141417F040201020440404037
:100280004040000307080020545478407F2844442D
:10029000383844444428384444287F385454541847
:1002A00000087E090218A4A49C787F080404780042
:1002B000447D40002040403D007F10284400004124
:1002C0007F40007C047804787C0804047838444437
:1002D0004438FC1824241818242418FC7C0804042E
:1002E00008485454542404043F44243C4040207C97
:1002F0001C2040201C3C4030403C44281028444CEA
:100300009090907C4464544C4400083641000000B6
:10031000770000004136080002010204023C262357
:10032000263C22080D0E206004020506070809027B
:100330000303050802040204070407070707070769
:1003400007070202070707080E0908080807070938
:1003500008020708070B0809070909070808090D1B
:10036000070808040404060803070706070705072B
:1003700007020306020A0707070705060507070B1A
:100380000607050501050708000000000000000041
:10039000FEFE18181E1E001E1E000000000090F831
:1003A0009E90F89E1C00001C0000183C26FF66CCA6
:1003B00088040C183C180C041C221CC0308E408091
:1003C00000001804000C100C80CC7E72F2DE0C8051
:1003D000000C1C1010101C0C1C101E1E0000F0FC49
:1003E000061C7CC006FCF0C07C1C14140E14140007
:1003F00000000000606060FCFC6060600000000CB9
:100400000C00000000005838C0C0C0C00000000050
:100410000000181800C0380618040000F8FC0E068A
:100420000EFCF8040C1C181C0C04180CFEFE00003A
:100430001C1C181C86C6663E1C181C1C1818181894
:10044000888C062626FEDC040C1C18180C04C0E060
:10045000B88CFEFE80040404041C1C04707E3E362E
:1004600036F6C60C1C1818180C04F8FC6E6666EEFE
:10047000CC040C1818181C0C060606E6761E06009E
:10048000001C1C0000009CFE666666FE9C0C1C188E
:1004900018181C0C3C7E666666FCF80C1C18181CB0
:1004A0000C0418181818181858386060F0F098984C
:1004B0000C0000000004040CD8D8D8D8D8D8D80034
:1004C0000000000000000C9898F0F060600C04043C
:1004D00000000000080C06C6E6763C180000001874
:1004E00018000000E03008C4F63A1A1AF2FA7E0446
:1004F00008F00C30604C9C98988C9C9C90484C2048
:1005000000C0F8BE86BEF8C000181C040404040431
:100510001C18FEFE66666666FEDC1C1C18181818A1
:100520001C0CF8FC0E06060E9C08040C1C18181C6B
:100530000C04FEFE0606060EFCF81C1C1818181CFF
:100540000C04FEFE66666666661C1C1818181818F1
:10055000FEFE66666666061C1C0000000000F8FCD5
:100560000E0606C6CEDCC8040C1C181818180C049D
:10057000FEFE60606060FEFE1C1C000000001C1C93
:10058000FEFE1C1C8080000000FEFE0C1C181818CB
:100590001C0CFEFE603078EC86021C1C000000047F
:1005A0001C18FEFE00000000001C1C18181818186B
:1005B000FEFE0E7CE000E07C0EFEFE1C1C00000C2B
:1005C0001C0C00001C1CFEFE1C78E080FEFE1C1CA7
:1005D0000000040C1C1CF8FC0E0606060EFCF804B9
:1005E0000C1C1818181C0C04FEFE6666667E3C1C6B
:1005F0001C0000000000F8FC0E0686060EFCF80445
:100600000C1C18181C0C1C24FEFE6666E6E6BE1CBC
:10061000001C1C0000000C1C18103C7E666666EE78
:10062000CC0C1C1818181C0C060606FEFE06060646
:100630000000001C1C000000FEFE00000000FEFE8A
:10064000040C1C18181C0C04021EFCE000E0FC1E2C
:10065000020000001C1C1C00000006FEF800F0FE5A
:100660000EFEF000F8FE0600001C1C1C0000001C22
:100670001C1C0000060EF8F0F80E06181C040004FE
:100680001C18060E38F0F0380E060000001C1C0086
:100690000000060686E6761E0E06181C1C181818A2
:1006A0001818FEFE0606FCFCC0C00638C00000009C
:1006B00004180606FEFEC0C0FCFC20380E0E3820D2
:1006C000000000000000000000000000000080802A
:1006D0008080808080800206040000001098D85836
:1006E000F8F0000C1C18180C1C10FEFE301838F026
:1006F000E01C1C0C181C0C04E0F018183830040C1A
:1007000018181C0CE0F0381830FEFE040C1C180CF5
:100710001C1CE0F0D8D8D8F0E0040C181818180801
:1007200018FCFE1A1A001C1C0000E0F0381830F803
:10073000F864ECDCD8CCFC7CFEFE301818F8F01C19
:100740001C0000001C1CFAFA1C1C00FAFAC0FC7CFD
:10075000FEFEE0F098081C1C00041C18FEFE1C1C89
:10076000F8F81018F8F01818F8F01C1C00001C1C01
:1007700000001C1CF8F8301818F8F01C1C000000D1
:100780001C1CE0F0381838F0E0040C1C181C0C0499
:10079000F8F8301838F0E0FCFC0C181C0C04E0F001
:1007A000381830F8F8040C1C180CFCFCF8F8301859
:1007B000181C1C00000070F8D8D8D8900818181819
:1007C0001C0C18FCFE1818000C1C1818F8F8000077
:1007D00000F8F80C1C18180C1C1C38F8C000C0F8E5
:1007E0003800001C1C1C000018F8E000F038F00075
:1007F000E0F81800001C1C0C000C1C1C0000183831
:10080000E0E03818181C04041C1818F8E000E0F8A0
:10081000180084FCF83C04001898D878381C1C1880
:10082000181880FC7E0606007CFCC0C0FEFC060694
:100830007EFC80C0C0FC7C006030307060603000A6
:10084000000000000000FE020202020202FE1C1074
:1008500010101010101C0EF911183010100D0F0F81
:10086000110F1010101001080108080180F0FC7E23
:100870000E0F070707070F1E7EFCF080FFFFFF002B
:10088000000000000000000000FFFFFF010F3F7E9E
:1008900070F0E0E0E0E0F0707E3F0F01383838386B
:1008A0003CFFFFFF00000000000000000000FFFF11
:1008B000FF0000000000E0E0E0E0E0FFFFFFE0E01C
:1008C000E0E0E0001E0E0E07070707070F1EFEFC04
:1008D000F000000000000080C0E0F0783E1F07013B
:1008E00000F0F8FCFEEFE7E3E1E0E0E0E0E0E0E06C
:1008F000001E0E0E0707070707070F1EFEFCF80075
:10090000000000001C1C1C1C1E3677F3E1C0787030
:1009100070F0E0E0E0E0E0F070783F1F0F000000D2
:10092000000080C0F0F87C1EFFFFFF000000E0F038
:10093000FCFEDFC7C3C1C0C0C0FFFFFFC0C0C00115
:1009400001010101010101010101FFFFFF0101019D
:1009500000FFFFFF0707070707070707070707004D
:100960001F1F0F0E0E0E0E0E1E1C3CF8F8E07870C6
:1009700070F0E0E0E0E0E0F0707C3F1F0700C0F0C6
:10098000F83C1E0E0E07070707070F0000FEFFFFCB
:100990001C1C0E0E0E0E0E0E1E3CF8F8E0030F3F50
:1009A0007C78F0E0E0E0E0E070783F1F07070707A1
:1009B000070707070707070787E7FF7F1F000000F4
:1009C00000000000C0F0FC3F0F07010000000080A5
:1009D000E0F8FC3F0F030000000000000000F0FC06
:1009E000FE0E0F070707070F1EFEFCF80080E0F35E
:1009F000771F0E0E0C1C1C1C3E77F3E0800F1F3F70
:100A00007870F0E0E0E0E0E070783F1F0FE0F8FC85
:100A10001E0E07070707070F1E3EFCF0C0071F1F2B
:100A20003C787070707070703838FFFF7F0000F095
:100A3000E0E0E0E0E07070783C1F0F030000000091
:100A400000000000000000000000000000000000A6
:100A50000000000000000000000000000000000096
:100A6000000000F0F0F0F0F0F0F0F0000000000006
:100A7000000000F0E0C08000000000FFFFFFFFFF6B
:100A80007E3C180F070301000000000000006F6BA0
:100A90000A004B256400572564006F6B0A0052253D
:100AA00064006F6B0A00452564006F6B0A004325E4
:100AB00064006F6B0A004625642025640025646F7E
:100AC0006B0A0025646F6B0A0025646F6B0A006F68
:100AD0006B0A005325640025646F6B0A005025647F
:100AE00000582564006F6B0A00552564006F6B0A7F
:100AF000004D2564006F6B0A004C2564006F6B0A83
:100B00000054256400256325640000030C0F303376
:100B10003C3FC0C3CCCFF0F3FCFF080B0002020245
:100B20000100090400000102020000052400100178
:100B3000052401010104240206052406000107051D
:100B4000810310004009040100020A0000000705AB
:100B5000020240000007058302400000040309046C
:100B600012010002EF020140992C04000001010271
:100B70000301556E6B6E6F776E004F726967696E19
:100B8000616C205072757361206933204D4B3320A6
:100B90004D756C7469204D6174657269616C2032A9
:100BA0002E30207570677261646500AED580A83FF5
:100BB000D300408D142002A1C8DA12817FD9F1DB65
:100BC00040A4A6AFAB0B1980400073746172740A25
:100BD000006F6B0A006F6B0A000000000025002800
:100BE000002B002E00310000000000230026002909
:100BF000002C002F00040404040403040502020274
:100C000002040302020202060606060606040402A5
:100C100002020404040802011040804010204080B9
:100C20004080080204018040201002011080102042
:100C30004040200000000200090F000003040100F2
:100C40000C00000000000000000000000000000098
:100C50000000C22C11241FBECFEFDAE0DEBFCDBFF3
:100C600024E0A6E8B2E001C01D92A53DB207E1F77D
:100C700012E0A0E0B1E0EEE1FDE602C005900D92C9
:100C8000A638B107D9F716E0CAE2D6E004C021972A
:100C9000FE010E945E36C932D107C9F70E94E827DB
:100CA0000C948D360C940000089580E090E0089537
:100CB000CF92DF92EF92FF929CE59CBD1DBC8130EC
:100CC00039F020F0823029F42F9803C0469801C0F3
:100CD0005F986EBD0DB407FEFDCF9EB5C52EDD2419
:100CE000EE24FF24CEBC0DB407FEFDCF9EB56A01F5
:100CF000EE24FF24CEBC0DB407FEFDCF9EB5C32E5F
:100D0000D42EE52EFF24CEBC0DB407FEFDCF9EB53C
:100D10002EBD0DB407FEFDCF9EB5813039F020F019
:100D2000823029F42F9A03C0469A01C05F9AFF903F
:100D3000EF90DF90CF9008959C0188E0369527953D
:100D40002115310511F08150C9F708951F93CF93F4
:100D5000DF93182FD42FC22F262F2F70822F90E0D1
:100D6000A0E0B0E0B82FAA27992788279C01AD0101
:100D7000C03280F4236D436050616CEE812F0E947D
:100D80005806DF718D2F90E0A0E0B0E0AC01BD010E
:100D90006F6012C0236D416050616CEE812F0E9424
:100DA0005806D695DF718D2F90E0A0E0B0E0AC0141
:100DB000BD016F60C695CF718C2F90E0D82FCC27E6
:100DC000CE01DD0FAA0BBB0B9A01AB01282B392BEF
:100DD0004A2B5B2B60E9812F0E94580680E0DF914F
:100DE000CF911F9108950F931F93CF93DF93EC0141
:100DF000062F142F8B89813120F4882329F041118B
:100E000003C00E94AB261B8A8B89811113C08A897B
:100E100091E0909392038093B40310929303109205
:100E2000B503112311F060E401C060E083EA94E0AF
:100E30000E94D611602F83EA94E00E94D6111230EE
:100E400021F48B898F5F8B8B03C00E94AB261B8A9A
:100E5000DF91CF911F910F910895CF92DF92EF9282
:100E6000FF920F931F93CF93DF936C018B017A0155
:100E7000CFEAD4E08FEF888B8CE391E00E94DA25F3
:100E800047E060E0CE010E94D41286E392E00E9427
:100E9000C82547E060E0CE010E94D4128DE492E0C4
:100EA0000E94C8256C816F5F47E0CE010E94D4127A
:100EB000C6010E94C825C8010E94ED259695879518
:100EC0006FE3681B47E0CE010E94D412C8010E9464
:100ED000C825C7010E94ED25182F85E692E00E94E3
:100EE000ED25810F6EE7681B47E0CE010E94D4120A
:100EF000C7010E94C8256C816F5F47E0CE010E9448
:100F0000D41285E692E00E94C825188ADF91CF911D
:100F10001F910F91FF90EF90DF90CF9008950F9366
:100F20001F93CF93DF93CDB7DEB766970FB6F894D4
:100F3000DEBF0FBECDBFE9E8F2E081858F938085EB
:100F40008F9387818F9386818F9385818F938481FF
:100F50008F9383818F9382818F9381818F938081FF
:100F60008F938FE492E09F938F938E010F5F1F4FBB
:100F70001F930F930E946B368CE391E00E94DA2559
:100F800047E060E08FEA94E00E94D41286E392E0AA
:100F90000E94C825C8010E94ED256FE770E0681B1C
:100FA000790B7695679547E08FEA94E00E94D4121A
:100FB000C8010E94C8250FB6F894DEBF0FBECDBF92
:100FC00066960FB6F894DEBF0FBECDBFDF91CF910E
:100FD0001F910F910895E82FF0E0EE0FFF1FE757E4
:100FE000FD4F808191810196918380830C948F07BE
:100FF0000F931F93CF93DF9300D01F92CDB7DEB72F
:1010000090919302911157C08E010F5F1F4F8D3049
:101010001CF064E672E019C087FD15C0282F082E69
:10102000000C330B3F938F9381E692E09F938F9355
:101030001F930F930E946B360F900F900F900F909D
:101040000F900F9005C067E672E0C8010E946436F9
:1010500086E598E00E94DA2543E060E08FEA94E0BC
:101060000E94D41289E692E00E94C825C8010E941D
:10107000ED2564E770E0681B790B7695679544E091
:101080008FEA94E00E94D41282E293E00E94DA2573
:101090008AE792E00E94C8256091B3046E5F43E046
:1010A0008FEA94E00E94D41286E598E00E94DA2547
:1010B000C8010E94C8250F900F900F90DF91CF912B
:1010C0001F910F910895809169038F5F0C94F80729
:1010D0000F931F93CF93DF9300D000D0CDB7DEB72F
:1010E000E82F082E000CFF0B3E2F2227262BA09165
:1010F0008702B09188022A173B0719F4442309F4A8
:101100003FC030938802209387021F926F93FF9312
:101110008F938CE792E09F938F938E010F5F1F4F09
:101120001F930F930E946B3682E293E00E94DA25B0
:101130008091860281958093BF0487E492E00E94AB
:10114000ED256DE7681B40E08FEA94E00E94D41221
:1011500086E492E00E94C825C8010E94ED256EE752
:10116000681B40E08FEA94E00E94D412C8010E94FC
:10117000C8251092BF040FB6F894DEBF0FBECDBFD6
:101180000F900F900F900F90DF91CF911F910F91C3
:101190000895EF92FF920F931F93CF93DF9300D0A8
:1011A0001F92CDB7DEB77C01162F8091860284177F
:1011B00049F0409386026091870241E08091880265
:1011C0000E94680882E293E00E94DA2580918602FC
:1011D00081958093BF0440E060E08FEA94E00E9434
:1011E000D41288E392E00E94C82540E062E08FEAD2
:1011F00094E00E94D412C7010E94C82517FD38C090
:10120000812F012E000C990B9F931F9381E692E092
:101210009F938F938E010F5F1F4F1F930F930E9419
:101220006B366091B3046C5F40E08FEA94E00E94FB
:10123000D41281E892E00E94C82540E06091B30496
:101240008FEA94E00E94D412C8010E94C82540E0B1
:101250006091B3048FEA94E00E94D41283E892E094
:101260000E94C8250F900F900F900F900F900F9035
:101270001092BF040F900F900F90DF91CF911F91AC
:101280000F91FF90EF90089540E06FEF0C94C90824
:101290000F931F93CF93DF93EC01C659DF4F85E384
:1012A00091E00E9444090E94F01507E511E61C1622
:1012B0001D063CF40E946018C8010197F1F72197C0
:1012C000F6CFDF91CF911F910F91089541E06FEF1D
:1012D0000C94C908E2E3F1E0E49120917B00E3FB88
:1012E000882780F990E035E0880F991F3A95E1F75B
:1012F000922F9F7D892B80937B00E770E064E093C1
:101300007C0080917A00806480937A0080917A00DA
:1013100086FDFCCF809178002091790090E0922B9F
:101320008233910564F09C01215531092331310547
:1013300040F0815A9109439730F080E0089581E0B0
:10134000089582E0089584E008950F931F939CE52B
:101350009CBD1DBC813039F020F0823029F42F98DB
:1013600003C0469801C05F986EBD0DB407FEFDCF67
:101370009EB51EBC0DB407FEFDCF9EB51EBC0DB4C0
:1013800007FEFDCF9EB51EBC0DB407FEFDCF9EB57A
:101390001EBC0DB407FEFDCF9EB5813039F020F0A4
:1013A000823029F42F9A03C0469A01C05F9A9CE5C7
:1013B0009CBD1DBC813039F020F0823029F42F987B
:1013C00003C0469801C05F981EBC0DB407FEFDCF58
:1013D0009EB51EBC0DB407FEFDCF0EB510E020E09B
:1013E00030E0322F212F102F00271EBC0DB407FE36
:1013F000FDCF6EB5062B322F212F102F00271EBCDC
:101400000DB407FEFDCF6EB5062B322F212F102F06
:1014100000271EBC0DB407FEFDCF6EB5062B813034
:1014200039F020F0823029F42F9A03C0469A01C087
:101430005F9A4115510529F0FA0100831183228337
:101440003383892F1F910F910895CF92DF92FF92DE
:101450000F931F93CF93DF9300D000D0CDB7DEB7AB
:1014600000E010E0F12CCC24C394D12CAE014F5FEE
:101470005F4F61E0802F0E94A50989819A81AB812D
:10148000BC8187709927AA27BB27892B8A2B8B2B96
:1014900039F0C601002E01C0880F0A94EAF7F80E51
:1014A0000F5F1F4F0330110509F78F2D0F900F901D
:1014B0000F900F90DF91CF911F910F91FF90DF90D0
:1014C000CF9008951F93CF93DF93C82FD62F142F5B
:1014D000813031F028F0823041F480E190E002C0A8
:1014E00082E090E00E949C0601C080E1212F4D2FF8
:1014F000682F8C2F0E94A606D82F81112DC020E0C6
:1015000030E0A90161E98C2F0E945806C33030F405
:10151000EC2FF0E0E15EFE4F208101C024E0822F3D
:10152000220F990BAA0BBB0BAC01332722276DEEC0
:101530008C2F0E94580622EC31E040E050E064E934
:101540008C2F0E94580620E831E340E050E060E82C
:101550008C2F0E94580601C0DFEF8D2FDF91CF91B5
:101560001F9108951F93CF93DF93C82FD62F142F69
:10157000813031F028F0823041F480E190E002C007
:1015800082E090E00E949C0601C080E1212F4D2F57
:10159000682F8C2F0E94A606D82F81112FC020E023
:1015A00030E0A90161E98C2F0E94580620E030E06C
:1015B00044E050E06DEE8C2F0E94580620E030E0B1
:1015C000A90164E98C2F0E94580624E030E040E035
:1015D00050E060E88C2F0E94580622ED36E046E08D
:1015E00050E060EF8C2F0E94580628EC30E040E07D
:1015F00050E063E98C2F0E94580601C0DFEF8D2F69
:10160000DF91CF911F910895CF93DF93CDB7DEB7D0
:101610002F970FB6F894DEBF0FBECDBF20911001FB
:10162000309111014091120129833A834B8320911B
:10163000130130911401409115012C833D834E8399
:101640002091160130911701409118012F8338879E
:1016500049872091190130911A0140911B012A8775
:101660003B874C8720911C0130911D0140911E0148
:101670002D873E874F876130E1F098F0623061F549
:10168000282F30E0FE01E20FF31F448162852F9680
:101690000FB6F894DEBF0FBECDBFDF91CF910C9493
:1016A000B20A282F30E0FE01E20FF31FDF0145856B
:1016B00007C0282F30E0FE01E20FF31FDF01418158
:1016C00017966C912F960FB6F894DEBF0FBECDBF64
:1016D000DF91CF910C94620A80E02F960FB6F894B8
:1016E000DEBF0FBECDBFDF91CF9108951F93CF9383
:1016F000DF93182F3E9A579A279A469A5F9A2F9A05
:10170000549A249A569A5C982C985E98682F80E098
:101710000E94040B21E030E0811102C020E030E0A3
:10172000CC27DD27C21BD30B612F81E00E94040B65
:10173000811102C020E001C02EEFC20F612F82E0B4
:101740000E94040B81118CEF8C0FDF91CF911F91C0
:1017500008952091420330914303C9018470992771
:10176000AC0156954795C901807199279695879543
:1017700096958795842B2170822B08952E980000D2
:1017800020E130E040E050E8BC0164237523672B82
:1017900011F02D9A01C02D98479A0000479800003B
:1017A000569547952150310979F72E9A000090936C
:1017B0004303809342030895282F2270922F990F9C
:1017C000282F2470220F220F292B8170282B022E04
:1017D000000C330B80914203909143038A7E822B4D
:1017E000932B0C94BE0B20914203309143032F7333
:1017F0003327582F4427242B352B88279370969511
:10180000879596958795822B932B0C94BE0BCF933F
:10181000DF93EC018091690390916A0324E030E04A
:10182000281B390B220F331F82E090E002C0880F83
:10183000991F2A95E2F70E94F30BC0936903D09396
:101840006A03CE01CC30D10514F08BE090E06C2F10
:101850000E945E1B80E090E00E94F30B8091690380
:1018600090916A0324E030E0281B390B220F331FCC
:1018700081E090E002C0880F991F2A95E2F7DF917E
:10188000CF910C94F30B8F929F92AF92BF92CF9215
:10189000DF92EF92FF920F931F93CF93DF93CDB719
:1018A000DEB72B970FB6F894DEBF0FBECDBFD82E94
:1018B000C92E8091B4029091B502809724F58D2DA8
:1018C0009C2D0E941A2D8C0197FD23C0682F83E563
:1018D00094E00E94FB200D30110519F00A3011052B
:1018E00011F400E010E08091B4029091B5029C01E7
:1018F0002F5F3F4F3093B5022093B402FC01EC56AA
:10190000FD4F008306C01092B5021092B4020FEF93
:101910001FEF18861F821A8619868091B402909153
:10192000B502181619060CF0A2C3012B09F09FC3CB
:101930008E01095F1F4F1F930F93CE010B969F934C
:101940008F9385E09BE09F938F9384E992E09F9330
:101950008F930E94732D0FB6F894DEBF0FBECDBFDC
:10196000181619062CF440E06F818B850E946808D8
:101970001092B5021092B4021F930F9381E09BE086
:101980009F938F93A4E9EA2EA2E0FA2EFF92EF92A2
:101990000E94732D0F900F900F900F900F900F904B
:1019A000181619060CF0F8C0EF80F8843CE0E31636
:1019B000F10408F05CC382E090E0909353038093BD
:1019C00052034091690350916A0324E030E0241BE4
:1019D000350B220F331F02C0880F991F2A95E2F79B
:1019E0000E94F30B8091690390916A0301969F9383
:1019F0008F93E1E6AE2EE2E0BE2EBF92AF928E0153
:101A00000C5F1F4F1F930F930E946B36C701019607
:101A10009F938F93BF92AF92AE014F5F5F4F5A017A
:101A20005F934F930E946B3686E598E00E94DA251B
:101A300043E060E08FEA94E00E94D41289E692E0ED
:101A40000E94C825C8010E94ED254C01C5010E94D5
:101A5000ED25880D991D65E570E0681B790B76957D
:101A6000679544E08FEA94E00E94D41282E293E00A
:101A70000E94DA2588E291E00E94C8256091B304B3
:101A80006E5F43E08FEA94E00E94D41286E598E00E
:101A90000E94DA25C8010E94C8256091B3046A5FDC
:101AA0004091B4048FEA94E00E94D41285E692E05B
:101AB0000E94C8256091B3046A5F44E08FEA94E015
:101AC0000E94D41282E293E00E94DA2588E291E03B
:101AD0000E94C8256091B3046E5F43E08FEA94E0F2
:101AE0000E94D41286E598E00E94DA25C5010E9482
:101AF000C82581E080939302F0926A03E092690323
:101B00000FB6F894DEBF0FBECDBF8091510388237E
:101B100019F080E00E94821D80916903682F0E9465
:101B20005E1B8091690390916A0324E030E0281BDA
:101B3000390B220F331F82E090E002C0880F991FFB
:101B40002A95E2F70E94F30B80915103811103C0A3
:101B500081E00E94EC1D80E090E00E94F30B8091F8
:101B6000690390916A0324E030E0281B390B220FAF
:101B7000331F81E090E002C0880F991F2A95E2F799
:101B80000E94F30B109293020E94630884E00E946B
:101B9000EB078DEF9AE061C21F930F9389EF9AE0F4
:101BA0009F938F93FF92EF920E94732D0F900F904F
:101BB0000F900F900F900F9018161906C4F48F8194
:101BC00098858C30910508F052C220915103222350
:101BD00039F083E090E0909353038093520304C064
:101BE0000E94070C0E94072785EF9AE036C21F93D8
:101BF0000F9381EF9AE09F938F93FF92EF920E9451
:101C0000732D0F900F900F900F900F900F9018164C
:101C100019069CF48F819885009729F0019709F0A7
:101C200026C282E001C081E080930F0180910F0104
:101C30000E94760B8DEE9AE010C21F930F9389EEEF
:101C40009AE09F938F93FF92EF920E94732D0F90D3
:101C50000F900F900F900F900F901816190634F4F4
:101C600081E00E94821D85EE9AE0B5C11F930F931B
:101C700081EE9AE09F938F93FF92EF920E94732DD3
:101C80000F900F900F900F900F900F90181619064D
:101C900084F48F819885892B09F0E9C198E088E167
:101CA0000FB6F894A895809360000FBE90936000E3
:101CB000DEC11F930F938DED9AE09F938F93FF9258
:101CC000EF920E94732D0F900F900F900F900F9036
:101CD0000F901816190664F48F819885892B09F0E6
:101CE000C6C10E9446269F938F9387ED9AE022C03B
:101CF0001F930F9383ED9AE09F938F93FF92EF9240
:101D00000E94732D0F900F900F900F900F900F90D7
:101D10001816190684F58F819885009719F48FECB1
:101D20009AE09BC18130910591F41F928FE68F93C9
:101D300089EC9AE09F938F93CF92DF920E94582D67
:101D40000F900F900F900F900F900F9090C18230D6
:101D5000910539F481E08F9389EF8F9383EC9AE0BA
:101D6000E9CF039709F083C10E94B6189F938F9320
:101D70008DEB9AE0DFCFCE0109969F938F931F934F
:101D80000F9386EB9AE09F938F93FF92EF920E94BE
:101D9000732D0FB6F894DEBF0FBECDBF181619060F
:101DA0006CF48F8198850C9708F061C189859A85BC
:101DB000039708F05CC182EB9AE04FC11F930F9329
:101DC0008EEA9AE09F938F93FF92EF920E94732D79
:101DD0000F900F900F900F900F900F9018161906FC
:101DE0000CF05BC08F819885892B09F040C18AE295
:101DF00091E00E94660980E00E94EB070E94541B5C
:101E00000E94F51560910F0180E00E94040B02E032
:101E100013E082E393E1A0E0B0E00E94F3240E948B
:101E20001D124B015C0184E393E00E941A2D813462
:101E3000910531F10E946A09823069F468EC70E022
:101E400080E090E00E94FE240E946A09823019F42A
:101E50000E943D1C15C00E9460180E941D1232E3B2
:101E6000830E33E1931EA11CB11CA5019401261B16
:101E7000370B480B590BDA01C9010150110969F6FA
:101E800080910F010E94BE250E94411B82E991E0D2
:101E90000E9444098AEA9AE0E0C01F930F9386EA01
:101EA0009AE09F938F93FF92EF920E94732D0F9071
:101EB0000F900F900F900F900F90181619060CF0BE
:101EC0004AC00F8118850C30110508F0D0C010935E
:101ED0006A03009369030930110524F443E0F42EEA
:101EE000F00E02C03CE0F32E80915103882319F0DC
:101EF00081E00E94821D60910F0180E00E94040B2E
:101F00006F2D802F0E945E1B0E94541B0E94F515AE
:101F100002E812E023ECE22E2CE4F22E0E9460187C
:101F2000C7010197F1F701501109C1F70E94411B48
:101F300080910F010E94BE2582EA9AE09F938F93C1
:101F4000CF92DF920E94582D82E090E0909353034D
:101F50008093520388C01F930F938EE99AE09F935A
:101F60008F9394E9E92E92E0F92EFF92EF920E946E
:101F7000732D0F900F900F900F900F900F901816D9
:101F80001906A4F58F819885892B09F070C060919E
:101F90000F0180E00E94040B0E94541B0E94F01568
:101FA00002E812E083ECE82E8CE4F82E0E94601820
:101FB000C7010197F1F701501109C1F70E94411BB8
:101FC00080916903682F0E945E1B80910F010E941F
:101FD000BE258AE99AE09F938F93CF92DF920E9469
:101FE000582D10925303109252033DC01F930F932C
:101FF00086E99AE09F938F93FF92EF920E94732D50
:102000000F900F900F900F900F900F9018161906C9
:102010005CF48F819885892B51F584E090E0909352
:1020200053038093520323C01F930F9382E99AE0D6
:102030009F938F93FF92EF920E94732D0F900F90BA
:102040000F900F900F900F901816190684F48F813F
:1020500098850C9760F48EE89AE09F938F93CF92C7
:10206000DF920E94582D0F900F900F900F902B969B
:102070000FB6F894DEBF0FBECDBFDF91CF911F9199
:102080000F91FF90EF90DF90CF90BF90AF909F9017
:102090008F9008958091690390916A0324E030E065
:1020A000281B390B220F331F81E090E002C0880FFC
:1020B000991F2A95E2F70E94F30B0E946A09857026
:1020C00031F168EC70E080E090E00E94FE240E9414
:1020D0006A09813019F0843051F013C0809169038E
:1020E00090916A038C30910564F4019608C0809148
:1020F000690390916A03181619061CF401970E944F
:10210000070C68EC70E080E090E00E94FE24809173
:10211000690390916A030C97A1F482E090E00E9419
:10212000F30B62E370E080E090E00E94FE2481E027
:1021300090E00E94F30B62E370E080E090E00C948A
:10214000FE2408958FEF93E00E94F30B6CE271E0A0
:1021500080E090E00E94FE2480E090E00E94F30B7B
:102160006CE271E080E090E00C94FE240F931F93EA
:10217000CF93DF9382E291E00E9466090E94A21051
:102180000E94A2100E94A2100E94B6188F3F2FEF4B
:102190009207B1F0EC0121966C2F61500C2F017069
:1021A00010E0C801815D9C4F0E9402336D2F615089
:1021B0008EE293E0DF91CF911F910F910C94023347
:1021C000DF91CF911F910F9108958AEA92E00E94CA
:1021D000F30B6CE271E080E090E00E94FE2480E06E
:1021E00090E00E94F30B6CE271E080E090E00C94D0
:1021F000FE24CF93DF93880F991FC1E0D0E002C087
:10220000CC0FDD1F8A95E2F7CE010E94F30B68E246
:1022100070E080E090E00E94FE2480E090E00E9468
:10222000F30B64E170E080E090E00E94FE24CE01B8
:102230000E94F30B68E270E080E090E00E94FE24D0
:1022400080E090E00E94F30B6AE070E080E090E0B4
:10225000DF91CF910C94FE24CF93DF93EC018D8519
:10226000882319F081508D8711C09C818E81981729
:1022700068F488896827E881F9810084F185E02D78
:1022800042E0CE0109958C818F5F8C83DF91CF91E5
:10229000089585ED8093BC008091BC0084FDFCCF47
:1022A0001092910308954091F702262F30E0240FF9
:1022B000311D21323105DCF4209191032430C9F421
:1022C000FC0180E090E0861758F43091F7022191EC
:1022D000DC01A952BD4FA30FB11D2C930196F3CF82
:1022E0008091F702680F6093F70280E0089581E023
:1022F000089582E00895089508950895E0913303C4
:1023000080913203E81730F4F0E0E954FD4F80810A
:1023100090E008958FEF9FEF08959091330380919F
:102320003203981750F4E92FF0E0E954FD4F208173
:1023300030E09F5F9093330302C02FEF3FEFC9015E
:1023400008958091320390E020913303821B91091C
:102350000895CF92DF92EF92FF920F931F93CF9346
:10236000DF937C01CB018A0120919203222389F023
:10237000EB016B01C40ED51ECC15DD0569F069912A
:10238000D701ED91FC910190F081E02DC7010995F5
:10239000F3CF642F0E945311C801DF91CF911F9199
:1023A0000F91FF90EF90DF90CF900895CF93DF9340
:1023B0001F92CDB7DEB76983209192032223D1F01B
:1023C0002091B503203240F021E030E0FC0133835E
:1023D000228380E090E015C080919303E82FF0E025
:1023E000EC56FC4F998190838F5F80939303809389
:1023F000B50305C061E0CE0101960E94531181E052
:1024000090E00F90DF91CF91089586EB93E00C94CC
:102410002A20682F86EB93E00E94832080E090E0E2
:10242000089583E594E00C949021682F83E594E06F
:102430000E94FB2080E090E008953FB7F8948091DF
:102440001F0390912003A0912103B091220326B590
:10245000A89B05C02F3F19F00196A11DB11D3FBFDC
:10246000BA2FA92F982F8827820F911DA11DB11D6A
:10247000BC01CD0142E0660F771F881F991F4A9566
:10248000D1F708952FB7F89460911B0370911C0346
:1024900080911D0390911E032FBF08951F920F92EC
:1024A0000FB60F9211242F933F938F939F93AF9367
:1024B000BF9380911B0390911C03A0911D03B091C9
:1024C0001E0330911A0323E0230F2D3720F40196C9
:1024D000A11DB11D05C026E8230F0296A11DB11D47
:1024E00020931A0380931B0390931C03A0931D0356
:1024F000B0931E0380911F0390912003A0912103AC
:10250000B09122030196A11DB11D80931F039093EA
:102510002003A0932103B0932203BF91AF919F9119
:102520008F913F912F910F900FBE0F901F90189594
:10253000DC011E96ED91FC911F9724913196E49158
:102540008E2F90E0922B0895DC01ED91FC91008498
:10255000F185E02D40E009940F931F93CF938C01F8
:10256000FC0164838085C62FC80F6C2F6F70C80173
:102570000E94A4126C2F62956F706061C801CF91A8
:102580001F910F910C94A412FC018781869586956A
:102590008695681740F465839385690F6770606B53
:1025A000CF010C94A41208951F93CF93DF93EC01F5
:1025B000142F8E81681718F4CE010E94AC12612F7F
:1025C000CE01DF91CF911F910C94C412CF92DF9274
:1025D000EF92FF920F931F93CF93DF93EC01F62EB0
:1025E000C42ED22E1D868F818695869586950817D6
:1025F00010F00FEF080F1D2D011780F0412F6F2DE8
:10260000CE010E94D412EF2CCE1430F06889CE0196
:102610000E942C11E394F8CF1F5FEECF4D2D6F2D4C
:10262000CE01DF91CF911F910F91FF90EF90DF903E
:10263000CF900C94D4122F923F924F925F926F9250
:102640007F928F929F92AF92BF92CF92DF92EF9242
:10265000FF920F931F93CF93DF93CDB7DEB72A97E7
:102660000FB6F894DEBF0FBECDBFDC011E960D91F4
:102670001C911F970115110509F469C19A87898773
:10268000F8013296449031969490E92CF12CB7E001
:10269000EB0EF11C93E0F594E7949A95E1F7EA824A
:1026A000319684913196E491681758F0262F30E0E6
:1026B000AE2EB12CA501480F511D241735070CF47F
:1026C00076C06D3061F4E985FA858681882309F446
:1026D0003BC160E089859A850E94AC1235C16A30A1
:1026E00009F035C1A985BA8516968C91169788236D
:1026F00021F060E0CD010E94AC12E985FA850189E4
:102700000E9DE02C1124278126952695269565811E
:102710006E0D8E2D821B860F9485992309F410C1AE
:1027200018160CF00DC1A985BA851B969C911B97B4
:10273000890F87701B968C931B972E1915962C93D7
:1027400015971E96ED91FC911F97309769F033967F
:10275000E491F0E0379683E0F595E7958A95E1F707
:102760000E9FE02D112401C0E0E00FEF020F0E0FCD
:10277000E985FA85468141506481CF010E94E612C5
:10278000A985BA851C968C911C97813009F0DCC014
:102790001B966C911B97660F660F660F6F731A96E8
:1027A0006C931A976064CD010E94A412CDC0680199
:1027B000B6E0CB0ED11C162F181BE985FA85918542
:1027C0008189989F802D11248887CF010E949812BB
:1027D000029778F44E9CC0014F9C900D1124189FD5
:1027E000F001199FF00D112486010E0F1F1F312CCF
:1027F00023C0E92DE77021F088E0382E3E1A01C091
:10280000312CF60180E020E030E0811731F0949126
:10281000290F311D8F5F3196F8CFF601E80FF11DBA
:102820004490E29E8001E39E100DF29E100D112453
:102830000A0D1B1D0C0D1D1DA985BA851496BC9192
:10284000BB83E985FA85F581FC83A985BA851D9648
:10285000BC91BD83E42DF0E0FF83EE83812C912CAD
:10286000C12CD12CC982FA81CF1608F068C0212C66
:1028700036019FEF691A790AA985BA8551968C911C
:102880005197281608F053C0ED811D96EC93F981FD
:10289000F11102C0222051F0A985BA8515964C91FC
:1028A00015974F5F6B81CD010E94D412A12CB12CE2
:1028B000A41410F0B12C2FC0F401EA0DFB1DE00FA1
:1028C000F11F5490332061F0E614F70449F4E52D2C
:1028D000F0E0032C02C0F595E7950A94E2F75E2E2E
:1028E000E985FA858189823069F4E52D2110E29528
:1028F000EF70F0E0E65FF44F5490652D89859A857E
:102900000E942C11652D89859A850E942C11FFEF5C
:10291000AF1ABF0ACDCF8885B81639F060E0898537
:102920009A850E942C11B394F6CF2394A5CF9FEFE4
:10293000C91AD90AAE81BF818A0E9B1E93CF6C81C2
:1029400089859A850E94C41281E090E002C080E0EF
:1029500090E02A960FB6F894DEBF0FBECDBFDF9190
:10296000CF911F910F91FF90EF90DF90CF90BF908C
:10297000AF909F908F907F906F905F904F903F901F
:102980002F9008951F920F920FB60F9211242F933C
:102990003F934F935F936F937F938F939F93AF93E7
:1029A000BF93EF93FF938091B900887F803609F43D
:1029B0009CC068F5883209F45BC090F4803109F45A
:1029C00054C038F4882309F4F6C0883009F44DC0A7
:1029D000F6C0883109F44CC0803209F45DC0EFC004
:1029E000803409F468C048F4803309F455C0883352
:1029F00009F0E5C080938F03D8C0803509F44FC03B
:102A0000883509F45DC0883409F0D9C0D6C088394A
:102A100009F4C7C0A8F4883709F467C038F48836C9
:102A200009F463C0803709F460C0C9C0883809F46C
:102A3000B8C0803909F45FC0803809F0C0C05BC0FD
:102A4000803B09F486C038F4803A09F466C0883ABD
:102A500009F47FC0B4C0803C09F4A7C0883C09F4E5
:102A6000A4C0883B09F48AC0AAC080916C0310C03E
:102A700090918E0380918D03981770F5E0918E03ED
:102A800081E08E0F80938E03F0E0E359FC4F80814C
:102A90008093BB0085EC86C080938F038EC0E0914D
:102AA0008E0381E08E0F80938E038091BB00F0E057
:102AB000E359FC4F808390918E0380918D036EC00B
:102AC000E0918E0381E08E0F80938E038091BB0096
:102AD000F0E0E359FC4F80838091900381116DC039
:102AE00081E080936B0384EA61C083E0809391036B
:102AF00010921903CFCF80911903803208F051C092
:102B0000E091190381E08E0F809319038091BB003F
:102B1000F0E0E750FD4F8083BDCF85EC8093BC0093
:102B20001092910380911903803230F4E0911903DF
:102B3000F0E0E750FD4F10826091190370E0E091E2
:102B40002E03F0912F0389EF92E00995109219035B
:102B500036C084E0809391031092F8021092F7023D
:102B6000E0913003F091310309958091F7028111D2
:102B700005C081E08093F7021092D702E091F8023D
:102B800081E08E0F8093F802F0E0E952FD4F8081E2
:102B90008093BB009091F8028091F702981708F497
:102BA00079CF85E88093BC000AC085EC8093BC0097
:102BB0001092910304C010928F030E944911FF915B
:102BC000EF91BF91AF919F918F917F916F915F91A5
:102BD0004F913F912F910F900FBE0F901F9018951E
:102BE0000E94A90B8E7F0C94DC0B0E94A90B8160C4
:102BF0000C94DC0B9F92AF92BF92CF92DF92EF9238
:102C0000FF920F931F93CF93DF938C017B01EA0117
:102C100097FF04C088279927801B910B029764F4C3
:102C2000C701F7FE04C0882799278E199F090297CC
:102C30001CF4C12CD12C03C030E8C32ED12CCE0102
:102C4000D7FF04C0882799278C1B9D0B02972CF473
:102C500020E8A22E24E0B22E04C097E5A92E98E128
:102C6000B92E1016110624F40E94A90B8B7F06C002
:102C70001195019511090E94A90B84600E94DC0B3B
:102C8000F7FE07C0F194E194F1080E94A90B8D7F33
:102C900003C00E94A90B82600E94DC0BD7FF08C012
:102CA000D195C195D1090E94F0158AE0982E30C0C7
:102CB0000E94F515FACFE114F10409F05C9A20970F
:102CC00009F02C9A00000115110519F05E980150C9
:102CD0001109E114F10421F05C9881E0E81AF1088F
:102CE000209711F02C9821970000C5010E94F32431
:102CF000C114D10451F09C9CC0019D9C900D1124E5
:102D00000E94F32481E0C81AD108E114F10429F0EB
:102D10000115110581F25E9ACECF01151105C1F79B
:102D20002097B1F7DF91CF911F910F91FF90EF9016
:102D3000DF90CF90BF90AF909F90089540E050E01B
:102D400060E070E088E191E00E94FA151092B6020E
:102D500008956F927F928F929F92AF92BF92CF927F
:102D6000DF92EF92FF920F931F93CF93DF9300D0E8
:102D700000D0CDB7DEB780E491E00E94440980E046
:102D80000E94760BE3E0CE2ED12CA12CB12C00E0DA
:102D900010E040E050E060E070E086EF9FEF0E94BE
:102DA000FA1564EF71E080E090E00E94FE2483E079
:102DB000C816D10421F470EE672E712C03C060E1B7
:102DC000662E712C88248394912CE12CF12C40E008
:102DD00050E060E070E081E090E00E94FA15198216
:102DE0001A821B821C82AE014F5F5F4F6FE682E04A
:102DF0000E94A50989819A81AB81BC816E147F04F0
:102E00001CF49370409790F10F5F1F4F88EEE81607
:102E100083E0F80669F48FEFA81AB80A05361105A1
:102E200054F48FEFE81AF80A8FEF881A980ACFCF78
:102E300005361105ACF081E090E09501220F331FBB
:102E400002C0880F991F2A95E2F70E94F30B093CF4
:102E5000110534F080E090E00E94F30B00E010E0F8
:102E600088EB88168BE09806E1F60AC084E5E81640
:102E70008BE0F8062CF481E0C81AD10809F089CF5C
:102E800040E050E060E070E08FED9FEF0E94FA15A7
:102E900080910F010E94760B64EF71E080E090E07A
:102EA0000E94FE2440E050E060E070E088EE9EEF7B
:102EB0000E94FA1581E08093B6020F900F900F9058
:102EC0000F90DF91CF911F910F91FF90EF90DF90C6
:102ED000CF90BF90AF909F908F907F906F9008950C
:102EE0006F927F928F929F92AF92BF92CF92DF921A
:102EF000EF92FF920F931F93CF93DF9300D000D0F8
:102F0000CDB7DEB70E94A91680E491E00E94440983
:102F10000E944626019701F50E946A098130C1F39B
:102F20000E944626019719F40E94E510F5CF85E529
:102F300091E00E94F30B6CE271E080E090E00E946F
:102F4000FE2480E090E00E94F30B6CE271E080E0F0
:102F500090E00E94FE24E0CF80E00E94760B64E9BE
:102F6000A62EBB24BA9472E0C72ED12C00E010E04C
:102F7000E7E06E2E712C62E370E080E090E00E944A
:102F8000FE2488248394912CE12CF12C40E050E025
:102F900061E070E080E090E00E94FA1519821A82E8
:102FA0001B821C82AE014F5F5F4F6FE681E00E9483
:102FB000A50989819A81937021E1E216F10410F04C
:102FC000059788F10F5F1F4F88EBE8168BE0F80636
:102FD00069F42FEFC21AD20A0536110554F48FEFA7
:102FE000E81AF80A2FEF821A920AD0CF0536110597
:102FF000ACF081E090E09601220F331F02C0880FF1
:10300000991F2A95E2F70E94F30B093C110534F051
:1030100080E090E00E94F30B00E010E080EA881668
:103020008FE09806E1F621E0621A710840E050E076
:1030300049F0B50180E090E00E94FA1522E1A20E6D
:10304000B11C99CF67E57FEE80E090E00E94FA1511
:1030500080910F010E94760B64EF71E080E090E0B8
:103060000E94FE2485E591E00E94F30B80E090E051
:103070000E94F30B8091690390916A0324E030E091
:10308000281B390B220F331F81E090E002C0880F0C
:10309000991F2A95E2F70E94F30B0F900F900F9063
:1030A0000F90DF91CF911F910F91FF90EF90DF90E4
:1030B000CF90BF90AF909F908F907F906F9008952A
:1030C0002C9A00002C98000008958F929F92AF9246
:1030D000BF92CF92DF92EF92FF920F931F93CF9305
:1030E000DF93EC018B014B01072E000CAA08BB08F3
:1030F000861797074CF4BC01990F880B990B0E9417
:1031000017346B017C010EC0C501B4010E94173455
:103110006B017C010C171D072CF4BE01DD0F880B21
:10312000990B02C0C501B4010E9417349B01AC0188
:10313000C701B6010E946D330E9415352AEC35E5B2
:1031400043E85BEB0E946D330E9451330E94DF33F2
:10315000CB01DF91CF911F910F91FF90EF90DF9006
:10316000CF90BF90AF909F908F9008951F93CF9373
:10317000DF938EE293E00E94FA328F5FC82FD0E097
:10318000DC2FCC278FE293E00E94FA32182F80E3E5
:1031900093E00E94FA321F3F11F4882339F081171F
:1031A00018F481E0810F03C08F5F01C081E09E01B0
:1031B000280F311DC901DF91CF911F910895FC01A6
:1031C0008081813039F020F0823031F01082089512
:1031D00081E003C082E001C083E0808308950F9303
:1031E0001F93CF93DF930E94F71A813011F128F0DB
:1031F000823019F08330B1F51CC0C0E0D0E0082F58
:1032000010E0CE010E960E94FA3290E034E09595DF
:1032100087953A95E1F70817190719F0CE0101973C
:1032200023C02196C03283E0D80759F78FE193E09D
:103230001BC0CFE1D3E0082F10E0CE010E960E9414
:10324000FA3290E024E0959587952A95E1F70817E2
:10325000190719F0CE01019607C0219770F780E099
:1032600090E002C08FEF9FEFDF91CF911F910F9100
:1032700008953F924F925F926F927F928F929F92AA
:10328000AF92BF92CF92DF92EF92FF920F931F9374
:10329000CF93DF9381EB91E00E9444096CE972E0E7
:1032A00087E598E10E9465187C0167E578E18CE983
:1032B00092E00E9465185C010E94F015C7E5D8E114
:1032C00087E598E108E113E1312C28ED31E149016E
:1032D0008E189F0820ECA21A2EEFB20A0E94F32447
:1032E0000E941D126B017C010E94601880169106DD
:1032F000D0F4BE0180E090E00E9415342B013C0127
:1033000020E030E047E254E40E94083518165CF4EF
:103310002BED39EF4EE75FE3C301B2010E945D354B
:103320000E94E633EB010A151B05D0F4BE0180E0D4
:1033300090E00E9415342B013C0120E038EB42EC78
:1033400055E40E94683387FF0BC02BED39EF4EE741
:103350005FE3C301B2010E946D330E94E633EB01CB
:103360000E944626892B09F433940E941D12CC0E2C
:10337000DD1EC601861B970B0150110929E023159C
:1033800020F00115110509F0A9CFDF91CF911F9110
:103390000F91FF90EF90DF90CF90BF90AF909F90F4
:1033A0008F907F906F905F904F903F9008958091A5
:1033B0004203909143038A620E94BE0B6AE070E070
:1033C00080E090E00E94FE248091420390914303AC
:1033D000857D0E94BE0B80910F010E94760B0E949A
:1033E000A9168091440390E091958195910940E060
:1033F00050E060E070E020EEFC012E9FC0012F9FA6
:10340000900D11240E94FA1580910001882329F063
:103410008091B60281110C949E160895CF93C3E05B
:103420000E94250A882351F0C15019F40E94A2106D
:10343000FDCF0E94B6100E94D719F2CFCF91089508
:10344000109244031092250380914203909143030C
:103450008A620E94BE0B6AE070E080E090E00E9409
:10346000FE248091420390914303857D0E94BE0B10
:1034700080910F010E94760B0E94701780910001CD
:10348000882329F08091B60281110C949E1608952C
:103490002F923F924F925F926F927F929F92AF9244
:1034A000BF92CF92DF92EF92FF920F931F93CF9331
:1034B000DF93C82F811102C080E001C082E00E942A
:1034C000EB07CC2361F031EBE32E31E0F32E412CFE
:1034D00040E8542E45E5642E43E4742E0AC09AEE6B
:1034E000E92E91E0F92E412C512C28EC622E22E499
:1034F000722ED1E0AC2EB12C87EA282E80E3382E34
:103500000E9446266C018A159B0509F05EC041E0C9
:103510006D2FC7010E94C908CC2329F00E94F51520
:103520000BE610E003C00E94F015FACF0E9460186D
:10353000C1010197F1F701501109C1F7CC2319F02E
:103540000E94F01502C00E94F5152FE131E34BE215
:1035500051E4C301B2010E945D350E94DF338B014B
:10356000912C0E9460180150110983E092E90197A3
:10357000F1F70E94462621E030E0892B11F020E08F
:1035800030E0C216D30609F493940E946A0982308F
:1035900021F089E0891560F40EC068EC70E080E0ED
:1035A00090E00E94FE240E946A09823091F70DC0CB
:1035B00001151105B1F664E670E080E090E00E942C
:1035C000FE24DF5FD73009F09BCFDF91CF911F91B1
:1035D0000F91FF90EF90DF90CF90BF90AF909F90B2
:1035E0007F906F905F904F903F902F900895CF9372
:1035F000DF938BE090E00E94FA32D82F8CE090E0CD
:103600000E94FA32C82FD81759F08DE090E00E943E
:10361000FA32D81721F0C81719F0CFEF01C0CD2F1B
:103620008C2FDF91CF910895CF93C82F682F8BE017
:1036300090E00E9402336C2F8CE090E00E940233F5
:103640006C2F8DE090E00E9402330E94F71A91E007
:10365000C81390E0892FCF910895CF93DF93C0E0F6
:10366000D0E06FEFCE010E9402332196CF3F83E07E
:10367000D807B9F76FEF8FEF93E0DF91CF910C94FC
:103680000233109200018091B60281110BC040E01C
:1036900050E060E070E088EE9EEF0E94FA1581E055
:1036A0008093B6020C940E1A81E080930001809101
:1036B000B60281110E949E160C940E1ADF92EF92B0
:1036C000FF920F931F93CF93DF93E82ED62E809116
:1036D000440390E08E19910920EE289F8001299FD4
:1036E000100D1124262F30E08091250390E02C301E
:1036F000310569F40C9721ED3EEF829FE001839F35
:10370000D00D929FD00D1124CE53DE4F1AC0AC01C4
:10371000421B530B0C9761F481ED9EEF489FE00133
:10372000499FD00D589FD00D1124C25CD14009C0D3
:1037300081ED9EEF489FE001499FD00D589FD00D2D
:10374000112480912403811109C00E9470171092E6
:1037500025031092440381E0809324030115110591
:1037600011F4209779F18FEC91E00E9444098FEFDA
:103770000E94F80783E0F82E40E050E0BE01C80147
:103780000E94FA15E0924403D09225030E94250A74
:10379000882359F0FA94F11003C00E94A210FDCFC3
:1037A0000E94B6100E94201AE7CF85EE91E00E9499
:1037B0004409DF91CF911F910F91FF90EF90DF901F
:1037C0000C946308DF91CF911F910F91FF90EF90C0
:1037D000DF900895EF92FF920F931F93CF93DF93A3
:1037E0000E94F0150E944626019781F00E9446260D
:1037F000892B09F03AC00E94F51506E112E0C0E0FD
:10380000D0E087E5E82E81E6F82E19C008EB1BE032
:10381000C0E0D0E097E5E92E91E6F92E0E9460180D
:10382000C7010197F1F70E944626892B09F42196DA
:1038300001501109D9F2CA30D10584F3D7CF0E94C3
:103840006018C7010197F1F70E944626019709F415
:1038500021960150110949F0CA30D10584F380E066
:1038600090E00E94480981E001C080E0DF91CF91A3
:103870001F910F91FF90EF9008958F929F92AF92BA
:10388000BF92CF92DF92FF920F931F93CF93DF935C
:103890000E94411B4CE751E06FE771E083E891E043
:1038A0000E942D07D0E0C3E010E003E09BECC92E9E
:1038B00097E0D92E0E946A09F82E8D17B9F00E9460
:1038C0006A09882331F062E370E080E090E00E94B2
:1038D000FE240E946A09882301F10E946A09D82FF8
:1038E0000E9442124B015C01FD2E19C00E9442123F
:1038F000DC01CB0188199909AA09BB098F3E9240C6
:10390000A105B10558F00E946A09857039F0C330ED
:1039100089F00E946A09D82F02C0F12CD0E0C23091
:10392000D1F1C33019F0C130B1F425C0112309F42D
:1039300042C004C0112309F4CAC0D0E089ED91E06F
:103940000E9466094CE751E06FE771E083E891E07F
:103950000E942D0730C0112309F471C089E691E05F
:103960000E94660941E651E063E671E087E691E076
:103970000E942D0764C0112309F478C087E591E007
:103980000E94660941E651E063E571E087E691E057
:103990000E942D076BC0112309F47DC08CE491E0D7
:1039A0000E94660941E651E067E471E087E691E034
:1039B0000E942D0770C0D23009F497C0D43041F472
:1039C0000E94201A80916903682F0E945E1B7CC0B0
:1039D000D13009F079C081E791E00E9466090E9428
:1039E000541B0E94EA1BC82F0E94411BC11105C035
:1039F000C3E011E003E0DF2D5DCF8091690390917A
:103A00006A0324E030E0281B390B220F331F81E0CA
:103A100090E002C0880F991F2A95E2F70E94F30BED
:103A20000E948F07DF91CF911F910F91FF90DF9040
:103A3000CF90BF90AF909F908F900C94541BD2303A
:103A400009F457C0D43019F446EF5FEF05C0D13008
:103A500009F03CC04AE050E060E070E080E090E0B7
:103A60000E94FA15C6010197F1F730C0D23009F46F
:103A700042C0D43029F440E050E067EE7FEF06C04A
:103A8000D13029F540E050E069E170E080E090E05D
:103A90000E94FA151CC0D23081F1D43039F440E0D4
:103AA00050E060E070E089E090E008C0D13079F447
:103AB00040E050E060E070E087EF9FEF0E94FA1571
:103AC000C6010197F1F703C0C3E001C0C0E00C17C5
:103AD000B9F0C11103C00E94541BC0E0011102C023
:103AE0000E94411B0C2F11E086CF0111F4CFC0E0E2
:103AF00007C0C1E003C0C2E001C0C3E00C13EECFB9
:103B000010E079CFEF92FF921F93CF93DF93182F9E
:103B100060910F0180E00E94040B0E94541B0E94E0
:103B20004626892B61F0C3E00E9439190E94250ABC
:103B3000882381F00E944626019761F443C00E94C9
:103B4000EA1B882339F0DF91CF911F91FF90EF900E
:103B50000C94411BCAE0D0E087E5E82E81E6F82E00
:103B60000E946018C7010197F1F72197C9F70E94D9
:103B70004626019719F481E00E94481A0E944626C1
:103B8000019751F483E00E94EB0785EA91E00E94DF
:103B900066090E943D1C04C080E090E00E94480934
:103BA00011110E94411B80910F010E94BE251092AD
:103BB000510385EE91E0DF91CF911F91FF90EF903F
:103BC0000C944409C15019F40E94A210FDCF0E9428
:103BD000B6100E94D719A8CF2F923F924F925F92B2
:103BE0006F927F928F929F92AF92BF92CF92DF920D
:103BF000EF92FF920F931F93CF93DF9300D01F920A
:103C0000CDB7DEB7682E8091690393E0E92E8F70FF
:103C1000D82E0E94F71A182F89830E94EF181130AE
:103C2000A1F028F0123019F01330D9F40EC08C0135
:103C30000F5F1F4F003223E01207B0F0CE01019654
:103C40000E94DF180FE113E00FC08C010150110931
:103C5000003233E0130740F0CE0101960E94DF18D6
:103C600001C0198200E010E089810E94141B8823A2
:103C7000E9F08981FD2C90E1899FF00C1124025F0D
:103C80001F4F6F2DC8010E940233C8010E94FA32F3
:103C9000F81661F0CE0101960E94DF1889810E941A
:103CA000141B882319F0EA94E110B3CF0E94541B2F
:103CB00060910F0180E00E94040B0E94F51587E5DA
:103CC000E82E81E6F82E8AEE91E00E94440906E192
:103CD00012E00E946018C7010197F1F70E94462682
:103CE000892B19F401501109A1F70E944626892B4E
:103CF00019F480E00E94481A0E944626892B51F44C
:103D000081E00E94EB078BE991E00E9466090E9426
:103D10003D1CD9CF8AE891E00E9444096CE972E029
:103D200087E598E10E9465188C0162E373E18CE9F4
:103D300092E00E946518712C980126593F4F3B83F1
:103D40002A8323EA31E16901C81AD90A0E94F515CC
:103D500007E518E187E598E1E12CF12C0E94F324B6
:103D60000E941D124B015C013AE6E316F104F8F0E3
:103D70008A819B818E159F05D0F0B80180E090E08C
:103D80000E9415341B012C0120E030E047E254E48E
:103D90000E94083518165CF42BED39EF4EE75FE30F
:103DA000C201B1010E945D350E94E6338B01CE1441
:103DB000DF04D0F4B80180E090E00E9415341B01CC
:103DC0002C0120E030E949E955E40E94683387FF7F
:103DD0000BC02BED39EF4EE75FE3C201B1010E944A
:103DE0006D330E94E6338B0184E393E00E941A2D29
:103DF0008134910539F480910F010E94BE250E9403
:103E0000411B34C00E9460180E941D12800E911E3A
:103E1000C401861B970B2FEFE21AF20A37E7E3166D
:103E200032E1F30609F09ACF0E94250A8823B9F0FF
:103E300082E0781203C00E94A210FDCF0E94B6104B
:103E40000E94D7190E943919739480E00E94EB07F1
:103E500041E0672D8AE891E00E94C90877CF8AE89F
:103E600091E00E94660981E00E94EB0780910F01BA
:103E70000E94BE2561100E94411B81E08093510386
:103E800082E991E00E9444090F900F900F90DF911A
:103E9000CF911F910F91FF90EF90DF90CF90BF9047
:103EA000AF909F908F907F906F905F904F903F90DA
:103EB0002F900895409128035091290320912603C3
:103EC0003091270342175307B4F49091E80095709E
:103ED000E1F39091E80092FD19C08093F100809188
:103EE00028039091290301968F739927892B19F440
:103EF0008EEF8093E800809128039091290301962A
:103F0000909329038093280381E0089580E0089529
:103F1000DF92EF92FF920F931F93CF93DF93D82EF0
:103F2000F92EE42E062F10E0C8010196880F0E949A
:103F30005A1F83E00E945A1FCD2DDF2D0C0F1D1F2D
:103F4000C017D10789F0E7FE03C0FE01849101C0CC
:103F500088810E945A1FF82E80E00E945A1F8F21EC
:103F600021968111EDCF01C081E0DF91CF911F91AA
:103F70000F91FF90EF90DF900895DF92EF92FF9204
:103F80000F931F93CF93DF93D82E8A017B01E40E0A
:103F9000F51EEB01CE15DF0571F0D7FE03C0FE0163
:103FA000849101C088810E945A1F21968111F2CF0D
:103FB0008FEF9FEF01C0C801DF91CF911F910F914B
:103FC000FF90EF90DF900895615030F02091F10064
:103FD000FC0120830196F8CF289884E6809367033C
:103FE0000895CF92DF92EF92FF920F931F93CF939A
:103FF000DF936C017A018B01C0E0D0E0CE15DF05C4
:1040000081F0D8016D918D01D601ED91FC91019067
:10401000F081E02DC6010995892B11F02196EECF94
:104020007E01C701DF91CF911F910F91FF90EF901B
:10403000DF90CF900895FC01538D448D252F30E003
:10404000842F90E0821B930B541710F0CF960895A5
:1040500001970895FC01918D828D981761F0828DF2
:10406000DF01A80FB11D5D968C91928D9F5F9F73AC
:10407000928F90E008958FEF9FEF0895FC01918D4E
:10408000828D981731F0828DE80FF11D858D90E0BB
:1040900008958FEF9FEF0895FC01918D228D892F58
:1040A00090E0805C9F4F821B91098F739927089540
:1040B00086EB93E00E944C2021E0892B09F420E05C
:1040C000822F0895FC01848DDF01A80FB11DA35A32
:1040D000BF4F2C91848D90E001968F739927848F28
:1040E000A689B7892C93A089B1898C9182748C930D
:1040F000938D848D981306C00288F389E02D80810A
:104100008F7D80830895EF92FF920F931F93CF933B
:10411000DF93EC0181E0888F9B8D8C8D981305C017
:10412000E889F989808185FD26C0F62E0B8D10E087
:104130000F5F1F4F0F731127E02E8C8DE8120CC0FC
:104140000FB607FCFACFE889F989808185FFF5CFA2
:10415000CE010E946220F1CF8B8DFE01E80FF11D90
:10416000E35AFF4FF0829FB7F8940B8FEA89FB89DF
:104170008081806209C09FB7F894EE89FF896083CF
:10418000E889F9898081827480839FBF81E090E013
:10419000DF91CF911F910F91FF90EF900895CF93F2
:1041A000DF93EC01888D8823C9F0EA89FB8980813F
:1041B00085FD05C0A889B9898C9186FD0FC00FB611
:1041C00007FCF5CF808185FFF2CFA889B9898C9152
:1041D00085FFEDCFCE010E946220E7CFDF91CF9126
:1041E000089580E090E0892B29F00E9458208111E9
:1041F0000C9400000895CF93DF931F92CDB7DEB7E4
:104200006983DC01ED91FC910280F381E02D41E0B6
:1042100050E0BE016F5F7F4F09950F90DF91CF9106
:10422000089583E08093E9008091F200882319F0DB
:104230008AE38093E8000895FC018485958597FDC5
:104240000BC09FB7F89482E08093E9008091F20060
:104250009FBF90E0019608959FB7F89482E0809305
:10426000E9008091F2009FBF90E008950F931F93A3
:10427000CF93DF931F92CDB7DEB782E0898342E40C
:1042800050E06AE17BE080E80E94BD1F0E94D427D5
:10429000DC0112960D911C9113970115110589F0FF
:1042A000D801ED91FC910280F381E02DBE016F5F9A
:1042B0007F4FC801099597FD04C0F801008511855D
:1042C000ECCF89810F90DF91CF911F910F910895CD
:1042D0000E94C32790E008950F931F93CF93DF931D
:1042E0001F92CDB7DEB78C01FC018485958597FFC1
:1042F0000EC0CE0101960E949527019719F489817D
:1043000090E002C08FEF9FEFF80195878487F80156
:10431000848595850F90DF91CF911F910F9108951E
:10432000CF93DF931F92CDB7DEB7FC0184859585CF
:1043300097FD05C02FEF3FEF358724870BC0CE01D7
:1043400001960E949527019719F4898190E002C097
:104350008FEF9FEF0F90DF91CF9108951F920F92F3
:104360000FB60F9211248F939F938091E10090914B
:10437000E100937F9093E10083FF0FC01092E9006A
:1043800091E09093EB001092EC0092E39093ED009B
:104390001092680398E09093F00082FF20C093E0B1
:1043A0009093E9009091F200992319F09AE3909389
:1043B000E80090912B03992339F090912B039150B1
:1043C00090932B03992389F190916703992339F0F6
:1043D00090916703915090936703992341F184FF73
:1043E00010C08091E2008E7E81608093E200809117
:1043F000E1008F7E8093E10080912C038E7E8061AE
:1044000011C080FF16C08091E2008E7E8061809393
:10441000E2008091E1008E7E8093E10080912C0388
:104420008E7E816080932C0304C05D9ACDCF289A44
:10443000D6CF9F918F910F900FBE0F901F90189520
:104440001F920F920FB60F921124CF92DF92EF922C
:10445000FF920F931F932F933F934F935F936F930D
:104460007F938F939F93AF93BF93EF93FF93CF93DC
:10447000DF93CDB7DEB76C97DEBFCDBF1092E900FA
:104480008091E80083FFFBC168E0CE0145960E9461
:10449000E41F82EF8093E8008D8987FF05C090912B
:1044A000E80090FFFCCF03C09EEF9093E800982FA8
:1044B000907609F0C6C09E894F89588D2F89F88C57
:1044C00091110CC0803829F480912D038093F10064
:1044D00002C01092F1001092F10045C1913051F4E8
:1044E000811141C14130510509F03DC180912D0339
:1044F0008D7F0BC0933061F4811135C1413051057E
:1045000009F031C180912D03826080932D032BC16E
:10451000953049F48091E80080FFFCCF822F8068BD
:104520008093E30020C1963009F05EC00B8D1C8D96
:1045300022E01092E9001092290310922803F2124F
:1045400032C010922703109226030E94362199E070
:10455000BE016F5F7F4FDB01E92F1D92EA95E9F7FE
:104560009983FA8291E09E8390EA98879AEF9987DF
:104570002091280330912903275F3F4F3C832B83F1
:104580008D831092E9001092290310922803109352
:1045900027030093260349E050E080E00E94BD1FFE
:1045A0000E943621E0C010932703009326030E9447
:1045B000D427DC0112960D911C911397011511055A
:1045C00009F4BBC0D801ED91FC910480F581E02D88
:1045D000BE016B5E7F4FC8010995009709F0C7C007
:1045E000F80100851185EACF973009F445C198306C
:1045F00021F481E08093F100B6C0993009F0B3C096
:10460000837009F039C1ECEBF1E081E031E096E331
:104610002081211109C08EE78093EA001092EA0000
:104620008F89809368039FC08093E9003093EB00EB
:1046300021912093EC009093ED008F5F873041F73C
:10464000EACF8B8D9C8D1092E90010922903109275
:1046500028039093270380932603898D811153C0EB
:104660008E899D89913A49F4813209F005C147E06C
:1046700050E065E071E080E0BBC0913209F0FCC021
:10468000833269F48F89988DA0E0B0E080930101B6
:1046900090930201A0930301B093040164C080329F
:1046A00069F48091E80082FFFCCF67E085E091E04B
:1046B0000E94E41F8BEF8093E80055C0823209F01E
:1046C00052C08F8980930C01EEEFFFE785919491A2
:1046D0008B3F9C4D19F0E0E0F8E002C0EEEFFAE00D
:1046E0008091050190910601A0910701B091080108
:1046F000803B9440A105B10509F09EC080910C015A
:1047000080FF79C099C00E94D427FC0102811381E7
:104710000115110509F4B0C0D801ED91FC9101908B
:10472000F081E02DBE016B5E7F4FC80109958111BC
:104730001AC0F80100851185EBCFF1E0FF1609F4EE
:104740004EC0F3E0FF1298C08F89882309F44AC055
:10475000823089F440E860E38AE79BE00E94881F8A
:10476000882309F489C08EEF8093E80088C018166A
:104770001906CCF381C0813029F440E867E082E774
:104780009BE0ECCF833009F077C00E94D427DC0196
:104790001296ED90FC9013978E010F5F1F4F6801EA
:1047A000E114F10479F0D701ED91FC910680F781D5
:1047B000E02DB801C7010995080F111DF701E0842C
:1047C000F184EECFD8011C92F60101900020E9F7A8
:1047D0003197BF016C197D0940E0C601BFCF60E68B
:1047E0007BE002C06CE57BE0FB01449150E080E897
:1047F0000E94BD1FB8CFEE3F2AE0F20751F0808142
:1048000091818737A7E79A0721F09093FF0A809359
:10481000FE0A87E797E79183808380916000809309
:104820002A039BE088E10FB6F894A8958093600076
:104830000FBE9093600097CF808191818737974713
:1048400009F091CFA8958091600088618093600005
:1048500080912A0380936000EE3FBAE0FB0739F0B5
:104860008091FE0A9091FF0A918380837CCF109201
:10487000FF0A1092FE0A77CF81E28093EB006C96DC
:104880000FB6F894DEBF0FBECDBFDF91CF91FF9181
:10489000EF91BF91AF919F918F917F916F915F91B8
:1048A0004F913F912F911F910F91FF90EF90DF90CB
:1048B000CF900F900FBE0F901F9018951F920F92E0
:1048C0000FB60F9211242F933F934F935F936F93E3
:1048D0007F938F939F93AF93BF93EF93FF9386EB59
:1048E00093E00E946220FF91EF91BF91AF919F9161
:1048F0008F917F916F915F914F913F912F910F9089
:104900000FBE0F901F9018951F920F920FB60F9227
:1049100011242F938F939F93EF93FF93E091C603FE
:10492000F091C7038081E091CC03F091CD0382FD2B
:1049300012C090818091CF038F5F8F732091D0033D
:10494000821751F0E091CF03F0E0EA54FC4F958FCD
:104950008093CF0301C08081FF91EF919F918F9150
:104960002F910F900FBE0F901F90189590E0FC01B3
:104970003197EF30F105B0F5EA5AFF4F0C945E36EF
:10498000809180008F7703C0809180008F7D80931D
:104990008000089580918000877FF9CF84B58F775C
:1049A00002C084B58F7D84BD0895809190008F777B
:1049B00007C0809190008F7D03C080919000877F19
:1049C0008093900008958091C0008F7703C08091FC
:1049D000C0008F7D8093C00008958091C200877FC2
:1049E0008093C20008958230910538F0880F991F96
:1049F000880F991F05970197F1F708958F929F925D
:104A0000AF92BF92CF92DF92EF92FF926B017C0147
:104A10000E941D124B015C01C114D104E104F10498
:104A2000F1F00E941D12DC01CB0188199909AA0935
:104A3000BB09883E9340A105B10570F321E0C21A7D
:104A4000D108E108F10888EE880E83E0981EA11CC9
:104A5000B11CC114D104E104F10419F7DDCFFF90BA
:104A6000EF90DF90CF90BF90AF909F908F90089580
:104A70008F929F92AF92BF92CF92DF92EF92FF926E
:104A80000F931F93CF93DF936C017B018A01809179
:104A90000C01882309F45CC080916803882309F421
:104AA00057C080912C0380FF05C08091E000826098
:104AB0008093E000E801B12C8AEFA82E93E0892EC4
:104AC0002AE3922E209711F4BB20D9F10E94C3272C
:104AD00081110AC0AA94AA20D9F161E070E080E0B7
:104AE00090E00E94FE24EECF282F30E0C217D307BB
:104AF0000CF48C2F9FB7F8948092E9002091E80085
:104B000025FF1DC0282F30E0C21BD30BF7018150B9
:104B100020F041914093F100FACFE20EF31EBB204A
:104B200019F09092E8000AC08091E80085FD07C066
:104B30009092E800BB24B394209709F0B12C9FBF5A
:104B4000C1CF5D9884E680932B031016110644F0C4
:104B500081E090E0F6019383828380E090E001C0E1
:104B6000C801DF91CF911F910F91FF90EF90DF90DF
:104B7000CF90BF90AF909F908F90089540E060E0FD
:104B8000823019F480E00C94B20A80E00C94620A3E
:104B9000009769F0FC0101900020E9F73197AF011F
:104BA000481B590BBC018FEA94E00C94F11F80E084
:104BB00090E008959093BE048093BD04892B31F05A
:104BC0008FEA94E00E949812019721F081E080938F
:104BD000B80408951092B8040895CF92DF92EF922E
:104BE000FF920F931F93CF93DF938C01E12CF12C55
:104BF000F801C1918F01CC2309F43EC08091BD041E
:104C00009091BE04009719F480E090E036C0FC015A
:104C10003496C49031968491CC15B0F3D0E0D12C69
:104C20009601280F311DC217D30774F78FEA94E05D
:104C30000E949812E091BD04F091BE042091C0043E
:104C4000029730F02696CC19DD09EC0FFD1F01C04C
:104C50003296E491E29FE02D1124EE23A9F2809197
:104C6000B8049091C004899F802D1124F0E0E80FD2
:104C7000F11DEE0EFF1EBCCFC701DF91CF911F913A
:104C80000F91FF90EF90DF90CF900895CF93DF9337
:104C9000E6E4FCE08491E7E2FCE0D491E8E0FCE0AB
:104CA000C491CC2391F081110E94B624EC2FF0E046
:104CB000EE0FFF1FE951F44FA591B491EC91ED2354
:104CC00081E090E021F480E002C080E090E0DF919C
:104CD000CF9108950F93CF93DF93CFEAD4E01B8653
:104CE0001A8660E4CE010E94A4120F8106950695F3
:104CF000069501504E81415020E060E0CE010E94B7
:104D0000E612DF91CF910F910895CF93DF93282F73
:104D100030E0F901ED5CF34F8491F901EC5EF34F63
:104D2000D491F901EB50F44FC491CC2389F0811157
:104D30000E94B624EC2FF0E0EE0FFF1FE752F44F75
:104D4000A591B4918FB7F894EC91ED2BEC938FBFB4
:104D5000DF91CF9108953091B503313208F04BC007
:104D6000809191038111FCCF9091B40322E02093B4
:104D7000910321E0209390032FEF20938F03109253
:104D80008E0330938D03E4E9F3E0ADE6B3E020E079
:104D9000321721F041914D932F5FFACF10926C039F
:104DA00020916C03990F922B90936C0390916B035D
:104DB000913061F410926B0390916C039093BB005F
:104DC0009091BC0093FDF8CF95EC01C095EE9093C7
:104DD000BC00909191039230E1F390918F039F3F3B
:104DE00079F080918F03803241F080918F0380337E
:104DF00031F084E005C081E003C082E001C083E0BF
:104E0000109293031092B503109292030895AF92FB
:104E1000BF92CF92DF92EF92FF921F93CF93DF93D7
:104E20000E94541B0E94F51580910F014FE061E034
:104E3000813021F480E00E94620A03C080E00E9479
:104E4000B20A8AEE91E00E94440910E0D0E0C0E08E
:104E500034E0C32ED12C42E0A42EB12C57E5E52E30
:104E600051E6F52E0E946018CF5FC333E8F08091C1
:104E7000690390916A039601281B390BC901880FB9
:104E8000991F950102C0220F331F8A95E2F7C901CD
:104E90000E94F30BC53640F080E090E00E94F30BD7
:104EA000D23008F4DF5FC0E00E944626019709F483
:104EB0001F5F1A3040F40E946A09882351F0DD23F5
:104EC00041F0C0E00AC084E190E00E944809C1E0DE
:104ED00004C0C7010197F1F7C5CF80910F010E946F
:104EE000BE250E94411B8091690390916A0324E0D2
:104EF00030E0281B390B220F331F81E090E002C005
:104F0000880F991F2A95E2F70E94F30B85EE91E036
:104F10000E9444098C2FDF91CF911F91FF90EF9059
:104F2000DF90CF90BF90AF9008952091680321113A
:104F300003C08FEF9FEF08955FB7F89422E02093AE
:104F4000E9002091F20030E01216130614F421E07B
:104F500030E0422FFC0184E6415038F028988093DD
:104F600067039091F1009193F7CF2115310521F05E
:104F70008091F200882319F05FBFC90108958BE684
:104F80008093E800F9CF2FB7F89483E08093E9008D
:104F90009091E800892F807295FF04C09091F200F3
:104FA00080E4891B2FBF08958091C70481110DC033
:104FB00082E08093C30484E08093C4041092C6040A
:104FC0001092C50481E08093C70483EC94E00895B7
:104FD000789484B5826084BD84B5816084BD85B5D4
:104FE000826085BD85B5816085BD80916E008160E0
:104FF00080936E0010928100809181008260809386
:105000008100809181008160809381008091800087
:1050100081608093800080919100826080939100F4
:1050200080919100816080939100809190008160D7
:10503000809390008091C10084608093C100809132
:10504000C10082608093C1008091C1008160809323
:10505000C1008091C30081608093C3008091C00033
:1050600082608093C0008091C20081608093C20002
:1050700080917A00846080937A0080917A008260C7
:1050800080937A0080917A00816080937A00809189
:105090007A00806880937A001092680310922D0342
:1050A00010922C038091D70081608093D70080EA12
:1050B0008093D80089B5806189BD89B5826089BD3A
:1050C00009B400FEFDCF61E070E080E090E00E9456
:1050D000FE248091D8008F7C80618093D8008091DD
:1050E000E000807F8093E0008091E1008E7E8093DD
:1050F000E1008DE08093E200559A209A10923303EC
:1051000010923203109293031092B5031092910300
:1051100081E08093900310926B0382E00E948526C9
:1051200083E00E9485268091B9008E7F8093B9002C
:105130008091B9008D7F8093B90088E48093B80096
:1051400085E48093BC008BE791E1909331038093D9
:1051500030038CE791E190932F0380932E038CE032
:105160008093B8001092C2048CE38093C104109223
:10517000B3041092B404E4ECFBE085919491082F01
:10518000E6ECFBE01491E7ECFBE0E491E093B5047E
:10519000E8ECFBE0E491E093B604E9ECFBE0E49199
:1051A000E093B704C02FD92F8C2F801B811740F4B8
:1051B000FE0164918FEA94E00E94A4122196F4CF3C
:1051C0000E946A260E946A2682EC91E00E944409AD
:1051D00040E060E088E50E9468088FEF0E94F807D1
:1051E0000E948F078FEF93E00E94FA328F3F11F0F9
:1051F0000E942D1B3F9A269A259A47982E982D9803
:10520000109243031092420380E090E00E94BE0B94
:1052100080914203909143030E94BE0B80E090E096
:105220000E94F9108FEF9FEF9093600480935F04CA
:10523000C6E5D3E085E192E190935F0380935E033E
:1052400081E192E1909361038093600393E09093F6
:1052500059031092630310926203E091C603F09128
:10526000C70382E08083E091C203F091C303108200
:10527000E091C403F091C50380E180831092CE03D6
:10528000E091CA03F091CB038EE08083E091C803E4
:10529000F091C903808180618083E091C803F0911F
:1052A000C903808188608083E091C803F091C903BD
:1052B000808180688083E091C803F091C903808178
:1052C0008F7D808304E313E029E032E130933D03D6
:1052D00020933C0325E032E130933F0320933E03CB
:1052E00090933703109241031092400381E090E0C5
:1052F0000E94F910D093D004C093CF04D093D2046D
:10530000C093D1048AEC9BE09F938F931F930F93DC
:105310000E94582D84B1817F84B984B1866084B99C
:1053200082E090E00E94F91083E090E00E94F91082
:10533000109255031092540380917A0087608093F5
:105340007A0080917C00806480937C0080917A0058
:10535000806880937A0080E280937E0010927D00C6
:1053600084E090E00E94F910809142039091430301
:10537000857D0E94BE0B80E090E00E94F30B0E94AE
:105380006A090F900F900F900F90823031F481E0F6
:1053900090E0909353038093520380E00E94760B39
:1053A0000E94250A0E94EF188032F3E09F0708F060
:1053B00040C00E960E94FA32C82FD82FDF70D53029
:1053C000C0F50E94F71A8430A0F52C2F30E004E0DD
:1053D000359527950A95E1F790E02817390749F5A3
:1053E0000E944626019729F50E94A9168FEC91E0AC
:1053F0000E9444090D2F10E088279927801B910BEC
:1054000040E050E060E070E020EEFC012E9FC00123
:105410002F9F900D11240E94FA15D09344031093EE
:105420006A030093690385EE91E00E9444090E949B
:1054300063080E944626019719F481E08093510386
:1054400085EE91E00E944409B4E0EB2EF12C442457
:105450004394512CD2E0CD2ED12C1BEB612E12E1C6
:10546000712E84E393E00E94430C8091CF049091CD
:10547000D0040E94430C80915203909153038330D7
:10548000910509F457C134F4009709F45DC10197FF
:1054900049F0FAC18430910509F466C1059709F411
:1054A0007CC1F2C180910E01882301F180E090E07F
:1054B0000E94F30B68EC70E080E090E00E94FE2414
:1054C0008AEA92E00E94F30B60EB74E080E090E0E7
:1054D0000E94FE2480E090E00E94F30B68E572E0F9
:1054E00080E090E00E94FE2410920E0180916603FD
:1054F000882309F4BAC00E944A100E946A098230C7
:1055000009F0C2C18091690390916A039701281B39
:10551000390BC901880F991FF60102C0EE0FFF1F5A
:105520008A95E2F7CF010E94F30B68EC70E080E00F
:1055300090E00E94FE240E946A09823009F0A4C112
:1055400080916903682F0E945E1BC0916903D0910E
:105550006A03CC30D1050CF083C0809151038111D6
:1055600093C12C2E0E94EC1D4EE161E080E00E9470
:10557000620A0E9442124B015C0104EC12E2312CDF
:105580000E946A09813019F0843089F022C03320EA
:1055900031F10E944212DC01CB0188199909AA0954
:1055A000BB09893E9340A105B105C8F42EC0332044
:1055B00009F46DC10E944212DC01CB0188199909DE
:1055C000AA09BB09893E9340A105B10508F05FC156
:1055D0001CC00E9442124B015C01312C16C0C80154
:1055E0008E5F9A418D38934270F40E94F0156AE004
:1055F000362EC3010197F1F70E9460183A943110DA
:10560000F8CF0A5011093324339480E091E00E94CE
:10561000F30B6AE070E080E090E00E94FE2480E0FE
:1056200092E00E94F30B6AE070E080E090E00E945C
:10563000FE2488E090E00E94F30B62E370E080E0DB
:1056400090E00E94FE240E946A09823009F098CFFF
:1056500081E00E94821D34E0321508F02EC114C191
:1056600080E090E00E94070C31C180E091E00E9450
:10567000F30B61E070E080E090E00E94FE2480E0A7
:1056800092E00E94F30B61E070E080E090E00E9405
:10569000FE24C0916403D0916503CE01880F991F49
:1056A000F60102C0EE0FFF1F8A95E2F7CF010E94BC
:1056B000F30B61E070E080E090E00E94FE240E9425
:1056C0006A09823059F0843029F1813009F0DCC058
:1056D0001C161D060CF0D8C0219721C0C230D10580
:1056E00079F03CF4219709F0CFC0F1E0F093660324
:1056F000CBC0C330D10559F0249709F4E7C0C4C02A
:1057000080910D018111C0C00E942D1BDFC010923D
:105710000D01BAC0C430D1050CF0B6C02196D093AB
:105720006503C093640360E273E080E090E00E9450
:10573000FE24AAC00E944626019719F40E94E51093
:10574000A3C010925103F7C00E944A100E946A0938
:10575000823009F099C08091690390916A038C307E
:1057600091050CF4EDC090C089ED91E00E946609AE
:105770000E943D1C109253031092520325ED3BE012
:105780003F932F9384E393E09F938F930E94582D30
:1057900085EE91E00E94440973C080E090E00E9491
:1057A000F30B60E273E080E090E00E94FE248091C1
:1057B000690390916A03F701E81BF90BCF01880F89
:1057C000991F920102C0220F331F8A95E2F7C90187
:1057D0000E94F30B64E670E080E090E00E94FE24FB
:1057E0008091690390916A03F701E81BF90BCF01DF
:1057F000880F991F960102C0220F331F8A95E2F786
:10580000C9010E94F30B64E670E080E090E00E9422
:10581000FE2460E273E080E090E00E94FE240E949B
:105820006A09C82F882381F10E946A098111FCCF7F
:10583000C130C1F0C23041F560910F010E94040BEC
:105840000E94541B0E94EA1BC82F0E94411B80919A
:105850000F010E94BE25C11117C0F0925303E092C0
:10586000520312C0109253031092520381ED9BE039
:105870009F938F9384E393E09F938F930E94582D7F
:105880000F900F900F900F900E94F120EACDC80169
:105890008A5E9A418D38934208F0B5CE0E94F51584
:1058A0005AE0352EC3010197F1F70E9460183A942F
:1058B0003110F8CF065F1F4FA6CECE019927880F73
:1058C000991FB80101960E941433DECF80E090E06A
:1058D0000E94F30B60E971E080E090E00E94FE24FA
:1058E0008AEA92E00E94F30B60E971E080E090E0C8
:1058F0000E94FE2480E090E00E94F30B60E971E0DA
:1059000080E090E00E94FE2480E090E00E94F30B93
:105910008091690390916A03F701E81BF90BCF01AD
:10592000880F991F920102C0220F331F8A95E2F758
:10593000C9010E94F30B1092530310925203A4CF9B
:10594000F701E81BF90BCF01880F991F960102C0E0
:10595000220F331F8A95E2F7C9010E94F30B68EC0E
:1059600070E080E090E00E94FE240E946A0982308C
:1059700009F08ACF80916903682F0E945E1B0E9404
:10598000072782CFE6EBF3E01382128288EE93E0E2
:10599000A0E0B0E084839583A683B78326EF31E04F
:1059A000318320832DEC30E0358724872CEC30E0E8
:1059B0003787268728EC30E0318B208B29EC30E0CC
:1059C000338B228B2AEC30E0358B248B2EEC30E0AD
:1059D000378B268B118E128E138E148EE3E5F4E036
:1059E0001382128284839583A683B78328E032E0F2
:1059F000318320832FEF3FEF35872487E3EAF4E0FC
:105A00001382128284839583A683B7838AE192E00E
:105A100091838083EFEAF4E0138212821486158664
:105A200017861686108A81E0818B8CE292E0918342
:105A300080830895CF93DF93EC012B8120FF33C047
:105A400026FF0AC02F7B2B838E819F8101969F8327
:105A50008E838A8190E029C022FF0FC0E881F981FE
:105A60008081082E000C990B009719F420622B837B
:105A70001AC03196F983E8830EC0EA85FB85099543
:105A800097FF09C02B81019611F080E201C080E1EF
:105A9000822B8B8308C02E813F812F5F3F4F3F8336
:105AA0002E83992702C08FEF9FEFDF91CF9108954A
:105AB000A0E0B0E0EEE5FDE20C9428330F811885FC
:105AC000F801838188608383AE01455F5F4F6985FC
:105AD0007A85C8010E948C2DF8012381277F2383BA
