:100000000C9460010C9488010C9488010C94880174
:100010000C9488010C9488010C9488010C9488013C
:100020000C9488010C9488010C94130B0C94850B90
:100030000C9488010C9488010C9488010C9488011C
:100040000C9488010C9488010C9488010C9488010C
:100050000C9488010C9488010C9488010C946F1303
:100060000C9488010C94E90D0C94C30D0C94880138
:100070000C9488010C9488010C9488010C948801DC
:100080000C9488010C9488010C9488010C948801CC
:100090000C9488010C9488010C9488010C948801BC
:1000A0000C9488010C9488010C9488018618891896
:1000B00078187C188018AA18AA18AA188D189118F0
:1000C00095189B189F18AA18A51808000000BE9242
:1000D0002449123EABAAAA2ABECDCCCC4C3E00008D
:1000E0000080BEABAAAAAA3E00000000BF0000002C
:1000F000803F0000000000084178D3BB4387D11344
:100100003D190E3CC3BD4282AD2B3E68EC8276BEEB
:10011000D98FE1A93E4C80EFFFBE01C4FF7F3F00B5
:10012000000000006364696E6F70737578585B003F
:100130006F6B0A004B256400572564006F6B0A0043
:10014000522564006F6B0A00452564006F6B0A003E
:10015000432564006F6B0A00462564202564002552
:10016000646F6B0A0025646F6B0A0025646F6B0A6D
:10017000006F6B0A005325640025646F6B0A005002
:10018000256400582564006F6B0A00552564006FD4
:100190006B0A004D2564006F6B0A004C2564006FEC
:1001A0006B0A0054256400080B00020202010009DA
:1001B00004000001020200000524001001052401D2
:1001C000010104240206052406000107058103102D
:1001D000004009040100020A000000070502024075
:1001E0000000070583024000000403090412010017
:1001F00002EF020140992C040000010102030155A5
:100200006E6B6E6F776E004F726967696E616C20FE
:100210005072757361206933204D4B33204D756CDE
:100220007469204D6174657269616C20322E3020D2
:100230007570677261646500070605040100080AAD
:100240000B0C0D0973746172740A006F6B0A006FF6
:100250006B0A00000000002300260029002C002F5C
:10026000000404040404030405020202020403025D
:10027000020202060606060606040402020204043E
:100280000408020110408040102040804080080295
:100290000401804020100201108010204040200006
:1002A00000000200090F0000030401000C00000020
:1002B0000000000000000000000000000000E01D41
:1002C00011241FBECFEFDAE0DEBFCDBF22E0AEE4E7
:1002D000B1E001C01D92AA3BB207E1F711E0A0E036
:1002E000B1E0E2EDFEE402C005900D92AE34B1073C
:1002F000D9F711E0C0E6D1E004C02197FE010E94C9
:100300006127CF35D107C9F70E9496190C9467274A
:100310000C9400002F923F924F925F926F927F92C7
:100320008F929F92AF92BF92CF92DF92EF92FF9205
:100330000F931F93CF93DF93582E882341F0812C86
:1003400030E8932E35E5A32E33E4B32E06C0812C7E
:10035000912C28ECA22E22E4B22E06E010E0252CEF
:10036000312C87EA682E80E3782E93E0C92E92E93B
:10037000D92E0E9460187C018215930509F055C0A2
:10038000552029F00E94C713CBE6D0E003C00E949D
:10039000C213FACF0E946F15C3010197F1F721979D
:1003A000C9F7552019F00E94C21302C00E94C7135A
:1003B0002FE131E34BE251E4C501B4010E94602614
:1003C0000E94E224EB01412C0E946F152197C60187
:1003D0000197F1F70E94601821E030E0892B11F0BD
:1003E00020E030E0E216F30609F443940E94810F06
:1003F000823021F089E0841560F40DC068EC70E073
:1004000080E090E00E94260E0E94810F823091F7DA
:100410000CC02097C9F664E670E080E090E00E948E
:10042000260E0150110909F0A4CFDF91CF911F9141
:100430000F91FF90EF90DF90CF90BF90AF909F9083
:100440008F907F906F905F904F903F902F90089586
:1004500080918601909187018A620E94E2116AE090
:1004600070E080E090E00E94260E809186019091DD
:100470008701857D0E94E21180910F010E949A11EF
:100480000E94CC138091880190E09195819591090B
:1004900060E070E020EEAC01249FC001259F900D2C
:1004A00011240E94EE1780910E01882329F080917B
:1004B000AF0181110C94B9130895CF93DF93EC0130
:1004C0008091B9019091BA0124E030E0281B390BEA
:1004D000220F331F82E090E002C0880F991F2A95F7
:1004E000E2F70E941712C093B901D093BA01CE016E
:1004F000CC30D10514F08BE090E06C2F0E944717B0
:1005000080E090E00E9417128091B9019091BA01A9
:1005100024E030E0281B390B220F331F81E090E0EC
:1005200002C0880F991F2A95E2F7DF91CF910C94B2
:1005300017120F931F93CF93DF93EC01C659DF4F30
:100540000E94C21307E511E61C161D063CF40E942A
:100550006F15C8010197F1F72197F6CFDF91CF9181
:100560001F910F910895EF92FF920F931F93CF93D6
:10057000DF930E94C2130E946018019781F00E94CD
:100580006018892B09F03AC00E94C71306E112E0F7
:10059000C0E0D0E087E5E82E81E6F82E19C008EB30
:1005A0001BE0C0E0D0E097E5E92E91E6F92E0E942D
:1005B0006F15C7010197F1F70E946018892B09F4A4
:1005C000219601501109D9F2CA30D10584F3D7CF51
:1005D0000E946F15C7010197F1F70E9460180197FB
:1005E00009F421960150110949F0CA30D10584F36C
:1005F00080E090E00E94990281E001C080E0DF91FC
:10060000CF911F910F91FF90EF900895CF92DF92BD
:10061000EF92FF920F931F93CF93DF93D82F0E94F7
:100620002C17DD2321F034E6E32EF12C04C020E268
:10063000E22E23E0F22EC0E097E5C92E91E6D92EF6
:10064000C11104C0C7010E94AF1202C00E946A1209
:100650000E94810F8230D1F0843019F0813081F70F
:100660001DC00E943D17DD2329F00E94C21308EC33
:1006700010E003C00E94C713FACF0E946F15C60195
:100680000197F1F701501109C1F705C00E943D170C
:100690000E94B302C82F0E942C17D2CF0E943D1790
:1006A0000E94B302C82F0E942C17CC2359F28091CC
:1006B000B9019091BA0124E030E0281B390B220FD8
:1006C000331F81E090E002C0880F991F2A95E2F75E
:1006D0000E941712DF91CF911F910F91FF90EF9021
:1006E000DF90CF900C943D17EF92FF921F93CF9322
:1006F000DF93182F60910F0180E00E9428110E9463
:100700003D170E946018892B61F0C3E00E94921689
:100710000E944910882381F00E946018019761F4BB
:100720003AC00E94B302882339F0DF91CF911F9124
:10073000FF90EF900C942C17CAE0D0E087E5E82EEC
:1007400081E6F82E0E946F15C7010197F1F72197F6
:10075000C9F70E946018019719F481E00E948A018C
:100760000E946018019721F481E00E94060304C0F2
:1007700080E090E00E94990211110E942C17809154
:100780000F010E94E41710929901DF91CF911F9100
:10079000FF90EF900895C15019F40E942B12FDCFE5
:1007A0000E943F120E942802B1CF2F923F924F9297
:1007B0005F926F927F928F929F92AF92BF92CF92F1
:1007C000DF92EF92FF920F931F93CF93DF9300D0AE
:1007D0001F92CDB7DEB78B838091B90193E0E92EEC
:1007E0008F70D82E0E94FE15182F89830E941B1629
:1007F0001130A1F028F0123019F01330D9F40EC0E6
:100800008C010F5F1F4F003223E01207B0F0CE01C2
:1008100001960E94EE150FE113E00FC08C0101500C
:100820001109003283E0180740F0CE0101960E94C2
:10083000EE1501C0198200E010E089810E94651662
:100840008823E9F08981FD2C90E1899FF00C112427
:10085000025F1F4F6F2DC8010E940524C8010E942E
:10086000FD23F81661F0CE0101960E94EE158981F4
:100870000E946516882319F0EA94E110B3CF0E9414
:100880003D1760910F0180E00E9428110E94C7135C
:1008900087E5E82E81E6F82E06E112E00E946F154A
:1008A000C7010197F1F70E946018892B19F40150D4
:1008B0001109A1F70E946018892B19F480E00E94A9
:1008C0008A010E946018892B21F480E00E940603AF
:1008D000E3CF6CE972E087E598E10E9474151C0192
:1008E00062E373E18CE992E00E94741523E02A83AD
:1008F0002AE6220E311C23EA31E16901C81AD90A1D
:100900000E94C71307E518E187E598E1E12CF12C77
:100910000E941B0E0E944A134B015C018AE6E816F6
:10092000F104E8F02E143F04D0F0B80180E090E02C
:100930000E9418252B013C0120E030E047E254E4FE
:100940000E940B2618165CF42BED39EF4EE75FE39F
:10095000C301B2010E9460260E94E9248B01CE14DB
:10096000DF04D0F4B80180E090E00E9418252B014C
:100970003C0120E030E949E955E40E946B2487FFFF
:100980000BC02BED39EF4EE75FE3C301B2010E94CC
:1009900070240E94E9248B0188E791E00E941D1ECB
:1009A0008134910539F480910F010E94E4170E946F
:1009B0002C1725C00E946F150E944A13800E911EAD
:1009C000C401861B970B2FEFE21AF20A27E7E21603
:1009D00022E1F20609F09CCF0E944910882379F0A9
:1009E0008A8181508A83811103C00E942B12FDCF1E
:1009F0000E943F120E9428020E94921681CF80918D
:100A00000F010E94E4179B8191110E942C1781E035
:100A1000809399010F900F900F90DF91CF911F91CC
:100A20000F91FF90EF90DF90CF90BF90AF909F908D
:100A30008F907F906F905F904F903F902F90089590
:100A4000CF9360910F0180E00E9428110E943D1712
:100A50000E94B302C82F0E942C1780910F010E94A0
:100A6000E4178C2FCF9108958F929F92AF92BF92EF
:100A7000CF92DF92EF92FF920F931F93CF93DF936A
:100A800000D000D0CDB7DEB7F82EE92E80916E01F0
:100A900090916F01809724F58F2D9E2D0E941D1E31
:100AA0008C0197FD23C0682F88E592E00E945C0AC4
:100AB0000D30110519F00A30110511F400E010E0B5
:100AC00080916E0190916F019C012F5F3F4F309399
:100AD0006F0120936E01FC01E25BFE4F008306C0B4
:100AE00010926F0110926E010FEF1FEF1A821982A0
:100AF0001C821B8280916E0190916F01181619065D
:100B00000CF0D0C2012B09F0CDC210926F011092EF
:100B10006E019E012F5F3F4F69013F932F9383EA40
:100B200091E09F938F930EE411E01F930F930E9427
:100B3000761E0F900F900F900F900F900F90181639
:100B400019060CF061C009811A810C30110508F0FA
:100B5000A9C282E090E090939B0180939A0140911A
:100B6000B9015091BA0124E030E0241B350B220F6B
:100B7000331F02C0880F991F2A95E2F70E941712AF
:100B80001093BA010093B90180919901882319F05B
:100B900080E00E9474038091B901682F0E9447177A
:100BA0008091B9019091BA0124E030E0281B390B03
:100BB000220F331F82E090E002C0880F991F2A9510
:100BC000E2F70E94171280919901811103C081E020
:100BD0000E94D50380E090E00E9417128091B90135
:100BE0009091BA0124E030E0281B390B220F331F0B
:100BF00081E090E002C0880F991F2A95E2F70E94D9
:100C000017128FE991E044C2DF92CF928BE991E015
:100C10009F938F931F930F930E94761E0F900F90B8
:100C20000F900F900F900F9018161906C4F4898139
:100C30009A818C30910508F035C2209199012223C8
:100C400039F083E090E090939B0180939A0104C077
:100C50000E945D020E94BC1887E991E019C2DF92F0
:100C6000CF9283E991E09F938F931F930F930E94FC
:100C7000761E0F900F900F900F900F900F901816F8
:100C800019069CF489819A81009729F0019709F04F
:100C900009C282E001C081E080930F0180910F01C1
:100CA0000E949A118FE891E0F3C1DF92CF928BE816
:100CB00091E09F938F931F930F930E94761E0F9046
:100CC0000F900F900F900F900F901816190634F494
:100CD00081E00E94740387E891E098C1DF92CF928F
:100CE00083E891E09F938F931F930F930E94761E4A
:100CF0000F900F900F900F900F900F9018161906ED
:100D000084F489819A81892B09F0CCC198E088E12B
:100D10000FB6F894A895809360000FBE9093600082
:100D2000C1C1DF92CF928FE791E09F938F931F9382
:100D30000F930E94761E0F900F900F900F900F90C0
:100D40000F901816190664F489819A81892B09F08D
:100D5000A9C10E9460189F938F9389E791E022C0F8
:100D6000DF92CF9285E791E09F938F931F930F932C
:100D70000E94761E0F900F900F900F900F900F9083
:100D80001816190684F589819A81009719F481E76C
:100D900091E07EC18130910591F41F928FE68F938F
:100DA0008BE691E09F938F93EF92FF920E945B1EE0
:100DB0000F900F900F900F900F900F9073C1823093
:100DC000910539F481E08F9389EF8F9385E691E067
:100DD000E9CF039709F066C10E94C5159F938F93D1
:100DE0008FE591E0DFCFCE0103969F938F93DF9243
:100DF000CF9288E591E09F938F931F930F930E946A
:100E0000761E0FB6F894DEBF0FBECDBF18161906BA
:100E10006CF489819A810C9708F044C18B819C8184
:100E2000039708F03FC184E591E032C1DF92CF9291
:100E300080E591E09F938F930EE411E01F930F9351
:100E40000E94761E0F900F900F900F900F900F90B2
:100E5000181619060CF040C089819A81892B09F077
:100E600021C10E943D170E94C71360910F0180E0CD
:100E70000E94281102E013E082E393E1A0E0B0E0D9
:100E80000E941B0E0E944A134B015C0188E791E00F
:100E90000E941D1E8134910549F480910F010E942A
:100EA000E4170E942C178CE491E0F2C00E946F15A9
:100EB0000E944A1352E3850E53E1951EA11CB11CFA
:100EC000A5019401261B370B480B590BDA01C90108
:100ED00001501109A9F6E1CFDF92CF9288E491E0A9
:100EE0009F938F931F930F930E94761E0F900F90E6
:100EF0000F900F900F900F90181619060CF04AC023
:100F000009811A810C30110508F0CCC01093BA0188
:100F10000093B9010930110524F433E0D32ED00E2B
:100F200002C02CE0D22E80919901882319F081E033
:100F30000E94740360910F0180E00E9428116D2DC2
:100F4000802F0E9447170E943D170E94C71302E896
:100F500012E093ECC92E9CE4D92E0E946F15C601B5
:100F60000197F1F701501109C1F70E942C178091E8
:100F70000F010E94E41784E491E09F938F93EF9216
:100F8000FF920E945B1E82E090E090939B01809311
:100F90009A0184C0DF92CF9280E491E09F938F9377
:100FA0001F930F930E94761E0F900F900F900F903B
:100FB0000F900F9018161906A4F589819A81892B34
:100FC00009F070C060910F0180E00E9428110E941A
:100FD0003D170E94C21302E812E083ECC82E8CE495
:100FE000D82E0E946F15C6010197F1F70150110923
:100FF000C1F70E942C178091B901682F0E944717F2
:1010000080910F010E94E4178CE391E09F938F93EE
:10101000EF92FF920E945B1E10929B0110929A0128
:101020003DC0DF92CF9288E391E09F938F931F930F
:101030000F930E94761E0F900F900F900F900F90BD
:101040000F90181619065CF489819A81892B51F545
:1010500084E090E090939B0180939A0123C0DF92FB
:10106000CF9284E391E09F938F931F930F930E94FD
:10107000761E0F900F900F900F900F900F901816F4
:10108000190684F489819A810C9760F480E391E0D9
:101090009F938F93EF92FF920E945B1E0F900F9091
:1010A0000F900F900F900F900F900F90DF91CF91B6
:1010B0001F910F91FF90EF90DF90CF90BF90AF9076
:1010C0009F908F9008958091B9019091BA0124E08A
:1010D00030E0281B390B220F331F81E090E002C063
:1010E000880F991F2A95E2F70E9417120E94810F1C
:1010F000857031F168EC70E080E090E00E94260E8F
:101100000E94810F813019F0843051F013C080911A
:10111000B9019091BA018C30910564F4019608C030
:101120008091B9019091BA01181619061CF4019723
:101130000E945D0268EC70E080E090E00E94260E64
:101140008091B9019091BA010C97A1F482E090E0EE
:101150000E94171262E370E080E090E00E94260E89
:1011600081E090E00E94171262E370E080E090E07E
:101170000C94260E089540917201509173012091B4
:1011800070013091710142175307B4F49091E80057
:101190009570E1F39091E80092FD19C08093F10001
:1011A000809172019091730101968F739927892B19
:1011B00019F48EEF8093E800809172019091730191
:1011C0000196909373018093720181E0089580E00D
:1011D0000895DF92EF92FF920F931F93CF93DF93C7
:1011E000D82EF92EE42E062F10E0C8010196880FA4
:1011F0000E94BB0883E00E94BB08CD2DDF2D0C0FA1
:101200001D1FC017D10789F0E7FE03C0FE018491BE
:1012100001C088810E94BB08F82E80E00E94BB08B4
:101220008F2121968111EDCF01C081E0DF91CF9117
:101230001F910F91FF90EF90DF900895DF92EF9252
:10124000FF920F931F93CF93DF93D82E8A017B01D8
:10125000E40EF51EEB01CE15DF0571F0D7FE03C0DD
:10126000FE01849101C088810E94BB0821968111F2
:10127000F2CF8FEF9FEF01C0C801DF91CF911F9197
:101280000F91FF90EF90DF900895615030F0209122
:10129000F100FC0120830196F8CF289884E6809322
:1012A000B7010895CF92DF92EF92FF920F931F93B1
:1012B000CF93DF936C017A018B01C0E0D0E0CE15B3
:1012C000DF0581F0D8016D918D01D601ED91FC9182
:1012D0000190F081E02DC6010995892B11F021962E
:1012E000EECF7E01C701DF91CF911F910F91FF904B
:1012F000EF90DF90CF900895FC01538D448D252F02
:1013000030E0842F90E0821B930B541710F0CF969F
:10131000089501970895FC01918D828D981761F0D1
:10132000828DDF01A80FB11D5D968C91928D9F5F1C
:101330009F73928F90E008958FEF9FEF0895FC01C7
:10134000918D828D981731F0828DE80FF11D858D7A
:1013500090E008958FEF9FEF0895FC01918D228D0D
:10136000892F90E0805C9F4F821B91098F73992792
:1013700008958BEB91E00E94AD0921E0892B09F4DF
:1013800020E0822F0895FC01848DDF01A80FB11D9C
:10139000A35ABF4F2C91848D90E001968F739927AB
:1013A000848FA689B7892C93A089B1898C91827486
:1013B0008C93938D848D981306C00288F389E02D59
:1013C00080818F7D80830895EF92FF920F931F930A
:1013D000CF93DF93EC0181E0888F9B8D8C8D9813E8
:1013E00005C0E889F989808185FD26C0F62E0B8D20
:1013F00010E00F5F1F4F0F731127E02E8C8DE81246
:101400000CC00FB607FCFACFE889F989808185FF07
:10141000F5CFCE010E94C309F1CF8B8DFE01E80FFD
:10142000F11DE35AFF4FF0829FB7F8940B8FEA89C2
:10143000FB898081806209C09FB7F894EE89FF899B
:101440006083E889F9898081827480839FBF81E00D
:1014500090E0DF91CF911F910F91FF90EF90089551
:10146000CF93DF93EC01888D8823C9F0EA89FB894B
:10147000808185FD05C0A889B9898C9186FD0FC042
:101480000FB607FCF5CF808185FFF2CFA889B98917
:101490008C9185FFEDCFCE010E94C309E7CFDF918C
:1014A000CF91089580E090E0892B29F00E94B9093E
:1014B00081110C9400000895CF93DF931F92CDB754
:1014C000DEB76983DC01ED91FC910280F381E02DB0
:1014D00041E050E0BE016F5F7F4F09950F90DF91B3
:1014E000CF91089583E08093E9008091F2008823F2
:1014F00019F08AE38093E8000895FC0184859585BE
:1015000097FD0BC09FB7F89482E08093E90080912B
:10151000F2009FBF90E0019608959FB7F89482E093
:101520008093E9008091F2009FBF90E008950895B4
:1015300080E090E008950F931F93CF93DF931F9265
:10154000CDB7DEB782E0898342E450E067EA71E01C
:1015500080E80E941E090E948219DC0112960D91FA
:101560001C9113970115110589F0D801ED91FC919B
:101570000280F381E02DBE016F5F7F4FC8010995A6
:1015800097FD04C0F80100851185ECCF89810F908B
:10159000DF91CF911F910F9108950E94711990E0F2
:1015A00008950F931F93CF93DF931F92CDB7DEB7AC
:1015B0008C01FC018485958597FF0EC0CE010196B4
:1015C0000E944319019719F4898190E002C08FEFBE
:1015D0009FEFF80195878487F801848595850F90A2
:1015E000DF91CF911F910F910895CF93DF931F92B9
:1015F000CDB7DEB7FC018485958597FD05C02FEF3B
:101600003FEF358724870BC0CE0101960E94431916
:10161000019719F4898190E002C08FEF9FEF0F903E
:10162000DF91CF9108951F920F920FB60F92112460
:101630008F939F938091E1009091E100937F90932D
:10164000E10083FF0FC01092E90091E09093EB005E
:101650001092EC0092E39093ED001092B80198E0A4
:101660009093F00082FF20C093E09093E900909166
:10167000F200992319F09AE39093E8009091750194
:10168000992339F0909175019150909375019923A8
:1016900089F19091B701992339F09091B701915058
:1016A0009093B701992341F184FF10C08091E2002B
:1016B0008E7E81608093E2008091E1008F7E809336
:1016C000E100809176018E7E806111C080FF16C09E
:1016D0008091E2008E7E80618093E2008091E10043
:1016E0008E7E8093E100809176018E7E8160809372
:1016F000760104C05D9ACDCF289AD6CF9F918F9165
:101700000F900FBE0F901F9018951F920F920FB65B
:101710000F921124CF92DF92EF92FF920F931F93BB
:101720002F933F934F935F936F937F938F939F93E9
:10173000AF93BF93EF93FF93CF93DF93CDB7DEB714
:101740006C97DEBFCDBF1092E9008091E80083FF67
:10175000FBC168E0CE0145960E94450982EF809367
:10176000E8008D8987FF05C09091E80090FFFCCFCD
:1017700003C09EEF9093E800982F907609F0C6C0C2
:101780009E894F89588D2F89F88C91110CC0803813
:1017900029F4809177018093F10002C01092F1004A
:1017A0001092F10045C1913051F4811141C1413095
:1017B000510509F03DC1809177018D7F0BC09330B9
:1017C00061F4811135C14130510509F031C1809179
:1017D00077018260809377012BC1953049F4809125
:1017E000E80080FFFCCF822F80688093E30020C157
:1017F000963009F05EC00B8D1C8D22E01092E9003E
:101800001092730110927201F21232C010927101A3
:10181000109270010E949B0A99E0BE016F5F7F4F9A
:10182000DB01E92F1D92EA95E9F79983FA8291E0AD
:101830009E8390EA98879AEF998720917201309160
:101840007301275F3F4F3C832B838D831092E90008
:101850001092730110927201109371010093700144
:1018600049E050E080E00E941E090E949B0AE0C00F
:1018700010937101009370010E948219DC0112968D
:101880000D911C9113970115110509F4BBC0D801E6
:10189000ED91FC910480F581E02DBE016B5E7F4FE0
:1018A000C8010995009709F0C7C0F80100851185A6
:1018B000EACF973009F445C1983021F481E0809354
:1018C000F100B6C0993009F0B3C0837009F039C196
:1018D000E1E1F1E081E031E096E32081211109C0EE
:1018E0008EE78093EA001092EA008F898093B80116
:1018F0009FC08093E9003093EB0021912093EC008E
:101900009093ED008F5F873041F7EACF8B8D9C8DF0
:101910001092E9001092730110927201909371017C
:1019200080937001898D811153C08E899D89913A70
:1019300049F4813209F005C147E050E064E071E00C
:1019400080E0BBC0913209F0FCC0833269F48F891A
:10195000988DA0E0B0E08093000190930101A093E6
:101960000201B093030164C0803269F48091E80001
:1019700082FFFCCF67E084E091E00E9445098BEF95
:101980008093E80055C0823209F052C08F8980935D
:101990000B01EEEFFFE7859194918B3F9C4D19F081
:1019A000E0E0F8E002C0EEEFFAE0809104019091EF
:1019B0000501A0910601B0910701803B9440A1056B
:1019C000B10509F09EC080910B0180FF79C099C0DC
:1019D0000E948219FC01028113810115110509F48D
:1019E000B0C0D801ED91FC910190F081E02DBE01D5
:1019F0006B5E7F4FC801099581111AC0F8010085FF
:101A00001185EBCFF1E0FF1609F44EC0F3E0FF12B1
:101A100098C08F89882309F44AC0823089F440E84D
:101A200060E387E092E00E94E908882309F489C016
:101A30008EEF8093E80088C018161906CCF381C099
:101A4000813029F440E867E08FEF91E0ECCF8330FC
:101A500009F077C00E948219DC011296ED90FC908B
:101A600013978E010F5F1F4F6801E114F10479F0A5
:101A7000D701ED91FC910680F781E02DB801C701F7
:101A80000995080F111DF701E084F184EECFD8010C
:101A90001C92F60101900020E9F73197BF016C1903
:101AA0007D0940E0C601BFCF6DEE71E002C069EE76
:101AB00071E0FB01449150E080E80E941E09B8CF1C
:101AC000EE3F2AE0F20751F0808191818737A7E746
:101AD0009A0721F09093FF0A8093FE0A87E797E721
:101AE0009183808380916000809374019BE088E102
:101AF0000FB6F894A895809360000FBE9093600095
:101B000097CF808191818737974709F091CFA8952A
:101B1000809160008861809360008091740180935F
:101B20006000EE3FBAE0FB0739F08091FE0A909129
:101B3000FF0A918380837CCF1092FF0A1092FE0AE5
:101B400077CF81E28093EB006C960FB6F894DEBFFE
:101B50000FBECDBFDF91CF91FF91EF91BF91AF91BC
:101B60009F918F917F916F915F914F913F912F91B5
:101B70001F910F91FF90EF90DF90CF900F900FBECD
:101B80000F901F9018951F920F920FB60F9211246D
:101B90002F933F934F935F936F937F938F939F9375
:101BA000AF93BF93EF93FF938BEB91E00E94C30938
:101BB000FF91EF91BF91AF919F918F917F916F9125
:101BC0005F914F913F912F910F900FBE0F901F90FB
:101BD00018951F920F920FB60F9211242F938F9387
:101BE0009F93EF93FF93E091CB01F091CC01808123
:101BF000E091D101F091D20182FD12C090818091DB
:101C0000D4018F5F8F732091D501821751F0E0913D
:101C1000D401F0E0E554FE4F958F8093D40101C0CC
:101C20008081FF91EF919F918F912F910F900FBE27
:101C30000F901F9018958230910538F0880F991FEA
:101C4000880F991F05970197F1F708958F929F923A
:101C5000AF92BF92CF92DF92EF92FF926B017C0125
:101C60000E944A134B015C01C114D104E104F10448
:101C7000F1F00E944A13DC01CB0188199909AA09E5
:101C8000BB09883E9340A105B10570F321E0C21A5B
:101C9000D108E108F10888EE880E83E0981EA11CA7
:101CA000B11CC114D104E104F10419F7DDCFFF9098
:101CB000EF90DF90CF90BF90AF909F908F9008955E
:101CC0008F929F92AF92BF92CF92DF92EF92FF924C
:101CD0000F931F93CF93DF936C017B018A01809157
:101CE0000B01882309F45CC08091B801882309F4B2
:101CF00057C08091760180FF05C08091E00082602E
:101D00008093E000E801B12C8AEFA82E93E0892EA1
:101D10002AE3922E209711F4BB20D9F10E94711969
:101D200081110AC0AA94AA20D9F161E070E080E094
:101D300090E00E94260EEECF282F30E0C217D30786
:101D40000CF48C2F9FB7F8948092E9002091E80062
:101D500025FF1DC0282F30E0C21BD30BF701815097
:101D600020F041914093F100FACFE20EF31EBB2028
:101D700019F09092E8000AC08091E80085FD07C044
:101D80009092E800BB24B394209709F0B12C9FBF38
:101D9000C1CF5D9884E6809375011016110644F05A
:101DA00081E090E0F6019383828380E090E001C0BF
:101DB000C801DF91CF911F910F91FF90EF90DF90BD
:101DC000CF90BF90AF909F908F900895CF92DF9269
:101DD000EF92FF929CE59CBD1DBC813039F020F054
:101DE000823029F42F9803C0469801C05F986EBDD9
:101DF0000DB407FEFDCF9EB5C52EDD24EE24FF24D5
:101E0000CEBC0DB407FEFDCF9EB56A01EE24FF24C3
:101E1000CEBC0DB407FEFDCF9EB5C32ED42EE52E4D
:101E2000FF24CEBC0DB407FEFDCF9EB52EBD0DB474
:101E300007FEFDCF9EB5813039F020F0823029F4C5
:101E40002F9A03C0469A01C05F9AFF90EF90DF90EF
:101E5000CF9008959C0188E036952795211531058E
:101E600011F08150C9F708951F93CF93DF93182F76
:101E7000D42FC22F262F2F70822F90E0A0E0B0E049
:101E8000B82FAA27992788279C01AD01C03280F47A
:101E9000236D436050616CEE812F0E94E60EDF716E
:101EA0008D2F90E0A0E0B0E0AC01BD016F6012C0EA
:101EB000236D416050616CEE812F0E94E60ED69535
:101EC000DF718D2F90E0A0E0B0E0AC01BD016F604C
:101ED000C695CF718C2F90E0D82FCC27CE01DD0F87
:101EE000AA0BBB0B9A01AB01282B392B4A2B5B2B7E
:101EF00060E9812F0E94E60E80E0DF91CF911F9173
:101F00000895EAE3F2E0E49120917B00E3FB882767
:101F100080F990E035E0880F991F3A95E1F7922F0C
:101F20009F7D892B80937B00E770E064E0937C00C9
:101F300080917A00806480937A0080917A0086FD97
:101F4000FCCF809178002091790090E0922B823331
:101F5000910564F09C01215531092331310540F090
:101F6000815A9109439730F080E0089581E0089507
:101F700082E0089584E00895CF930E94810FC82FD6
:101F8000882321F00E94810F8111FCCF8C2FCF91EB
:101F900008950F931F939CE59CBD1DBC813039F0C3
:101FA00020F0823029F42F9803C0469801C05F9832
:101FB0006EBD0DB407FEFDCF9EB51EBC0DB407FE71
:101FC000FDCF9EB51EBC0DB407FEFDCF9EB51EBC59
:101FD0000DB407FEFDCF9EB51EBC0DB407FEFDCFB0
:101FE0009EB5813039F020F0823029F42F9A03C059
:101FF000469A01C05F9A9CE59CBD1DBC813039F0BA
:1020000020F0823029F42F9803C0469801C05F98D1
:102010001EBC0DB407FEFDCF9EB51EBC0DB407FE61
:10202000FDCF0EB510E020E030E0322F212F102F31
:1020300000271EBC0DB407FEFDCF6EB5062B322F58
:10204000212F102F00271EBC0DB407FEFDCF6EB54B
:10205000062B322F212F102F00271EBC0DB407FE98
:10206000FDCF6EB5062B813039F020F0823029F497
:102070002F9A03C0469A01C05F9A4115510529F075
:10208000FA010083118322833383892F1F910F91DB
:102090000895CF92DF92FF920F931F93CF93DF9318
:1020A00000D000D0CDB7DEB700E010E0F12CCC249A
:1020B000C394D12CAE014F5F5F4F61E0802F0E942F
:1020C000C90F89819A81AB81BC8187709927AA2722
:1020D000BB27892B8A2B8B2B39F0C601002E01C020
:1020E000880F0A94EAF7F80E0F5F1F4F03301105AF
:1020F00009F78F2D0F900F900F900F90DF91CF91D8
:102100001F910F91FF90DF90CF9008951F93CF9371
:10211000DF93C82FD62F142F813031F028F0823072
:1021200041F480E190E002C082E090E00E942A0F3A
:1021300001C080E1212F4D2F682F8C2F0E94340F7A
:10214000D82F81112DC020E030E0A90161E98C2F4A
:102150000E94E60EC33030F4EC2FF0E0EA5DFE4F53
:10216000208101C024E0822F220F990BAA0BBB0B08
:10217000AC01332722276DEE8C2F0E94E60E22EC55
:1021800031E040E050E064E98C2F0E94E60E20E848
:1021900031E340E050E060E88C2F0E94E60E01C081
:1021A000DFEF8D2FDF91CF911F9108951F93CF9374
:1021B000DF93C82FD62F142F813031F028F08230D2
:1021C00041F480E190E002C082E090E00E942A0F9A
:1021D00001C080E1212F4D2F682F8C2F0E94340FDA
:1021E000D82F81112FC020E030E0A90161E98C2FA8
:1021F0000E94E60E20E030E044E050E06DEE8C2FCF
:102200000E94E60E20E030E0A90164E98C2F0E94D4
:10221000E60E24E030E040E050E060E88C2F0E94C1
:10222000E60E22ED36E046E050E060EF8C2F0E9493
:10223000E60E28EC30E040E050E063E98C2F0E948D
:10224000E60E01C0DFEF8D2FDF91CF911F91089532
:10225000CF93DF93CDB7DEB72F970FB6F894DEBFDD
:102260000FBECDBF20911701309118014091190187
:1022700029833A834B8320911A0130911B014091AD
:102280001C012C833D834E8320911D0130911E0142
:1022900040911F012F833887498720912001309179
:1022A0002101409122012A873B874C8720912301FD
:1022B00030912401409125012D873E874F87613061
:1022C000E1F098F0623061F5282F30E0FE01E20F76
:1022D000F31F448162852F960FB6F894DEBF0FBEC0
:1022E000CDBFDF91CF910C94D610282F30E0FE01A6
:1022F000E20FF31FDF01458507C0282F30E0FE0104
:10230000E20FF31FDF01418117966C912F960FB6F4
:10231000F894DEBF0FBECDBFDF91CF910C94861035
:1023200080E02F960FB6F894DEBF0FBECDBFDF91D1
:10233000CF9108951F93CF93DF93182F3E9A579A0A
:10234000279A469A5F9A2F9A549A249A569A5C989A
:102350002C985E98682F80E00E94281121E030E0E0
:10236000811102C020E030E0CC27DD27C21BD30B57
:10237000612F81E00E942811811102C020E001C07C
:102380002EEFC20F612F82E00E94281181118CEF85
:102390008C0FDF91CF911F9108952091860130918C
:1023A0008701C90184709927AC0156954795C901E9
:1023B000807199279695879596958795842B21709E
:1023C000822B08952E98000020E130E040E050E894
:1023D000BC0164237523672B11F02D9A01C02D9841
:1023E000479A0000479800005695479521503109BB
:1023F00079F72E9A000090938701809386010895C3
:10240000282F2270922F990F282F2470220F220F2D
:10241000292B8170282B022E000C330B8091860112
:10242000909187018A7E822B932B0C94E21120914C
:102430008601309187012F733327582F4427242B8F
:10244000352B882793709695879596958795822B3F
:10245000932B0C94E2118FEF93E00E9417126CE221
:1024600071E080E090E00E94260E80E090E00E9403
:1024700017126CE271E080E090E00C94260E0F934E
:102480001F93CF93DF930E942B120E942B120E9466
:102490002B120E94C5158F3F2FEF9207B1F0EC0170
:1024A00021966C2F61500C2F017010E0C801815DE6
:1024B0009C4F0E9405246D2F61508EE293E0DF91C6
:1024C000CF911F910F910C940524DF91CF911F9113
:1024D0000F910895CF93DF9380E090E00E94171250
:1024E00060E273E080E090E00E94260EC4E0D0E05D
:1024F0008091B9019091BA019E01281B390B220FDE
:10250000331F81E090E002C0880F991F2A95E2F7FF
:102510000E94171264E670E080E090E00E94260EB0
:102520008091B9019091BA01C81BD90BCC0FDD1F66
:1025300082E090E002C0880F991FCA95E2F70E94DE
:10254000171264E670E080E090E00E94260E60E2E0
:1025500073E080E090E0DF91CF910C94260ECF9253
:10256000DF92EF92FF926C0180E090E00E941712E0
:10257000E12CF12CC701B6010E94260E8091B90111
:102580009091BA0124E030E0281B390B220F331F51
:1025900082E090E002C0880F991F2A95E2F70E941E
:1025A0001712C701B601FF90EF90DF90CF900C9407
:1025B000260E8AEA92E00E9417126CE271E080E037
:1025C00090E00E94260E80E090E00E9417126CE2DC
:1025D00071E080E090E00C94260ECF93DF93880F9B
:1025E000991FC1E0D0E002C0CC0FDD1F8A95E2F751
:1025F000CE010E94171268E270E080E090E00E9435
:10260000260E80E090E00E94171264E170E080E006
:1026100090E00E94260ECE010E94171268E270E040
:1026200080E090E00E94260E80E090E00E94171269
:102630006AE070E080E090E0DF91CF910C94260E8C
:102640008BEB91E00C948B09682F8BEB91E00E944F
:10265000E40980E090E0089588E592E00C94F50AA2
:10266000682F88E592E00E945C0A80E090E008957F
:10267000CF93C3E00E944910882351F0C15019F450
:102680000E942B12FDCF0E943F120E942802F2CF1F
:10269000CF9108953FB7F8948091B3019091B40120
:1026A000A091B501B091B60126B5A89B05C02F3FFA
:1026B00019F00196A11DB11D3FBFBA2FA92F982F68
:1026C0008827820F911DA11DB11DBC01CD0142E0E3
:1026D000660F771F881F991F4A95D1F708951F929B
:1026E0000F920FB60F9211242F933F938F939F93C6
:1026F000AF93BF938091950190919601A09197011E
:10270000B09198013091B20123E0230F2D3720F4CE
:102710000196A11DB11D05C026E8230F0296A11D3B
:10272000B11D2093B2018093950190939601A093DF
:102730009701B09398018091B3019091B401A09159
:10274000B501B091B6010196A11DB11D8093B301F1
:102750009093B401A093B501B093B601BF91AF912E
:102760009F918F913F912F910F900FBE0F901F90CF
:10277000189560E070E088E191E00E94EE171092F9
:10278000AF0108950E94CD118E7F0C9400120E941B
:10279000CD1181600C9400126F927F928F929F9264
:1027A000AF92BF92CF92DF92EF92FF920F931F935F
:1027B000CF93DF9300D000D0CDB7DEB780E00E948A
:1027C0009A11E3E0CE2ED12CA12CB12C00E010E028
:1027D00060E070E086EF9FEF0E94EE1764EF71E01B
:1027E00080E090E00E94260E83E0C816D10421F418
:1027F00070EE672E712C03C060E1662E712C882468
:102800008394912CE12CF12C60E070E081E090E069
:102810000E94EE1719821A821B821C82AE014F5F42
:102820005F4F6FE682E00E94C90F89819A81AB8178
:10283000BC816E147F041CF49370409790F10F5F7D
:102840001F4F88EEE81683E0F80669F48FEFA81AA8
:10285000B80A0536110554F48FEFE81AF80A8FEF1D
:10286000881A980AD1CF05361105ACF081E090E0C6
:102870009501220F331F02C0880F991F2A95E2F796
:102880000E941712093C110534F080E090E00E948C
:10289000171200E010E088EB88168BE09806E1F64E
:1028A0000AC084E5E8168BE0F8062CF481E0C81A2B
:1028B000D10809F08DCF60E070E08FED9FEF0E94AE
:1028C000EE1780910F010E949A1164EF71E080E091
:1028D00090E00E94260E60E070E088EE9EEF0E947D
:1028E000EE1781E08093AF010F900F900F900F9043
:1028F000DF91CF911F910F91FF90EF90DF90CF90DC
:10290000BF90AF909F908F907F906F9008956F923F
:102910007F928F929F92AF92BF92CF92DF92EF926F
:10292000FF920F931F93CF93DF9300D000D0CDB7CA
:10293000DEB70E94CC130E946018019701F50E9437
:10294000810F8130C1F30E946018019719F40E9431
:10295000D912F5CF85E591E00E9417126CE271E083
:1029600080E090E00E94260E80E090E00E94171226
:102970006CE271E080E090E00E94260EE0CF80E003
:102980000E949A1164E9A62EBB24BA9472E0C72E65
:10299000D12C00E010E0E7E06E2E712C62E370E0D5
:1029A00080E090E00E94260E88248394912CE12CF4
:1029B000F12C61E070E080E090E00E94EE17198257
:1029C0001A821B821C82AE014F5F5F4F6FE681E06F
:1029D0000E94C90F89819A81937021E1E216F10466
:1029E00010F0059788F10F5F1F4F88EBE8168BE01A
:1029F000F80669F42FEFC21AD20A0536110554F40D
:102A00008FEFE81AF80A2FEF821A920AD2CF053612
:102A10001105ACF081E090E09601220F331F02C057
:102A2000880F991F2A95E2F70E941712093C110599
:102A300034F080E090E00E94171200E010E080EA9D
:102A400088168FE09806E1F621E0621A710849F0D5
:102A5000B50180E090E00E94EE1722E1A20EB11CC9
:102A60009DCF67E57FEE80E090E00E94EE178091B9
:102A70000F010E949A1164EF71E080E090E00E94E3
:102A8000260E85E591E00E94171280E090E00E94FA
:102A900017128091B9019091BA0124E030E0281B0F
:102AA000390B220F331F81E090E002C0880F991F7D
:102AB0002A95E2F70E9417120F900F900F900F9037
:102AC000DF91CF911F910F91FF90EF90DF90CF900A
:102AD000BF90AF909F908F907F906F9008952C9AA9
:102AE00000002C98000008958F929F92AF92BF92A1
:102AF000CF92DF92EF92FF920F931F93CF93DF93CA
:102B0000EC018B014B01072E000CAA08BB088617AD
:102B100097074CF4BC01990F880B990B0E941A255A
:102B20006B017C010EC0C501B4010E941A256B0126
:102B30007C010C171D072CF4BE01DD0F880B990BCF
:102B400002C0C501B4010E941A259B01AC01C70156
:102B5000B6010E9470240E9418262AEC35E543E84D
:102B60005BEB0E9470240E9454240E94E224CB015B
:102B7000DF91CF911F910F91FF90EF90DF90CF9059
:102B8000BF90AF909F908F9008951F93CF93DF9346
:102B90008EE293E00E94FD238F5FC82FD0E0DC2FF0
:102BA000CC278FE293E00E94FD23182F80E393E06F
:102BB0000E94FD231F3F11F4882339F0811718F478
:102BC00081E0810F03C08F5F01C081E09E01280F6B
:102BD000311DC901DF91CF911F910895FC018081C2
:102BE000813039F020F0823031F01082089581E098
:102BF00003C082E001C083E080830895CF93DF9318
:102C00008BE090E00E94FD23D82F8CE090E00E94A2
:102C1000FD23C82FD81759F08DE090E00E94FD23C6
:102C2000D81721F0C81719F0CFEF01C0CD2F8C2F86
:102C3000DF91CF9108950F931F93CF93DF930E945D
:102C4000FE15813011F128F0823019F08330B1F592
:102C50001CC0C0E0D0E0082F10E0CE010E960E940C
:102C6000FD2390E034E0959587953A95E1F70817B4
:102C7000190719F0CE01019723C02196C03283E0D5
:102C8000D80759F78FE193E01BC0CFE1D3E0082FBD
:102C900010E0CE010E960E94FD2390E024E0959571
:102CA00087952A95E1F70817190719F0CE010196C3
:102CB00007C0219770F780E090E002C08FEF9FEF90
:102CC000DF91CF911F910F910895CF93C82F682F57
:102CD0008BE090E00E9405246C2F8CE090E00E9435
:102CE00005246C2F8DE090E00E9405240E94FE15C3
:102CF00091E0C81390E0892FCF910895CF93DF938F
:102D0000C0E0D0E06FEFCE010E9405242196CF3FB6
:102D100083E0D807B9F76FEF8FEF93E0DF91CF91A2
:102D20000C9405243F924F925F926F927F928F9204
:102D30009F92AF92BF92CF92DF92EF92FF920F934A
:102D40001F93CF93DF936CE972E087E598E10E94CF
:102D500074157C0167E578E18CE992E00E947415B6
:102D60005C010E94C213C7E5D8E187E598E108E15C
:102D700013E1312C28ED31E149018E189F0820EC38
:102D8000A21A2EEFB20A0E941B0E0E944A136B0178
:102D90007C010E946F1580169106D0F4BE0180E080
:102DA00090E00E9418252B013C0120E030E047E232
:102DB00054E40E940B2618165CF42BED39EF4EE715
:102DC0005FE3C301B2010E9460260E94E924EB0187
:102DD0000A151B05D0F4BE0180E090E00E94182582
:102DE0002B013C0120E038EB42EC55E40E946B24BF
:102DF00087FF0BC02BED39EF4EE75FE3C301B20154
:102E00000E9470240E94E924EB010E946018892B23
:102E100009F433940E944A13CC0EDD1EC601861BB2
:102E2000970B0150110929E0231520F00115110518
:102E300009F0A9CFDF91CF911F910F91FF90EF90F3
:102E4000DF90CF90BF90AF909F908F907F906F90CA
:102E50005F904F903F90089510920E018091AF01C6
:102E6000811109C060E070E088EE9EEF0E94EE17CD
:102E700081E08093AF010C94381381E080930E01C0
:102E80008091AF0181110E94B9130C943813DF9225
:102E9000EF92FF920F931F93CF93DF93E82ED62EDE
:102EA0008091880190E08E19910920EE289F800181
:102EB000299F100D1124262F30E08091B10190E060
:102EC0002C30310569F40C9721ED3EEF829FE00133
:102ED000839FD00D929FD00D1124CE53DE4F1AC088
:102EE000AC01421B530B0C9761F481ED9EEF489FA0
:102EF000E001499FD00D589FD00D1124C25CD140F4
:102F000009C081ED9EEF489FE001499FD00D589F79
:102F1000D00D11248091B001811109C00E94871445
:102F20001092B1011092880181E08093B0010115E7
:102F3000110519F4209709F43FC083E0F82EBE0173
:102F4000C8010E94EE17E0928801D092B1010E9460
:102F50004910882389F1FA94F11003C00E942B12C2
:102F6000FDCF0E943F12109288011092B101809112
:102F70008601909187018A620E94E2116AE070E006
:102F800080E090E00E94260E80918601909187015A
:102F9000857D0E94E21180910F010E949A110E948A
:102FA000871480910E01882351F28091AF0188230C
:102FB00031F20E94B913C3CFDF91CF911F910F91CE
:102FC000FF90EF90DF90089540E060E0823019F4C8
:102FD00080E00C94D61080E00C948610DF92EF9283
:102FE000FF920F931F93CF93DF93EC018B0197FF19
:102FF00004C0882799278C1B9D0B029764F4C80195
:1030000017FF04C088279927801B910B02971CF497
:10301000E12CF12C03C090E8E92EF12C1C161D06C2
:1030200024F40E94CD118B7F06C0D195C195D109A2
:103030000E94CD1184600E94001217FF07C01195F5
:10304000019511090E94CD118D7F03C00E94CD1101
:1030500082600E9400120E94C7138AE0D82E209737
:1030600009F05E9A0115110509F05C9A000020979D
:1030700011F05E9821970115110519F05C98015027
:103080001109000080E894E00E941B0EE114F10495
:1030900051F0DE9CC001DF9C900D11240E941B0E9C
:1030A00081E0E81AF10801151105C9F62097B9F673
:1030B000DF91CF911F910F91FF90EF90DF900895D6
:1030C000E2EBF2E04491E3E9F2E09491E4E7F2E02C
:1030D0008491882309F44DC04423E1F150E0FA01C2
:1030E0003197EF30F105B0F5EA5AFF4F0C946127A4
:1030F000209180002F7707C0209180002F7D03C092
:1031000020918000277F2093800024C024B52F7752
:1031100002C024B52F7D24BD1DC0209190002F77C3
:1031200007C0209190002F7D03C020919000277F41
:10313000209390000FC02091C0002F7703C02091F2
:10314000C0002F7D2093C00005C02091C200277FC2
:103150002093C200E82FF0E0EE0FFF1FED5AFD4F65
:10316000A591B491EC91E92381E090E021F480E015
:10317000089580E090E00895AF92BF92CF92DF92E1
:10318000EF92FF920F931F93CF93DF930E943D170F
:103190000E94C71300910F014FE061E080E0013011
:1031A00081F40E94861010E0D0E0C0E034E0C32E2D
:1031B000D12C42E0A42EB12C57E5E52E51E6F52E98
:1031C00026C00E94D610EFCF8091B9019091BA012C
:1031D0009601281B390BC901880F991F950102C060
:1031E000220F331F8A95E2F7C9010E941712C536D4
:1031F000A0F40E946018019709F41F5F1A30D0F400
:103200000E94810F811112C0C7010197F1F70E943E
:103210006F15CF5FC33368F3D7CF80E090E00E9493
:103220001712D23008F4DF5FC0E0E3CFDD2361F393
:10323000C0E005C084E190E00E949902C1E0802FC7
:103240000E94E4170E942C178091B9019091BA0155
:1032500024E030E0281B390B220F331F81E090E07F
:1032600002C0880F991F2A95E2F70E9417128C2F2F
:10327000DF91CF911F910F91FF90EF90DF90CF9052
:10328000BF90AF9008952091B801211103C08FEF36
:103290009FEF08955FB7F89422E02093E900209112
:1032A000F20030E01216130614F421E030E0422F51
:1032B000FC0184E6415038F028988093B701909142
:1032C000F1009193F7CF2115310521F08091F200A3
:1032D000882319F05FBFC90108958BE68093E80049
:1032E000F9CF2FB7F89483E08093E9009091E8003C
:1032F000892F807295FF04C09091F20080E4891BB1
:103300002FBF08958091AC0281110DC082E080939F
:10331000A80284E08093A9021092AB021092AA0244
:1033200081E08093AC0288EA92E00895CF93DF9326
:1033300000D000D0CDB7DEB7789484B5826084BD6C
:1033400084B5816084BD85B5826085BD85B58160A9
:1033500085BD80916E00816080936E001092810027
:1033600080918100826080938100809181008160E2
:1033700080938100809180008160809380008091A3
:103380009100826080939100809191008160809390
:103390009100809190008160809390008091C100A5
:1033A00084608093C1008091C10082608093C100DD
:1033B0008091C10081608093C1008091C3008160D1
:1033C0008093C3008091C00082608093C000809190
:1033D000C20081608093C20080917A0084608093F3
:1033E0007A0080917A00826080937A0080917A00DE
:1033F000816080937A0080917A00806880937A005F
:103400001092B80110927701109276018091D70046
:1034100081608093D70080EA8093D80089B580616D
:1034200089BD89B5826089BD09B400FEFDCF61E028
:1034300070E080E090E00E94260E8091D8008F7CA2
:1034400080618093D8008091E000807F8093E000CD
:103450008091E1008E7E8093E1008DE08093E20018
:10346000559A209A8FEF93E00E94FD238F3F11F031
:103470000E947E163F9A269A259A47982E982D9854
:10348000109287011092860180E090E00E94E21184
:1034900080918601909187010E94E21180E090E086
:1034A0000E94ED128FEF9FEF90936502809364026C
:1034B00080E393E19093A7018093A6018CE293E1CE
:1034C0009093A9018093A80193E09093A101109299
:1034D000AB011092AA01E091CB01F091CC0182E006
:1034E0008083E091C701F091C8011082E091C90189
:1034F000F091CA0180E180831092D301E091CF0165
:10350000F091D0018EE08083E091CD01F091CE0169
:10351000808180618083E091CD01F091CE01808136
:1035200088608083E091CD01F091CE018081806838
:103530008083E091CD01F091CE0180818F7D8083E9
:1035400008E711E024E233E1309381012093800108
:1035500020E233E1309383012093820190937B0139
:10356000109285011092840181E090E00E94ED129A
:103570002EE931E03093B5022093B4023093B702C4
:103580002093B60284E492E09F938F931F930F934E
:103590000E945B1E84B1817F84B984B1866084B946
:1035A00082E090E00E94ED1283E090E00E94ED1234
:1035B00010929D0110929C0180917A008760809307
:1035C0007A0080917C00806480937C0080917A00F6
:1035D000806880937A0080E280937E0010927D0064
:1035E00084E090E00E94ED12809186019091870125
:1035F000857D0E94E21180E090E00E9417120E94F7
:10360000810F0F900F900F900F90823031F481E076
:1036100090E090939B0180939A0180E00E949A1120
:103620000E9449100E941B16803233E09307B8F5C0
:103630000E960E94FD2389838F708A83853078F5EA
:103640000E94FE15843058F54981242F30E014E0A3
:10365000359527951A95E1F790E028173907F9F481
:103660000E9460180197D9F40E94CC135A81052F4B
:1036700010E088279927801B910B60E070E020EE16
:10368000AC01249FC001259F900D11240E94EE17CC
:103690005A81509388011093BA010093B9010E9496
:1036A0006018019719F481E0809399017BE4272E3B
:1036B00072E0372EE4E0EE2EF12CF2E0CF2ED12C8A
:1036C00044244394512CBBEB6B2EB2E17B2E88E754
:1036D00091E00E9434058091B4029091B5020E945D
:1036E000340580919A0190919B018330910509F4F2
:1036F00081C134F4009709F487C1019749F0D3C11F
:103700008430910509F490C1059709F4ABC1CBC190
:1037100080910D01882301F180E090E00E94171252
:1037200068EC70E080E090E00E94260E8AEA92E069
:103730000E94171260EB74E080E090E00E94260E79
:1037400080E090E00E94171268E572E080E090E06F
:103750000E94260E10920D018091AE01882309F47B
:10376000D8C00E9463080E94810F823009F09BC17B
:103770008091B9019091BA019701281B390BC901B9
:10378000880F991FA60102C0440F551F8A95E2F7C2
:10379000CA010E94171268EC70E080E090E00E947D
:1037A000260E0E94810F823009F07DC18091B901FF
:1037B000682F0E9447178091B9019091BA019B83AD
:1037C0008A830C970CF0A0C08091990181116BC184
:1037D0009A819C830E94D5034EE161E080E00E94C3
:1037E00086108FB7F8948090950190909601A090E4
:1037F0009701B09098018FBF04EC12E219820E94E9
:10380000810F813019F08430D9F034C0298122230E
:1038100009F44CC12FB7F8948091950190919601CD
:10382000A0919701B09198012FBF88199909AA0911
:10383000BB09893E9340A105B10508F037C139C0E5
:103840008981882309F44CC12FB7F89480919501A0
:1038500090919601A0919701B09198012FBF88197E
:103860009909AA09BB09893E9340A105B10508F051
:1038700037C11FC08FB7F894809095019090960142
:10388000A0909701B09098018FBF198212C00E943A
:10389000C7135AE05983C3010197F1F70E946F15CE
:1038A0003981315039833111F6CF065F1F4F41E026
:1038B000498380E091E00E9417126AE070E080E0A6
:1038C00090E00E94260E80E092E00E9417126AE0CB
:1038D00070E080E090E00E94260E88E090E00E9478
:1038E000171262E370E080E090E00E94260E0E94D2
:1038F000810F823009F083CF81E00E9474039C81A4
:10390000953008F4F7C0CFC080E090E00E945D02DF
:10391000FBC080E091E00E94171261E070E080E05F
:1039200090E00E94260E80E092E00E94171261E073
:1039300070E080E090E00E94260E2091AC01309172
:10394000AD013B832A83C901880F991FA60102C0DC
:10395000440F551F8A95E2F7CA010E94171261E0D1
:1039600070E080E090E00E94260E0E94810F82307D
:1039700069F0843069F1813009F095C08A819B81BA
:10398000181619060CF08FC0019729C02A813B81B7
:103990002230310599F044F42130310509F083C01B
:1039A00051E05093AE017FC04A815B8143305105A5
:1039B00061F04430510509F4A7C075C080910C0135
:1039C000811171C00E947E169FC010920C016BC0C5
:1039D0008A819B81843091050CF065C0019690939B
:1039E000AD018093AC0160E273E080E090E00E9462
:1039F000260E59C00E946018019719F40E94D9122E
:103A000052C010929901B5C00E9463080E94810FB4
:103A1000823009F048C08091B9019091BA018C3090
:103A200091050CF4ABC03FC080E293E00E94AF125E
:103A30000E94BC0F813069F08230A9F50E942005F8
:103A4000882389F125E030E030939B0120939A018F
:103A50002AC010929B0110929A014FE452E05F93AA
:103A60004F9317C00E946A120E94BC0F813059F018
:103A70008230C9F40E942005811115C0F0929B018B
:103A8000E0929A0110C010929B0110929A013F920D
:103A90002F9288E791E09F938F930E945B1E0F9077
:103AA0000F900F900F900E94520A11CEC8018E5FA6
:103AB0009A418D38934218F051E05983FACE0E9412
:103AC000C2133AE03983C3010197F1F70E946F15E1
:103AD0004981415049834111F6CF0A501109ECCF79
:103AE000C8018A5E9A418D38934208F4D0CE81E0B5
:103AF0008983DFCE8A819B819927880F991FB8011E
:103B000001960E941724CFCF80E090E00E94171208
:103B100060E971E080E090E00E94260E8AEA92E07F
:103B20000E94171260E971E080E090E00E94260E8A
:103B300080E090E00E94171260E971E080E090E080
:103B40000E94260E80E090E00E9417128091B90139
:103B50009091BA019701281B390BC901880F991F51
:103B6000A20102C0440F551F8A95E2F7CA010E94C4
:103B7000171210929B0110929A0195CF9701281B62
:103B8000390BC901880F991FA60102C0440F551FA8
:103B90008A95E2F7CA010E94171268EC70E080E093
:103BA00090E00E94260E0E94810F823009F07BCFA8
:103BB0008091B901682F0E9447170E94BC1873CFEB
:103BC000EBEBF1E01382128288EE93E0A0E0B0E02C
:103BD00084839583A683B7832DE231E031832083EC
:103BE0002DEC30E0358724872CEC30E037872687B2
:103BF00028EC30E0318B208B29EC30E0338B228BAA
:103C00002AEC30E0358B248B2EEC30E0378B268B82
:103C1000118E128E138E148EE8E5F2E0138212825A
:103C200084839583A683B7838FE391E09183808318
:103C30008FEF9FEF958784870895CF93DF93EC01F3
:103C40002B8120FF33C026FF0AC02F7B2B838E8160
:103C50009F8101969F838E838A8190E029C022FFF5
:103C60000FC0E881F9818081082E000C990B009724
:103C700019F420622B831AC03196F983E8830EC0B1
:103C8000EA85FB85099597FF09C02B81019611F004
:103C900080E201C080E1822B8B8308C02E813F81AE
:103CA0002F5F3F4F3F832E83992702C08FEF9FEFF7
:103CB000DF91CF910895A0E0B0E0E1E6FEE10C9441
:103CC0002B240F811885F801838188608383AE01DE
:103CD000455F5F4F69857A85C8010E948F1EF80194
:103CE0002381277F2383E4E00C944724AEE0B0E0F7
:103CF000ECE7FEE10C942D248DE08C838B899C896C
:103D00009A838983AE01495E5F4F6D897E89CE01BA
:103D100001960E940C222E96E2E00C944924ABE01E
:103D2000B0E0E5E9FEE10C941D246C017B018A0101
:103D3000FC0117821682838181FFCCC1CE010196DE
:103D40003C01F6019381F70193FD859193FF8191E9
:103D50007F01882309F4BAC1853239F493FD859136
:103D600093FF81917F01853229F4B60190E00E9492
:103D70004723E7CF912C212C312CFFE1F315D8F00C
:103D80008B3279F038F4803279F08332A1F4232D2C
:103D900020611DC08D3261F0803369F4232D2160D4
:103DA00016C0832D8260382EE32DE4603E2E2AC09B
:103DB000F32DF8601DC037FC2DC020ED280F2A30F0
:103DC00040F08E32B9F436FC81C1232D2064322EAE
:103DD00019C036FE06C08AE0989E200D1124922E4E
:103DE00011C0EAE02E9E200D1124222EF32DF06248
:103DF0003F2E08C08C3621F4832D8068382E02C0F7
:103E0000883641F4F70193FD859193FF81917F01FD
:103E10008111B3CF982F9F7D9554933028F40C5F78
:103E20001F4F9FE399830DC0833631F0833771F0C4
:103E3000833509F059C021C0F801808189830E5F64
:103E40001F4F88248394912C530113C02801F2E062
:103E50004F0E511CF801A080B18036FE03C0692DC1
:103E600070E002C06FEF7FEFC5010E943C234C0160
:103E70008201F32DFF773F2E16C0280122E0420E6B
:103E8000511CF801A080B18036FE03C0692D70E09E
:103E900002C06FEF7FEFC5010E9431234C01F32D6B
:103EA000F0683F2E820133FC1BC0822D90E0881603
:103EB0009906B0F4B60180E290E00E9447232A946C
:103EC000F4CFF50137FC859137FE81915F01B60192
:103ED00090E00E94472321102A9421E0821A910841
:103EE0008114910471F7E8C0843611F0893641F5E8
:103EF000F80137FE07C060817181828193810C5F78
:103F00001F4F08C060817181072E000C880B990B30
:103F10000E5F1F4FF32DFF763F2E97FF09C0909540
:103F20008095709561957F4F8F4F9F4FF0683F2E22
:103F30002AE030E0A3010E949C23882E861845C009
:103F4000853731F4232D2F7EB22E2AE030E025C0B4
:103F5000932D997FB92E8F36C1F018F4883579F0FA
:103F6000B5C0803719F0883721F0B0C0E92FE06183
:103F7000BE2EB4FE0DC0FB2DF460BF2E09C034FE72
:103F80000AC0292F2660B22E06C028E030E005C006
:103F900020E130E002C020E132E0F801B7FE07C0C6
:103FA00060817181828193810C5F1F4F06C06081A7
:103FB000718180E090E00E5F1F4FA3010E949C235F
:103FC000882E8618FB2DFF773F2E36FE0DC0232D41
:103FD0002E7FA22E891458F434FE0BC032FC09C087
:103FE000832D8E7EA82E05C0B82CA32C03C0B82C20
:103FF00001C0B92CA4FE0FC0FE01E80DF11D8081A7
:10400000803321F49A2D997EA92E09C0A2FE06C004
:10401000B394B39404C08A2D867809F0B394A3FCBA
:1040200011C0A0FE06C0B21488F4280C922C9B1874
:104030000EC0B21460F4B60180E290E00E94472303
:10404000B394F7CFB21418F42B1802C0982C212C7B
:10405000A4FE10C0B60180E390E00E944723A2FEB8
:1040600017C0A1FC03C088E790E002C088E590E09B
:10407000B6010CC08A2D867859F0A1FE02C08BE2F1
:1040800001C080E2A7FC8DE2B60190E00E944723C8
:10409000891438F4B60180E390E00E9447239A9493
:1040A000F7CF8A94F301E80DF11D8081B60190E00D
:1040B0000E9447238110F5CF222009F442CEB60199
:1040C00080E290E00E9447232A94F6CFF601868191
:1040D000978102C08FEF9FEF2B96E2E10C94392479
:1040E00020FD09C0FC0123FD05C022FF02C073832F
:1040F000628351834083089544FD17C046FD17C075
:10410000AB01BC01DA01FB01AA0FBB1FEE1FFF1FB1
:104110001094D1F74A0F5B1F6E1F7F1FCB01BA01AE
:10412000660F771F881F991F09C033E001C034E074
:10413000660F771F881F991F3150D1F7620F711DCD
:10414000811D911D08950F931F93CF93DF938C01D1
:10415000C8010E941D1EEC0197FD08C00E941D238E
:10416000892BB1F7B801CE010E948323CE01DF91E4
:10417000CF911F910F9108958F929F92AF92BF920E
:10418000EF92FF920F931F93CF93DF938C01D62F63
:104190007A01B22E0E941D1E9C0133272B3231055D
:1041A00031F02D32310561F48B2D8068B82ED1505D
:1041B00011F480E068C0C8010E941D1E97FDF9CF70
:1041C000CB2DCD7F2B2D207309F58033F9F4AA2454
:1041D000AA94AD0E09F443C0C8010E941D1E97FDAC
:1041E0003EC09C012F7D33272835310549F4C26438
:1041F000D250A9F1C8010E941D1E97FF07C02FC011
:10420000B6FE02C0C26001C0C261DA2D812C912CC1
:10421000540120ED280F283080F0C4FF04C0B801FD
:104220000E94832319C02A3040F0C6FFF8CF2F7DAB
:104230003FEE320F363098F727504C2FC501B401AE
:104240000E947C204B015C01C260D15059F0C80132
:104250000E941D1E97FFDDCFC1FD04C0AACF812C97
:10426000912C5401C7FF08C0B094A09490948094FE
:10427000811C911CA11CB11C2C2FB501A401C701EC
:104280000E94702081E0DF91CF911F910F91FF90EC
:10429000EF90BF90AF909F908F900895A0E2B0E014
:1042A000E4E5F1E20C9420245C01962E7A01F901F8
:1042B0008E010F5F1F4F680180E2D8011D928A9521
:1042C000E9F7D50113968C9080E090E0612C712C79
:1042D00030E061E070E083FC259183FE21918F0145
:1042E000522E211103C080E090E092C02E3511F4CF
:1042F000009751F1432F50E0481759073CF42D35F2
:1043000059F12D3219F4772009F103C0772009F40F
:104310006AC0452D469546954695D601A40FB11D18
:10432000452D47708B0102C0000F111F4A95E2F71F
:10433000A8015C91452B4C93651459F0561410F468
:104340005394E7CF5A94E5CF31E004C077247394B7
:1043500001C0712C0196BFCF772019F08E81806249
:104360008E83311103C08824839417C0F6019E0107
:104370002F5D3F4F8081809581932E173F07D1F7A6
:10438000F2CFE114F10429F0D7018C93F7013196B3
:104390007F019A94812C9920F9F0C5010E941D1E7D
:1043A00097FD18C0FC01FF2723E0F595E7952A95B6
:1043B000E1F7EC0DFD1D208130E0AC014770552781
:1043C00002C0359527954A95E2F720FDDACFB50171
:1043D0000E948323811087CFE114F10411F0D701EB
:1043E0001C92C80115C0422F469546954695D601A8
:1043F000A40FB11D422F47708B0102C0000F111F87
:104400004A95E2F7A8015C91452B4C93622EA2CF0E
:10441000A096EFE00C943C24A0E0B0E0E2E1F2E2F0
:104420000C9420246C01EB015A01FC0117821682C6
:10443000512CF601E380FE01E3FC8591E3FE8191BE
:10444000182FEF01882309F4EEC090E00E941D238D
:10445000892B21F0C6010E94A320EBCF153241F435
:10446000FE01E3FC1591E3FE1191EF01153281F499
:10447000C6010E941D1E97FDD4C0412F50E09C0133
:10448000332724173507A9F2B6010E948323CBC036
:104490001A3239F4E3FC1591E3FE1191EF0101E0CA
:1044A00001C000E0F12C20ED210F2A3080F40260E1
:1044B0006F2D70E080E090E040E20E947C20F62EBC
:1044C000FE01E3FC1591E3FE1191EF01ECCF01FF3A
:1044D00003C0F11003C0A7C0FF24FA94183619F0E6
:1044E0001C3651F010C0FE01E3FC1591E3FE119162
:1044F000EF01183641F408600460FE01E3FC1591F9
:10450000E3FE1191EF01112309F48DC0612F70E0DA
:1045100084E291E00E942623892B09F484C000FDE7
:1045200007C0F50180809180C50102965C0102C040
:10453000812C912C1E3651F4F6014681578160E0A2
:1045400070E0202FC4010E94702073CF1336A9F4AD
:1045500001FD02C0FF24F394C6010E941D1E97FDB9
:1045600060C08114910429F0F4018083C401019694
:104570004C01FA94F110F0CF50C01B3559F49E0154
:10458000A4016F2DC6010E944E21EC01892B09F078
:1045900044C03EC0C6010E94A32097FD42C01F3602
:1045A00061F128F4143639F1193651F128C0133766
:1045B00071F0153701F123C08114910429F0F40141
:1045C0006082C40101964C01FA94FF2071F0C6018B
:1045D0000E941D1E3C0197FD08C00E941D23892BCF
:1045E00059F3B601C3010E94832381149104A9F0F9
:1045F000F401108212C0006203C0006101C00064B7
:10460000202FA4016F2DC6010E94BC20811105C07E
:10461000F6018381807329F406C000FD0ACF53940C
:1046200008CF552019F0852D90E002C08FEF9FEF45
:10463000CDB7DEB7EFE00C943C2491110C94FA2333
:10464000803219F089508550C8F70895FC01059013
:10465000061621F00020D9F7C00108953197CF0147
:104660000895FC010590615070400110D8F78095C5
:1046700090958E0F9F1F0895FC016150704001902E
:104680000110D8F7809590958E0F9F1F08950F9376
:104690001F93CF93DF93FB01238121FD03C08FEF95
:1046A0009FEF2CC022FF16C046815781248135819F
:1046B0004217530744F4A081B1819D012F5F3F4F02
:1046C000318320838C93268137812F5F3F4F37833F
:1046D000268314C08B01EC01FB010084F185E02DE1
:1046E0000995892BE1F6D80116968D919C91179723
:1046F000019617969C938E931697CE01DF91CF91DA
:104700001F910F910895FB01238120FF12C026FD08
:1047100010C08F3F3FEF930761F082832F7D2064AD
:1047200023832681378121503109378326839927B6
:1047300008958FEF9FEF0895FA01AA27283051F1CD
:10474000203181F1E8946F936E7F6E5F7F4F8F4FC2
:104750009F4FAF4FB1E03ED0B4E03CD0670F781F21
:10476000891F9A1FA11D680F791F8A1F911DA11D06
:104770006A0F711D811D911DA11D20D009F468943F
:104780003F912AE0269F11243019305D3193DEF6E7
:10479000CF010895462F4770405D4193B3E00FD09D
:1047A000C9F7F6CF462F4F70405D4A3318F0495D88
:1047B00031FD4052419302D0A9F7EACFB4E0A6956B
:1047C0009795879577956795BA95C9F7009761058D
:1047D000710508959B01AC010A2E069457954795E3
:1047E00037952795BA95C9F7620F731F841F951FD8
:1047F000A01D0895992788270895F999FECF92BDA5
:1048000081BDF89A992780B50895262FF999FECF92
:1048100092BD81BDF89A019700B4021639F01FBA13
:1048200020BD0FB6F894FA9AF99A0FBE0895019632
:10483000272F0E9406240C9405242F923F924F921A
:104840005F926F927F928F929F92AF92BF92CF9220
:10485000DF92EF92FF920F931F93CF93DF93CDB729
:10486000DEB7CA1BDB0B0FB6F894DEBF0FBECDBFA1
:1048700009942A88398848885F846E847D848C8472
:104880009B84AA84B984C884DF80EE80FD800C817B
:104890001B81AA81B981CE0FD11D0FB6F894DEBF5E
:1048A0000FBECDBFED0108950E94EC2590F09F371B
:1048B00048F4911116F40C94052660E070E080E84D
:1048C0009FE3089526F01B16611D711D811D0C9438
:1048D0007F250C949A250E94552508F481E00895BF
:1048E0000E9484240C94B9250E94B22558F00E949D
:1048F000AB2540F029F45F3F29F00C947925511144
:104900000C9405260C94A8250E94CA2568F39923C7
:10491000B1F3552391F3951B550BBB27AA276217BB
:104920007307840738F09F5F5F4F220F331F441FC8
:10493000AA1FA9F335D00E2E3AF0E0E832D09150FC
:104940005040E695001CCAF72BD0FE2F29D0660FE9
:10495000771F881FBB1F261737074807AB07B0E82C
:1049600009F0BB0B802DBF01FF2793585F4F3AF032
:104970009E3F510578F00C9479250C9405265F3FF5
:10498000E4F3983ED4F3869577956795B795F795B8
:104990009F5FC9F7880F911D9695879597F90895A0
:1049A000E1E0660F771F881FBB1F6217730784073C
:1049B000BA0720F0621B730B840BBA0BEE1F88F74B
:1049C000E09508950E94E9246894B1110C9405269D
:1049D00008950E94D22588F09F5798F0B92F992703
:1049E000B751B0F0E1F0660F771F881F991F1AF0DA
:1049F000BA95C9F714C0B13091F00E940426B1E015
:104A000008950C940426672F782F8827B85F39F013
:104A1000B93FCCF3869577956795B395D9F73EF472
:104A200090958095709561957F4F8F4F9F4F08951A
:104A3000E89409C097FB3EF4909580957095619538
:104A40007F4F8F4F9F4F9923A9F0F92F96E9BB27EE
:104A50009395F695879577956795B795F111F8CF6A
:104A6000FAF4BB0F11F460FF1BC06F5F7F4F8F4FD5
:104A70009F4F16C0882311F096E911C0772321F0CB
:104A80009EE8872F762F05C0662371F096E8862F63
:104A900070E060E02AF09A95660F771F881FDAF7BA
:104AA000880F9695879597F90895990F0008550FE7
:104AB000AA0BE0E8FEEF16161706E807F907C0F0A4
:104AC00012161306E407F50798F0621B730B840BAC
:104AD000950B39F40A2661F0232B242B252B21F486
:104AE00008950A2609F4A140A6958FEF811D811D26
:104AF000089597F99F6780E870E060E00895882343
:104B000071F4772321F09850872B762F07C0662306
:104B100011F499270DC09051862B70E060E02AF0C7
:104B20009A95660F771F881FDAF7880F96958795F5
:104B300097F908959F3F31F0915020F4879577952C
:104B40006795B795880F911D9695879597F9089564
:104B50009FEF80EC089500240A9416161706180695
:104B60000906089500240A94121613061406050671
:104B70000895092E0394000C11F4882352F0BB0F02
:104B800040F4BF2B11F460FF04C06F5F7F4F8F4F65
:104B90009F4F089557FD9058440F551F59F05F3FA0
:104BA00071F04795880F97FB991F61F09F3F79F04F
:104BB00087950895121613061406551FF2CF4695D1
:104BC000F1DF08C0161617061806991FF1CF869553
:104BD00071056105089408950E94D225A0F0BEE7F2
:104BE000B91788F4BB279F3860F41616B11D672FDC
:104BF000782F8827985FF7CF869577956795B11DB1
:104C000093959639C8F30895E894BB2766277727CC
:104C1000CB0197F908950E94552508F48FEF089568
:104C200016F00C949A250C94A82568940C94792578
:104C30000E94D225A8F39923C1F3AEF3DF93CF935B
:104C40001F930F93FF92C92FDD2788232AF0219706
:104C5000660F771F881FDAF720E030E040E85FEB4F
:104C60009FE3883920F0803E38F021968F770E94AC
:104C7000CE26EAECF0E004C00E94CE26E7EFF0E09A
:104C80000E943A278B01BE01EC01FB2E6F57710980
:104C90007595771F880B990B0E941A2528E132E73A
:104CA00041E35FE30E947326AF2D9801AE01FF90B0
:104CB0000F911F91CF91DF910E94E5260C94B925A9
:104CC0000E9473260C94B9250E94AB2538F00E94EF
:104CD000B22520F0952311F00C9479250C94A82589
:104CE00011240C9405260E94CA2570F3959FC1F3E8
:104CF000950F50E0551F629FF001729FBB27F00D8A
:104D0000B11D639FAA27F00DB11DAA1F649F6627DE
:104D1000B00DA11D661F829F2227B00DA11D621F2D
:104D2000739FB00DA11D621F839FA00D611D221FE7
:104D3000749F3327A00D611D231F849F600D211DCB
:104D4000822F762F6A2F11249F5750409AF0F1F04E
:104D500088234AF0EE0FFF1FBB1F661F771F881FB7
:104D600091505040A9F79E3F510580F00C94792551
:104D70000C9405265F3FE4F3983ED4F3869577952F
:104D80006795B795F795E7959F5FC1F7FE2B880F5D
:104D9000911D9695879597F908955058BB27AA2796
:104DA0000E94E5260C94B9250E94AB2538F00E949C
:104DB000B22520F039F49F3F19F426F40C94A8256D
:104DC0000EF4E095E7FB0C947925E92F0E94CA25A3
:104DD00058F3BA17620773078407950720F079F430
:104DE000A6F50C9404260EF4E0950B2EBA2FA02DF8
:104DF0000B01B90190010C01CA01A0011124FF2788
:104E0000591B99F0593F50F4503E68F11A16F04082
:104E1000A22F232F342F4427585FF3CF4695379581
:104E20002795A795F0405395C9F77EF41F16BA0B46
:104E3000620B730B840BBAF09150A1F0FF0FBB1FF4
:104E4000661F771F881FC2F70EC0BA0F621F731F3D
:104E5000841F48F4879577956795B795F7959E3F9A
:104E600008F0B0CF9395880F08F09927EE0F97952B
:104E700087950895DF93CF931F930F93FF92EF923F
:104E8000DF927B018C01689406C0DA2EEF010E944C
:104E90007326FE01E894A591259135914591559190
:104EA000A6F3EF010E94E526FE019701A801DA941E
:104EB00069F7DF90EF90FF900F911F91CF91DF91F5
:104EC0000895EE0FFF1F0590F491E02D0994F894DA
:024ED000FFCF12
:104ED200FFFFFFFF00E100000000000001010101EF
:104EE20000C180810000001E2832232832010A16E8
:104EF20001071601282305060800000000E40952F4
:104F0200097C09300AAD098B099F09000000005C89
:0E4F12000A600ECD0A720A7D0AF50AD10A0065
:00000001FF
