:100000000C94CE330C94FF330C94FF330C94FF33D9
:100010000C94FF330D94960C0C94FF330C94FF3327
:100020000D94210C0C94FF330C94FF330C94FF338C
:100030000C94FF330D94AB260D94333A0D947167F5
:100040000C94FF330C9413C30C94FF330C94FF33C4
:100050000C94FF330C94FF330C94FF330C941EA2CA
:100060000C94FF330D94C3620C94FF330C94FF3354
:100070000C94FF330C94FF330C94FF330C94FF3338
:100080000C94FF330C94FF330C94FF330C94FF3328
:100090000D947F620C94FF330C94FF330C94FF3368
:1000A0000C94FF330C94FF330C94FF330C94FF3308
:1000B0000C94FF330C94FF330C94FF330C94FF33F8
:1000C0000C94FF330C94FF330C94FF330D9489662A
:1000D0000C94FF330C94FF330C94FF330C94FF33D8
:1000E0000C94FF333AA248A256A263A275A27CA246
:1000F000BCA29EA2B4A244A346A344A346A344A385
:1001000046A348A34AA32EBF37BFDCBEABBE7BBE0F
:100110003CC272BF95C03EC194C1B0C1E7C1DAD63E
:10012000DAD6DDD6DAD6DDD6E0D6E3D6B6D74FDAE4
:100130001FDA14DA09DAFED9F3D972DA62DACCD925
:100140009ED982D9AD01F7015101D10157020B02AD
:100150000502430283018B010502370291017D02F2
:100160008D02B9016702FF01D701BB01F1016302F2
:100170006D01790259016701E101F9014902F101BB
:1001800065018902D5015D02A501750125023102D3
:100190003F02410253018F027302FB01A901B30127
:1001A0005D013F02D901E301F5019F014B025102BC
:1001B000E5012D025B02290295016102EF01B70101
:1001C00083020902084AD73B3BCE016E84BCBFFDC7
:1001D000C12F3D6C74319ABD56833DDA3D00C77F17
:1001E00011BED9E4BB4C3E916BAAAABE00000080B0
:1001F0003F05A84CCDB2D44EB93836A9020C50B93F
:10020000918688083CA6AAAA2ABE000000803F0763
:10021000634236B79BD8A71A39685618AEBAAB55A1
:100220008C1D3CB7CC5763BD6DEDFD753EF6177266
:1002300031BF000000803F08000000BE9224491238
:100240003EABAAAA2ABECDCCCC4C3E00000080BE5C
:10025000ABAAAAAA3E00000000BF000000803F0039
:1002600000000000084178D3BB4387D1133D190E2D
:100270003CC3BD4282AD2B3E68EC8276BED98FE195
:10028000A93E4C80EFFFBE01C4FF7F3F000000008D
:1002900000000D9446010D9413050D9438500D94F3
:1002A000601E0D9416070D949D270D94E2040D9485
:1002B00001020D9405230D94F64D0D94DC270D9449
:1002C00034510D9442460D94F0040D941D230D9469
:1002D00009230D94D5460D9432020D94FB220D9402
:1002E000FF4D0D94691E0D9483180D9477270D947E
:1002F000CB450D94C84F0D94E9040D9425060D943B
:1003000095500D9489450D948F070D94851F0D947C
:10031000AB500D9436600D948B070D94C7700D94FF
:10032000FF210D94AE070D942B230D94617C0D9449
:100330005B410D9422710D94F7040D947B250D946F
:10034000FB7B0D94F1420D943A4B0D9472270D9462
:10035000FB210D94C3270D94A5010D94F3060D9474
:100360006E4F0D94EC050D94D2270D94B8050D94A5
:10037000947C0D94F0220D94EC220D9467180D944A
:100380001E020D948D1B0D94751F0D945B450D94ED
:10039000B94F0D94B3230D941D040D9459210D9460
:1003A0008D1F0D9423070D9435230D9425230D9453
:1003B000E6220D94E6270D94CC230D94B8230D94DA
:1003C00040220D940F230D94F0270D942B7C0D9457
:1003D0000D1C0D9464190D94BD230D94E3170D9419
:1003E0007D7C0D942A230D94631F0D94FA270D94A0
:1003F00004070D9413230D94B9270D9466790D9479
:10040000E2220D9451460D9428020D94DD060D94C0
:1004100040050D94A87C0D945C070D94424B0D94FF
:10042000F5460D94EE010D94EA460D9439550D9460
:10043000B41A0D9438410D9431230D9400500D944D
:1004400089250D94464D0D9455020D9481270D94E8
:10045000951F0D94537C0D94DA230D94477C0D94D5
:1004600021080D948B270D94DB010D943A230D94F4
:1004700091070D947D1F0D949A4E0D94D6230D94E3
:1004800004280D9495270D947D070D94A3480D9491
:10049000C8460D9417230D94097C0D94C7230D9421
:1004A00020010D94197C0D94C2230D94721E0D949D
:1004B0002D070D9459060D944D7C0D946D270D94C8
:1004C00004A60D946F7C0D94F7220D9423A30D9434
:1004D000F3220D9410030D9458190D9401050D94F9
:1004E00014020D947C050D94AF270D94724C0D945D
:1004F000D1230D9401230D946D1F0D94C2070D940B
:10050000CB010D945B000D949A7C0D94571E0D94B5
:10051000B5480D9421230D9403220D94D4070D9416
:10052000A5270D941D606E616E00696E66004E41D8
:100530004E494E495459494E46CDCCCC3D0AD7235D
:100540003C17B7D13877CC2B329595E6241FB14FA5
:100550000A000020410000C84200401C4620BCBEEA
:100560004CCA1B0E5AAEC59D7400407A10F35A0057
:10057000A0724E18090010A5D4E80000E8764817CC
:100580000000E40B54020000CA9A3B000000E1F5B1
:1005900005000080969800000040420F000000A077
:1005A0008601000000102700000000E803000000A2
:1005B000006400000000000A0000000000010000CC
:1005C0000000002C76D888DC674F0823DFC1DFAE3F
:1005D00059E1B1B796E5E3E453C63AE65199769608
:1005E000E8E6C28426EB898C9B62ED407C6FFCEFD1
:1005F000BC9C9F40F2BAA56FA5F490055A2AF75CFF
:10060000936B6CF9676DC11BFCE0E40D47FEF520B0
:10061000E6B500D0ED902E03009435770500808478
:100620001E080000204E0A000000C80C333333338C
:100630000F986E12831141EF8D2114893BE65516F8
:10064000CFFEE6DB18D1844B381BF77C1D901DA430
:10065000BBE424203284725E228100C9F124ECA123
:10066000E53D276364696E6F70737578585B00258C
:1006700064206279746573207772697474656E2082
:10068000746F20454550524F4D2061742061646461
:100690007265737320307825303478004433202D10
:1006A00020526561642F5772697465204545505228
:1006B0004F4D0A0020436F756E7420583A20005346
:1006C00044207072696E74696E6720627974652067
:1006D000004E6F7420696E206661726D206D6F64CC
:1006E000652E00416374697665204578747275647F
:1006F00065723A2000496E76616C69642065787491
:100700007275646572005A204F6666736574005591
:100710006E6B6E6F776E20636F6D6D616E643A20E5
:1007200022004D32303020496E76616C696420655C
:100730007874727564657220007A5F6D61783A2012
:10074000007A5F6D696E3A2000795F6D61783A20BA
:1007500000795F6D696E3A2000785F6D61783A20AC
:10076000006F70656E00545249474745524544003A
:10077000785F6D696E3A20005265706F7274696EB1
:100780006720656E6473746F702073746174757321
:100790000053494C454E54004E4F524D414C00259C
:1007A00053204D4F44453A2050657263656E742066
:1007B000646F6E653A2025643B207072696E742008
:1007C00074696D652072656D61696E696E67206917
:1007D0006E206D696E733A2025640A00456E6420B0
:1007E00066696C65206C69737400426567696E2088
:1007F00066696C65206C697374000A50494E444107
:100800002074656D70657261747572653A20252E6D
:100810003166205A20736869667420286D6D293A04
:1008200020252E3366000A537465703A2025642F04
:10083000360A000A537465703A2025642F36202842
:10084000736B6970706564290A50494E4441207485
:10085000656D70657261747572653A202564205A01
:1008600020736869667420286D6D293A300A000A81
:100870005A45524F3A20252E33660A00737461722E
:10088000742074656D70657261747572653A2025A7
:100890002E31660A0025642020252E32660025535D
:1008A00020583A20252E356620593A20252E3566C7
:1008B000205A3A20252E35660A00536C6565702E45
:1008C0002E2E004E6F7420696E206661726D206D51
:1008D0006F64652E0025640045303A25642052502F
:1008E0004D0A50524E303A25642052504D0A002590
:1008F0006400442D31202D20456E646C6573732097
:100900006C6F6F700A00416476616E6365204B3DC9
:10091000004B206F7574206F6620616C6C6F77657B
:10092000642072616E676521004D3232302053259C
:100930006900255346696C616D656E74207365743A
:1009400074696E67733A2044697361626C65640A06
:1009500000255346696C616D656E7420736574740F
:10096000696E67733A0A25532020204D32303020BB
:1009700044252E32660A00255352657472616374F1
:100980003A20533D4C656E67746820286D6D2920B0
:10099000463A537065656420286D6D2F6D29205A85
:1009A0003A205A4C69667420286D6D290A25532017
:1009B00020204D3230372053252E32662046252EFA
:1009C0003266205A252E32660A25535265636F76A9
:1009D00065723A20533D4578747261206C656E678C
:1009E000746820286D6D2920463A5370656564202F
:1009F000286D6D2F6D290A25532020204D32303867
:100A00002053252E32662046252E32660A25534174
:100A100075746F2D526574726163743A20533D3062
:100A200020746F2064697361626C652C20312074BE
:100A30006F20696E74657270726574206578747267
:100A40007564652D6F6E6C79206D6F7665732061AE
:100A500073207265747261637473206F72207265A3
:100A6000636F7665726965730A25532020204D32C5
:100A70003039205325640A002553504944206865C5
:100A800061746265642073657474696E67733A0A91
:100A900025532020204D3330342050252E3266201F
:100AA00049252E32662044252E32660A00255350F1
:100AB00049442073657474696E67733A0A2553203C
:100AC00020204D3330312050252E32662049252EEE
:100AD00032662044252E32660A0025535374657011
:100AE000732070657220756E69743A0A2553202050
:100AF0004D39322058252E32662059252E32662057
:100B00005A252E32662045252E32660A2553555326
:100B1000746570207265736F6C7574696F6E3A20BE
:100B20000A2553204D33353020582564205925643B
:100B3000205A2564204525640A25534D6178696D46
:100B4000756D20666565647261746573202D206E15
:100B50006F726D616C20286D6D2F73293A0A2553D1
:100B600020204D3230332058252E32662059252E34
:100B70003266205A252E32662045252E32660A25F9
:100B8000534D6178696D756D206665656472617439
:100B90006573202D20737465616C746820286D6DF9
:100BA0002F73293A0A255320204D323033205825FF
:100BB0002E32662059252E3266205A252E32662086
:100BC00045252E32660A25534D6178696D756D2075
:100BD000616363656C65726174696F6E202D206E50
:100BE0006F726D616C20286D6D2F7332293A0A2562
:100BF0005320204D3230312058256C752059256CFA
:100C000075205A256C752045256C750A25534D6154
:100C100078696D756D20616363656C657261746977
:100C20006F6E202D20737465616C746820286D6D63
:100C30002F7332293A0A255320204D323031205863
:100C4000256C752059256C75205A256C7520452515
:100C50006C750A2553416363656C65726174696FD5
:100C60006E3A20533D616363656C65726174696FB0
:100C70006E2C20543D7265747261637420616363ED
:100C8000656C65726174696F6E0A255320204D3260
:100C900030342053252E32662054252E32660A2504
:100CA00053416476616E6365642076617269616246
:100CB0006C65733A20533D4D696E206665656472BC
:100CC00061746520286D6D2F73292C20543D4D696A
:100CD0006E2074726176656C2066656564726174FD
:100CE0006520286D6D2F73292C20423D6D696E693A
:100CF0006D756D207365676D656E742074696D65C3
:100D000020286D73292C20583D6D6178696D756DB3
:100D1000205859206A65726B20286D6D2F73292C1D
:100D200020205A3D6D6178696D756D205A206A6585
:100D3000726B20286D6D2F73292C2020453D6D612D
:100D400078696D756D2045206A65726B20286D6D20
:100D50002F73290A255320204D3230352053252E5C
:100D600032662054252E32662042252E32662058C7
:100D7000252E32662059252E3266205A252E3266BF
:100D80002045252E32660A2553486F6D65206F6613
:100D90006673657420286D6D293A0A255320204D0D
:100DA0003230362058252E32662059252E326620C4
:100DB0005A252E32660A004625642025640A004D15
:100DC0004D55203C3D2027462564202564270A00F8
:100DD000504944204175746F74756E652066696E64
:100DE0006973686564212050757420746865206C8F
:100DF000617374204B702C204B6920616E64204B12
:100E00006420636F6E7374616E74732066726F6DAD
:100E10002061626F766520696E746F20436F6E6625
:100E2000696775726174696F6E2E6800504944205D
:100E30004175746F74756E65206661696C656421B7
:100E40002074696D656F75740020403A00543A0053
:100E5000423A00504944204175746F74756E6520A4
:100E60006661696C6564212054656D70657261749A
:100E700075726520746F6F206869676800204B6425
:100E80003A2000204B693A2000204B703A20002085
:100E9000436C61737369632050494420002054758A
:100EA0003A2000204B753A2000206D61783A2000EE
:100EB000206D696E3A200020643A2000206269614A
:100EC000733A200020453A00205A3A0020593A004F
:100ED00020453A00205A3A0020593A00583A00007A
:100EE0005A30005A310059300059310058300058FA
:100EF0003100456E642073746F707320646961679C
:100F0000002E0044656C6574696F6E206661696CC3
:100F100065642C2046696C653A200046696C652042
:100F200064656C657465643A000A002F000A004E1F
:100F30006F74205344207072696E74696E6700503C
:100F400072696E7420736176656400534420707218
:100F5000696E7420706175736564004F4B00424187
:100F6000440052414D426F2046414E2000435241C1
:100F700053485F43414E43454C0043524153485F01
:100F80005245434F5645520043524153485F5245E4
:100F9000434F5645520022283229005400447570B0
:100FA0006C696361746520542D636F6465206967A3
:100FB0006E6F7265642E0A004475706C69636174AB
:100FC0006520542D636F64652069676E6F72656478
:100FD0002E0A00496E76616C6964205420636F6448
:100FE000652E00556E6B6E6F776E204D20636F64BB
:100FF000653A202573200A006E6F2076616C696463
:1010000020636F6D6D616E64002C20002C20002C1D
:1010100020006E2F61002C20002C20002C20006E60
:101020002F61002F00503A005761697420666F727B
:101030002050494E44412074617267657420746584
:101040006D70657261747572653A004C414E47204F
:1010500053454C20464F5243454400222831290035
:1010600030303030303030302D303030302D303086
:1010700030302D303030302D303030303030303076
:10108000303030300020555549443A003100204579
:10109000585452554445525F434F554E543A0050B0
:1010A00072757361206933204D4B335300204D41DD
:1010B0004348494E455F545950453A00312E30005F
:1010C000206261736564206F6E204D61726C696E81
:1010D000204649524D574152455F55524C3A68742B
:1010E0007470733A2F2F6769746875622E636F6D21
:1010F0002F707275736133642F50727573612D4652
:1011000069726D776172652050524F544F434F4C56
:101110005F56455253494F4E3A004649524D57414A
:1011200052455F4E414D453A50727573612D466987
:10113000726D7761726520004D313133205300208C
:10114000423A0020453A00543A0020413A002050EB
:101150003A002042403A0020403A00202F003A0056
:10116000205400202F0020423A00202F006F6B20D7
:10117000543A002569206D696E2C2025692073651D
:101180006300496E76616C6964204D20636F64650D
:101190003A202573200A00556E6B6E6F776E2047DC
:1011A00020636F64653A202573200A004D657368DB
:1011B00020626564206C6576656C696E67206E6F71
:1011C00074206163746976652E000A002020000A8D
:1011D0004D6561737572656420706F696E74733AE2
:1011E000000A5A20736561726368206865696768E0
:1011F000743A20002C004E756D20582C593A20006E
:10120000206D6963726F6E730045786365737369EF
:10121000766520626564206C6576656C696E672012
:10122000636F7272656374696F6E3A200042656421
:10123000206C6576656C696E67206661696C6564B3
:101240002E2053656E736F722074726967676572C2
:10125000656420746F6F20686967682E0A004265B4
:1012600064206C6576656C696E67206661696C6583
:10127000642E2053656E736F7220646973636F6EA2
:101280006E6563746564206F72206361626C6520B3
:1012900062726F6B656E2E0A00473238205730003D
:1012A00050494E44412070726F62652063616C69E1
:1012B00062726174696F6E20737461727400473278
:1012C00038205730004D3234005345545F43484F67
:1012D000505F005345545F535445505F005345548D
:1012E0005F574156455F00544D435F0043524153A1
:1012F000485F00472D636F646520736C69636564A4
:1013000020666F72206120646966666572656E741E
:10131000206C6576656C2E20436F6E74696E756502
:101320003F00472D636F646520736C6963656420BB
:10133000666F72206120646966666572656E7420EE
:101340006C6576656C2E20506C65617365207265E6
:101350002D736C69636520746865206D6F64656CBE
:1013600020616761696E2E205072696E742063611E
:101370006E63656C6C65642E00472D636F64652039
:10138000736C6963656420666F722061206E657797
:101390006572206669726D776172652E20506C658A
:1013A000617365207570646174652074686520667A
:1013B00069726D776172652E205072696E74206358
:1013C000616E63656C6C65642E00472D636F6465A8
:1013D00020736C6963656420666F722061206E659E
:1013E000776572206669726D776172652E20436F32
:1013F0006E74696E75653F00472D636F6465207379
:101400006C6963656420666F72206120646966663A
:101410006572656E74207072696E7465722074797D
:1014200070652E20506C656173652072652D736C3C
:1014300069636520746865206D6F64656C20616701
:1014400061696E2E205072696E742063616E6365EF
:101450006C6C65642E00472D636F646520736C6946
:1014600063656420666F72206120646966666572D8
:10147000656E74207072696E74657220747970651F
:101480002E20436F6E74696E75653F00472D636F44
:10149000646520736C6963656420666F72206120E7
:1014A000646966666572656E74207072696E7465D3
:1014B0007220747970652E20436F6E74696E756545
:1014C0003F00472D636F646520736C69636564201A
:1014D000666F72206120646966666572656E74204D
:1014E0007072696E74657220747970652E20506C0C
:1014F000656173652072652D736C6963652074681E
:1015000065206D6F64656C20616761696E2E205087
:1015100072696E742063616E63656C6C65642E0025
:101520005072657373206B6E6F6220746F207072DF
:101530006568656174206E6F7A7A6C6520616E648F
:1015400020636F6E74696E75652E00506C656173F3
:101550006520707265737320746865206B6E6F62AE
:1015600020746F20756E6C6F61642066696C616DAC
:10157000656E740052656D6F7665206F6C642066D1
:10158000696C616D656E7420616E64207072657344
:101590007320746865206B6E6F6220746F207374A3
:1015A000617274206C6F6164696E67206E6577206C
:1015B00066696C616D656E742E00616E6420707278
:1015C00065737320746865206B6E6F6200496E737B
:1015D0006572742066696C616D656E7400436F6C32
:1015E0006F72206E6F7420636F7272656374004651
:1015F000696C616D656E74206E6F74206C6F6164D0
:101600006564004368616E67656420636F7272652C
:1016100063746C793F004C6F6164696E6720636F1F
:101620006C6F72004368616E6765207375636365F4
:1016300073732100506C65617365206F70656E2057
:1016400069646C657220616E642072656D6F766589
:101650002066696C616D656E74206D616E75616C7C
:101660006C792E005761732066696C616D656E74CC
:1016700020756E6C6F616420737563636573736648
:10168000756C3F00506C65617365207570677261A1
:1016900064652E004E6577206669726D77617265AC
:1016A0002076657273696F6E20617661696C616224
:1016B0006C653A0057616974696E6720666F7220C5
:1016C00050494E44412070726F626520636F6F6CA9
:1016D000696E670043726173682064657465637442
:1016E00065642E20526573756D65207072696E7425
:1016F0003F00437261736820646574656374656458
:101700002E0045787472756465720043686F6F735C
:10171000652065787472756465723A0043686F6F0E
:1017200073652066696C616D656E743A004E6F205A
:101730006D6F76652E005761697420666F72207533
:101740007365722E2E2E00536F6D652070726F625E
:101750006C656D20656E636F756E74657265642C63
:10176000205A2D6C6576656C696E6720656E666FB4
:1017700072636564202E2E2E00537461626C6520A6
:10178000616D6269656E742074656D7065726174F7
:101790007572652032312D323643206973206E65B3
:1017A000656465642061207269676964207374618F
:1017B0006E642069732072657175697265642E00AC
:1017C000506C656173652072756E2058595A20639C
:1017D000616C6962726174696F6E2066697273749C
:1017E0002E0073746172740A006164635F696E69CC
:1017F000740A000A204F726967696E616C2050722A
:101800007573612069330A2020205072757361203E
:10181000526573656172636800436F6E74696E75BB
:1018200065207769746820616E6F746865722062E4
:101830006F7764656E3F0025002020202020200067
:101840002020202020200045524153494E4720614E
:101850006C6C206461746100466163746F727920FE
:10186000524553455400466163746F727920524566
:10187000534554003033206F72206F6C64657200E2
:10188000303362206F72206E657765720020287396
:10189000656E736F7220626F617264207265766923
:1018A00073696F6E3A202553290A00444953414217
:1018B0004C454400454E41424C4544004653656EFC
:1018C000736F7220255300494E5434004D4B3353EF
:1018D0004D4D553253004E4F4D4B3353002E014169
:1018E0007072203135203230323100436F6D7069B3
:1018F0006C65643A2000286E6F6E652C2064656606
:1019000061756C7420636F6E66696729004170723F
:1019100020313520323032312031313A33353A33CB
:10192000350020332E392E302D5243312D333237AE
:10193000320A002055706C6F616420696E207072ED
:101940006F677265737300205A3A0020593A00207D
:10195000583A0043524153485F4445544543544527
:101960004458590043524153485F444554454354F9
:101970004544590043524153485F444554454354FC
:10198000454458004D32390045787465726E616C7B
:101990002053504920666C6173680A5732355832BB
:1019A00030434C206973206E6F74207265732D0A6A
:1019B000706F6E64696E672E204C616E677561672B
:1019C000650A73776974636820756E617661696C06
:1019D00061626C652E00437261736844657465636F
:1019E000742044495341424C45440043726173683A
:1019F00044657465637420454E41424C4544210062
:101A0000573235583230434C206E6F7420726573F4
:101A1000706F6E64696E672E0A002020506C616ED4
:101A20006E657242756666657242797465733A20B6
:101A3000002046726565204D656D6F72793A200011
:101A4000207C20417574686F723A2000204C6173CD
:101A50007420557064617465643A200020536F6689
:101A600074776172652052657365740020576174E4
:101A70006368646F67205265736574002042726FFB
:101A8000776E206F757420526573657400204578F9
:101A90007465726E616C20526573657400506F7767
:101AA00065725570006572726F7220777269746921
:101AB0006E6720746F2066696C6500656E64737470
:101AC0006F7073206869743A2000446F6E652073EC
:101AD0006176696E672066696C652E006F6B004DDC
:101AE0004B3353206669726D77617265206465744B
:101AF0006563746564206F6E204D4B33207072698E
:101B00006E746572005072757361206933204D4B9D
:101B10003353204F4B2E00426C61636B6F75742002
:101B20006F636375727265642E205265636F7665AC
:101B300072207072696E743F0053656C66746573D1
:101B4000742077696C6C2062652072756E20746FEA
:101B50002063616C69627261746520616363757290
:101B60006174652073656E736F726C657373207238
:101B700065686F6D696E672E0054686572652069CF
:101B800073207374696C6C2061206E6565642074C9
:101B90006F206D616B65205A2063616C69627261B0
:101BA00074696F6E2E20506C6561736520666F6C72
:101BB0006C6F7720746865206D616E75616C2C2088
:101BC00063686170746572204669727374207374FF
:101BD0006570732C2073656374696F6E2043616C4C
:101BE0006962726174696F6E20666C6F772E005047
:101BF00072696E74657220686173206E6F74206202
:101C000065656E2063616C696272617465642079D8
:101C100065742E20506C6561736520666F6C6C6F07
:101C20007720746865206D616E75616C2C20636827
:101C30006170746572204669727374207374657084
:101C4000732C2073656374696F6E2043616C6962E5
:101C5000726174696F6E20666C6F772E004F6C64D2
:101C60002073657474696E677320666F756E642E79
:101C70002044656661756C74205049442C2045737E
:101C800074657073206574632E2077696C6C2062B4
:101C900065207365742E005761726E696E673A2015
:101CA000626F7468207072696E74657220747970E6
:101CB0006520616E64206D6F74686572626F617219
:101CC000642074797065206368616E6765642E00B6
:101CD0005761726E696E673A207072696E746572D0
:101CE0002074797065206368616E6765642E0057A3
:101CF00061726E696E673A206D6F74686572626FAB
:101D00006172642074797065206368616E676564D0
:101D10002E0058595A2063616C6962726174696F50
:101D20006E20616C6C2072696768742E20536B653D
:101D3000772077696C6C20626520636F72726563CF
:101D4000746564206175746F6D61746963616C6C36
:101D5000792E0058595A2063616C69627261746906
:101D60006F6E20616C6C2072696768742E20582F2A
:101D70005920617865732061726520736C696768AA
:101D8000746C7920736B657765642E20476F6F6480
:101D9000206A6F62210058595A2063616C6962722F
:101DA0006174696F6E206F6B2E20582F59206178F7
:101DB0006573206172652070657270656E64696319
:101DC000756C61722E20436F6E67726174756C6101
:101DD00074696F6E73210058595A2063616C69628F
:101DE000726174696F6E206661696C65642E205241
:101DF000696768742066726F6E742063616C6962D3
:101E0000726174696F6E20706F696E74206E6F748A
:101E100020726561636861626C652E0058595A20B2
:101E200063616C6962726174696F6E206661696C6E
:101E300065642E2046726F6E742063616C696272F5
:101E40006174696F6E20706F696E7473206E6F7449
:101E500020726561636861626C652E0058595A2072
:101E600063616C6962726174696F6E206661696C2E
:101E700065642E20506C6561736520636F6E7375A9
:101E80006C7420746865206D616E75616C2E0058ED
:101E9000595A2063616C6962726174696F6E206364
:101EA0006F6D70726F6D697365642E20526967681B
:101EB000742066726F6E742063616C696272617403
:101EC000696F6E20706F696E74206E6F742072651A
:101ED00061636861626C652E0058595A2063616CB9
:101EE0006962726174696F6E20636F6D70726F6D7D
:101EF000697365642E2046726F6E742063616C692D
:101F000062726174696F6E20706F696E7473206E97
:101F10006F7420726561636861626C652E00585948
:101F20005A2063616C6962726174696F6E206661C8
:101F3000696C65642E204265642063616C6962721D
:101F40006174696F6E20706F696E742077617320A1
:101F50006E6F7420666F756E642E00506C656173D1
:101F60006520706C61636520737465656C207368AF
:101F7000656574206F6E20686561746265642E000B
:101F800044697374616E6365206265747765656E1C
:101F900020746970206F6620746865206E6F7A7A8D
:101FA0006C6520616E6420746865206265642073CE
:101FB00075726661636520686173206E6F7420625C
:101FC00065656E20736574207965742E20506C658C
:101FD00061736520666F6C6C6F7720746865206D27
:101FE000616E75616C2C2063686170746572204647
:101FF000697273742073746570732C2073656374D5
:10200000696F6E204669727374206C617965722005
:1020100063616C6962726174696F6E2E00506C61ED
:1020200063652061207368656574206F6620706148
:1020300070657220756E64657220746865206E6FBD
:102040007A7A6C6520647572696E672074686520A1
:1020500063616C6962726174696F6E206F6620667D
:1020600069727374203420706F696E74732E204906
:102070006620746865206E6F7A7A6C65206361747F
:1020800063686573207468652070617065722C20C8
:10209000706F776572206F66662074686520707255
:1020A000696E74657220696D6D6564696174656CD3
:1020B000792E00506C656173652072656D6F766571
:1020C00020737465656C2073686565742066726F33
:1020D0006D20686561746265642E004973207374B5
:1020E00065656C207368656574206F6E2068656136
:1020F000746265643F00206F66203400536561722E
:102100006368696E67206265642063616C696272EE
:102110006174696F6E20706F696E7400206F662045
:1021200039004D6561737572696E67207265666509
:1021300072656E636520686569676874206F6620E4
:1021400063616C6962726174696F6E20706F696E31
:102150007400506C6561736520636C65616E2074FA
:102160006865206E6F7A7A6C6520666F7220636195
:102170006C6962726174696F6E2E20436C69636B67
:10218000207768656E20646F6E652E004175746FF0
:1021900020686F6D650078797A63616C5F6D656149
:1021A00073737572655F656E7465720A0078797A0B
:1021B00063616C5F73706972616C382063783D2570
:1021C000642063793D2564207A303D256420647A5B
:1021D0003D2564207261646975733D2564206164E6
:1021E0003D25640A0078797A63616C5F736561727A
:1021F00063685A206E6F207369676E616C0A20787D
:102200003D256C6420793D256C64207A3D256C6405
:102210000A00204F4E2D5349474E414C20617420F7
:10222000783D256420793D2564207A3D2564206130
:10223000643D25640A0078797A63616C5F73656137
:102240007263685A20783D256C6420793D256C6462
:10225000207A3D256C640A000A0025303278007827
:10226000797A63616C5F7363616E5F706978656CC6
:10227000735F33327833322063783D25642063798D
:102280003D2564206D696E5F7A3D2564206D61781F
:102290005F7A3D25640A00202532642025640A0007
:1022A0000A002530327800206D696E3D2564206D6E
:1022B00061783D2564206469663D25640A006D618E
:1022C000785F633D253264206D61785F6C3D2564E5
:1022D0000A006D61785F633D2564206D61785F72EF
:1022E0003D2564206D61785F6D617463683D256490
:1022F0000A0020783D256420793D2564207A3D251B
:10230000640A00207061747465726E20666F756E69
:10231000642061742025642025640A000000F00018
:10232000F801FC03FE07FE07FE07FE07FC03F801A9
:10233000F000000073697A656F6628746F74616CD1
:10234000293D25640A0073697A656F6628626C6F9F
:10235000636B5F627566666572293D25640A007865
:10236000797A63616C5F6D656173737572655F6CBB
:10237000656176650A00706F696E743D256420782A
:102380003D256420793D2564207A3D25640A005866
:10239000025802584D584DB004F055F055B004782D
:1023A000797A63616C5F66696E645F6265645F69B8
:1023B0006E64756374696F6E5F73656E736F725F61
:1023C000706F696E745F787920783D256C64207930
:1023D0003D256C64207A3D256C640A00203C200079
:1023E0005741524E494E473A2046726F6E742070E4
:1023F0006F696E74206E6F742072656163686162CC
:102400006C652E205920636F6F7264696E6174650C
:102410003A0000000040410000C04000005C430062
:1024200000C04000005C4300004643000040410003
:10243000004643497465726174696F6E3A200043C7
:10244000616C6962726174696F6E206661696C6546
:10245000642120436865636B20746865206178653A
:102460007320616E642072756E20616761696E2EE3
:1024700000000E1315110E000000041209120400D2
:1024800000001C1F11111F00000006191803130C77
:1024900000040E1F041C000000040A0A0A0A11119D
:1024A0000E001F1511151F0000000103161C080067
:1024B000000000110A04110A040C12120C000000A2
:1024C000002563252D31382E3138532563005B25D7
:1024D000735D2563005B25535D2563002563252D12
:1024E00031382E31385300252E31305320002563EA
:1024F000252D31382E3138732563002563252D2E87
:1025000031365320002563252E3135533A25732566
:10251000336400457872656D65207370616E206F5D
:102520006620746865205A2076616C756573210099
:1025300025326400426564206C6576656C696E675F
:10254000206661696C65642E2053656E736F72201E
:102550006469646E7420747269676765722E2044C2
:102560006562726973206F6E206E6F7A7A6C653F58
:102570002057616974696E6720666F722072657397
:1025800065742E004731205A252D302E33662046A3
:10259000252D302E33660047312045252D302E3332
:1025A00066204632373030004D38330000002110AD
:1025B000422063308440A550C660E77008812991AD
:1025C0004AA16BB18CC1ADD1CEE1EFF13112100255
:1025D00073325222B5529442F772D66239931883FD
:1025E0007BB35AA3BDD39CC3FFF3DEE36224433421
:1025F00020040114E664C774A44485546AA54BB54D
:1026000028850995EEE5CFF5ACC58DD553367226F4
:1026100011163006D776F6669556B4465BB77AA79C
:1026200019973887DFF7FEE79DD7BCC7C448E55840
:102630008668A7784008611802282338CCC9EDD9EC
:102640008EE9AFF9488969990AA92BB9F55AD44A94
:10265000B77A966A711A500A333A122AFDDBDCCB3C
:10266000BFFB9EEB799B588B3BBB1AABA66C877C60
:10267000E44CC55C222C033C600C411CAEED8FFD8C
:10268000ECCDCDDD2AAD0BBD688D499D977EB66E34
:10269000D55EF44E133E322E511E700E9FFFBEEFDC
:1026A000DDDFFCCF1BBF3AAF599F788F8891A9819E
:1026B000CAB1EBA10CD12DC14EF16FE18010A10088
:1026C000C230E3200450254046706760B983989378
:1026D000FBA3DAB33DC31CD37FE35EF3B1029012D8
:1026E000F322D2323542145277625672EAB5CBA544
:1026F000A89589856EF54FE52CD50DC5E234C32428
:10270000A01481046674476424540544DBA7FAB717
:102710009987B8975FE77EF71DC73CD7D326F23677
:102720009106B01657667676154634564CD96DC963
:102730000EF92FE9C899E9898AB9ABA944586548C7
:1027400006782768C018E1088238A3287DCB5CDBB7
:102750003FEB1EFBF98BD89BBBAB9ABB754A545A17
:10276000376A167AF10AD01AB32A923A2EFD0FED83
:102770006CDD4DCDAABD8BADE89DC98D267C076C67
:10278000645C454CA23C832CE01CC10C1FEF3EFF57
:102790005DCF7CDF9BAFBABFD98FF89F176E367EB7
:1027A000554E745E932EB23ED10EF01E7C3C3E3FE1
:1027B0002F2A225C00506C65617365207761697413
:1027C0000022206661696C65643A20427566666520
:1027D000722066756C6C21002200256920686F7577
:1027E0007273202569206D696E7574657300544994
:1027F0004D454F55543A004D3131300046756C6CA3
:102800002052582042756666657200437573746F76
:102810006D0054657874757200536D6F6F74680045
:1028200047312059252D2E32662045252D2E336621
:10283000004731205825642059252D2E3266204529
:10284000252D2E3366006673656E736F725F636845
:1028500065636B706F696E745F7072696E740A0085
:10286000312E3000312E3500554E4B4E4F574E0015
:102870004C413130433A204C696E656172204164AD
:1028800076616E6365206D6F64653A20004C41315E
:1028900030433A2041646A757374656420452D4A5B
:1028A00065726B3A2000656E717565696E672022EE
:1028B00000446F6E65207072696E74696E67206681
:1028C000696C65004D3131322063616C6C65642E3A
:1028D00020456D657267656E63792053746F702E45
:1028E000005072696E7465722073746F70706564E5
:1028F0002064756520746F206572726F72732E206C
:1029000046697820746865206572726F7220616E06
:102910006420757365204D39393920746F207265D4
:1029200073746172742E202854656D7065726174C1
:102930007572652069732072657365742E20536506
:1029400074206974206166746572207265737461A5
:102950007274696E6729004E6F204C696E65204E57
:10296000756D626572207769746820636865636B52
:1029700073756D2C204C617374204C696E653A2020
:10298000004E6F20436865636B73756D20776974C3
:1029900068206C696E65206E756D6265722C204CC6
:1029A000617374204C696E653A2000636865636BDF
:1029B00073756D206D69736D617463682C204C6153
:1029C0007374204C696E653A20004C696E65204E28
:1029D000756D626572206973206E6F74204C61732F
:1029E00074204C696E65204E756D6265722B312CBA
:1029F000204C617374204C696E653A200053544F2B
:102A0000505045442E2000544D43204452495645D1
:102A100052204F56455254454D500025632533648E
:102A20002F25642563005A25362E32662563005A09
:102A30002020202D2D2D2000256325336425250001
:102A40002D2D2D00253368686400253353253373FD
:102A5000252500555342002020200020534400200B
:102A600025753E257500203F3E2575002025753EC5
:102A700000203F3E00203E257500204625750020A1
:102A8000463F0020463020200025632D2D3A2D2D75
:102A900020200025632533756820256325630025E4
:102AA00063253032753A253032752563256300720F
:102AB0006573756C742076616C75653A2025640ABF
:102AC0000020693D25326420636E743D2532642008
:102AD00076616C3D2532640A00636C7573746572AF
:102AE000733A0A0020693D25326420737465703D95
:102AF0002532640A00736F727465642073616D70AF
:102B00006C65733A0A00252D3773003A200025645E
:102B10002F3600252D323053002020202020202069
:102B200020202020202020202020202000203A20AB
:102B300000202020202020202020202020202020B5
:102B4000202020202000252D32307300202020203E
:102B50002020202020202020200025730050494ED6
:102B600044412048656174696E670043616C696225
:102B7000726174696F6E20646F6E650043616C6989
:102B800062726174696E67205A0042656420646FE6
:102B90006E65004265642048656174696E6700482F
:102BA000656174696E6720646F6E652E00486561AB
:102BB00074696E67006F6B0A0073746172740A0047
:102BC0004D4D5532206669726D776172652076656C
:102BD0007273696F6E20696E76616C69642E205223
:102BE000657175697265642076657273696F6E3A96
:102BF000206275696C64206E756D62657220256453
:102C0000206F72206869676865722E004D4D5520EF
:102C10003D3E20276F6B270A004D4D55203D3E203D
:102C2000276F6B270A002564004D4D55203D3E203F
:102C3000276F6B272C20726573756D652070726924
:102C40006E740A004D4D552072657472792061745E
:102C500074656D7074206E722E2025640A004D4DCF
:102C600055203D3E20276F6B270A00410A004D4D3D
:102C700055203C3D202741270A004D363030004D7D
:102C8000363030204155544F002568687500410AA0
:102C9000004D4D55203C3D202741270A0050300A69
:102CA000004D25640A004D4D55203C3D20274D2503
:102CB00064270A0057300A004D4D55203C3D20271F
:102CC0005730270A0053330A004D4D55203C3D2014
:102CD000275333270A0052300A004D4D55203C3D02
:102CE00020275230270A004B25640A004D4D5520FD
:102CF0003C3D20274B2564270A004525640A004DEA
:102D00004D55203C3D2027452564270A0055300AB3
:102D1000004D4D55203C3D20275530270A004330BB
:102D20000A004D4D55203C3D20274330270A004CDA
:102D300025640A004D4D55203C3D20274C25642735
:102D40000A005425640A004D4D55203C3D2027546F
:102D50002564270A004D4D55202D20454E41424CFB
:102D6000454400256868750050300A004D310A005E
:102D70004D4D55203C3D20274D31270050300A0055
:102D80004D4D552076657273696F6E2076616C6962
:102D900064004D4D55203D3E202725646F6B270A6A
:102DA0000025750053320A004D4D55203C3D20272B
:102DB000533227004D4D55203D3E202725646F6B33
:102DC000270A002575004D4D55206E6F74207265E1
:102DD00073706F6E64696E67202D204449534142C1
:102DE0004C45440053310A004D4D55203C3D2027B1
:102DF000533127004D4D55203D3E2027737461729D
:102E00007427006572726F723A20756E6B6E6F7701
:102E10006E206D6F76650A006E6F206D6F76650AA5
:102E200000542D636F64650A00756E6C6F61640AEF
:102E3000006C6F61640A006D6D755F6765745F7229
:102E40006573706F6E7365202D20626567696E20F3
:102E50006D6F76653A20006D6D755F6765745F72A2
:102E60006573706F6E736528292072657475726E54
:102E7000696E673A2025640A00556E6C6F6164695B
:102E80006E672066696E697368656420320A005552
:102E90006E6C6F616420320A00556E6C6F616469FC
:102EA0006E672066696E697368656420310A005533
:102EB0006E6C6F616420310A004D4D552073746152
:102EC00072747320726573706F6E64696E670A0046
:102ED0004D4D55206E6F7420726573706F6E64690E
:102EE0006E670A0046696C616D656E74206F75745B
:102EF000206F662072616E6765202564200A0000DD
:102F000000803F555585410000803F0000C84100CA
:102F1000000040555505420000C03F0000484200F7
:102F200000204055558542000070C1ABAAA6420062
:102F30000060C10000A0410000C0C00000204100AE
:102F4000002041ABAA3A41000020C15555D54000B0
:102F50000048C2555505424D373031204534004DAB
:102F6000373031204533004D373031204532004D68
:102F7000373031204531004D373031204530004663
:102F8000696C616D656E74206E72206F7574206F50
:102F9000662072616E67652100206661696C6564F8
:102FA0002E00207375636365656465642E004D4D66
:102FB000552063616E5F6C6F61643A00506C6561AF
:102FC000736520757064617465206669726D7761E0
:102FD000726520696E20796F7572204D4D55322EC5
:102FE0002057616974696E6720666F72207265731D
:102FF00065742E004D4D55204F4B2E205265737534
:103000006D696E672E2E2E004D4D55204F4B2E2094
:10301000526573756D696E6720706F736974696F3F
:103020006E2E2E2E004D4D55204F4B2E2052657387
:10303000756D696E672074656D7065726174757207
:10304000652E2E2E0046697820746865206973739A
:10305000756520616E64207468656E20707265739A
:103060007320627574746F6E206F6E204D4D552005
:10307000756E69742E0050726573732074686520D4
:103080006B6E6F6220746F20726573756D65206E54
:103090006F7A7A6C652074656D7065726174757293
:1030A000652E004D4D55206E656564732075736502
:1030B0007220617474656E74696F6E2E00506C6559
:1030C0006173652072656D6F76652066696C616DF0
:1030D000656E7420616E64207468656E2070726520
:1030E000737320746865206B6E6F622E00456A658D
:1030F0006374696E672066696C616D656E74002526
:10310000632533642F256425630024F4D43050C331
:103110008E20C2A24017828B7011127A910D816CA1
:10312000D90AA861E108C7586607615143061E4BDA
:103130005D05C145A7041A411104093D9803713981
:1031400031034036DB0265339102D4305402802EC5
:103150001D02632CEE01752AC501B028A0011027BD
:1031600081018F2564012B244B01E0223401AC2125
:103170001F018D200D01801FFC00841EED00971D96
:10318000DF00B81CD200E61BC600201BBC00641A7E
:10319000B200B219A8000A19A0006A189900D11744
:1031A000910040178B00B516840031167E00B315D0
:1031B00079003A157300C7146F0058146A00EE13B3
:1031C00066008813630025135E00C7125B006C1253
:1031D000570015125400C111510070114F002111F8
:1031E0004B00D61049008D104700461044000210D5
:1031F0004200C00F4000800F3E00420F3C00060F0F
:103200003B00CB0E3800930E37005C0E3500270EC6
:103210003400F30D3200C10D3100900D3000600D0F
:103220002E00320D2D00050D2C00D90C2B00AE0CFC
:103230002900850C29005C0C2700350C27000E0C9A
:103240002600E80B2400C40B2400A00B23007D0BF8
:1032500023005A0B2100390B2100180B2000F80A1B
:103260001F00D90A1E00BB0A1E009D0A1D00800A0D
:103270001D00630A1C00470A1B002C0A1B00110AD0
:103280001A00F7091A00DD091900C4091900AB0971
:103290001900920917007B091800630917004C09EF
:1032A000160036091600200916000A091500F5084F
:1032B0001500E0081400CC081400B8081400A40895
:1032C0001400900813007D0812006B0813005808C2
:1032D00012004608120034081100230811001208D9
:1032E000110001081100F0071000E0071000D007DE
:1032F0001000C0071000B0070F00A10710009107D1
:103300000E0083070F0074070F0065070E005707B4
:103310000E0049070E003B070D002E070E00200788
:103320000D0013070D0006070D00F9060C00ED0651
:103330000D00E0060C00D4060C00C8060C00BC060C
:103340000C00B0060C00A4060B0099060C008D06BC
:103350000B0082060B0077060B006C060B00610663
:103360000A0057060B004C060A0042060A003806FF
:103370000A002E060A0024060A001A060A00100691
:10338000090007060A00FD050900F4050900EB0520
:103390000900E2050900D9050900D0050900C705A3
:1033A0000900BE050900B5050800AD050800A50522
:1033B00009009C050800940508008C050800840598
:1033C00008007C050800740508006C050700650509
:1033D00008005D050700560508004E050700470573
:1033E00007004005080038050700310507002A05D9
:1033F0000700230507001C050600160507000F053A
:1034000007000805060002050700FB040600F50496
:103410000700EE040600E8040600E2040700DB04EF
:103420000600D5040600CF040600C9040600C30444
:103430000600BD040600B7040600B1040500AC0494
:103440000600A6040600A00405009B0406009504DF
:103450000500900406008A04050085040500800428
:1034600006007A04050075040500700405006B046D
:10347000050066040500610405005C0405005704AE
:103480000500520405004D040500480405004304EE
:1034900005003E0404003A0405003504050030042C
:1034A00004002C04050027040400230405001E0466
:1034B00004001A04040016040500110404000D049D
:1034C0000400090405000404040000040400FC03D3
:1034D0000400F8030400F4030400F0030400EC0308
:1034E0000400E8030400E4030400E0030400DC0338
:1034F0000400D8030400D4030400D0030400CC0368
:103500000400C8030300C503030024F404D9201BEE
:10351000C40C5C0E9804C4095F0265077101F405D0
:10352000F900FB04B30048048700C1036900580395
:10353000550003034500BE023A00840231005302E5
:103540002A002902250004022000E4011C00C80111
:103550001900AF01170098011400840113007101D4
:1035600010006101100051010E0043010D003601F1
:103570000B002B010B0020010B00150109000C01B1
:10358000090003010800FB000800F3000800EB003D
:103590000700E4000600DE000600D8000600D200A6
:1035A0000600CC000500C7000500C2000500BD00F4
:1035B0000400B9000400B5000400B1000400AD002F
:1035C0000400A9000400A5000300A20003009F005E
:1035D00004009B0003009800030095000200930084
:1035E0000300900003008D0002008B0003008800A0
:1035F00002008600020084000300810002007F00B8
:1036000002007D0002007B000200790002007700CA
:1036100001007600020074000200720001007100D7
:1036200002006F0002006D0001006C0002006A00E1
:1036300001006900020067000100660001006500EA
:1036400001006400020062000100610001006000EE
:1036500001005F0002005D0001005C0001005B00F2
:1036600001005A00010059000100580001005700F4
:1036700001005600010055000100540001005300F4
:1036800000005300010052000100510001005000F1
:1036900001004F0001004E0000004E0001004D00EF
:1036A00001004C0001004B0000004B0001004A00EB
:1036B00001004900010048000000480001004700E7
:1036C00001004600000046000100450000004500E2
:1036D00001004400010043000000430001004200DB
:1036E00000004200010041000000410001004000D4
:1036F00001003F0000003F0001003E0000003E00CE
:1037000001003D0000003D0001003C0000003C00C5
:1037100000003C0001003B0000003B0001003A00BB
:1037200000003A00010039000000390001003800B3
:1037300000003800000038000100370000003700AA
:1037400001003600000036000000360001003500A0
:103750000000350000003500010034000000340096
:10376000000034000100330000003300000033008B
:103770000100320000003200000032000100310080
:103780000000310000003100010030000000300076
:103790000000300001002F0000002F0000002F006B
:1037A00000002F0001002E0000002E0000002E005F
:1037B00001002D0000002D0000002D0000002D0054
:1037C00001002C0000002C0000002C0000002C0048
:1037D00001002B0000002B0000002B0000002B003C
:1037E00001002A0000002A0000002A0000002A0030
:1037F0000100290000002900000029000000290024
:103800000000290001002800000028000000280016
:103810000000280000002800010027000000270009
:1038200000002700000027000000270001002600FC
:1038300000002600000026000000260000002600F0
:1038400001002500000025000000250000002500E3
:1038500000002500000025000100240000002400D5
:1038600000002400000024000000240001002300C8
:1038700000002300000023000000230000002300BC
:1038800000002300000023000100220000002200AD
:1038900000002200000022000000220000002200A0
:1038A0000100210000002100000021000000210093
:1038B0000000210000002100000021000100200084
:1038C0000000200000002000000020000000200078
:1038D00000002000000020000000200001001F0068
:1038E00000001F0000001F0000001F0000001F005C
:1038F00000001F0000001F0001001E0000001E004D
:1039000000001E0000001E00000047312058352E28
:10391000302045342E302046313030302E300047B4
:1039200031205A302E32302046313030302E3000A7
:103930004731205835352E30204532352046313438
:1039400030302E3000473120592D322E3020463174
:103950003030302E3000473120583234302E302075
:103960004532352E30202046323230302E3000475E
:1039700039322045302E30004731205A302E332046
:1039800046313030302E30004731205835352E301A
:103990002045382E302046323030302E300047312E
:1039A0002058352E30204533322E302046313830E5
:1039B000302E30004731205835352E3020453332F7
:1039C0002E302046313037332E30004731204634F8
:1039D000303030004D3230342053313030300047F9
:1039E00031205A352046373230302E3030300047C3
:1039F0003120452D312E35303030302046323130B7
:103A0000302E3030303030004D3833004739300000
:103A1000473231004739322045302E3000473120BF
:103A2000583530205935352045332E363237373327
:103A30000047312058323030205935352045302E5E
:103A40003439333836004731205832303020593736
:103A5000352045332E36323737330047312058353D
:103A600030205937352045302E3439333836004729
:103A70003120583530205939352045332E363237EC
:103A800037330047312058323030205939352045FE
:103A9000302E343933383600473120583230302018
:103AA000593131352045332E3632373733004731DF
:103AB0002058353020593131352045302E343933B6
:103AC00038360047312058353020593133352045BC
:103AD000332E3632373733004731205832303020DA
:103AE000593133352045302E3636313734004731A1
:103AF000205832303020593135352045322E36327B
:103B0000373733004731205831303020593135357F
:103B1000204532004731205837352059313535207E
:103B200045322E350047312046313038300047319C
:103B3000205A302E3135302046373230302E30305A
:103B4000300047312058353020593135350047395C
:103B5000322045302E3000473238004D31303900A8
:103B60004D313930004D3130370054256400473134
:103B7000205A302E342046313030302E300047313C
:103B800020592D332E302046313030302E30004D2C
:103B9000383300473120583130302E302045313213
:103BA0002E352046313030302E3000473120583607
:103BB000302E302045392E302046313030302E30F6
:103BC00000B4399E39883978396F395639453930DA
:103BD000391F390A39143A103A0C3A083AEF39DFEA
:103BE00039D439CB39473120583530205933352035
:103BF00045252D2E336600423B2E3B253B143B04CE
:103C00003BEE3AD83AC33AAE3A983A833A6F3A5BC7
:103C10003A463A313A1D3A496E76616C69642050F1
:103C200049442063616C2E20726573756C74732E29
:103C3000204E6F742073746F72656420746F20451A
:103C40004550524F4D2E004D353030004731205AEF
:103C50003135204631353030004739310047312089
:103C600058353020593139302045302046373030F2
:103C70003000473930004D3834004D373032204362
:103C80000047312058313020593138302046343007
:103C90003030004731205A31302046313330302E19
:103CA000303030004D313430205330004D3130341D
:103CB00020533000473120452D302E3037353030FD
:103CC0002046323130302E3030303030004D3130FF
:103CD000370025530A20252D31362E313653252D18
:103CE00033640A20252D31362E313653252D336489
:103CF0000025530A20252D31362E313653252D33FC
:103D0000640A20252D31362E313653252D33640A91
:103D100020252D31362E313653252D336400255381
:103D20000A20252D31362E313653252D33640A20B5
:103D3000252D31362E313653252D33640A20252D7D
:103D4000372E37535820252D336420205920252D18
:103D500033640020257325336401200A000A2049BA
:103D600052203A2020202020202025332E31665654
:103D700000205057523A20202020202025342E3178
:103D800066560A204245443A20202020202025342F
:103D90002E3166560025530A20582025640A2059E2
:103DA00020256400466C6173684169722049502087
:103DB000416464723A004D4D55322020202020206D
:103DC000204E2F410025642E25642E25642D256468
:103DD000002046573A00417072203135203230328F
:103DE0003100453344763666756C6C0045494E5358
:103DF000795F31306100315F37356D6D5F4D4B3329
:103E0000002D2D2D2D2D2D2D2D2D2D2D2D00207204
:103E100065706F20556E6B6E6F776E0020332E3994
:103E20002E302D5243312D33323732004669726DB8
:103E3000776172653A0025642E25642E25642E254F
:103E400064004D373032004D373031004D3730325D
:103E5000004D373031004D3131372046697273746F
:103E6000206C617965722063616C2E00504944209A
:103E700063616C2E2066696E6973686564005049E1
:103E8000442063616C2E2020202020202020202030
:103E900020005072696E7420706175736564005003
:103EA00072696E742046414E004E6F7A7A6C6520BE
:103EB00046414E00546F74616C004C617374207005
:103EC00072696E74004D4D55206C6F61642066619F
:103ED000696C73004D4D55206661696C73004C61CF
:103EE0007374207072696E74206661696C75726596
:103EF00073004D4D5520706F776572206661696C57
:103F000073004D4D55206C6F6164206661696C7360
:103F1000004D4D55206661696C7300546F74616C7F
:103F2000206661696C757265730043726173680025
:103F300046696C616D2E2072756E6F7574730050DA
:103F40006F776572206661696C7572657300546F76
:103F500074616C206661696C75726573004372618F
:103F600073680046696C616D2E2072756E6F757492
:103F70007300506F776572206661696C7572657346
:103F8000004C617374207072696E74206661696C94
:103F90007572657300546F74616C004C61737420AA
:103FA0007072696E740050494E444100416D6269FF
:103FB000656E740042656C7420737461747573006F
:103FC000566F6C74616765730054656D70657261DE
:103FD00074757265730042656C74207374617475D6
:103FE000730053656E736F7220696E666F0045785B
:103FF00074727564657220696E666F0058595A2034
:1040000063616C2E2064657461696C7300756E6BFE
:104010006E6F776E004D4D553220636F6E6E656327
:1040200074656400446174653A00686F77746F2E3C
:10403000707275736133642E636F6D00666F727595
:104040006D2E707275736133642E636F6D007072C4
:1040500075736133642E636F6D00746F20756E6CC1
:104060006F61642066696C616D656E7400746F20A9
:104070006C6F61642066696C616D656E740050726E
:1040800065737320746865206B6E6F62003E4361D8
:104090006E63656C0050726568656174696E672057
:1040A000746F206375740050726568656174696E21
:1040B0006720746F20656A65637400507265686577
:1040C0006174696E6720746F20756E6C6F61640037
:1040D00050726568656174696E6720746F206C6FDB
:1040E0006164002F2F20616374696F6E3A7061758F
:1040F000736564002573202534642052504D0A25D1
:1041000073202534642052504D0A00416464697460
:10411000696F6E616C206C6F616420617474656D91
:104120007074206E722E2025640A00773235783242
:1041300030636C5F63666D0A0077323578323063C6
:104140006C5F656E7465720A004D4D55206C6F6131
:1041500064206661696C6564202020202000207442
:104160006F6F206C6F6E6720657874727573696FFE
:104170006E2070726576656E7465640020636F6C86
:104180006420657874727573696F6E2070726576DD
:10419000656E74656400746D63323133305F676FD0
:1041A000746F5F7374657020256420256420256416
:1041B000202564200A004E6F203078464620726524
:1041C0006365697665640053656E64696E67203067
:1041D000784646001F1F1F1F1F1F1F1F2E002E0087
:1041E0004E6F772066726573682066696C653A2049
:1041F000004E6F7720646F696E672066696C653A60
:1042000020002220706F73002220706172656E742E
:104210003A2200535542524F5554494E452043418E
:104220004C4C207461726765743A22002E00436121
:104230006E6E6F7420656E7465722073756264694A
:10424000723A200053442063617264206F6B006FE8
:1042500070656E526F6F74206661696C656400767C
:104260006F6C756D652E696E6974206661696C6529
:104270006400534420696E6974206661696C00575C
:10428000726974696E6720746F2066696C653A2084
:104290000046696C652073656C6563746564002015
:1042A00053697A653A200046696C65206F70656EC7
:1042B00065643A2000747279696E6720746F2063B8
:1042C000616C6C207375622D67636F64652066692D
:1042D0006C6573207769746820746F6F206D616EF0
:1042E00079206C6576656C732E006F70656E206644
:1042F00061696C65642C2046696C653A2000536FD7
:104300007274696E672066696C657300536F6D65C2
:104310002066696C65732077696C6C206E6F742001
:10432000626520736F727465642E204D61782E2053
:104330004E6F2E206F662066696C657320696E2053
:104340003120666F6C64657220666F7220736F72C5
:1043500074696E67206973203130302E00437261BA
:10436000736820646574656374696F6E2063616E41
:104370000A6265207475726E6564206F6E206F6EC0
:104380006C7920696E0A4E6F726D616C206D6F647E
:1043900065005741524E494E473A0A43726173686D
:1043A00020646574656374696F6E0A646973616221
:1043B0006C656420696E0A537465616C7468206D65
:1043C0006F6465004175746F6C6F6164696E67201E
:1043D00066696C616D656E7420617661696C61629D
:1043E0006C65206F6E6C79207768656E2066696CED
:1043F000616D656E742073656E736F7220697320D2
:104400007475726E6564206F6E2E2E2E00455252AA
:104410004F523A2046696C616D656E742073656E0B
:10442000736F72206973206E6F7420726573706F82
:104430006E64696E672C20706C65617365206368BB
:1044400065636B20636F6E6E656374696F6E2E00BB
:104450004D6F6465206368616E676520696E2070CA
:10446000726F6772657373202E2E2E0043616C6924
:10447000627261746500536865657420252E377318
:104480000A5A206F66667365743A20252B312E33E5
:1044900066206D6D0A2563436F6E74696E75650ADB
:1044A000256353746172742066726F6D207A657231
:1044B0006F00506C65617365206C6F616420666984
:1044C0006C616D656E742066697273742E00497339
:1044D0002066696C616D656E74206C6F61646564E3
:1044E0003F0043616E63656C0046696C616D656E8B
:1044F000740053656C6563742066696C616D656EEC
:10450000743A0052756E6E696E672057697A6172EF
:10451000642077696C6C2064656C657465206375D4
:104520007272656E742063616C6962726174696F26
:104530006E20726573756C747320616E6420737481
:104540006172742066726F6D2074686520626567A1
:10455000696E6E696E672E20436F6E74696E756545
:104560003F0050726568656174696E67206E6F7A8E
:104570007A6C652E20506C65617365207761697473
:104580002E004C6F6164696E672066696C616D65B1
:104590006E7400506C6561736520696E736572742A
:1045A0002066696C616D656E7420696E746F20742D
:1045B00068652065787472756465722C207468650E
:1045C0006E20707265737320746865206B6E6F6205
:1045D00020746F206C6F61642069742E00506C65CC
:1045E00061736520696E736572742066696C616DB4
:1045F000656E7420696E746F2074686520666972D8
:1046000073742074756265206F6620746865204D30
:104610004D552C207468656E20707265737320741C
:104620006865206B6E6F6220746F206C6F61642010
:1046300069742E00546865207072696E746572200A
:1046400077696C6C207374617274207072696E7417
:10465000696E672061207A69672D7A6167206C69CD
:104660006E652E20526F7461746520746865206BCE
:104670006E6F6220756E74696C20796F752072653B
:1046800061636820746865206F7074696D616C2067
:104690006865696768742E20436865636B20746879
:1046A0006520706963747572657320696E20746823
:1046B000652068616E64626F6F6B202843616C696E
:1046C00062726174696F6E206368617074657229CB
:1046D0002E0053656C6563742074656D706572613E
:1046E00074757265207768696368206D61746368AA
:1046F000657320796F7572206D6174657269616C84
:104700002E0043686F6F736520612066696C616D70
:10471000656E7420666F72207468652046697273D6
:1047200074204C617965722043616C6962726174B6
:10473000696F6E20616E642073656C6563742069B7
:104740007420696E20746865206F6E2D73637265C6
:10475000656E206D656E752E004E6F77204920774F
:10476000696C6C2063616C69627261746520646954
:104770007374616E6365206265747765656E20741D
:104780006970206F6620746865206E6F7A7A6C6538
:1047900020616E642068656174626564207375725F
:1047A000666163652E00596F752063616E20616CD0
:1047B0007761797320726573756D65207468652003
:1047C00057697A6172642066726F6D2043616C690B
:1047D00062726174696F6E202D3E2057697A617232
:1047E000642E00506C6561736520636865636B209F
:1047F0006F75722068616E64626F6F6B20616E64AA
:1048000020666978207468652070726F626C656DCF
:104810002E205468656E20726573756D652074680E
:10482000652057697A617264206279207265626FCF
:104830006F74696E6720746865207072696E746544
:10484000722E00416C6C20697320646F6E652E209F
:104850004861707079207072696E74696E672100AA
:10486000496620796F7520686176652061646469A6
:1048700074696F6E616C20737465656C2073686514
:104880006574732C2063616C696272617465207455
:1048900068656972207072657365747320696E2033
:1048A00053657474696E6773202D204857205365D3
:1048B000747570202D20537465656C207368656570
:1048C00074732E00506C6561736520636C65616E56
:1048D000206865617462656420616E642074686537
:1048E0006E20707265737320746865206B6E6F62E2
:1048F0002E00446F20796F752077616E7420746F7D
:1049000020726570656174206C61737420737465C6
:104910007020746F20726561646A757374206469B5
:104920007374616E6365206265747765656E206E71
:104930006F7A7A6C6520616E642068656174626567
:10494000643F0053656C656374206E6F7A7A6C65A2
:1049500020707265686561742074656D7065726140
:1049600074757265207768696368206D6174636827
:10497000657320796F7572206D6174657269616C01
:104980002E0049732066696C616D656E74206C6FD2
:10499000616465643F0049732066696C616D656E92
:1049A00074206C6F616465643F004E6F772049200E
:1049B00077696C6C2070726568656174206E6F7ABF
:1049C0007A6C6520666F7220504C412E004920772A
:1049D000696C6C2072756E207A2063616C696272FA
:1049E0006174696F6E206E6F772E004E6F77207244
:1049F000656D6F76652074686520746573742070CA
:104A000072696E742066726F6D20737465656C20B8
:104A100073686565742E00506C65617365207265FE
:104A20006D6F7665207368697070696E6720686560
:104A30006C706572732066697273742E00492077FA
:104A4000696C6C2072756E2078797A2063616C696C
:104A500062726174696F6E206E6F772E20497420C8
:104A600077696C6C2074616B6520617070726F780F
:104A70002E203132206D696E732E00466972737478
:104A80002C20492077696C6C2072756E20746865E3
:104A90002073656C667465737420746F2063686539
:104AA000636B206D6F737420636F6D6D6F6E20612B
:104AB0007373656D626C792070726F626C656D7373
:104AC0002E0048692C204920616D20796F75722075
:104AD0004F726967696E616C2050727573612069ED
:104AE00033207072696E7465722E20576F756C6416
:104AF00020796F75206C696B65206D6520746F205F
:104B0000677569646520796F75207468726F756761
:104B100068207468652073657475702070726F63A7
:104B20006573733F00452D636F72726563743A005D
:104B30005A2D636F72726563743A00592D636F72F8
:104B4000726563743A00582D636F72726563743ACC
:104B50000053706F6F6C4A6F696E004375747465B3
:104B600072004669726D77617265004D6F64656CA5
:104B700000537472696374005761726E0048572065
:104B80005365747570004857205365747570004301
:104B90006865636B73004E6F7A7A6C6520642E00D3
:104BA000537465656C2073686565747300473830AD
:104BB000004D3435004D3435205A00473736005704
:104BC000697A6172642073746174653A2025640A9D
:104BD0000057697A61726420656E64207374617431
:104BE000653A2025640A004D32323120496E7661E3
:104BF0006C696420657874727564657220004D324A
:104C0000313820496E76616C6964206578747275FC
:104C100064657220004D31303920496E76616C69CF
:104C20006420657874727564657220004D3130358A
:104C300020496E76616C696420657874727564656C
:104C40007220004D31303420496E76616C696420E9
:104C500065787472756465722000504F5745522014
:104C600050414E4943204445544543544544005522
:104C7000564C4F202D20656E642025640A00555641
:104C80004C4F5F54494E59202D20656E6420256499
:104C90000A00776F726C6420636F6F7264696E6173
:104CA0007465733A2028252E33662C20252E336612
:104CB0002C20252E3366290A0043757272656E74A6
:104CC00020706F73205A5F415849533A252E33663E
:104CD0000A43757272656E7420706F7320455F4170
:104CE0005849533A252E33660A004166746572208E
:104CF00077616974696E6720666F722074656D7084
:104D00003A0A43757272656E7420706F7320585F33
:104D1000415849533A252E33660A43757272656EBF
:104D20007420706F7320595F415849533A252E33D0
:104D3000660A0020573A0020453A00543A005A20AB
:104D40006C6976652061646A757374206F75742070
:104D50006F662072616E67652E2053657474696E8C
:104D60006720746F20302E20436C69636B20746F52
:104D700020636F6E74696E75652E005A206C6976BB
:104D8000652061646A757374206F7574206F662086
:104D900072616E67652E2053657474696E67207446
:104DA0006F20300020423A0020453A00543A004932
:104DB0004E5434007265636F7665725F6D6163682F
:104DC000696E655F73746174655F61667465725F57
:104DD000706F7765725F70616E69632C20696E69B0
:104DE0007469616C200050525553412075766C6F88
:104DF000004734205330004D32362053256C750067
:104E00004D3130362053004D32323020532564006E
:104E1000473120462564004D38320047393220455D
:104E2000004731204525302E33662046323730305A
:104E3000004731205A2566005052555341204D42BB
:104E40004C205631004731205825662059256620D0
:104E5000463330303000506F736974696F6E207262
:104E60006561642066726F6D20656570726F6D3A62
:104E7000004D3233202573002E67636F002C2066AF
:104E80006565646D756C7469706C793A004665652A
:104E900064726174653A0047312045252D302E3308
:104EA00066204632373030004731204535204631C4
:104EB0003230004D3833004D3130392053256400F5
:104EC0004D31393020532564004D31303420532585
:104ED000640047323820582059004731205A252E87
:104EE00033662046383030005265636F76657269EC
:104EF0006E67207072696E742020202000436F6FEF
:104F00006C646F776E0050726568656174207468B8
:104F100065206E6F7A7A6C6521004552524F523A85
:104F20000046696C616D656E742065787472756495
:104F3000696E672026207769746820636F727265D6
:104F4000637420636F6C6F723F004175746F6C6F98
:104F50006164696E672066696C616D656E74206955
:104F600073206163746976652C206A757374207090
:104F70007265737320746865206B6E6F6220616E5A
:104F80006420696E736572742066696C616D656E0C
:104F9000742E2E2E005072696E742074696D650037
:104FA00046696C616D656E74207573656400546F3D
:104FB00074616C207072696E742074696D65005440
:104FC0006F74616C2066696C616D656E7400526906
:104FD000676874004C656674005920646973746175
:104FE0006E63652066726F6D206D696E0053657625
:104FF00065726520736B65773A00536C69676874F6
:1050000020736B65773A004D656173757265642036
:10501000736B6577005B303B305D20706F696E7439
:10502000206F66667365740041646A757374696E97
:1050300067205A3A005265736574005265617220A8
:1050400073696465205B756D5D0046726F6E7420D8
:10505000736964655B756D5D005269676874207380
:105060006964655B756D5D004C6566742073696489
:1050700065205B756D5D005365742074656D7065AA
:105080007261747572653A00464C4558202D202097
:105090003234302F35300050502020202D20203247
:1050A00035342F3130300048495053202D202032E4
:1050B00032302F3130300041425320202D20203219
:1050C00035352F3130300041534120202D20203202
:1050D00036302F3130350050455420202D202032DD
:1050E00033302F383500504C4120202D20203231D4
:1050F000352F3630006E6F7A7A6C65202D20203285
:1051000035302F30006661726D2020202D20203236
:1051100035302F383000252D31322E313253252BAA
:10512000382E31660045787472756465723A006D88
:105130006D0059005800583A00593A005A3A002573
:1051400063252D31332E313353252B352E33660015
:1051500025533A0A2531382E32666D200A25533AF6
:105160000A2531306C6468202530326868646D200F
:10517000253032686864730025533A0A2531382E89
:1051800032666D200A25533A0A2531306C6464205A
:1051900025303268686468202530326868646D00A4
:1051A00025362E32666D6D0025533A0A25530A25A1
:1051B000533A0A25533A0025332E3266010025530F
:1051C0003A0A25530A252D31352E31355325332EF4
:1051D0003266010A252D31352E31355325332E32D5
:1051E0006601000000000000110A045052555341AE
:1051F00033444657002079303D25640A002078303A
:105200003D25640A004F4B0A004552524F5220611F
:10521000643D25640A002020207A303D25640A0080
:10522000207A303D25640A002079303D25640A004B
:105230002078303D25640A0078797A63616C5F6676
:10524000696E645F706F696E745F63656E746572BA
:10525000320A0000002100240027002A002D00301F
:1052600000330001010000040107010A01000020D1
:10527000002300260029002C002F0032000001002E
:105280000003010601090100000A0B02090C0D0EC2
:1052900008070304010000000000000000000000F7
:1052A00000000000000000000000000000000000FE
:1052B00000000012111000000000000000000000BB
:1052C00000000000000000000000000000000000DE
:1052D00000000000000000000000000000457272A5
:1052E0006F72202D20737461746963206D656D6F1A
:1052F000727920686173206265656E206F766572D1
:105300007772697474656E00436172642072656DB2
:105310006F766564005072696E746572206E6F7A84
:105320007A6C65206469616D657465722064696674
:10533000666572732066726F6D2074686520472DF4
:10534000636F64652E20506C6561736520636865CA
:10535000636B207468652076616C756520696E20CA
:1053600073657474696E67732E205072696E742051
:1053700063616E63656C6C65642E005072696E7457
:105380006572206E6F7A7A6C65206469616D6574F0
:10539000657220646966666572732066726F6D203F
:1053A00074686520472D636F64652E20436F6E74AB
:1053B000696E75653F004D3234004D3233202573E0
:1053C000006175746F25692E670022206661696C23
:1053D00065643A204275666665722066756C6C215C
:1053E00000456E717565696E6720746F207468651D
:1053F0002066726F6E743A2022004572726F723AA4
:10540000002200456E717565696E6720746F2074A7
:1054100068652066726F6E743A2022006563686F5B
:105420003A0001021020200808102040102040807F
:105430000201020108040201010204081020408058
:1054400080402010080402018004020180402010E6
:10545000080402010804020101020408102040802F
:105460000102040810204080100804088010204029
:105470000440801020400480000022002500280005
:105480002B002E003100340002010000050108014C
:105490000B010505050507050808080802020202B8
:1054A0000A0A0808040404040101010101010101C0
:1054B0000303030303030303040707070C0C0C0C8B
:1054C0000C0C0C0C02020202060606060606060674
:1054D0000B0B0B0B0B0B0B0B07070A0A0A0A0A0A2A
:1054E000050505040404080802454550524F4D20A7
:1054F0004572726F72004D494E54454D50204245E1
:1055000044206669786564004D494E54454D5020ED
:10551000484F54454E442066697865640070012CFC
:105520000190012701B0012201C0011D01F0011805
:10553000011002130130020E016002090190020401
:1055400001C002FF000003FA004003F5008003F0F1
:1055500000D003EB002004E6007004E100E004DC6E
:10556000004005D700C005D2004006CD00D006C8D7
:10557000008007C3003008BE00F008B900C009B4BD
:1055800000B00AAF00B00BAA00D00CA500000EA01E
:1055900000500F9B00C01096005012910000148C18
:1055A00000C0158700B0178200B0197D00D01B78AD
:1055B00000001E730040206E0090226900F02464F9
:1055C0000040275F0090295A00E02B5500102E5014
:1055D0000020304B0010324600E033410090353C53
:1055E000001037370070383200A0392D00B03A284B
:1055F00000A03B2300603C1E00103D1900903D14AC
:1056000000103E0F00703E0A00C03E0500003F0043
:105610000090137D00B0157800F0177300601A6ECB
:1056200000F01C6900A01F640050225F0020255A72
:1056300000E0275500902A5000202D4B00A02F4657
:1056400000F031410010343C00F0353700A0373213
:105650000020392D00603A2800703B2300603C1E7A
:1056600000203D1900C03D1400403E0F00A03E0A3E
:1056700000F03E0500403F0000703FFBFF903FF60A
:10568000FFB03FF1FFC03FECFFD03FE7FFE03FE25C
:10569000FFF03FDDFFF03FD8FF20484F54454E4418
:1056A00020544845524D414C2052554E4157415986
:1056B00000204845415442454420544845524D41FC
:1056C0004C2052554E4157415900544845524D4186
:1056D0004C2052554E4157415900424544205448B0
:1056E00045524D414C2052554E415741590020548E
:1056F0004845524D414C2052554E41574159202862
:10570000205052454845415420484F54454E442965
:105710000020544845524D414C2052554E4157416E
:10572000592028205052454845415420484541546D
:105730004245442900505245484541542045525263
:105740004F5200424544205052454845415420455F
:1057500052524F5200506C656173652072657374CC
:10576000617274004572723A204D494E54454D5055
:10577000003A204578747275646572207377697495
:1057800063686564206F66662E204D494E54454D12
:1057900050207472696767657265642021004572E4
:1057A000723A204D494E54454D50204245440054D4
:1057B000656D706572617475726520686561746588
:1057C0006420626564207377697463686564206F20
:1057D00066662E204D494E54454D502074726967BF
:1057E0006765726564202100746D63323133305F08
:1057F000686F6D655F656E74657228617865735F4B
:105800006D61736B3D307825303278290A00746DF4
:1058100063323133305F686F6D655F65786974201E
:10582000746D63323133305F73675F686F6D696EBB
:10583000675F617865735F6D61736B3D30782530AC
:1058400032780A0020003E003E0020003E003E006C
:1058500054656D70657261747572652063616C6901
:1058600062726174696F6E206661696C65642E2076
:10587000436F6E74696E7565207769746820707205
:10588000657373696E6720746865206B6E6F622E36
:105890000054656D70657261747572652063616C2A
:1058A0006962726174696F6E20646F6E652E204349
:1058B0006F6E74696E7565207769746820707265A3
:1058C0007373696E6720746865206B6E6F622E005B
:1058D00054656D70657261747572652063616C6981
:1058E00062726174696F6E206661696C65640054F0
:1058F000656D70657261747572652063616C696253
:10590000726174696F6E2069732066696E6973686D
:10591000656420616E64206163746976652E20542D
:10592000656D702E2063616C6962726174696F6E5F
:105930002063616E2062652064697361626C6564D6
:1059400020696E206D656E752053657474696E678D
:10595000732D3E54656D702E2063616C2E0049528C
:105960003A0046494E44413A0050494E44413A00BB
:1059700053656E736F72207374617465004578743B
:105980007275646572004D6F7665205A004D6F76B2
:10599000652059004D6F766520580020203000208A
:1059A00020310052657365740052656E616D65004B
:1059B0004669727374206C617965722063616C2E24
:1059C0000053656C65637400537465656C2073687F
:1059D0006565747300536865657400537570706F06
:1059E0007274004661696C207374617473204D4D4C
:1059F00055004661696C207374617473005374615F
:105A00007469737469637320200043616C69627206
:105A10006174696F6E004175746F4C6F61642066CC
:105A2000696C616D656E74004375742066696C61A4
:105A30006D656E7400456A6563742066696C616D9E
:105A4000656E7400556E6C6F61642066696C616D83
:105A5000656E74004C6F616420746F206E6F7A7A8B
:105A60006C65004C6F61642066696C616D656E7475
:105A7000004E6F2053442063617264005072696E5F
:105A8000742066726F6D20534400526573756D65A6
:105A9000207072696E740050617573652070726950
:105AA0006E7400526573756D65207072696E740056
:105AB000507265686561740054756E65004C697656
:105AC000652061646A757374205A00496E666F20A0
:105AD00073637265656E0046696E697368696E67A7
